:0A0000008031022888018031922827
:1000FA00FE0012001E00FE0B7E2800346400800100
:10010A000131890B84280034650803190800CA30B4
:10011A00A0008930A1008531232D503084000030A1
:10012A00850015308031832080310130E500ED30C3
:10013A00840080308500A0308600003087004E3071
:10014A0080317D208031B6308400803085002030B7
:10015A00860001308700373080317D2020008331CE
:10016A00012B0034003400340034003400340134EC
:10017A00003400340E3402340034003400340034C5
:10018A00003400340134003400340E3401340034B5
:10019A0000340034003400340034013400340034B4
:1001AA001034043400340034003400340034003491
:1001BA000134003400341034013400340034003483
:1001CA000034003400340134003400341034023472
:1001DA0041347F3400340C340C348C344234FF34D0
:1001EA0000340D340D348D344334FF3400340E346E
:1001FA000E348E344434FF3400340F340F348F34C9
:10020A004534FF3400341034103490340034003450
:10021A000034003400340034FF34FF34FF34FF3438
:10022A00FF34FF346A3418340034003400340D3497
:10023A0001340034FF34FF34FF34FF34FF34FF3419
:10024A006A3418340034003400340D342034003455
:10025A00FF34FF34FF34FF34FF34FF346A34183478
:10026A000034003400340D34023400344E30462158
:10027A00813100380319080020004E0863218131BA
:10028A003B29F0002000911E003458299E129E1628
:10029A001D121D1600347008860087011908810096
:1002AA009E129E16003423009D184B291D195029B1
:1002BA00700886008701190881000134CD002030BA
:1002CA004D02031C83297F304D0203188329133002
:1002DA00500203187D295008513E860087014D08B7
:1002EA008100D00A6508031908004D088531B92D27
:1002FA0065080319080007308531B92D4D080D3AF4
:10030A00031DA429650803198E290A308531B925E8
:10031A0081312000500803199A295008513E86005D
:10032A00513087018101B2218131D0016508031959
:10033A000800CA30A0008930A1008531232D4D085C
:10034A007F3A031D0800500803190800D003650806
:10035A00031908004D088531B92DCC006C22813172
:10036A007108CB007008CA00C801C9014B084A04C9
:10037A0003190E2A4A084C07C000FF3E860087016F
:10038A000108203A0319D2294A084C07C000FF3E47
:10039A0086000108093A031D0E2A4A084C07C000C4
:1003AA00FF3E8600013087018101CA020030CB3B43
:1003BA00BB294C08860087018101CC0AB32281310E
:1003CA000319DE294C0886000108093A0319DE29B7
:1003DA004C0886000108003A0319072A4808423ED9
:1003EA0086004C088100C80A0319C90A072AB322E1
:1003FA00813103190E2A4C0886000108093A0319AB
:10040A000E2ACC0A4C08860087010108003A031D0F
:10041A00FC294C08860087018108031DE32942084C
:10042A00802281317A08C7007908C600C71F362A98
:10043A00612A8A30A0008930A1008531232D9830A5
:10044A00A0008930A1008531232DFD30A00088301D
:10045A00A1008531232D6C30A0008930A10085319F
:10046A00232D0930F0004608853117258131F822FD
:10047A00C1004908B1004808B0004230B200410842
:10048A0087310027813120003108003A0319512AA7
:10049A00FF3A0319562A302A3008003A03196B2A00
:1004AA00302A3008FD3A03192A2A033A0319242A62
:1004BA00013A03191E2A302A8630A0008830A1008A
:1004CA004208A2000030A301853123250800F2006A
:1004DA00F300730886008701F30A8108031D6E2A58
:1004EA0072087302F000F101F01BF103FF30F0070C
:1004FA00031CF1030800FB00FC01FD010930F000B8
:10050A007C08853117258131F82281310038031999
:10051A00AF2A0B30F3008830F4000930F0007C0871
:10052A00853117258131F3070318F40A0830F500DD
:10053A00F6017B088531D425813174087304031DC3
:10054A00AB2A7D08FA007C08F9000800FC0A0319A6
:10055A00FD0A832AFF30F900FA0008004C088600D9
:10056A0087010108203A0800B301B4013108803A32
:10057A00FF0080307F02031DC42A02303002031CB0
:10058A00CB2AFF302000B000B1000800EC30200078
:10059A00A0008830A1008531232581310930F0007F
:1005AA003308853117258131F82281310038031942
:1005BA00F52AA930A0008930A1000930F0003308DB
:1005CA008531172581310B3EA20088300318890A2C
:1005DA00A300853123258131B30A0319B40AD32A2A
:1005EA00B001B1010800083E0B3E840088300318B0
:1005FA00013E850000080800873109278331CF00B2
:10060A00CF268331B1302000A0008830A1002325F5
:10061A008331210096181A2B2F302000A000893030
:10062A00A10023258331CF17282B1618212B0E3032
:10063A002000A0008930152B7B302000A0008930D3
:10064A00A1002325833121009614161420004F1C83
:10065A00342BD930A0008830A10023258331CF1C48
:10066A003B2BC630A0008830A10023258031892089
:10067A00833181313B2183313E2BBF013108803ADE
:10068A00FF0080307F02031D4C2B04303002031C14
:10069A00532BFF302000B000B100080020003008C2
:1006AA00033A3104031D4B2C3208792682316C221D
:1006BA0083317008023A7104031D4E2B7E2B0630DB
:1006CA00F0003F0817258331A03E86008701010804
:1006DA00203EB300003003180130B4003208013E56
:1006EA008600010886000108330634040319932B97
:1006FA00BF0A0630F0003F0817258331832683316D
:10070A000319932B3208013E86007326833117257D
:10071A008331A03E97268331031D642B0630F000F7
:10072A003F081725833183268331031DA12BFD3012
:10073A00B000FF30B100080032086C268331303037
:10074A00010232080318B32B013E86000108013E5C
:10075A0086003830010203189C2B32086C2683313C
:10076A000108D03EBE000630F0003F08172583314D
:10077A00A13E860001308701B3003E0AC52BB3357E
:10078A00890BC42B3308010503199C2BB430F300E1
:10079A0089302A268331D425833174087304031DD2
:1007AA00FC2B0630F0003F0817258331A53E0726AB
:1007BA0083319226833117258331A33E072683315D
:1007CA000105031DEC2BD030B8008930EF2BD23055
:1007DA00B8008930B9007030A000883014268331FF
:1007EA003908A7003808A60023258331132DC23003
:1007FA00F30089302A268331D4258331740873049F
:10080A00031D222C0630F0003F0817258331A43E31
:10081A008600870141268331922683311725833149
:10082A00A53E07268331FF3A81059C30A000883017
:10083A001426833123258331132DBE30F3008930EA
:10084A002A268331D425833174087304031D132D9A
:10085A000630F0003F0817258331A43E8600870141
:10086A0041268331FF3A81050630F0003F081725FB
:10087A008331A53E07268331FF3A81055730A00010
:10088A0088301426833123258331132D3008023A08
:10089A003104031D602CBA30F3008930F40014309F
:1008AA00F500F601320879268331D425833174089C
:1008BA007304031D4E2B0630F0003F0817258331C1
:1008CA00882683310319BA2C0630F0003F08172511
:1008DA008331652683311725A33E873180278331EB
:1008EA005F268331172583318D2683319C268331F8
:1008FA001F30A00089307E268331172583312026B8
:10090A008331232583315F26833117258331A43E22
:10091A0086008701010886000130870001089C26AD
:10092A0083315D30A00089307E26833117258331DB
:10093A0020268331232583315F268331172583318E
:10094A00A53E860087010108860001089C2683319E
:10095A003F30A00089307E26833117258331202637
:10096A00833123258331BF0A602C3008023A3104CF
:10097A00031D132D3830A0008830A10023258331B0
:10098A002000BF010630F0003F0817258331882672
:10099A00833103190C2D0630F0003F0817258331E7
:1009AA00A33E860087017326833117258331A23E31
:1009BA009726833103190A2D0630F0003F081725C0
:1009CA008331652683311725A33E873180278331FA
:1009DA003530F3000630F0003F08172583318D26A5
:1009EA0083319C2683314E30A00089307E268331A4
:1009FA0017258331A03E860087010108A200353001
:100A0A00A301A400A50123258331BF0AC72C3A30CC
:100A1A00813146218331003A0319C52C2000B001E7
:100A2A00B1010800F200F10170087218F107F035FF
:100A3A00F236F208031D192D710808002230AA00A7
:100A4A00200034268331AF0803190800253A031918
:100A5A00322D2F08B9258331252DA8015C2D4D266D
:100A6A0083312B04031D3D2DAD30AB008930AC0022
:100A7A002B0884002C088500000800380319252D4E
:100A8A002B0884002C0885000008B9258331200032
:100A9A00AB0A0319AC0A3D2D2A0886008701010812
:100AAA00AF00AA0AAA0A2F08B9258331252D3426B0
:100ABA008331003A0319B82D633A0319512D073AC5
:100ACA0003196E2D0D3A03196E2D1A3A0319342D96
:100ADA00582D4D268331AC1F792D0330A804AB095C
:100AEA00AC09AB0A0319AC0AAF01AF0A2F35572676
:100AFA008331FC00013FFD002C02031D862D7C087A
:100B0A002B02031C8D2DAF0A2F08053A031D7B2DDE
:100B1A00280803390319942D2D30B9258331200073
:100B2A002F08A900B32D0A30F700F80129355726F6
:100B3A008331F000013FF1002C08F3002B08F2008A
:100B4A008731D92783317108FA007008F900E02645
:100B5A0083317708303EAF00B92583312000A903DD
:100B6A00290F982D252D0800F1002000111ACB2DF0
:100B7A0023009D1CC42D9E129E161D121D161D1D9E
:100B8A00C92D19089E129E166400BA2D71082300F9
:100B9A009A00C730F000F00BD02DD32D0800F800D2
:100BAA000130F5020030F63B750A0319760A03197B
:100BBA00042E7808860087010108003A0319F12DEE
:100BCA0073088400740885000008F7007808860016
:100BDA00010877060319FF2D780886008701730834
:100BEA0084007408850000080102F300F401031C64
:100BFA00F4030800F80AF30A0319F40AD52DF301DD
:100C0A00F401080086008701010886000130B3005C
:100C1A003E0A102EB335890B0F2E33080800A100A7
:100C2A003F08413EA200003003180130A3003E08ED
:100C3A00A400A5010800A03E860087010108A200C1
:100C4A003B30A301A400A5010800F4001430F5000C
:100C5A00F6013208023E86008701010808002108D1
:100C6A00FD002008FC00A00A0319A10A84007D08DF
:100C7A0085000008AF0008000108860001308700DF
:100C8A00B3003E0A492EB335890B482E33080800B3
:100C9A002A0886008701403FAB00413FAC00AA0A00
:100CAA00AA0A0800013E840088300318013E850024
:100CBA00003F08003B30F3000630F0003F08080010
:100CCA00A23E860006308701F0003F080800013E78
:100CDA00860087010108013E860008000108860097
:100CEA000630F0003F080800013E8600870101082F
:100CFA000800A1000630F0003F080800A03E860068
:100D0A00870181080800A33E860087018108080040
:100D1A00A23E860087010108080081040630F0001F
:100D2A003F08080084008501000801060800F80051
:100D3A00780E0F39C8268331F400031CA62E3730EB
:100D4A00A72E3030F501F4070318F50A7308860058
:100D5A008701740881007808C8268331F600031CCD
:100D6A00B82E3730B92E3030F701F6070318F70AD4
:100D7A007308013E86008701760881007308023EE7
:100D8A00860081010800F9000F30F9050A3079025E
:100D9A00790808000C3023009B001E151E129D17AF
:100DAA001D169D1221001112911223001E131D13EC
:100DBA009E129E160800780877040319FB2EFB0181
:100DCA00FB0AF81BEB2EF735F80DE52E78087A02A8
:100DDA00031DF12E77087902031CF72E7708F90212
:100DEA007808FA3BF836F70CFB0BEB2E7A08F8007A
:100DFA007908F700080087318207022F8331422BD6
:100E0A008231B92A8731872F2100133095138C003C
:100E1A0020008C01073021009E0023008C01FB304A
:100E2A0021008D0020008D0123008D01FF30240058
:100E3A008D001030270094009500960198300B1011
:100E4A008B1521008E0020008E0121008F010130B8
:100E5A0020008F0023008F012100900120009001C3
:100E6A0023009001240090018230F400DD30F30069
:100E7A00F30B3D2FF40B3D2F422F8230F400DD306F
:100E8A00F300F30B462FF40B462F4B2FF6010E30CF
:100E9A00F0007608853117258731D03E8600870114
:100EAA000108F5000E30F0007608853117258731E4
:100EBA00CE3E86000E308701F00076088531172570
:100ECA008731CF3E80270E30F0007608853117250E
:100EDA008731CE3E86008701750881050330F60A00
:100EEA007602031C4C2FF60120000D1C76148D1E71
:100EFA00F6147608080084008501000884000008BA
:100F0A00810008003108803AFF0080307F02031D0B
:100F1A00902F03303002031C972FFF302000B000BF
:100F2A00B100080020003008023A3104031DB72F2F
:100F3A00CD30F3008930CF278531D4258731740825
:100F4A007304031DAB2FE501E50AB72FC630F30082
:100F5A008930CF278531D425873174087304031D5E
:100F6A00922FE501E508031DBE2FC630B300893074
:100F7A00C12FCD30B3008930B400A330A00089302E
:100F8A00A1003408A3003308A20085312325B0014B
:100F9A00B1010800F4001430F500F6013208013EF0
:100FAA008600870101080800F401F5017108700440
:100FBA000319F92FF601F60AF11BE62FF035F10DA8
:100FCA00E02FF435F50D71087302031DEE2F70083A
:100FDA007202031CF52F7008F2027108F33B7414B5
:100FEA00F136F00CF60BE62F7508F1007408F000E4
:020FFA000800ED
:101000000034013400340A34003464340034E834E9
:101010000334103427343F340034003400340034B7
:101020000034003400340334683465346C34703474
:1010300000340034003400340334653463346834DD
:101040006F340034003400340034053467347034B5
:1010500069346F3400340034003400340134003417
:1010600000340034003400340034003400340034E0
:1010700050347234653473347334203461346E34D4
:10108000793420346B3465347934203474346F34DB
:101090002034653478346934743420346C346F34DB
:1010A0006734673469346E3467340A34003450343A
:1010B0006F34723474342034253463342C34203447
:1010C000703469346E34203425346434203463340D
:1010D0006C34653461347234653464340A340034F9
:1010E00050346F34723474342034253463342C34E7
:1010F0002034703469346E34203425346434203420
:101100003D342034253473340A34003455346E347D
:101110006B346E346F3477346E34203463346F3410
:101120006D346D3461346E346434203427342534A6
:10113000733427340A34003450346F3472347434C6
:101140002034253463342C342034703469346E34C4
:1011500020342534643420347334653474340A34D0
:1011600000340A342A342A342A34203449342F34BF
:101170004F342034543465347334743465347234E9
:1011800020342A342A342A340A340034533465345F
:101190007434753470342034623475347434743477
:1011A0006F346E342034683465346C3464340A34FB
:1011B00000345334743461347234743420346234FF
:1011C0007534743474346F346E3420346834653458
:1011D0006C3464340A3400344B346E346F347734F6
:1011E0006E34203463346F346D346D3461346E3456
:1011F000643473343A340A34003450346134723411
:1012000061346D346534743465347234203465343B
:10121000723472346F3472340A34003442347234AB
:101220006F3477346E342D346F3475347434203425
:10123000723465347334653474340A340034503491
:101240004F34523454342534633420343D34203404
:1012500030347834253473342C3420340034503412
:101260006F347734653472342D346F346E342034F7
:10127000723465347334653474340A34003454344D
:101280005234493453342534633420343D342034CB
:1012900030347834253473340A34003450344F34C5
:1012A000523454342534633420343D3420343034C3
:1012B0007834253473340A3400344C344134543493
:1012C0002534633420343D342034303478342534AC
:1012D00073342C342034003455346E346B346E3413
:1012E0006F3477346E3420346534723472346F3432
:1012F00072340A34003455346E346B346E346F34C7
:1013000077346E3420347234653473346534743415
:101310000A340034533479346E347434613478349C
:1013200020346534723472346F3472340A340034C9
:1013300049342F344F3420346534723472346F346E
:1013400072340A3400344534633468346F343A34C8
:101350002034253473340A34003428346E34753420
:101360006C346C342934003469346E347034753420
:10137000743400346C346F346734003463346C3448
:101380007234003473346534743400346F3466342A
:10139000663400342334203400346F346E34003427
:0813A000303400343134003414
:020000040001F9
:04000E00E1C9FFDA6B
:00000001FF
