:100000000A128A1112280800FF000308831603133E
:10001000D0000408D1000A08D2007E08D3000A16D6
:100020008A116F2C0A128A15012883120313BE004D
:100030003E08290603191D281E284F2B5A2B031092
:10004000003003180130A9000310003003180130FC
:10005000BB0000300A168A11F0210A128A110A30F8
:100060007A02031C34283528432803100030031873
:10007000013083120313BB0000300A168A11DD2100
:100080000A128A11782A83120313BB010314BB0DD1
:1000900055300A168A11DD210A128A11782A0310B6
:1000A000003003180130A4000310003003180130A1
:1000B000F70001300A168A1135240A128A1103103A
:1000C000003003180130F70002300A168A11352477
:1000D0000A128A110310003003180130F7000330B0
:1000E0000A168A1135240A128A11031000300318E7
:1000F0000130F70004300A168A1135240A128A11D9
:10010000031000300318013083120313BB000030CA
:100110000A168A1103220A128A115A2BF7010314B4
:10012000F70D01300A168A1135240A128A110310BC
:10013000003003180130F70002300A168A11352406
:100140000A128A110310003003180130F70003303F
:100150000A168A1135240A128A1103100030031876
:100160000130F70004300A168A1135240A128A1168
:10017000031000300318013083120313BB0000305A
:100180000A168A1103220A128A115A2B0310003010
:1001900003180130F70001300A168A1135240A12BB
:1001A0008A11F7010314F70D02300A168A1135245B
:1001B0000A128A110310003003180130F7000330CF
:1001C0000A168A1135240A128A1103100030031806
:1001D0000130F70004300A168A1135240A128A11F8
:1001E000031000300318013083120313BB000030EA
:1001F0000A168A1103220A128A115A2B03100030A0
:1002000003180130F70001300A168A1135240A124A
:100210008A110310003003180130F70002300A166B
:100220008A1135240A128A11F7010314F70D0330DD
:100230000A168A1135240A128A1103100030031895
:100240000130F70004300A168A1135240A128A1187
:10025000031000300318013083120313BB00003079
:100260000A168A1103220A128A115A2B031000302F
:1002700003180130F70001300A168A1135240A12DA
:100280008A110310003003180130F70002300A16FB
:100290008A1135240A128A11031000300318013024
:1002A000F70003300A168A1135240A128A11F70161
:1002B0000314F70D04300A168A1135240A128A1124
:1002C000031000300318013083120313BB00003009
:1002D0000A168A1103220A128A115A2BF7010314F3
:1002E000F70D01300A168A1135240A128A110310FB
:1002F000003003180130F70002300A168A11352445
:100300000A128A110310003003180130F70003307D
:100310000A168A1135240A128A11031000300318B4
:100320000130F70004300A168A1135240A128A11A6
:1003300083120313BB010314BB0DFF300A168A118D
:1003400003220A128A115A2BF7010314F70D013008
:100350000A168A1135240A128A11F7010314F70DBF
:1003600002300A168A1135240A128A11031000304D
:1003700003180130F70003300A168A1135240A12D7
:100380008A110310003003180130F70004300A16F8
:100390008A1135240A128A1183120313BB01031434
:1003A000BB0DFF300A168A1103220A128A115A2B3A
:1003B000F7010314F70D01300A168A1135240A12C9
:1003C0008A110310003003180130F70002300A16BA
:1003D0008A1135240A128A11F7010314F70D03302C
:1003E0000A168A1135240A128A11031000300318E4
:1003F0000130F70004300A168A1135240A128A11D6
:1004000083120313BB010314BB0DFF300A168A11BC
:1004100003220A128A115A2BF7010314F70D013037
:100420000A168A1135240A128A11031000300318A3
:100430000130F70002300A168A1135240A128A1197
:100440000310003003180130F70003300A168A1138
:1004500035240A128A11F7010314F70D04300A1625
:100460008A1135240A128A1183120313BB01031463
:10047000BB0DFF300A168A1103220A128A115A2B69
:100480000310003003180130F70001300A168A11FA
:1004900035240A128A110310003003180130F700C6
:1004A00002300A168A1135240A128A11031000300C
:1004B00003180130F70003300A168A1135240A1296
:1004C0008A110310003003180130F70004300A16B7
:1004D0008A1135240A128A1183120313BB010314F3
:1004E000BB0DFF300A168A1103220A128A115A2BF9
:1004F000831203132408003A03195428013A0319FC
:100500008E28033A0319C628013A0319FE28073A30
:1005100003193629013A03196E29033A0319A4294C
:10052000013A0319D8290F3A03190C2A013A031981
:10053000402A4F280310003003180130BB00003060
:100540000A168A11F0210A128A1183120313BB01C1
:100550000314BB0DFF300A168A11DD210A128A111D
:100560000A307A02003003180130F70001300A1611
:100570008A1135240A128A1119307A0200300318C0
:100580000130F70002300A168A1135240A128A1146
:1005900032307A02003003180130F70003300A16B7
:1005A0008A1135240A128A114B307A02003003185E
:1005B0000130F70004300A168A1135240A128A1114
:1005C00064307A02031CE52AE62AF22A8312031316
:1005D000BB010314BB0DFF300A168A1103220A1255
:1005E0008A115A2B031000300318013083120313B1
:1005F000BB0000300A168A1103220A128A115A2BF4
:10060000BB010314BB0D55300A168A11F0210A12E2
:100610008A11031000300318013083120313BB004A
:1006200000300A168A11DD210A128A11831203137F
:100630002B08013A003003190130F70001300A1687
:100640008A1135240A128A11831203132B08023AE5
:10065000003003190130F70002300A168A113524E0
:100660000A128A11831203132B08033A003003196C
:100670000130F70003300A168A1135240A128A1154
:10068000831203132B08043A003003190130F700DA
:1006900004300A168A1135240A128A115A2B2908A5
:1006A000003A03192428013A03199A2A033A031934
:1006B000002B1F28080000341234063401340234A1
:1006C00000340234013400340834A13433340234A9
:1006D000003400340834DD3446340134013400344D
:1006E000083439341834013402340034023401340B
:1006F00000340834853416340234023400340834AB
:100700001434023402340034003408347634623451
:100710000234023400340834AF3429340234013452
:1007200000340834CA341934023402340034083432
:100730003434433402340134003408349F343134C7
:1007400002340034003408345D341234023401348D
:1007500000340834C3342B340234023400340834F7
:1007600014340234023400340034083476346234F1
:100770000234023400340834AF34293402340134F2
:1007800000340834C93419340234023400340834D3
:10079000AD344E34013401340034023401340034B9
:1007A0000834093455340234023400340834A43493
:1007B00003340234003400341034B83400340834C4
:1007C0004C342F3401340234003402340134003408
:1007D0000834C0340C340234023400340834143485
:1007E000023402340034003408348E345E3402346F
:1007F0000234003408344B342934023401340034D8
:100800000834CA3419340234023400340334013455
:1008100000340834F53442340134013400340234F5
:100820000034003408345034493402340134003484
:1008300008347634623402340234003408346C34C0
:1008400004340234003400340934013400340334F5
:100850000034003408345E34F83405340134003494
:100860000834763462340534003400340834FF34FC
:10087000FF340834C73427340534013400340834D5
:100880007634623405340034003408340A342034B9
:1008900005340134003408347634623405340034CD
:1008A000003408340A342034053401340034083468
:1008B000FF34FF340834513400340534003400343C
:1008C00003340134003408347A34D8340134023427
:1008D0000034043401340034083429340A34043434
:1008E000003400340134013400340934013400345C
:1008F0000334003400340834E234AB3405340134BA
:10090000003408347634623405340034003408345A
:10091000FF34FF340834C73427340534013400343D
:1009200008348E345E3405340034003408340A341C
:10093000203405340134003408348E345E340534F8
:100940000034003408340A342034053401340034CF
:100950000834FF34FF340834C734273405340034F6
:10096000003403340134003408349E3463340234D8
:10097000013400340834D5345234023402340034A3
:1009800001340034003404340134003408346C344D
:10099000043402340034003408346C342534043414
:1009A000003400340134023400340834D1341434B7
:1009B0000134013400340834BA34D83409340134F1
:1009C00000340334003400340834C334983405341C
:1009D000013400340134023400340834FF34FF346D
:1009E00008347134003401340134003408345B3489
:1009F0002734013400340034043401340034083422
:100A00004A342634013401340034043400340034D0
:100A10000834B6346234013402340034063401340C
:100A2000003408342C348A3401340134003408345E
:100A3000D934D8340134023400340834CD34893404
:100A40000534003400340834C4340634013401342D
:100A500000340834DA34D834013402340034083431
:100A6000ED3489340134013400340834DA34D834B4
:100A70000134023400340834ED3489340134013453
:100A8000003408346334B13401340234003408349F
:100A90004C348A340234023400340834FC342634B2
:100AA000023400340034013400340034043401349E
:100AB0000034083429340A34013402340034043454
:100AC0000034003408341034153402340134003456
:100AD00008343F3428340234003400340834AD3450
:100AE000893401340134003408346334B1340134BE
:100AF000023400340834ED348934013401340034D4
:100B000008346334B13401340234003408344C34D2
:100B10008A3402340234003408348C3428340234E9
:100B2000003400340134003400340434013400341F
:100B3000083429340A3401340234003404340034D3
:100B400000340834283411340234013400340834B9
:100B500033342A340234003400340834AD34893458
:100B60000134013400340834ED3489340134023462
:100B700000340834ED34893401340134003408344D
:100B8000EC34893401340234003408344C348A346F
:100B90000234023400340834EF342C34023400348C
:100BA0000034083479340834023401340034083411
:100BB000B7342D3402340034003408342334B134D3
:100BC0000134013400340834ED3489340134023402
:100BD000003408346334B13401340134003408344F
:100BE000ED34893401340234003408346334B134D0
:100BF0000134013400340834EC34893401340234D3
:100C0000003408346334B13401340134003408341E
:100C10004C348A3402340234003408342C34013425
:100C20000234003400340834AB342F34023402343C
:100C3000003408342C3401340234003400340834D5
:100C4000AB342F3402340234003408342C340134F1
:100C50000234003400340834DB34273402340234E4
:100C6000003408342C3401340234003400340834A5
:100C7000DA3427340234023400340834D2342334D2
:100C800002340134003408344A3419340234023452
:100C9000003408345C344734023401340034013405
:100CA00000340034083410340B340234003400347F
:100CB000FE34003400340A168A118F200A128A1179
:100CC000003A0319642E652E8E2FE92F0A168A1119
:100CD00082200A128A110130F70077088312031369
:100CE000B207E92F0310003003180130BC00503068
:100CF0000A168A11D2200A128A116B2E00300A16A7
:100D00008A11A5200A128A116B2EBC010314BC0D96
:100D100050300A168A11D2200A128A116B2E003026
:100D20000A168A1163200A128A116B2E0A128A117E
:100D3000FE270A128A1183160313A0000A168A11CD
:100D400071200A128A110310003003180130831237
:100D50000313B200E92F0310003003180130BC0068
:100D600050300A168A11D2200A128A116B2E0030D6
:100D70000A168A11A5200A128A116B2E83160313F4
:100D800020080A168A11A5200A128A116B2E0A164B
:100D90008A1164200A128A110038031DD02ED12E28
:100DA000D72E4E300A168A1146230A128A110A16C5
:100DB0008A1171200A128A116B2E03100030031859
:100DC0000130BC0050300A168A11D2200A128A1152
:100DD0006B2E01300A168A11A5200A128A116B2E79
:100DE0000A168A116C200A128A116B2EBC01031498
:100DF000BC0D50300A168A11D2200A128A116B2EAD
:100E000000300A168A1163200A128A116B2E0A1208
:100E10008A11FE270A128A1183120313AD000310F0
:100E2000003003180130AC002C082D020318192FD4
:100E30001A2F2D2F2D08FF3EF700FF30031800302A
:100E4000F8002C08770678040030031901300A16E0
:100E50008A1163200A128A116B2E0A30B200E92F20
:100E60000A128A11FE270A128A11F700831203134D
:100E70002C08A03E84007708831380000130F7001F
:100E80007708AC070130B202E92F031000300318D5
:100E90000130BC0050300A168A11D2200A128A1181
:100EA0006B2E01300A168A11A5200A128A116B2EA8
:100EB0002D080A168A11A5200A128A110310003083
:100EC0000318013083120313AC006B2E2D082C0283
:100ED00003186B2F6C2F6B2E2C08A03E84008313FD
:100EE00000080A168A11A5200A128A110130F7009B
:100EF000770883120313AC07E92F0A168A116420BE
:100F00000A128A110038031D862F872F9E2E4E301D
:100F10000A168A1146230A128A119E2E831203137F
:100F20003208003A0319E92F013A0319662E033AF1
:100F30000319722E013A03197E2E073A0319852EE2
:100F4000013A03198F2E033A0319962E013A031919
:100F5000662E0F3A0319AB2E013A0319B72E033A46
:100F60000319BE2E013A0319C72E073A0319A32EFF
:100F7000013A0319662E033A0319DD2E013A0319CB
:100F8000E92E1F3A0319F02E013A0319F62E033AFF
:100F90000319002F013A0319072F073A0319142FD9
:100FA000013A0319302F033A03199E2E013A03190F
:100FB000662E0F3A0319452F013A0319512F033AB0
:100FC0000319582F013A0319662F073A03197D2F89
:100FD000E92F080038308312031394000310003007
:100FE0000318013083160313910002309300141785
:100FF0009417831203138C138D110800003008001E
:101000000800F001F101F201F301F401F50183138D
:10101000203084003B300A168A119D200A128A155E
:10102000A0308400B4300A168A119D200A128A1555
:101030000A168A1161200A128A15FA006730FD002B
:101040001130FE002430FF00553084000A168A114A
:101050006E210A128A15C630FD001130FE003630AE
:10106000FF00B43084000A168A116E210A128A1514
:101070008317C830FD001330FE00FD30FF009030B4
:1010800084000A168A116E210A128A154730FD0063
:101090001330FE00C630FF00103084000A168A119B
:1010A0006E210A128A1583010A168A11942D831261
:1010B0000313D208031D5D285E289128F1145530D2
:1010C00083160313C6008030C7000030CB00053004
:1010D000CA00B830C900D830C8000A128A155B218E
:1010E0000A128A15711D752876287728F017701B4B
:1010F0007A287B2887280310003003180130F80075
:1011000001300A168A11E1200A128A15D828F8013E
:101110000314F80D55300A168A11C3200A128A15D5
:10112000D828F110F01B95289628AA28701F992816
:101130009A28A428F8010314F80DFF300A168A1122
:10114000C3200A128A15D8280A168A110D270A12F6
:101150008A15D8287119AD28AE28D828553083169D
:101160000313C6008030C7000A128A157B220A12B8
:101170008A15003A0319BD28BE28C4280A168A1108
:1011800063220A128A15D728701FC728C828D228B8
:10119000F8010314F80DFF300A168A11C3200A1251
:1011A0008A15D7280A168A11BC220A128A15F0134A
:1011B000080083120313D208031DDF28E028132937
:1011C0007115553083160313C6008030C7000030F8
:1011D000CB000530CA00B830C900D830C8000A12A8
:1011E0008A155B210A128A15F11CF728F828F928BC
:1011F000F017701BFC28FD28092903100030031884
:101200000130F80001300A168A11E1200A128A150D
:101210005A29F8010314F80D55300A168A11C32013
:101220000A128A155A297111F01B172918292C291D
:10123000701F1B291C292629F8010314F80DFF3003
:101240000A168A11C3200A128A155A290A168A1107
:101250009D210A128A155A29F1182F2930295A2955
:10126000553083160313C6008030C7000A128A1552
:101270007B220A128A15003A03193F294029462980
:101280000A168A1163220A128A155929701F4929E0
:101290004A295429F8010314F80DFF300A168A115F
:1012A000C3200A128A1559290A168A11BC220A1269
:1012B0008A15F013080083160313470883120313DB
:1012C000D001D00783160313460883120313CF01FE
:1012D000CF0783160313470883120313BF01BF0709
:1012E00083160313460883120313BE01BE070A16B2
:1012F0008A1144250A128A15831603134B084A04DF
:1013000049044804031D852986298729E929831270
:1013100003134F0884008317501C83130008CB006D
:10132000840A0008CC00840A0008CD00840A000862
:10133000CE004F0884008317501C831383160313B9
:1013400048088007840A49080318013E031D8007E6
:10135000840A4A080318013E031D8007840A4B08CB
:101360000318013E8007831203134F08840083177C
:10137000501C83130008C700840A0008C800840AB0
:101380000008C900840A0008CA004A084E02031D6A
:10139000D32949084D02031DD32948084C02031DD7
:1013A000D32947084B02031CD629D729E9294F081E
:1013B000043EC70050080318013E003EC80047081D
:1013C00084008317481C831301308007840A0318A4
:1013D000800A0800113083160313850003100030C3
:1013E000031801308312031385000730831603139B
:1013F0009F00831203138514FB30831603138600AA
:101400000310003003180130831203138600831683
:1014100003138113831203130B108B150615070892
:10142000D8388316031387000310003003180130E7
:101430008312031387000310003003180130831652
:101440000313880001308312031388000310003057
:1014500003180130831603138900031000300318AA
:1014600001308312031389000608B1000310003015
:1014700003180130C7000E30C50047080A168A114C
:1014800048220A128A150C3E903E840083170008F9
:1014900083120313C6000E30C50047080A168A11CE
:1014A00048220A128A150B3E903E840083170008DA
:1014B000840083130008831203134605F8000E30DE
:1014C000C50047080A168A1148220A128A150A3EE0
:1014D000903E84007808831780000130F800780877
:1014E00083120313C70704304702031C782A792AA2
:1014F0003B2A003008004C3083120313BE008030BA
:10150000BF000A168A1144250A128A15831603138E
:101510004608023E83120313C600831603134708CE
:101520000318013E003E83120313C70046088400DF
:101530008317471C83130008C800840A0008C900E9
:10154000840A0008CA00840A0008CB0002304C3E1E
:101550008400480883130006840F031DBB2A490832
:101560000006840F031DBB2A4A080006840F031DD2
:10157000BB2A4B080006031DBE2ABF2ADC2A83169D
:101580000313460884008317471C83130008831243
:101590000313C600013084070008C70047084D0246
:1015A000031DD42A46084C02031CD72AD82ADA2A5B
:1015B00001300F2B00300F2B831603134608023E19
:1015C00083120313C6008316031347080318013E52
:1015D000003E83120313C700460884008317471C8C
:1015E00083130008C800840A0008C900840A0008A0
:1015F000CA00840A0008CB0051084B02031D0A2BC5
:1016000050084A02031D0A2B4F084902031D0A2BEA
:101610004E08480203180D2B0E2BDA2AD82A080090
:101620008316031311081F3983120313C000C1016D
:101630000310831603131419031400300318013028
:10164000831203134004C2004108C300430842044C
:1016500003192B2B2C2B9D2BC62B31300A168A11EC
:1016600046230A128A1583160313111401308312BC
:10167000C0004008AF07C62B03100030031801302C
:1016800083120313AF00C62B32300A168A11462389
:101690000A128A15831603139114362B33300A1657
:1016A0008A1146230A128A1583120313280893000D
:1016B000362B701483160313111F5F2B70103C2BF5
:1016C00034300A168A1146230A128A158316031328
:1016D0009115362B35300A168A1146230A128A15BF
:1016E000831203131308A800362B36300A168A110A
:1016F00046230A128A150130F7000030F800701CEA
:10170000822B832B872B0030F7000030F8007718EE
:101710008A2B8E2B831603139116912B831603139A
:1017200091121116362B37300A168A1146230A12E7
:101730008A15831603131115362B2F08003A031947
:10174000C62B013A03192D2B033A03193C2B013AFE
:101750000319442B073A03193C2B013A03194E2B6A
:10176000033A0319592B013A0319602B0F3A031955
:101770006A2B013A0319752B033A03193C2B013AE2
:101780000319932B073A03193C2BC62B08002A2D6B
:10179000FF30740583120313D10000307505D200A9
:1017A000003052021330031951020318D82BD92BE1
:1017B000F32B7208031DDD2BE12BF518E02BE12B39
:1017C000EA2BF208031DE52BE62BF32B751DE92B05
:1017D000EA2BF32B013083120313D1005108A50724
:1017E0000230A602532D0310003003180130A6006A
:1017F000532D74080A168A11FF220A128A15013025
:1018000083120313D1005108A5070230A602532DFD
:1018100074080A168A11DD220A128A15FF2BF208B3
:10182000031D132C142CFF2B74080A168A11122185
:101830000A128A15743084000008840A000403190F
:10184000222C232C372C613083160313C6008030E2
:10185000C7000130CB000130CA007D30C900F8302C
:10186000C8000A128A155B210A128A15FF2B613003
:1018700083120313C8008030C9000A168A1121237D
:101880000A128A15FF2BF208031D472C482CFF2B48
:1018900074080A168A11CD210A128A15FF2BF20844
:1018A000031D532C542CFF2B74080A168A11AD21EA
:1018B0000A128A15743084000008840A000403198F
:1018C000622C632C772C5B3083160313C6008030A8
:1018D000C7000030CB002F30CA00AF30C90008303D
:1018E000C8000A128A155B210A128A15FF2B5B3089
:1018F00083120313C8008030C9000A168A112123FD
:101900000A128A15FF2BF208031D872C882CFF2B47
:1019100074080A168A11F0200A128A15FF2BC030AB
:1019200083160313C6008030C700740883120313A4
:10193000BF007508C000C101C2010030C600003000
:10194000C5000030C4007D30C3000A168A11AD24E2
:101950000A128A1583138312031342088316031392
:10196000CB0083120313410883160313CA008312AA
:101970000313400883160313C900831203133F089F
:1019800083160313C8000A128A155B210A128A15EE
:10199000013083120313D1005108A607532DF2081A
:1019A000031DD32CD42CEA2BC82C7208031DD92C70
:1019B000FF2B7408013E83120313D1005108A507C1
:1019C000052CF208031DE52CE62CFF2BD92CF20880
:1019D000031DEB2CEC2CFF2BBA3083160313C6002F
:1019E0008030C7007408C8007508C900CA01CB015F
:1019F0000A128A155B210A128A1501300A168A1109
:101A0000CD210A128A15FF2B613083120313C800FF
:101A10008030C9000A168A1121230A128A155B3008
:101A200083120313C8008030C9000A168A112123CB
:101A30000A128A15031000300318013083120313B1
:101A4000A500F32B03100030031801308312031399
:101A5000A500532D7308003A0319C82B013A031946
:101A6000F92B033A0319082C013A03190F2C073AF2
:101A70000319432C013A03194F2C033A0319832C01
:101A80000E3A03198F2C013A0319CF2C193A031976
:101A9000D52C013A0319E12C033A0319E72CEC3A4F
:101AA0000319042D222D0800AE3083160313C6003F
:101AB0008030C7000A128A157B220A128A15003A62
:101AC0000319632D642DBA2DAE3083160313C6009F
:101AD0008030C7000030CB000030CA003030C90071
:101AE000D430C8000A128A155B210A128A15F1192E
:101AF0007A2D7B2D912D8316031385146330831269
:101B00000313D300D30B822D852D831203130608F4
:101B10000839BA00FD30D300530883160313850536
:101B2000962D8312031306080839BA0083123A0867
:101B3000300603199C2D9D2DBA2DAC30831603134E
:101B4000C6008130C700B230840083170008C80087
:101B5000840A0008C900840A0008CA00840A000830
:101B6000CB000A128A155B210A128A15831203130D
:101B70003A08B00083120313060883160313CD003E
:101B80004D0883120313310683160313CF004D084B
:101B900083120313B100831603134F1CD02DD12DD4
:101BA000E82D9030C6008130C7009630840083173E
:101BB0000008C800840A0008C900840A0008CA0096
:101BC000840A0008CB000A128A155B210A128A15C2
:101BD00083160313CF1EED2DEE2D052E9E30C6006D
:101BE0008130C700A430840083170008C800840A2D
:101BF0000008C900840A0008CA00840A0008CB0053
:101C00000A128A155B210A128A1583160313CF1C48
:101C10000A2E0B2E222EBA30C6008130C700C030EB
:101C2000840083170008C800840A0008C900840AD9
:101C30000008CA00840A0008CB000A128A155B213A
:101C40000A128A150310003003180130831603139B
:101C5000CF000E3083120313C500831603134F0801
:101C60000A168A1148220A128A15903E8316031317
:101C7000C6008130C7000A128A157B220A128A1513
:101C8000003A0319442E452ED22E0E308312031330
:101C9000C500831603134F080A168A1148220A1238
:101CA0008A150B3E903E840083170008840083133E
:101CB000000883160313CE000E3083120313C500F1
:101CC000831603134F080A168A1148220A128A152E
:101CD0000C3E903E84008317000883120313D30048
:101CE000530883160313CE050E3083120313C50069
:101CF000831603134F080A168A1148220A128A15FE
:101D00000A3E903E840083170008831603134E0694
:101D100003198B2E8C2EBC2E4E0883120313D20077
:101D20000E30C500831603134F080A168A11482285
:101D30000A128A150D3E903E8400831700080A1689
:101D40008A1100210A128A15831603134E08831282
:101D50000313D3000E30C500831603134F080A1671
:101D60008A1148220A128A150A3E903E8400831284
:101D700003135308831780000E308312C5008316A7
:101D800003134F080A168A1148220A128A15903E38
:101D900083120313C8008130C9000A168A11212357
:101DA0000A128A15013083120313D30053088316D5
:101DB0000313CF0704304F02031CDF2EE02E292E21
:101DC0000310003003180130CF000B3083120313CF
:101DD000C500831603134F080A168A1148220A12F7
:101DE0008A15103E83160313C6008130C7000A12FD
:101DF0008A157B220A128A15003A0319002F012F37
:101E0000F12F0B3083120313C500831603134F0801
:101E10000A168A1148220A128A15063E103E8400CC
:101E20008317000883160313CC000B3083120313AF
:101E3000C500831603134F080A168A1148220A1296
:101E40008A15103E83160313C6008130C700003088
:101E5000CB000030CA003D30C9000930C8000A126A
:101E60008A155B210A128A150B3083120313C500F1
:101E7000831603134F080A168A1148220A128A157C
:101E8000073E103E840083170008831603134C0599
:101E900003194B2F4C2F762F0B3083120313C500E1
:101EA000831603134F080A168A1148220A128A154C
:101EB0000A3E103E84008317000883120313D300E8
:101EC0000B30C500831603134F080A168A114822E7
:101ED0000A128A15093E103E840083170008840008
:101EE000831203135308831380049F2F0B30831234
:101EF0000313C500831603134F080A168A114822DC
:101F00000A128A150A3E103E8400831700098312C4
:101F10000313D3000B30C500831603134F080A16B2
:101F20008A1148220A128A15093E103E840083173E
:101F300000088400831203135308831380050B30B9
:101F4000C500831603134F080A168A1148220A1285
:101F50008A15063E103E840003108317800D80080A
:101F6000031DB32FB42FF12F0B3083120313C500C1
:101F7000831603134F080A168A1148220A128A157B
:101F8000063E103E8400831780010314800D0B3041
:101F900083120313C500831603134F080A168A1110
:101FA00048220A128A15083E103E840083178008D2
:101FB000031DDB2FDC2FF12F03100B3083120313D3
:101FC000C500831603134F080A168A1148220A1205
:101FD0008A15073E103E8400003003180130831735
:101FE0008000013083120313D300530883160313B8
:101FF000CF0705304F02031CFE2FFF2FE52E0800F0
:10200000FE00FE1F082883137E18831700080800AF
:062010008A0004088200B2
:1020BC00080008000800643408000800003070189C
:1020CC000130080083120313260808000330831222
:1020DC000313AF0008000B3083120313AF0008008A
:1020EC00F600760883120313A70008000030831251
:1020FC000313BA1D0130080083120313AF0103143C
:10210C00AF0D0800831203130608E7000B178B179B
:10211C000800003083120313AF08031D01300800C0
:10212C00003083120313B208031D01300800640051
:10213C008001840A04060319003404069E28F60064
:10214C00760883120313A8000530AF000800F600D0
:10215C00760883160313A000073083120313B20012
:10216C000800831203139010901610169011101182
:10217C001014831603130C140800F70083120317B2
:10218C00AC010314AC0D7708F6007608AD007808A6
:10219C00F6007608AE00080083120313BB003B0860
:1021AC00F6007607A8003C08031DDD28DE2828145D
:1021BC000530AF000800F7008312031796010314D3
:1021CC00960D7708F600760897007808F6007608E2
:1021DC0098000800F7007708031DF528F9288312EA
:1021EC0003130815FF28FB30F6007608831203133F
:1021FC0088050800FE0011308A007E088207000066
:10220C000A128A15D9280A168A115E280A168A110A
:10221C005F280A128A155728F7007708031D17291B
:10222C001C29F1158316031385142329F111FD3094
:10223C00F60076088316031385050800FF34FF3477
:10224C00FF34FF34FF34FF34FF34FF34FF34FF34EA
:10225C00FF34FF34FF34FF34FF34FF34FF34FF34DA
:10226C00FF34FF34FF34FF34FF34FF34FF34FF34CA
:10227C00FF34FF34FF34FF34FF34FF34FF34FF34BA
:10228C00FF34FF3483120313A508031D4E294F2975
:10229C0058290310003003180130A5000130F60056
:1022AC007608A6070800F700622977080A168A1133
:1022BC0076200A168A116929831203132E08003A14
:1022CC0003195B29692908007E088A007F088200AF
:1022DC006A210A168A118000840A04087D060319F3
:1022EC000034FF0A0319FE0A6E29543083160313B7
:1022FC0092007D308312031392002A3095001F3018
:10230C0097008C10831603138C140800831203138C
:10231C00C500972945080A168A11A9260A168A119A
:10232C009C292E08003A03199029902908000A16B6
:10233C008A1168200A168A110038031DA629A729BC
:10234C00AC290A168A1148210A168A110800F700CE
:10235C007708031DB229B629831203138814BC29EC
:10236C00FD30F60076088312031388050800711CF3
:10237C00C029C129CB2983120313061EC629C729DC
:10238C00CB29D83083160313870070160800F7008A
:10239C007708031DD229D629831203138815DC294B
:1023AC00F730F60076088312031388050800F7004F
:1023BC0083120317B7010314B70D7708F6007608DC
:1023CC00B800831203133B08F60076088312031738
:1023DC00B9000800F70083120317A1010314A10D23
:1023EC007708F6007608A200831203133B08F60068
:1023FC00760883120317A3000800F7008312031753
:10240C00C2010314C20D7708F6007608C3008312CC
:10241C0003133B08F600760883120317C400080068
:10242C000C3083160313990018151812831203131A
:10243C00981718169812831603130C128C12181373
:10244C00831203131813831603139812981608009B
:10245C00013083120313A007003003110318013E4F
:10246C000319392AA107003003110318013E03197F
:10247C00402AA207003003110318013E0319472A12
:10248C00A307080083120313C400031000300318C1
:10249C000130C300441C532A542A582A4508F7001B
:1024AC007708C3070310C50D0310C40CC408031D23
:1024BC00602A612A502A430808004030F006701F39
:1024CC00682A692A732AF8010314F80DFF300A16DA
:1024DC008A11C3200A168A117E2A031000300318B1
:1024EC000130F80000300A168A11C3200A168A112E
:1024FC000800711C822A832A932A8312031307086B
:10250C00D83883160313870071107011701E8F2A30
:10251C0070158312031392149C2A7012D8308316F0
:10252C000313870071148312031392100800F80030
:10253C007808031DA22AAE2A83120313BB010314CD
:10254C00BB0D55300A168A1103220A168A11BB2AB2
:10255C00031000300318013083120313BB0000304A
:10256C000A168A1103220A168A1108008312031311
:10257C00A9010314A90D343083160313C60080304F
:10258C00C7000030CB000330CA00D030C9009030F7
:10259C00C8000A128A155B210A168A1183120313CA
:1025AC0029080A128A1115200A168A110800F70048
:1025BC00F32A3F30F6007608831203138805FE2AAF
:1025CC00BF30F60076088312031388058817FE2A9D
:1025DC008312031308178817FE2A7708003A031989
:1025EC00DF2A013A0319EE2A033A0319E62ADF2AF5
:1025FC000800F700152BCF30F60076088312031372
:10260C008805202B8312031308168816202BEF3015
:10261C00F60076088312031388058816202B77089A
:10262C00003A0319012B013A0319082B033A031939
:10263C000D2B012B08008312031348088400831709
:10264C00491C8313FF308000840AFF308000480847
:10265C00023EC60049080318013E003EC70046086A
:10266C0084008317471C8313FF308000840AFF30DB
:10267C008000840AFF308000840AFF30800008004C
:10268C0083120313BF00612B981C4D2B4E2B562B22
:10269C008316031398129816831203131812181624
:1026AC00181D592B5A2B602B1A08AA0083160313DA
:1026BC0098129816640083120C1E652B662B4A2BFD
:1026CC003F0899001330F600F60B6A2B6D2B0800AF
:1026DC000030F6000030F700831203133B1C772BFD
:1026EC00782B7E2B3D08F6070318F70A3E08F707F0
:1026FC0001300310BD0DBE0DFF3E031D7F2B0130BD
:10270C000310BC0CBB0CFF3E031D862B3C083B048A
:10271C00031D912B922B722B7708BC01BC077608FA
:10272C00BB01BB070800831203132908013A031DE0
:10273C00A02BA12BC52B343083160313C60080307D
:10274C00C7000A128A157B220A168A11003A03194D
:10275C00B02BB12BC52B831203132B08031DB72BE6
:10276C00BA2B0230A900BF2B031000300318013024
:10277C00A90029080A128A1115200A168A110800C4
:10278C00003400340034003400340034013400349C
:10279C000034073402340034003400340034003484
:1027AC000034013400340034073401340034003474
:1027BC000034003400340034013400340034093463
:1027CC000434003400340034003400340034013458
:1027DC000034003409340134003400340034003443
:1027EC000034003401340034003409340234FF3432
:1027FC00FF34FF34FF34FF34FF346A3418340034B0
:10280C0000340134063401340134FF34FF34FF3416
:10281C00FF34FF34FF346A3418340034003420346D
:10282C00063420340A34FF34FF34FF34FF34FF34D1
:10283C00FF349034D0340334003400343A34083448
:10284C000734FF34FF34FF34FF34FF34FF346A3471
:10285C001834003400340034063402340434831247
:10286C000313BB004D2C0730BD002030BC005B2C8B
:10287C000530BD000430BC005B2C0530BD000830B9
:10288C00BC005B2C0530BD002030BC005B2C3B0831
:10289C00013A0319392C033A03193E2C013A031956
:1028AC00432C073A0319482C6E2C7708031D5F2C18
:1028BC00672C3C08F6003D088400760883138004DE
:1028CC006E2C3C09F6003D088400760883138005C5
:1028DC000800831203130C1C742C752C7B2C0C100D
:1028EC000A168A112E220A168A11831203138C1CC3
:1028FC00802C812C872C8C100A168A117F220A16A8
:10290C008A11831203130B1C8C2C8D2CA02C0B10F6
:10291C000608670683160313D400541E962C972CB6
:10292C009C2C0A168A11BD210A168A1183120313D4
:10293C000608E700831603135308FE0052088A00AA
:10294C005108840050088300FF0E7F0E09000030F0
:10295C0083120313BE000030BD000030BC000030F9
:10296C00BB003F1CBA2CBB2CD22C4308BB07440821
:10297C0003110318013E0319C42CBC0745080311AD
:10298C000318013E0319CB2CBD074608031103188D
:10299C00013E0319D22CBE070130F6000310C30D03
:1029AC00C40DC50DC60DF60BD42C01300310C20C92
:1029BC00C10CC00CBF0CFF3E031DDC2C42084104B3
:1029CC0040043F04031DEB2CEC2CB72C3E08C2003A
:1029DC003D08C1003C08C0003B08BF000800F019CE
:1029EC00F82CFA2C0130FB2C003083120313D2008C
:1029FC007019012D032D0130042D003052060319DE
:102A0C00082D092D202DB43083160313C6008030F9
:102A1C00C7000030CB000030CA000D30C900323086
:102A2C00C8000A128A155B210A168A11F011701D52
:102A3C00202DF015B43083160313C6008030C70068
:102A4C000A128A157B220A168A11003A03192F2DB5
:102A5C00302D432D0030701901300A168A119D2239
:102A6C000A168A11B43083120313C8008030C900CF
:102A7C000A168A1121230A168A11080083120313DD
:102A8C003F08BC01BC073E08BB01BB070F08BD00DB
:102A9C003E08023EF6003F080318013E003EF700D8
:102AAC00760884008317771C831320088000840A1F
:102ABC0021088000840A22088000840A23088000F0
:102ACC000E08F6003B08840083173C1C8313760821
:102ADC0080000F08F6003B08013EF7003C08031885
:102AEC00013E003EF800770884008317781C83139E
:102AFC00760880003B08013EF6003C080318013EB6
:102B0C00003EF700760884008317771C83130008B7
:102B1C003D06031D922D932D4C2D08000A128A158B
:102B2C00EA210A168A110A168A11B7200A168A1186
:102B3C000A128A11EA270A168A110A128A1500202B
:102B4C000A168A110A168A1160200A168A110A16A8
:102B5C008A1116220A168A110A168A117B210A1664
:102B6C008A110A128A1103200A168A110A168A116E
:102B7C0062200A168A110A168A1188200A168A11EE
:102B8C000A168A11F5240A168A110A128A15542576
:102B9C000A168A110A168A1199230A168A110A161C
:102BAC008A1185270A168A110A168A11ED250A162A
:102BBC008A110A128A115B260A168A110A128A15C0
:102BCC0010230A168A11C62D0A128A111228831292
:102BDC000313B308031DF32DF42D1D2EA8308316FB
:102BEC000313C6008030C7000A128A157B220A160E
:102BFC008A11003A0319032E042E1D2EA8308316B9
:102C0C000313C6008030C7000030CB000130CA006F
:102C1C00E830C9004830C8000A128A155B210A1630
:102C2C008A11013083120313D2005208B3070A161B
:102C3C008A1196200A168A11003A0319262E272E7D
:102C4C003B2E482E00300A168A11AD200A168A1126
:102C5C00013083120313D2005208B307482E03101D
:102C6C00003003180130B300482E831203133308CD
:102C7C00003A0319482E013A0319282E033A031976
:102C8C00352E482E0800A02EC03083160313C60024
:102C9C008030C7000A128A157B220A168A11003A64
:102CAC000319592E5A2EA82E013083120313D20069
:102CBC005208A5070330A602A82E74308400000821
:102CCC00840A000403196B2E6C2E8A2E0A168A11A4
:102CDC007C200A168A11003A0319752E762EA82E1E
:102CEC00613083120313C8008030C9000A168A11A0
:102CFC0021230A168A11013083120313D2005208C1
:102D0C00A5070330A602A82E0A168A117C200A16E3
:102D1C008A110038031D932E942EA82E5B3083123B
:102D2C000313C8008030C9000A168A1121230A1621
:102D3C008A11812E7308083A03194A2E013A031995
:102D4C00632E5A2E0800F800831203132708BF00C5
:102D5C00C0013F08BB004008BC000330BD00003080
:102D6C00BE000A168A116E230A168A115B30831371
:102D7C00831203133B0784000330031804303C0711
:102D8C000A168A1100200A168A11C10078088400DC
:102D9C00410880002708BF00C0013F08BB00400865
:102DAC00BC000330BD000030BE000A168A116E2331
:102DBC000A168A118313831203133B08013EC100C8
:102DCC003C080318013E003EC2005B304107840002
:102DDC000330031804304207C4000A168A1100207D
:102DEC000A168A11C300840A0319C40A44080A1675
:102DFC008A1100200A168A11C4007808013E84004A
:102E0C0043088000840A4408800001300800772FB2
:102E1C000310003003180130A9000130F9007908C3
:102E2C00A4070A302402031C1C2F1D2F222F031071
:102E3C00003003180130A40029080A128A11152049
:102E4C000A168A11842F0A307A0203182E2F2F2F7C
:102E5C00322F0A30FA005B2F19307A020318372F01
:102E6C00382F3B2F1930FA005B2F32307A020318BF
:102E7C00402F412F442F3230FA005B2F4B307A0217
:102E8C000318492F4A2F4D2F4B30FA005B2F64301B
:102E9C007A020318522F532F562F6430FA005B2FEF
:102EAC000310003003180130FA003430831603137A
:102EBC00C6008030C7000030CB000330CA00D030D1
:102ECC00C9009030C8000A128A155B210A168A11B3
:102EDC008312031329080A128A1115200A168A1163
:102EEC00842F831203132908003A0319132F013A74
:102EFC000319292F033A0319842F0E2F0800613070
:102F0C0083160313C6008030C7000A128A157B2271
:102F1C000A168A11003A0319942F952F952F5B30BE
:102F2C0083160313C6008030C7000A128A157B2251
:102F3C000A168A11003A0319A42FA52FA52FBA300F
:102F4C0083160313C6008030C7000A128A157B2231
:102F5C000A168A11003A0319B42FB52FEC2F003042
:102F6C000A168A11CD210A168A11BA30831203135C
:102F7C00C8008030C9000A168A1121230A168A114A
:102F8C00EC2F25080A168A1159210A168A110130CC
:102F9C0083120313D3005308A607FF2F73300A16AE
:102FAC008A118C210A168A11003A0319DE2FDF2FA1
:102FBC00FF2FCD2F0A128A15C7230A168A11FF2F4D
:102FCC000A168A1149260A168A11FF2F8312031337
:102FDC002608003A0319FF2F013A0319C72F033AA9
:102FEC000319D42F013A0319E02F073A0319E62FDE
:042FFC00FF2F08009B
:02400E00713708
:00000001FF
