:100000000A128A1112280800FF000308831603173A
:10001000CC000408CD000A08CE007E08CF000A16E6
:100020008A11362F0A128A15272883120313A30078
:1000300023085B0603191D281E284F2B5A2B03107B
:10004000003003180130DB000310003003180130CA
:10005000A00000300A168A1140250A128A110A30BF
:100060007A02031C34283528432803100030031873
:10007000013083120313A00000300A168A1166258E
:100080000A128A11782A83120313A0010314A00D07
:1000900055300A168A1166250A128A11782A031029
:1000A000003003180130D70003100030031801306E
:1000B000F70001300A168A11FC260A128A11031071
:1000C000003003180130F70002300A168A11FC26AE
:1000D0000A128A110310003003180130F7000330B0
:1000E0000A168A11FC260A128A110310003003181E
:1000F0000130F70004300A168A11FC260A128A1110
:10010000031000300318013083120313A0000030E5
:100110000A168A1153250A128A115A2BF701031461
:10012000F70D01300A168A11FC260A128A110310F3
:10013000003003180130F70002300A168A11FC263D
:100140000A128A110310003003180130F70003303F
:100150000A168A11FC260A128A11031000300318AD
:100160000130F70004300A168A11FC260A128A119F
:10017000031000300318013083120313A000003075
:100180000A168A1153250A128A115A2B03100030BD
:1001900003180130F70001300A168A11FC260A12F2
:1001A0008A11F7010314F70D02300A168A11FC2692
:1001B0000A128A110310003003180130F7000330CF
:1001C0000A168A11FC260A128A110310003003183D
:1001D0000130F70004300A168A11FC260A128A112F
:1001E000031000300318013083120313A000003005
:1001F0000A168A1153250A128A115A2B031000304D
:1002000003180130F70001300A168A11FC260A1281
:100210008A110310003003180130F70002300A166B
:100220008A11FC260A128A11F7010314F70D033014
:100230000A168A11FC260A128A11031000300318CC
:100240000130F70004300A168A11FC260A128A11BE
:10025000031000300318013083120313A000003094
:100260000A168A1153250A128A115A2B03100030DC
:1002700003180130F70001300A168A11FC260A1211
:100280008A110310003003180130F70002300A16FB
:100290008A11FC260A128A1103100030031801305B
:1002A000F70003300A168A11FC260A128A11F70198
:1002B0000314F70D04300A168A11FC260A128A115B
:1002C000031000300318013083120313A000003024
:1002D0000A168A1153250A128A115A2BF7010314A0
:1002E000F70D01300A168A11FC260A128A11031032
:1002F000003003180130F70002300A168A11FC267C
:100300000A128A110310003003180130F70003307D
:100310000A168A11FC260A128A11031000300318EB
:100320000130F70004300A168A11FC260A128A11DD
:1003300083120313A0010314A00DFF300A168A11C3
:1003400053250A128A115A2BF7010314F70D0130B5
:100350000A168A11FC260A128A11F7010314F70DF6
:1003600002300A168A11FC260A128A110310003084
:1003700003180130F70003300A168A11FC260A120E
:100380008A110310003003180130F70004300A16F8
:100390008A11FC260A128A1183120313A001031486
:1003A000A00DFF300A168A1153250A128A115A2B02
:1003B000F7010314F70D01300A168A11FC260A1200
:1003C0008A110310003003180130F70002300A16BA
:1003D0008A11FC260A128A11F7010314F70D033063
:1003E0000A168A11FC260A128A110310003003181B
:1003F0000130F70004300A168A11FC260A128A110D
:1004000083120313A0010314A00DFF300A168A11F2
:1004100053250A128A115A2BF7010314F70D0130E4
:100420000A168A11FC260A128A11031000300318DA
:100430000130F70002300A168A11FC260A128A11CE
:100440000310003003180130F70003300A168A1138
:10045000FC260A128A11F7010314F70D04300A165C
:100460008A11FC260A128A1183120313A0010314B5
:10047000A00DFF300A168A1153250A128A115A2B31
:100480000310003003180130F70001300A168A11FA
:10049000FC260A128A110310003003180130F700FD
:1004A00002300A168A11FC260A128A110310003043
:1004B00003180130F70003300A168A11FC260A12CD
:1004C0008A110310003003180130F70004300A16B7
:1004D0008A11FC260A128A1183120313A001031445
:1004E000A00DFF300A168A1153250A128A115A2BC1
:1004F000831203135708003A03195428013A0319C9
:100500008E28033A0319C628013A0319FE28073A30
:1005100003193629013A03196E29033A0319A4294C
:10052000013A0319D8290F3A03190C2A013A031981
:10053000402A4F280310003003180130A00000307B
:100540000A168A1140250A128A1183120313A00188
:100550000314A00DFF300A168A1166250A128A11AB
:100560000A307A02003003180130F70001300A1611
:100570008A11FC260A128A1119307A0200300318F7
:100580000130F70002300A168A11FC260A128A117D
:1005900032307A02003003180130F70003300A16B7
:1005A0008A11FC260A128A114B307A020030031895
:1005B0000130F70004300A168A11FC260A128A114B
:1005C00064307A02031CE52AE62AF22A8312031316
:1005D000A0010314A00DFF300A168A1153250A1238
:1005E0008A115A2B031000300318013083120313B1
:1005F000A00000300A168A1153250A128A115A2BBC
:10060000A0010314A00D55300A168A1140250A12C4
:100610008A11031000300318013083120313A00065
:1006200000300A168A1166250A128A1183120313F2
:100630005C08013A003003190130F70001300A1656
:100640008A11FC260A128A11831203135C08023AEB
:10065000003003190130F70002300A168A11FC2617
:100660000A128A11831203135C08033A003003193B
:100670000130F70003300A168A11FC260A128A118B
:10068000831203135C08043A003003190130F700A9
:1006900004300A168A11FC260A128A115A2B5B08AA
:1006A000003A03192428013A03199A2A033A031934
:1006B000002B1F28080000341234063401340234A1
:1006C00000340234013400340834A13433340234A9
:1006D000003400340834DD3446340134013400344D
:1006E000083439341834013402340034023401340B
:1006F00000340834853416340234023400340834AB
:100700001434023402340034003408347634623451
:100710000234023400340834AF3429340234013452
:1007200000340834CA341934023402340034083432
:100730003434433402340134003408349F343134C7
:1007400002340034003408345D341234023401348D
:1007500000340834C3342B340234023400340834F7
:1007600014340234023400340034083476346234F1
:100770000234023400340834AF34293402340134F2
:1007800000340834C93419340234023400340834D3
:10079000AD344E34013401340034023401340034B9
:1007A0000834093455340234023400340834A43493
:1007B000033402340034003408344C342F34013410
:1007C000023400340234013400340834C0340C34B0
:1007D0000234023400340834143402340234003455
:1007E000003408348E345E34023402340034083469
:1007F0004B3429340234013400340834CA341934F7
:100800000234023400340334013400340834F53443
:1008100042340234003400341134033400340234DE
:10082000013400340834A1343334103499340034A2
:100830000134013400340834503449340234013472
:10084000003408347634623402340234003408341C
:100850006C3404340234003400340934013400347C
:1008600003340034003408345E34F8340534013481
:1008700000340834763462340534003400340834EB
:10088000FF34FF340834C7342734053401340034CE
:1008900008347634623405340034003408340A34C1
:1008A000203405340134003408347634623405349D
:1008B0000034003408340A34203405340134003460
:1008C0000834FF34FF340834513400340534003424
:1008D000003403340134003408347A34D834013419
:1008E00002340034043401340034083429340A3426
:1008F0000434003400340134013400340934013448
:1009000000340334003400340834E234AB340534AA
:100910000134003408347634623405340034003451
:100920000834FF34FF340834C73427340534013425
:10093000003408348E345E34053400340034083416
:100940000A34203405340134003408348E345E34E3
:1009500005340034003408340A34203405340134BA
:1009600000340834FF34FF340834C73427340534E6
:100970000034003403340134003408349E346334CA
:100980000234013400340834D53452340234023491
:1009900000340134003400340434013400340834A9
:1009A0006C34043402340034003408346C3425349C
:1009B0000434003400340134023400340834D134B7
:1009C00014340134013400340834BA34D8340934CE
:1009D000013400340334003400340834C334983410
:1009E0000534013400340134023400340834FF3457
:1009F000FF340834713400340134013400340834D5
:100A00005B342734013400340034043401340034BE
:100A100008344A34263401340134003404340034B8
:100A200000340834B63462340134023400340634FD
:100A30000134003408342C348A3401340134003455
:100A40000834D934D8340134023400340834CD3475
:100A500089340534003400340834C4340634013495
:100A6000013400340834DA34D83401340234003428
:100A70000834ED3489340134013400340834DA3474
:100A8000D8340134023400340834ED34893401346C
:100A90000134003408346334B13401340234003496
:100AA00008344C348A340234023400340834FC34C0
:100AB0002634023400340034013400340034043469
:100AC00001340034083429340A3401340234003447
:100AD0000434003400340834103415340234013442
:100AE000003408343F3428340234003400340834ED
:100AF000AD34893401340134003408346334B13402
:100B00000134023400340834ED34893401340134C2
:100B1000003408346334B13401340234003408340E
:100B20004C348A3402340234003408348C3428348F
:100B3000023400340034013400340034043401340D
:100B40000034083429340A340134023400340434C3
:100B500000340034083428341134023401340034B1
:100B6000083433342A340234003400340834AD34C9
:100B700089340134013400340834ED3489340134CB
:100B8000023400340834ED34893401340134003443
:100B90000834EC34893401340234003408344C34E1
:100BA0008A340234023400340834EF342C340234F2
:100BB0000034003408347934083402340134003409
:100BC0000834B7342D34023400340034083423346C
:100BD000B1340134013400340834ED348934013443
:100BE0000234003408346334B13401340134003445
:100BF0000834ED3489340134023400340834633469
:100C0000B1340134013400340834EC348934013413
:100C10000234003408346334B13401340134003414
:100C200008344C348A3402340234003408342C340E
:100C300001340234003400340834AB342F3402342D
:100C40000234003408342C340134023400340034CB
:100C50000834AB342F3402340234003408342C34DA
:100C600001340234003400340834DB3427340234D5
:100C70000234003408342C3401340234003400349B
:100C80000834DA3427340234023400340834D234DD
:100C9000233402340134003408344A341934023421
:100CA0000234003408345C344734023401340034F4
:100CB000013400340034083410340B34023400346E
:100CC0000034FE3400340034B32FFF307405831237
:100CD0000313B60000307505B7000030370213303B
:100CE000031936020318752E762E902E7208031DF6
:100CF0007A2E7E2EF5187D2E7E2E872EF208031D6D
:100D0000822E832E902E751D862E872E902E0130DA
:100D100083120313B6003608D8070230D902DC2F3D
:100D20000310003003180130D900DC2F74080A12B8
:100D30008A11DD270A128A11013083120313B600CB
:100D40003608D8070230D902DC2F74080A128A1537
:100D500005200A128A119C2EF208031DB02EB12E16
:100D60009C2E74080A168A1112250A128A117430F0
:100D700084000008840A00040319BF2EC02ED42E5C
:100D80004C3083160313E4008030E5000130E900A5
:100D90000130E8007D30E700F830E6000A128A15DD
:100DA000C4240A128A119C2E4C300A168A119125ED
:100DB0000A128A119C2EF208031DDF2EE02E9C2EB3
:100DC00074080A168A118C240A128A119C2EF208C1
:100DD000031DEB2EEC2E9C2E74080A168A11AC24EF
:100DE0000A128A11743084000008840A000403196E
:100DF000FA2EFB2E0F2F463083160313E4008030AB
:100E0000E5000130E9000130E8007D30E700F8300E
:100E1000E6000A128A15C4240A128A119C2E463052
:100E20000A168A1191250A128A119C2EF208031DB6
:100E30001A2F1B2F9C2E74080A168A117C240A1262
:100E40008A119C2EDE3083160313E4008030E50007
:100E5000740883120313A4007508A500A601A70156
:100E60000030AB000030AA000030A9007D30A8009F
:100E70000A168A11B8270A128A11831383120313E0
:100E8000270883160313E900831203132608831629
:100E90000313E80083120313250883160313E700E6
:100EA00083120313240883160313E6000A128A151B
:100EB000C4240A128A11013083120313B6003608C3
:100EC000D907DC2FF208031D662F672F872E5B2FB3
:100ED0007208031D6C2F9C2E7408013E83120313AD
:100EE000B6003608D807A22EF208031D782F792FF6
:100EF0009C2E6C2FF208031D7E2F7F2F9C2ED83046
:100F000083160313E4008030E5007408E6007508DA
:100F1000E700E801E9010A128A15C4240A128A11BD
:100F200001300A168A118C240A128A119C2E4C3028
:100F30000A168A1191250A128A1146300A168A1158
:100F400091250A128A110310003003180130831210
:100F50000313D800902E03100030031801308312C1
:100F60000313D800DC2F7308003A0319652E013AE9
:100F70000319962E033A0319A52E013A0319AC2E34
:100F8000073A0319DB2E013A0319E72E033A031936
:100F9000162F0E3A0319222F013A0319622F193A1C
:100FA0000319682F013A0319742F033A03197A2F92
:100FB000EC3A0319972FAB2F0800F700F32FCF302F
:100FC000F6007608831203138805FE2F831203139D
:100FD00008168816FE2FEF30F600760883120313EA
:100FE00088058816FE2F7708003A0319DF2F013A8B
:100FF0000319E62F033A0319EB2FDF2F080008002F
:1010000008008312031359080800F7001B283F301B
:10101000F60076088312031388052628BF30F600F1
:101020007608831203138805881726288312031372
:101030000817881726287708003A03190728013A65
:1010400003191628033A03190E2807280800F0018F
:10105000F101F201F301F401F50183135230840030
:1010600066300A168A1135250A128A15831603136B
:10107000EA01EB01EC01ED01EE01EF010A168A1124
:101080003E250A128A15FA005230FD001530FE0086
:101090007930FF003A3084000A168A11C0240A12FF
:1010A0008A15E430FD001730FE007430FF00A030D8
:1010B00084000A168A11C0240A128A158317C730C1
:1010C000FD001630FE00C530FF00903084000A1687
:1010D0008A11C0240A128A1583010A168A118F2EDA
:1010E000F018732875280130762800308312031316
:1010F000B60070187C287E2801307F280030360624
:101100000319832884289B283A3083160313E400AC
:101110008030E5000030E9000030E8000D30E700E5
:101120003230E6000A128A15C4240A128A15F01019
:10113000701C9B28F0143A3083120313B1008030E6
:10114000B2000A128A15B2230A128A15003A03194C
:10115000AA28AB28B9280030701801300A128A1169
:10116000FF270A128A153A300A168A1191250A12A7
:101170008A150800831203132408A101A10723087C
:10118000A001A0070F08A2002308023EF6002408D1
:101190000318013E003EF700760884008317771C91
:1011A000831352088000840A53088000840A54087C
:1011B0008000840A550880000E08F600200884008C
:1011C0008317211C8313760880000F08F60020087F
:1011D000013EF70021080318013E003EF8007708A1
:1011E00084008317781C8313760880002008013E52
:1011F000F60021080318013E003EF700760884003F
:101200008317771C831300082206031D0829092968
:10121000C22808005729DE3083120313B100803042
:10122000B2000A128A15B2230A128A15003A03196B
:101230001A291B295F29013083120313B3003308D5
:10124000D8070330D9025F29743084000008840A6B
:10125000000403192C292D2946290A168A11122463
:101260000A128A15003A0319362937295F294C30AA
:101270000A168A1191250A128A1501308312031366
:10128000B3003308D8070330D9025F290A168A1140
:1012900012240A128A150038031D4F2950295F298C
:1012A00046300A168A1191250A128A153D297308BB
:1012B000083A03190B29013A031924291B290800AC
:1012C000F800831203135A08A400A5012408A00003
:1012D0002508A1000330A2000030A3000A168A11DD
:1012E00039260A128A155B308313831203132007F1
:1012F000840003300318043021070A168A110024E1
:101300000A128A15A60078088400260880005A0868
:10131000A400A5012408A0002508A1000330A20014
:101320000030A3000A168A1139260A128A1583137F
:10133000831203132008013EA60021080318013E72
:10134000003EA7005B3026078400033003180430FA
:101350002707A9000A168A1100240A128A15A80074
:10136000840A0319A90A29080A168A1100240A12F4
:101370008A15A9007808013E840028088000840AA4
:1013800029088000013008004C3083120313B1009B
:101390008030B2000A128A15B2230A128A15003A66
:1013A0000319D329D429D429463083120313B10059
:1013B0008030B2000A128A15B2230A128A15003A46
:1013C0000319E329E429E429D83083120313B10077
:1013D0008030B2000A128A15B2230A128A15003A26
:1013E0000319F329F429262A00300A168A118C24BD
:1013F0000A128A15D8300A168A1191250A128A15FE
:10140000262A58080A168A1124250A128A1501303C
:1014100083120313B8003808D907392A73300A1623
:101420008A11CD240A128A15003A0319182A192A9A
:10143000392A072A0A128A1164260A128A15392AB9
:101440000A128A150A210A128A15392A83120313ED
:101450005908003A0319392A013A0319012A033AB3
:1014600003190E2A013A03191A2A073A0319202AE6
:10147000392A0800A42A0310003003180130DB00C9
:101480000130F9007908D7070A305702031C492AAE
:101490004A2A4F2A0310003003180130D7005B0896
:1014A0000A128A1115200A128A15B12A0A307A0204
:1014B00003185B2A5C2A5F2A0A30FA00882A19304E
:1014C0007A020318642A652A682A1930FA00882AE1
:1014D00032307A0203186D2A6E2A712A3230FA00ED
:1014E000882A4B307A020318762A772A7A2A4B30D8
:1014F000FA00882A64307A0203187F2A802A832A15
:101500006430FA00882A0310003003180130FA0012
:101510005F3083160313E4008030E5000030E900FB
:101520000330E800D030E7009030E6000A128A1558
:10153000C4240A128A15831203135B080A128A1143
:1015400015200A128A15B12A831203135B08003A88
:101550000319402A013A0319562A033A0319B12AFA
:101560003B2A080083120313B608031DB82AB92AC0
:10157000EC2A7017403083160313E4008030E50036
:101580000030E9000530E800B830E700D830E60068
:101590000A128A15C4240A128A15F01FD02AD12AE9
:1015A000D22A7016F019D52AD62AE22A0310003062
:1015B00003180130F80001300A168A114F240A126C
:1015C0008A15312BF8010314F80D55300A168A11CB
:1015D0006D240A128A15312B7013701AF02AF12A21
:1015E000052BF01DF42AF52AFF2AF8010314F80D43
:1015F000FF300A168A116D240A128A15312B0A123D
:101600008A153A220A128A15312BF01B082B092B56
:10161000312B4030B1008030B2000A128A15B2235B
:101620000A128A15003A0319162B172B1D2B0A16BE
:101630008A11DE250A128A15302BF01D202B212B52
:101640002B2BF8010314F80DFF300A168A116D24B4
:101650000A128A15302B0A168A1118260A128A15C0
:101660007012080083120313B608031D382B392BA0
:101670006C2BF017403083160313E4008030E50034
:101680000030E9000530E800B830E700D830E60067
:101690000A128A15C4240A128A15701F502B512B66
:1016A000522B7016F019552B562B622B031000305D
:1016B00003180130F80001300A168A114F240A126B
:1016C0008A15B12BF8010314F80D55300A168A114A
:1016D0006D240A128A15B12BF013701A702B712B1E
:1016E000852BF01D742B752B7F2BF8010314F80D3F
:1016F000FF300A168A116D240A128A15B12B0A16B8
:101700008A119C240A128A15B12B701B882B892BF5
:10171000B12B4030B1008030B2000A128A15B223DA
:101720000A128A15003A0319962B972B9D2B0A163D
:101730008A11DE250A128A15B02BF01DA02BA12BD1
:10174000AB2BF8010314F80DFF300A168A116D2433
:101750000A128A15B02B0A168A1118260A128A153F
:10176000701208002B3083120313A3008030A400F2
:101770000A128A15BA200A128A1583120313310835
:10178000023EA50032080318013E003EA6002508CF
:1017900084008317261C83130008A700840A00080E
:1017A000A800840A0008A900840A0008AA000230E0
:1017B0002B3E8400270883130006840F031DEC2BA7
:1017C00028080006840F031DEC2B29080006840F4F
:1017D000031DEC2B2A080006031DEF2BF02B092C10
:1017E000310884008317321C83130008A5000130E0
:1017F00084070008A60026082C02031D012C2508DA
:101800002B02031C042C052C072C0130342C003037
:10181000342C3108023EA50032080318013E003E78
:10182000A600250884008317261C83130008A70040
:10183000840A0008A800840A0008A900840A000895
:10184000AA0030082A02031D2F2C2F082902031D8D
:101850002F2C2E082802031D2F2C2D0827020318D9
:10186000322C332C072C052C08001130831603135F
:101870008500031000300318013083120313850024
:101880000730831603139F00831203138514FB3064
:1018900083160313860003100030031801308312EF
:1018A00003138600831603138113831203130B1093
:1018B0008B150615D83083160313870003100030EC
:1018C000031801308312031387000310003003183C
:1018D000013083160313880001308312031388003C
:1018E000031000300318013083160313890003101E
:1018F0000030031801308312031389000608D60054
:101900000310003003180130A5000E30A200250896
:101910000A168A11C3250A128A150C3EA03E8400BD
:101920008313000883120313A4000E30A2002508BD
:101930000A168A11C3250A128A150B3EA03E84009E
:101940008313000884000008831203132405F800A1
:101950000E30A20025080A168A11C3250A128A151C
:101960000A3EA03E84007808831380000130F8000E
:10197000780883120313A50704302502031CC12C29
:10198000C22C852C003008008316031365088312CF
:101990000313B501B50783160313640883120313F9
:1019A000B401B40783160313650883120313A4015B
:1019B000A40783160313640883120313A301A30768
:1019C0000A128A15BA200A128A15831603136908A7
:1019D000680467046604031DEE2CEF2CF02C522DD6
:1019E00083120313340884008317351C8313000803
:1019F000B000840A0008B100840A0008B200840A1A
:101A00000008B300340884008317351C8313831641
:101A1000031366088007840A67080318013E031D44
:101A20008007840A68080318013E031D8007840AA2
:101A300069080318013E80078312031334088400E9
:101A40008317351C83130008AC00840A0008AD001E
:101A5000840A0008AE00840A0008AF002F08330291
:101A6000031D3C2D2E083202031D3C2D2D08310292
:101A7000031D3C2D2C083002031C3F2D402D522D00
:101A80003408043EAC0035080318013E003EAD00AA
:101A90002C08840083172D1C831301308007840ACF
:101AA0000318800A0800EA3083120313B100803063
:101AB000B2000A128A15B2230A128A15003A0319D3
:101AC000622D632DB92DEA3083160313E4008030B4
:101AD000E5000030E9000030E8003030E700D430A5
:101AE000E6000A128A15C4240A128A157118792D83
:101AF0007A2D902D831603138514633083120313FC
:101B0000B700B70B812D842D831203130608083903
:101B1000E500FD30B7003708831603138505952DC2
:101B20008312031306080839E500831265085E0670
:101B300003199B2D9C2DB92DBC3083160313E40093
:101B40008030E500C230840083130008E600840A78
:101B50000008E700840A0008E800840A0008E90099
:101B60000A128A15C4240A128A15831203136508FF
:101B7000DE0083120313060883160317C800480803
:101B800083120313560683160317CA0048088312EC
:101B90000313D600831603174A1CCF2DD02DE92D31
:101BA000A03083160313E4008030E500A6308400E3
:101BB00083130008E600840A0008E700840A00088E
:101BC000E800840A0008E9000A128A15C4240A12EF
:101BD0008A1583160317CA1EEE2DEF2D082EAE3080
:101BE00083160313E4008030E500B43084008313CF
:101BF0000008E600840A0008E700840A0008E800FC
:101C0000840A0008E9000A128A15C4240A128A15F7
:101C100083160317CA1C0D2E0E2E272ECA308316CC
:101C20000313E4008030E500D03084008313000803
:101C3000E600840A0008E700840A0008E800840A35
:101C40000008E9000A128A15C4240A128A15031032
:101C500000300318013083160317CA000E308312B8
:101C60000313A200831603174A080A168A11C32514
:101C70000A128A15A03E83120313B1008030B2000D
:101C80000A128A15B2230A128A15003A0319492E3C
:101C90004A2ED22E0E3083120313A200831603178E
:101CA0004A080A168A11C3250A128A150B3EA03E5D
:101CB0008400831300088400000883160317C900FA
:101CC0000E3083120313A200831603174A080A1664
:101CD0008A11C3250A128A150C3EA03E8400831384
:101CE000000883120313B700370883160317C905CA
:101CF0000E3083120313A200831603174A080A1634
:101D00008A11C3250A128A150A3EA03E8400831355
:101D1000000883160317490603198F2E902EC02E34
:101D2000490883120313B6000E30A200831603176E
:101D30004A080A168A11C3250A128A150D3EA03ECA
:101D40008400831300080A168A1100250A128A15D6
:101D500083160317490883120313B7000E30A2003D
:101D6000831603174A080A168A11C3250A128A1510
:101D70000A3EA03E840083120313370883138000B9
:101D80000E3083120313A200831603174A080A16A3
:101D90008A11C3250A128A15A03E0A168A119125B6
:101DA0000A128A15013083120313B700370883160D
:101DB0000317CA0704304A02031CDF2EE02E2E2E22
:101DC0000310003003180130CA000B3083120313D4
:101DD000A200831603174A080A168A11C3250A129D
:101DE0008A15903E83120313B1008130B2000A12AB
:101DF0008A15B2230A128A15003A0319002F012FFF
:101E0000F12F0B3083120313A200831603174A0825
:101E10000A168A11C3250A128A15063E903E8400CE
:101E20008317000883160317C7000B3083120313B0
:101E3000A200831603174A080A168A11C3250A123C
:101E40008A15903E83160313E4008130E5000030CC
:101E5000E9000030E8003D30E7000930E6000A12F2
:101E60008A15C4240A128A150B3083120313A200A8
:101E7000831603174A080A168A11C3250A128A15FF
:101E8000073E903E8400831700088316031747051A
:101E900003194B2F4C2F762F0B3083120313A20004
:101EA000831603174A080A168A11C3250A128A15CF
:101EB0000A3E903E84008317000883120313B70084
:101EC0000B30A200831603174A080A168A11C3258D
:101ED0000A128A15093E903E840083170008840088
:101EE000831203133708831380049F2F0B30831250
:101EF0000313A200831603174A080A168A11C32582
:101F00000A128A150A3E903E840083170009831244
:101F10000313B7000B30A200831603174A080A16F2
:101F20008A11C3250A128A15093E903E8400831740
:101F300000088400831203133708831380050B30D5
:101F4000A200831603174A080A168A11C3250A122B
:101F50008A15063E903E840003108317800D80088A
:101F6000031DB32FB42FF12F0B3083120313A200E4
:101F7000831603174A080A168A11C3250A128A15FE
:101F8000063E903E8400831780010314800D0B30C1
:101F900083120313A200831603174A080A168A1134
:101FA000C3250A128A15083E903E840083178008D4
:101FB000031DDB2FDC2FF12F03100B3083120313D3
:101FC000A200831603174A080A168A11C3250A12AB
:101FD0008A15073E903E84000030031801308317B5
:101FE0008000013083120313B700370883160317EC
:101FF000CA0705304A02031CFE2FFF2FE52E0800FA
:10280000FE00FE1F082C83137E18831700080800A3
:102810008A0004088200831203130608E6000B17DF
:102820008B170800003083120313E51D01300800E8
:0C283000F600760883120313DA0008009B
:102886008312031390109016101690111011101445
:10289600831603130C140800F7008316031796011A
:1028A6000314960D7708F600760897007808F60068
:1028B600760898000800F01E612C622C6B2C83129F
:1028C6000313061E672C682C6B2C8316031307153F
:1028D60070150800F70083160317AC010314AC0D3E
:1028E6007708F6007608AD007808F6007608AE00A0
:1028F6000800F7007708031D812C852C831203132B
:1029060008158B2CFB30F600760883120313880516
:102916000800F7007708031D912C952C83120313EA
:1029260088159B2CF730F60076088312031388056A
:1029360008000A128A1501200A168A110038031D9A
:10294600A52CA62CAB2C0A168A11DE240A168A118F
:102956000800F7007708031DB12CB52C831203136A
:102966008814BB2CFD30F600760883120313880505
:1029760008007E088A007F088200BC240A168A1195
:102986008000840A04087D0603190034FF0A03192F
:10299600FE0AC02C83120313AA00D82C2A080A1296
:1029A6008A1560210A168A11DD2C5D08003A031982
:1029B600D12CD12C080083120313D808031DE42C54
:1029C600E52CEE2C0310003003180130D80001303E
:1029D600F6007608D90708005430831603139200D0
:1029E6007D308312031392002A3095001F30970022
:1029F6008C10831603138C140800FE0015308A0011
:102A06007E08820700000A168A113F2D0A128A15CF
:102A160000280A128A15B22A0A128A15322BF700E2
:102A26007708031D172D1C2D7114831603138514A7
:102A3600232D7110FD30F6007608831603138505E5
:102A46000800F7002D2D77080A168A1118240A1691
:102A56008A11342D831203135D08003A0319262DBB
:102A6600342D080064008001840A0406031900342A
:102A76000406362D080064340800F7008316031791
:102A8600A1010314A10D7708F6007608A2008312AF
:102A960003132008F600760883160317A300080020
:102AA600F70083160317C2010314C20D7708F60058
:102AB6007608C300831203132008F60076088316EF
:102AC6000317C4000800F70083160317B7010314A1
:102AD600B70D7708F6007608B800831203132008AE
:102AE600F600760883160317B9000800FF34FF3492
:102AF600FF34FF34FF34FF34FF34FF34FF34FF3438
:102B0600FF34FF34FF34FF34FF34FF34FF34FF3427
:102B1600FF34FF34FF34FF34FF34FF34F600760809
:102B26008400FF3083138000840AFF30800076081B
:102B3600023E8400FF308000840AFF308000840A51
:102B4600FF308000840AFF308000080001308312C5
:102B56000313D207003003110318013E0319B42DE5
:102B6600D307003003110318013E0319BB2DD40708
:102B7600003003110318013E0319C22DD5070800C2
:102B860083120313A1000310003003180130A000C4
:102B9600211CCE2DCF2DD32D2208F6007608A007B6
:102BA6000310A20D0310A10CA108031DDB2DDC2DC3
:102BB600CB2D200808000830F006F01DE32DE42D8B
:102BC600EE2DF8010314F80DFF300A168A116D2454
:102BD6000A168A11F92D0310003003180130F80087
:102BE60000300A168A116D240A168A110800F01E92
:102BF600FD2DFE2D0A2E831603130715F0127010F5
:102C0600701D062E7014831203139214172E701162
:102C1600FB3083160317CB004B0883160313870577
:102C2600F016831203139210080083120313DB01BC
:102C36000314DB0D5F3083160313E4008030E500D8
:102C46000030E9000330E800D030E7009030E600BD
:102C56000A128A15C4240A168A11831203135B0802
:102C66000A128A1115200A168A1108000030F60089
:102C76000030F70083120313201C422E432E492EE8
:102C86002208F6070318F70A2308F707013003108E
:102C9600A20DA30DFF3E031D4A2E01300310A10C09
:102CA600A00CFF3E031D512E21082004031D5C2E9F
:102CB6005D2E3D2E7708A101A1077608A001A00789
:102CC6000800831203135B08013A031D6B2E6C2E5A
:102CD6008E2E5F30B1008030B2000A128A15B22300
:102CE6000A168A11003A0319792E7A2E8E2E83122D
:102CF60003135C08031D802E832E0230DB00882E12
:102D06000310003003180130DB005B080A128A1139
:102D160015200A168A1108000A128A1535240A1681
:102D26008A110A168A1143240A168A110A168A116A
:102D3600EF240A168A110A168A113D250A168A11E7
:102D46000A128A1103200A168A110A168A110B24FE
:102D56000A168A110A128A1570200A168A110A1290
:102D66008A1553250A168A110A168A1164260A1626
:102D76008A110A128A15C4210A168A11AD2E0A1260
:102D86008A11122800340034003400340034003430
:102D96000134003400340734023400340034003483
:102DA6000034003400340134003400340734013474
:102DB600003400340034003400340034013400346C
:102DC6000034093404340034003400340034003450
:102DD6000034013400340034093401340034003442
:102DE6000034003400340034013400340034093433
:102DF600023483120313A000142F0730A2002030E0
:102E0600A100222F0530A2000430A100222F053098
:102E1600A2000830A100222F0530A2002030A10018
:102E2600222F2008013A0319002F033A0319052F10
:102E3600013A03190A2F073A03190F2F352F77087E
:102E4600031D262F2E2F2108F6002208840076085F
:102E560083138004352F2109F600220884007608A2
:102E6600831380050800831203130C1C3B2F3C2F91
:102E7600422F0C100A168A11A9250A168A118312E6
:102E860003138C1C472F482F4E2F8C100A168A11BD
:102E9600FA250A168A11831203130B1C532F542F7B
:102EA600672F0B100608660683160317D000501E00
:102EB6005D2F5E2F632F0A168A115E240A168A1169
:102EC600831203130608E600831603174F08FE0055
:102ED6004E088A004D0884004C088300FF0E7F0EC2
:102EE6000900FF34FF34FF34FF34FF34FF346A3403
:102EF6001834003400340134063401340A34FF3403
:102F0600FF34FF34FF34FF34FF346A34183400349E
:102F160000342034063420340734FF34FF34FF34C1
:102F2600FF34FF34FF349034D0340334003400349B
:102F3600653408340134FF34FF34FF34FF34FF3482
:102F4600FF346A3418340034003400340634023452
:102F56000434FF34FF34FF34FF34FF34FF34FF34CE
:102F6600FF34FF34FF34FF34FF3400308312031381
:102F7600A3000030A2000030A1000030A000241CF5
:102F8600C52FC62FDD2F2808A0072908031103180F
:102F9600013E0319CF2FA1072A0803110318013E8A
:102FA6000319D62FA2072B0803110318013E031994
:102FB600DD2FA3070130F6000310A80DA90DAA0DF9
:102FC600AB0DF60BDF2F01300310A70CA60CA50CDA
:102FD600A40CFF3E031DE72F27082604250424041E
:102FE600031DF62FF72FC22F2308A7002208A600DD
:0A2FF6002108A5002008A40008002F
:02400E00713708
:00000001FF
