:100000000A128A1110280800FF000308831603173C
:10001000C4000A08C5007E08C6000A168A116128B5
:100020000A168A15B62F5630B1008030B2002E2243
:100030000A128A11003A03190800AD010130AC0020
:10004000E830AB004830AA00563040200A128A112E
:100050003C30C20A4202031C0800C2013C30C30A01
:100060004302031C0800C3011830C40A4402031CE5
:100070000800C4010730C50A45020318C50108007D
:10008000A800A9002D082C042B042A040319080039
:100090002908840083130008A400840A0008A5002E
:1000A000840A0008A600840A0008A7002908840022
:1000B0002A088007840A2B080318013E031D8007C5
:1000C000840A2C080318013E031D8007840A2D08AA
:1000D0000318013E8007290884000008A000840A54
:1000E0000008A100840A0008A200840A0008A300F6
:1000F0002702031D852822082602031D85282108C2
:100100002502031D852820082402031C0800290855
:10011000043E840001308007840A0318800A080026
:10012000F11D94280130952800308312BC0040084E
:10013000003A031D9D2801309E2800303C0603191B
:1001400008004008003A031DA728F115A828F1115E
:10015000F11DBC28D030BA270A128A15A0260A122F
:100160008A1171197114F01BB828F70101303A2F68
:10017000F701F70A55309A297118CF28F01FC428C3
:10018000F701F70AFF309A29DA270A128A112E227C
:100190000A128A11003A0319CE28332E492E7119FA
:1001A0000800D030E427B1008030B2002E220A12BD
:1001B0008A11003A0319E028EE200A128A11EC286D
:1001C000F01FE928F701F70AFF309A210A128A1175
:1001D000EC282A230A128A11711008008030F006D8
:1001E0000310F01F0314003003180130F700013032
:1001F000BA230A128A11A02C711D0029013001298D
:1002000000308312BD004008003A031D0929013067
:100210000A2900303D06031908004008003A031D72
:100220001329711514297111711D2829D030BA278D
:100230000A128A15A0260A128A11F1197114F01BEC
:100240002429F70101303A2FF701F70A55309A298E
:1002500071187B29F01F3029F701F70AFF309A291E
:10026000DA270A128A112E220A128A11003A031979
:100270005B29A12F19307A0203184029193051291E
:1002800032307A0203184629323051294B307A0233
:1002900003184C294B30512964307A020318532932
:1002A0006430FA005429FA01C7270A128A15A026D9
:1002B0000A128A11A02C4E08003A03196629013A45
:1002C00003197529033A03190800CE017208013E8B
:1002D000BE00003003180130BF007208093A031D48
:1002E0007329BE01BF013E080D2C0A307A020318A3
:1002F0003A290A305129F1190800D030E427B10019
:100300008030B2002E220A128A11003A03198C2979
:10031000EE200A128A119829F01F9529F701F70A91
:10032000FF309A210A128A1198292A230A128A1167
:1003300071100800F6007708831203170319AA2921
:100340002D087606031DA8292E0877060319080034
:1003500083120317AC01AC0A7608AD007708AE0033
:10036000080062300313B1008030B2002E220A125E
:100370008A11003A0319DC290A128A1545240A1247
:100380008A114930E127BA001D30BB000A128A15D4
:1003900004216230A3008030A4000A128A154F2580
:1003A0000A128A11F701F70A01301E260A128A1171
:1003B0000030B4260A128A11DC30B1008030B2005D
:1003C0002E220A128A11003A0319022A0A128A15E9
:1003D00045240A128A11C930E127BA001D30BB003A
:1003E0000A128A150421DC30A3008030A4000A120E
:1003F0008A154F250A128A11F701F70A05301E26C1
:100400000A128A11D6300313B1008030B2002E22B6
:100410000A128A11003A03191A2AD630A300803032
:10042000A4000A128A154F250A128A110030AC2640
:100430000A128A114D08003A03190800013A0319FB
:10044000602A033A03196A2A013A0319D82A073A9B
:100450000319E22A013A031D0800612F2B30A30083
:100460008030A400F2260A128A11A2270A128A11E9
:100470002D308400270883130006840F031D4C2AA7
:1004800028080006840F031D4C2A29080006840F43
:10049000031D4C2A2A080006031DEC2A310884009B
:1004A0008317321C83130008A500840A0008A600E5
:1004B0002C02031D5D2A25082B0203180134003489
:1004C0004B08A1004A08A000E3260A128A11023054
:1004D0008312CD00733000230A128A11003A0319E7
:1004E00008000A128A1545240A128A117130E12780
:1004F000BA001D30BB00E4274B08E127BD00E4270C
:100500004A08E127BC000A128A1504210A128A113E
:10051000F308031DC62A7630BC001C30BD00711FD5
:10052000952A7230BC001C30BD005730E127BA005C
:100530001D30BB00E4273D08E127BD00E4273C084F
:10054000E127BC000A128A1504210A128A110F3011
:1005500074020318BF2A711BAF2AF518B22A711B47
:10056000751DBF2AF701F70A0230BA230A128A1151
:100570000330E427CA070318CB0ACD00D42ACD01E3
:100580000F30E127BA001D30BB00CF2ACD010A3061
:10059000E127BA001E30BB007308BC00BD010A127F
:1005A0008A1504210A128A11D3270A128A150429EE
:1005B0004B08A1004A08A000E3260A128A11043061
:1005C0008312CD00733000230A128A11003A0319F6
:1005D00008000A128A156E2DA2270A128A11300805
:1005E0002A02031DFD2A2F082902031DFD2A2E08B9
:1005F0002802031DFD2A2D082702031C01340034A4
:10060000A100022BA0008316200884002108F80016
:100610000A168A150024F600840A0319F80A7808D5
:100620000A168A150024F700840A0319F80A7808C4
:100630000A168A1500240A128A11F800831220086B
:10064000840076088000840A77088000840A78088D
:1006500080000134CE01CE0AC7270A128A15A026CF
:100660000A128A11A02C8312B9000339B700B8010D
:100670003808003A03199D2BA72B4530E127BA0013
:100680001C30BB000A128A1504210A128A11712B30
:10069000C4308316BA001D30BB000A128A1504212B
:1006A0000A128A118D2B63308316BA001C30BB00EE
:1006B0000A128A1504210A128A110030AA230A128A
:1006C0008A118D2B72308316BA001C30BB000A12BF
:1006D0008A1504210A128A110130AA230A128A11EA
:1006E0008D2B0230F7230A128A11003A0319482B86
:1006F000013A0319532B033A0319622B2D30831649
:10070000BA001C30BB000A128A1504210A128A1191
:10071000F7010230BA230A128A11D3270A128A1566
:1007200004298730E127BA001E30BB000A128A155F
:1007300004210A128A110130AA2B3708003A031942
:100740003D2B013A0319912B033A03190800F701D5
:100750000230BA2BF600CD08031D0800D101453048
:10076000CA001F30CB00711376187117E427CD0132
:10077000CD0A0800F600E1278C18BB2B76088312FF
:100780008D0077088C003F3083168C050310E4271A
:100790008B1B03148B13E1270C1555308D00AA30E9
:1007A0008D008C140C11031C0800E4278B17080023
:1007B0008312BD003D18BD1CE82BF7010030BA23A1
:1007C0000A128A11FF30F7000130BA230A128A1187
:1007D0000130F7230A128A11003A031DF12BF0179A
:1007E000F22BF0130030F7230A128A110D2CF800B7
:1007F000E1278C18F82B780883128D003F30831680
:100800008C050C1403100C1803140030031801306D
:10081000F600F70183120C0808000313BC000A302D
:100820003C02031C152CF201172C3C08F20000308E
:10083000E127BA001030BB007208BC00BD010A12EB
:100840008A1504210A128A1172030319332C7208C3
:10085000023A0319332C7208033A0319332C720835
:10086000043A031D342C70175208023A03197E2CE7
:10087000D201D0017E2C5C30B6008030B7009B30B6
:10088000BB007230BA00EC30B900B8010A128A1508
:10089000A0260A128A11942C5C30B6008030B70072
:1008A0005930BB009530BA007630B900B8010A1251
:1008B0008A15A0260A128A11942C5C30B60080306A
:1008C000B700D630BB009330BA00A430B900B801ED
:1008D0000A128A15A0260A128A11942CB6008030BA
:1008E000B700A030BB00EE30BA00BB30B900B80191
:1008F0000A128A15A0260A128A11942C7208013A4B
:1009000003193B2C033A03194C2C013A03195D2CB3
:10091000073A5C3003196E2CA3008030A4000A1241
:100920008A154F250A128A11B2304F270A128A11EE
:100930007010A0240A128A117208F7000030BA2B36
:10094000E4274E08003A0319AC2C013A03195E2D36
:10095000033A0319A22DCE01F70100301E260A1218
:100960008A110A307A02F701031CB82C0030BA2C25
:10097000F70A55300B260A128A117208003A031939
:10098000DD2C013A0319DD2C033A0319DD2C013A61
:100990000319DD2C073A0319DD2C013A03190B2D3D
:1009A000033A03190B2D013A03190B2D0F3A0319C2
:1009B0000B2D013A03190B2DF201720300300319BC
:1009C00001300313A0000130CA250A128A117208EF
:1009D000023A003003190130A0000230CA250A1281
:1009E0008A117208033A003003190130A000033065
:1009F000CA250A128A117208043A0030031901301C
:100A0000A0000430CA250A128A11F7010030F62529
:100A10000A128A11C22D7208093A0030031D0130F2
:100A20000313A0000130CA250A128A117208063A7F
:100A3000003003190130A0000230CA250A128A11C1
:100A40007208073A003003190130A0000330CA25AC
:100A50000A128A117208083A003003190130A00006
:100A60000430CA250A128A11F01C412D5208023A9C
:100A70000319412DF701F70A5530F6250A128A119C
:100A8000C22D701C572D5208023A0319572D701FA2
:100A9000502DF701F70AFA30F6250A128A11C22DF5
:100AA000F701F70AFE30F6250A128A11C22DF70166
:100AB000F70AFF30F6250A128A11C22DF70100301D
:100AC0001E260A128A11F701F70AFF300B260A12B6
:100AD0008A110A307A020030031801300313A00093
:100AE0000130CA250A128A1119307A02003003181F
:100AF0000130A0000230CA250A128A1132307A026F
:100B0000003003180130A0000330CA250A128A11F0
:100B10004B307A02003003180130A0000430CA259F
:100B20000A128A1164307A02F701031C9D2DF70A1C
:100B3000FF30F6250A128A11C22D0030F6250A125E
:100B40008A11C22DF701F70A55301E260A128A11A2
:100B5000F70100300B260A128A110313A00101309D
:100B6000CA250A128A11A0010230CA250A128A1166
:100B7000A0010330CA250A128A11A0010430CA2537
:100B80000A128A11F701F01FC82DF70AFF309A29BF
:100B900000309A29F600D62D0730E42D0530F800F4
:100BA0000430E62D0530F8000830E62D7608013ACD
:100BB0000319CC2D033A0319CE2D013A0319D22D76
:100BC000073A031D08000530F8002030F700200820
:100BD0000319F02D78088400770883138004080037
:100BE000780884007709831380050800F6007708E9
:100BF00003170319042E43087606031D032E440829
:100C00007706031908000317C201C20A7608C30059
:100C10007708C4000800F60077080319172E380873
:100C20007606031D172E3908770603190800B70149
:100C3000B70A7608B8007708B9000800F600770808
:100C4000031703192C2E22087606031D2B2E2308CA
:100C50007706031908000317A101A10A7608A2006C
:100C60007708A300080044260A128A110038031DE1
:100C7000432E70170030701B01305B260A128A1158
:100C80000230D200A02C712E0030CD08031D01309F
:100C9000080044260A128A110038031D592E7013C9
:100CA0000030701B01305B260A128A110230D2001C
:100CB000A02C0030702EF600CD08031D0800652E14
:100CC000C430CA001230CB00692E5108003A031913
:100CD000602E711376187117E427CD01CD0A080034
:100CE0000800E4274D08031908000030D0260A1236
:100CF0008A110030BD260A128A110030B4260A1269
:100D00008A110030AC260A128A110030A426003065
:100D10000A128A1582276230A3008030A4000A12CA
:100D20008A154F25DC30A3008030A4000A128A15F2
:100D30004F25D630A3008030A4000A128A154F2513
:100D40000A128A11CD010800F60076080319AA2EAE
:100D50008814080088100800F60076080319B22EDF
:100D60008815080088110800F60076080313031997
:100D7000BB2E0615080006110800F600003A0319FC
:100D8000C72E013A0319CD2E033A0319CA2E3F305C
:100D90008805080008138817080008178817080036
:100DA000F600003A0319DA2E013A0319DD2E033A50
:100DB0000319E02ECF3088050800081688160800B1
:100DC0000812881608005108003A031D080021087F
:100DD000F7002008F600EC2E77088316A1007608AD
:100DE000A00008002408A1002308A0000F08A2000A
:100DF0002308023EF60024080318013EF700760897
:100E000084008317771C831346088000840A4708F0
:100E10008000840A48088000840A490880000E087F
:100E2000F6002008840083132118831776088000B9
:100E30000F08F6002008013EF70021080318013EC4
:100E4000F8007708840083137818831776088000E9
:100E50002008013EF60021080318013E003EF7007D
:100E6000760884008317771C831300082206031971
:100E70000800F62EF600770803170319482F170805
:100E80007606031D472F1808770603190800031775
:100E90009601960A76089700770898000800F600F1
:100EA000840083138001840A80017608023E840056
:100EB00000308001840A8001840A8001840A800154
:100EC0000800932FE230B1008030B2002E220A12C7
:100ED0008A11003A031908000330CA070318CB0A25
:100EE000CD000800743084000008840A000403194F
:100EF0007C2F711E08006C2F711A0800DC30A300D3
:100F00008030A4000A128A154F250A128A11033074
:100F1000CA070318CB0ACD000800080808390038B2
:100F2000031D08006C2F7308073A0319622F0F3A4C
:100F30000319722F013A03198D2F6C2F08080839F5
:100F4000080008003108023EA50032080318013EDF
:100F5000A600250884008317261C83130008A70019
:100F6000840A0008A800840A0008A900840A00086E
:100F7000AA00080083120313B6008030B700BB013B
:100F80000330BA00D030B9009030B8000800AC305F
:100F9000B6008030B700BB010930BA008930B90013
:100FA0006830B8000800473083160317BA001D30B8
:100FB000BB000800D03083120313B1008030B200B0
:100FC0000800831603170800831203130800831216
:100FD000BC005630B6008030B700BB010130BA000B
:100FE000E830B9004830B8000A128A15A0260A1263
:100FF0008A11BC1F0800C201C301C401C501080059
:1010000069346E34003456308312B6008030B70035
:10101000BB010130BA00E830B9004830B800A02662
:101020000A128A150730C50A45020318C5010800CF
:1010300056308312B6008030B700BB010130BA00D1
:10104000E830B9004830B800A0260A128A153C30B2
:10105000C30A43020318C301452C83124E0B4228D6
:10106000AC30B1008030B2000A128A112E220A126E
:101070008A15003A03194228CE010A128A11A024C7
:101080000A128A1503135208003A03194E28013A2E
:101090000319CC28033A0319EE28D2015C30B100C1
:1010A0008030B2000A128A112E220A128A15003AE2
:1010B000031908009A285C30B6008030B7009B30D6
:1010C000BB007230BA00EC30B9000030B800A02686
:1010D0000A128A15AE285C30B6008030B70059304D
:1010E000BB009530BA007630B9000030B800A026B9
:1010F0000A128A15AE285C30B6008030B700D630B0
:10110000BB009330BA00A430B9000030B800A0266C
:101110000A128A15AE28B6008030B700A030BB0096
:10112000EE30BA00BB30B9000030B800A0260A1279
:101130008A15AE287208013A03195B28033A03198D
:101140006B28013A03197B28073A5C3003198B2876
:10115000A3008030A4004F250A128A1545240A12E4
:101160008A156930D627BA001F30BB0004210A1245
:101170008A15701CC6286530D627BA001D30BB0002
:101180000421D201D20A0A128A11A02CB130D6272A
:10119000BA001D30BB000429F0180800B230B100BD
:1011A0008030B2000A128A112E220A128A15003AE1
:1011B0000319080045240A128A154F30D627BA00B1
:1011C0001E30BB0004210030701B01300A128A114E
:1011D0005B260230D2000A128A11A02C0A128A1150
:1011E00044260A128A150038031D0800B2300A127C
:1011F0008A114F270A128A157010701F0129D00119
:101200000229D00AD201EB28BC30D927AD008A27A9
:101210000A168A1500240A128A15B200B2080319A8
:101220000800253A03191929320882230A128A155F
:101230000729AF01B001AE012329D9272E15D627E2
:10124000BA0A0319BB0AD6273A0884003B080A16D3
:101250008A1500240A128A15303A03191D293A0802
:1012600084003B080A168A1500240A128A159E2358
:101270000A128A15031C7729D927AF01B001D62796
:101280003A0884003B080A168A1500240A128A15B7
:10129000D927A900AA013008A3002F08A2000A300C
:1012A000A400A5013F270A128A15290883132207E3
:1012B000AB002A0803182A0A2307AC002B08D03EEB
:1012C000AF002C080318013EFF3EB000D627BA0A33
:1012D0000319BB0A3A0884003B080A168A15002441
:1012E0000A128A159E230A128A1503183F293A0802
:1012F00084003B080A168A1500240A128A152E3A21
:10130000031DB129BA0A0319BB0AD927B101D6278F
:101310003A0884003B080A168A1500240A128A1526
:101320009E230A128A15031C272A0A30D927A200F5
:1013300031080A168A11B6250A128A15A900D6277D
:101340003A0884003B080A168A1500240A128A15F6
:10135000D9272907D03EB100D627BA0A0319BB0AFC
:101360008729D927B101272AAE17442A2D08A0279B
:101370000A128A153304031DC1295C30B3001C30E6
:10138000B400B501B60133083507840034080318EA
:10139000013E36070A168A1500240A128A150038FB
:1013A0000319D629B50A0319B60AC3293108031946
:1013B000EB293108A900AA01A91BAA0336082A02B1
:1013C000031DE429350829020318EB293108B5006B
:1013D000B601B51BB60330083602031DF1292F08EC
:1013E00035020318FA293508AF023608D2270A1247
:1013F0008A15FC29AF01B001FF30D927AF07031CC4
:10140000B0032F0A0319300A03191A2A2030822345
:101410000A128A15FC293308840034080A168A1532
:1014200000240A128A1582230A128A15D927B30AC0
:101430000319B40A0130B502031CB603350A0319B7
:10144000360A031907290B2AC030AE04442A8A271A
:101450000A168A1500240A128A15B200003A0319E6
:101460000800583A0319B4293C3A0319442A0D3AA2
:101470000319442A1A3A0319B629063A0319242AE9
:101480000D3A0319B42907292E08C039031D562A1D
:101490002D08A0270A128A15B41F5A2A0330AE0459
:1014A000B309B409B30A0319B40A5A2A2D08A027AC
:1014B0000A128A15B108031DAD2A34083304031D2E
:1014C000AD2AB10AAD2AB201B20A0310320D893E2B
:1014D00084001D300318013EAA000A168A15002454
:1014E000A900840A0319AA0A2A080A168A150024E0
:1014F0000A128A15AA003402031D802A2908330221
:10150000031CB72AB20A3208053A0319B72A652A1A
:10151000B201B20A0310320D1D3E84001C300318C4
:10152000013EAA000A168A150024A900840A03199C
:10153000AA0A2A080A168A1500240A128A15AA007D
:101540003402031DA52A29083302031CB72AB20A54
:101550003208043A0319B72A8A2A2E08C039031917
:10156000632A803A0319882A403A0319632A31080A
:10157000AA003208CC270A128A150318C22A310899
:10158000B200CC2A3208AA003108CC270A128A15E8
:101590000318CC2A3208B10030082F040319D82AC6
:1015A0002E0803390319D82AFF30AF07031CB003F4
:1015B0003208A900AA01A91BAA032A08803AAB0095
:1015C0003008803A2B02031DE72A2F082902D92769
:1015D0000318F52A3208A900AA01A91BAA03AF0221
:1015E0002A08D2270A128A15F72AAF01B0012E1D48
:1015F0000F2B2E0803390319012B2D3082230A12D9
:101600008A15D92730082F0403197D2B3030822307
:101610000A128A15FF30BD270A128A15042B3008DA
:101620002F0403191D2B203082230A128A15FF3044
:10163000BD270A128A15031D132B2E08033903191F
:101640007D2B2D307A2BC527893E84001D30031851
:10165000013EA9000A168A150024A200840A031973
:10166000A90A29080A168A1500240A128A15A30055
:1016700058270A128A1583132108A6002008A500FE
:101680000A30A700A801DC270A128A15831325084F
:10169000303E6D2BC5271D3E84001C300318013ED3
:1016A000A9000A168A150024A200840A0319A90AAF
:1016B00029080A168A1500240A128A15A300582739
:1016C000831320080F392C3E84001E300318013E7E
:1016D0000A168A1500240A128A15B200792B2E08E0
:1016E000C0390319232B803A03194A2B403A0319B6
:1016F000232B320882230A128A15D927B103310F0E
:101700006F2B0729F70083120C1A962B981C8E2B2F
:10171000831698129816831218121816181D942BF7
:101720001A088316981298166400832B770899007C
:10173000C730F600F60B9A2B9D2B0800F700F60138
:101740003A3077020318AA2B30307702031CAA2BF9
:10175000F601F60A760C0800C4300313B10080309D
:10176000B2000A128A112E220A128A1500380319B1
:101770000800C430B6008030B700BB01BA017A302F
:10178000B9001230B800A0260A128A150608BE0059
:101790000430BE05BE0803190615BC010608BD00CD
:1017A0000830BD05031DD92BBC0A51303C02031C77
:1017B000CE2BBE08031906113D080319E82B530868
:1017C000031DD30B0800F11E0800F1120030F52BA9
:1017D0000830530203180800D30A5308083A0319C3
:1017E000F11A0800F1160130F52BB7007112371805
:1017F000711645240A128A156E30B8001C30B900E3
:10180000711E062C6930B8001C30B900A730D627ED
:10181000BA001D30BB00D9273908D627BD00D9270B
:101820003808D627BC0004210A128A154D0803196E
:101830003A2C711E312C00300A128A11B4260A1279
:101840008A156230A3008030A4004F250A128A1541
:1018500045240A128A152530D627BA001C30BB0051
:10186000042945240A128A15BB30D627BA001D3038
:10187000BB000429711E080045240A128A153B305A
:10188000D627BA001D30BB000429D9274508D62722
:10189000BC00BD011B30BA001E30BB00D927440874
:1018A000D627BE00BF01D9274208D627C200C301F0
:1018B000D9274308D627C000C1010429F118882C74
:1018C000B830B1008030B2000A128A112E220A12FA
:1018D0008A15003A0319882CB830B6008030B7005A
:1018E000BB01BA013030B900D430B800A0260A12CA
:1018F0008A15F012F1145430831692007D30831251
:1019000092002A3095001F3097008C1083168C149B
:10191000701E8C2C01308D2C00308312BF00701D86
:10192000932C0130942C00303F06CA300319A82CA8
:10193000B6008030B700BB01BA019230B9007C30EC
:10194000B800A0260A128A15701270197016CA30D3
:10195000D927B1008030B2000A128A112E220A1251
:101960008A15003A03190800CA30A3008030A40089
:101970004F250A128A15F01DBF2C0130C02C0030F3
:10198000BF00701DC52C0130C62C00303F06031966
:101990000800F0117019F0150030F0190130D02C4A
:1019A000D927BE00F0103E18F01445240A128A15FB
:1019B0007A30BC001C30BD003E080319E32C003017
:1019C000BC000830BD004D30D627BA001C30BB002B
:1019D000D9273D08D627BD00D9273C08D627BC000B
:1019E00004210A128A153E08031D7014701C112D63
:1019F0003E08B2300319032DA3008030A4004F2508
:101A00000A128A15112DB6008030B7000130BB00D4
:101A1000C930BA00C330B9008030B800A0260A121D
:101A20008A157208053A0319252D7208063A03191A
:101A3000252D7208073A0319252D7208083A031953
:101A4000252D7208093A031D0800701C4C2DD20880
:101A50000319392D4C2DD0080319372D352D02309F
:101A6000322D03305002031C372D7017492D70138F
:101A7000492D7208053A0319352D033A03192B2D08
:101A8000013A03192F2D0F3A0319312D013A031989
:101A9000372DD927D201D20A0A128A11A02C230885
:101AA00084008317241C8313FF308000840A800085
:101AB0002308023EF70024080318013E003EF80008
:101AC000770884008317781C8313FF308000840A12
:101AD0008000840A8000840A800008007308003AAD
:101AE00003199D2E013A03199D2D033A0319AB2DBD
:101AF000013A0319B22D073A0319F02D013A0319DF
:101B0000022E033A0319542E013A0319092E0F3AF3
:101B100003192F2E013A0319372E033A03193A2ECF
:101B2000013A0319512E073A0319702E013A03198D
:101B3000842E033A03198F2E9D2E74080A128A11DF
:101B4000D0260A128A150330D927CA070318CB0AF0
:101B50000330CD00080074080A128A11BD260A124B
:101B60008A15A32D711FA32D743084000008840AE8
:101B700000040319E22D0230F7000A128A11BA2379
:101B80000A128A15711AA32D45240A128A150B30E0
:101B9000D627BA001C30BB00042101300A128A117A
:101BA000B4260A128A156230B6008030B7000130C0
:101BB000BB00BA007D30B900F830B800A0260A1288
:101BC0008A15A32D00300A128A11B4260A128A152A
:101BD0006230A3008030A4004F250A128A15A32D7D
:101BE000711FA32D45240A128A159D30D627BA00ED
:101BF0001D30BB00042174080A128A11A4260A129F
:101C00008A15A32D711FA32D740882270A128A1525
:101C1000A32DE230AA270A128A157D30A800A90157
:101C2000AA01AB010C270A128A15B4270A128A15D9
:101C3000282E75087404031D2C2EDC30B60080306D
:101C4000B7000430BB007830BA006830B900C0304B
:101C5000B800A0260A128A150530CD000800711BB5
:101C6000192E0330CA070318CB0ACD000800711BD8
:101C70002C2E312E711BA32D7408013EA200750875
:101C80000318013EA3000330A400A5013F270A1258
:101C90008A1583132208CA070318CB0A2308CB0727
:101CA000A82D711B3C2EA32D711FA32DD630AA2762
:101CB0000A128A15AB010130AA00E830A9004830A9
:101CC000A8000C270A128A15B4270A128A15B80030
:101CD000A02601300A128A11AC260A128A15A32DF9
:101CE0004A08033E8316A20083124B080318013EE4
:101CF000003E8316A3007430840000088312CA00DB
:101D0000840A0008CB00A82D831623088312CB0079
:101D1000831622088312CA000330CD000800452430
:101D20000A128A151430D627BA001C30BB000421D1
:101D3000F70102300A128A11BA230A128A11712E8F
:101D40003708B5003608B4003708A4003608A300E9
:101D50000A128A11F2260A128A153B083A0439043B
:101D6000380403190800340884008317351C8313D2
:101D70000008B000840A0008B100840A0008B2001C
:101D8000840A0008B300340884008317351C8313C9
:101D900038088007840A39080318013E031D8007AC
:101DA000840A3A080318013E031D8007840A3B0891
:101DB0000318013E8007340884008317351C831301
:101DC0000008AC00840A0008AD00840A0008AE00D8
:101DD000840A0008AF003302031DF82E2E083202D9
:101DE000031DF82E2D083102031DF82E2C08300299
:101DF000031C08003408043EAC0035080318013EFB
:101E0000AD002C08840083172D1C8313013080073C
:101E1000840A0318800A0800A001A101A201A301FD
:101E2000241C262F2808A007290803110318013EA7
:101E3000031DA1072A0803110318013E031DA20771
:101E40002B0803110318013E031DA3070310A80D5F
:101E5000A90DAA0DAB0D0310A70CA60CA50CA40C84
:101E60002708260425042404031D102F2308A70097
:101E70002208A6002108A5002008A4000800A0014F
:101E8000A101221C492F2408A0070318A10A250834
:101E9000A1070310A40DA50D0310A30CA20C230889
:101EA0002204031D412F2108A3002008A2000800DE
:101EB000F701F8012308220403197D2FF601F60A21
:101EC0000310A31B672FA20DA30D5F2F0310F70DA7
:101ED000F80D23082102031D6F2F22082002031C86
:101EE000792F2208A0022308031CA103A102771462
:101EF0000310A30CA20CF60B662F7808A10077083C
:101F0000A0000800F60076080319882F08150800BD
:101F100008110800831603173B0883120313AA0055
:101F2000831603173A0883120313A90083160317B5
:101F3000BA0A0319BB0A8312031384002A08080093
:101F4000840083170008B300840A0008B400AD0AB7
:101F5000AD0A0800B6008030B7007408A400750808
:101F6000A500A601A701080083132708BB002608C7
:101F7000BA002508B9002408080083120313AF072C
:101F8000031CB00330082F0408003408A1003308F4
:101F9000A0000310310D0800803AA9002A08803AF9
:101FA000A9020800031CB003B0020800831603173F
:101FB0000800831203130800280827040319FB2FC5
:101FC000A401A40AA81BE82F0310A70DA80DE12F58
:101FD00028082602031DEE2F27082502031CF72FD1
:101FE0002708A5022808031CA603A6020310A80CB4
:101FF000A70CA40BE82F2608A6002508A5000800BA
:1020000053346534743420346D346F34643465343F
:102010002034253475340A34003407344C348A347F
:1020200002340234003407342C34013402340034D6
:1020300000340734AB342F34023402340034073414
:102040002C3401340234003400340734AB342F34E0
:1020500002340234003407342C34013402340034A6
:1020600000340734DB3427340234023400340734BC
:102070002C3401340234003400340734DA34273489
:102080000234023400340734D234233402340134AD
:10209000003407344A34193405340034003402342F
:1020A0000234003407345C344734023401340034E1
:1020B000073410340B340234003400340D3400344F
:1020C0000034831203130C1C69280C109E200A167E
:1020D0008A118C1C6F288C108B200A168A1183128F
:1020E00003130B1C80280B100608540683160317D5
:1020F000C700471E7C28BA20831203130608D400A9
:10210000831603174608FE0045088A00440883002A
:10211000FF0E7F0E0900F11C0800F11083169201DA
:1021200083129201950183168C1083128C10121168
:10213000970107117011F01A70150800C60A0319EB
:10214000C70A0319C80A0319C90AFF304902031D47
:10215000B328FF304802031DB32800304702031D97
:10216000B32800304602031C0800C601C701C8019D
:10217000C901B928F11C080083120313061EF016CA
:1021800008000A168A11F0238316EE000A168A1533
:102190003D269B300317BA001E30BB000A128A1579
:1021A00004210A168A1183168E18E328D8300317E3
:1021B000BA001D30BB000A128A1504210A168A11C2
:1021C0008316EE17F4280E18EA28F9300317BA0020
:1021D0001D30DA281E300317BA001D30BB000A126A
:1021E0008A1504210A168A1183168E140E146E1C89
:1021F000032961300317BA001E30BB000A128A158A
:1022000004210A168A118316EE1C0E297430031756
:10221000BA001E30BB000A128A1504210A168A155C
:1022200093256E080A128A11E7270A168A157D255A
:102230000A168A152D250A128A1103206E080A1221
:102240008A11D823831603136E080A128A113323C6
:102250000A168A1555240A128A1113200A128A15A1
:102260005E240A128A15AC230A168A115F240A1208
:102270008A152D200A128A11B1210A168A11DA252F
:102280000A168A1183128C1EAB29981C4D298316BD
:1022900098129816831218121816181D54291A0825
:1022A00083169812981642291A088316ED009D2964
:1022B0000A128A1518200A128A15452447308316F7
:1022C0000317BA001D30BB000A128A1504210A1632
:1022D0008A1142290A168A15AF260A128A15452440
:1022E000473083160317BA001D30BB000A128A1547
:1022F00004210A168A1142290A128A1503200A1299
:102300008A154524473083160317BA001D30BB00D9
:102310000A128A1504210A168A1142290A128A15FC
:102320004524473083160317BA001D30BB000A123C
:102330008A1504210A168A1142296D080A3A0319DE
:102340008E29623A03196A29053A031958291A3A5B
:1023500003197C29422964002B29043401340034F8
:102360000134023400340734FF34FF3401340134C3
:10237000003407345B34273401340034003406342D
:102380000A34003409340034003401340134003498
:102390000734B63462340134023400340534013475
:1023A000003407342C348A340134013400340734C7
:1023B000D934D8340134023400340734CD3489346C
:1023C0000434003400340734C43406340134013496
:1023D00000340734DA34D83401340234003407349A
:1023E000ED3489340134013400340734DA34D8341C
:1023F0000134023400340734ED34893401340134BB
:10240000003407346334B134013402340034073407
:102410004C348A340234023400340734FC34263419
:102420000234003400340134003400340634033400
:1024300000340934003400340134023400340734E9
:102440001034153402340134003407343F34283456
:102450000234003400340734AD348934013401349B
:10246000003407346334B1340134023400340734A7
:10247000ED34893401340134003407346334B13429
:1024800001340234003407344C348A3402340234C8
:10249000003407348C3428340234003400340134DE
:1024A000003400340634033400340934003400347A
:1024B0000134023400340734283411340234013436
:1024C0000034073433342A340234003400340734FF
:1024D000AD3489340134013400340734ED348934A7
:1024E0000134023400340734ED34893401340134CA
:1024F00000340734EC3489340134023400340734B6
:102500004C348A340234023400340734EF342C342F
:10251000023400340034073479340834023401348E
:1025200000340734B7342D34023400340034073417
:102530002334B1340134013400340734ED348934A8
:1025400001340234003407346334B13401340134CB
:1025500000340734ED348934013402340034073454
:102560006334B1340134013400340734EC34893439
:1025700001340234003407346334B134013401349B
:1025800000340D340034003400340E340634013489
:10259000023400340234013400340734A1343334BB
:1025A0000234003400340734DD344634013401345D
:1025B000003407343934183401340234003402341E
:1025C00001340034073485341634023402340034C4
:1025D00007341434023402340034003407347634BF
:1025E00062340234023400340734AF342934023404
:1025F000013400340734CA3419340234023400344C
:1026000007343434433402340134003407349F3403
:10261000313402340034003407345D34123402346F
:10262000013400340734C3342B3402340234003410
:10263000073414340234023400340034073476345E
:1026400062340234023400340734AF3429340234A3
:10265000013400340734C9341934023402340034EC
:102660000734AD344E3401340134003402340134C3
:10267000003407340934553402340234003407344A
:10268000A43403340234003400340A3435340034C2
:1026900007344C342F340134023400340234013412
:1026A00000340734C0340C340234023400340734AC
:1026B0001434023402340034003407348E345E346F
:1026C00002340234003407344B34293402340134E8
:1026D00000340734CA341934023402340034073465
:1026E000F534423402340034003408340034003409
:1026F00003340134003401340134003407345034DD
:1027000049340234013400340734763462340234FC
:102710000234003407346C3404340234003400349E
:1027200008340134003407345E34F8340C347D341A
:102730001F3403340134003407347A34D83401347C
:1027400002340034063403340034093400340034D5
:102750000134013400340834013400340734E234E5
:10276000AB340C347D341F3403340134003407346B
:102770009E3463340234013400340734D534523487
:1027800002340234003401340034003406340B3493
:10279000003407346C340434023400340034093417
:1027A000003400340134023400340734D13414349A
:1027B0000134013400340734BA34D83408340134D5
:1027C00000340734C33498340C34AD3411340C3431
:1027D0000D3410340134003400340E34003400342D
:1027E00013308316850083128501073083169F00FE
:1027F000FB308600831286018316811383120B102F
:102800008B152330CC009830831687008312870104
:102810008316880101308312880083168901831290
:1028200089018230F800DD30F700F70B152CF80B2A
:10283000152C1A2C8230F800DD30F700F70B1E2C17
:10284000F80B1E2C232C83120313A7010E30A200B9
:102850002708B6250A168A119C3E840083170008B3
:10286000A6000E30A2002708B6250A168A119B3E44
:1028700084000008840083130008F7000E30A200D3
:102880002708B6250A168A119A3E8400770883170E
:1028900080000E30A2002708B6250A168A119A3E3B
:1028A000840026088005A70A03302702031C262C73
:1028B000A701061C2714861EA7142708080006086F
:1028C0008316EA0083124C068316EC006A08831212
:1028D000CC0083166C1C782C90308312B6008130AB
:1028E000B7009630C5250A128A15A0260A168A1145
:1028F0008316EC1E872C9E308312B6008130B70001
:10290000A430C5250A128A15A0260A168A11831634
:10291000EC1C962CAC308312B6008130B700B2307C
:10292000C5250A128A15A0260A168A118316EC01FB
:102930000E308312A20083166C08B625903EB100BB
:102940008130B2000A128A112E220A168A11003A28
:1029500003190A2D0E30A20083166C08B6250A163C
:102960008A119B3E840083170008840083130008AB
:102970008316EB000E308312A20083166C08B62576
:102980000A168A119C3E8400831700088316EB0503
:102990000E308312A20083166C08B6250A168A111F
:1029A0009A3E8400000883166B060E308312A20044
:1029B00083160319FF2C6C08B6259D3E8400000881
:1029C0008316E8006B088312C000831668080A1695
:1029D0008A1500250A168A110E3083120313A200ED
:1029E00083166C08B6250A168A119A3E840083164F
:1029F0006B08831780000E308312A20083166C08C8
:102A0000B625903EA3008130A4000A128A154F25F6
:102A10000A168A118316EC0A03306C02031C982CE8
:102A2000EC010B308312A20083166C08B625103E11
:102A3000B1008130B2000A128A112E220A168A11C0
:102A4000003A0319AF2D0B30A20083166C08B6258F
:102A50000A168A11163E8400831700088316E900BF
:102A60000B308312A20083166C08B625103EB60008
:102A70008130B700BB01BA013D30B9000930B80060
:102A80000A128A15A0260A168A110B30A200831694
:102A90006C08B6250A168A11173E840083170008B1
:102AA000831669050B308312A200831603196C2D5F
:102AB0006C08B6250A168A111A3E84000008C10067
:102AC0000B30A20083166C08B6250A168A11D3258E
:102AD0000A168A1180047F2D6C08B6250A168A1101
:102AE0001A3E84000009C1000B30A20083166C0856
:102AF000B6250A168A11D3250A168A1180050B30CD
:102B0000A20083166C08B6250A168A11163E8400A8
:102B100003108317800D8008031DAF2D0B30A2001A
:102B200083166C08B6250A168A11163E84008001A9
:102B3000800A0B30A20083166C08B6250A168A118B
:102B4000183E84008008031DAF2D0B30A2008316B1
:102B50006C08B6250A168A11173E84008001831678
:102B6000EC0A05306C0203180800112D8312A10035
:102B7000A00122082118A0070310A20D0310A10C28
:102B8000A108031DB92D2008080084008317000840
:102B9000B800840A0008B900840A0008BA00840A50
:102BA0000008BB000800193E8400000884004108AA
:102BB00083130800C0016F2EBE30B1008030B20018
:102BC0000A128A112E220A168A11003A03190800E5
:102BD000D50A0800103084270A168A11003A031912
:102BE000E82DC001C00A912E0630BC00BD010230A4
:102BF000A7003C30B5260A168A11003A0319E82DC1
:102C000002306D2E0430C1004130B0003C30F62659
:102C10000A168A11003A0319E82D03306D2E3C087C
:102C2000BD000E30BC000230A7003C30B5260A16AD
:102C30008A11003A0319E82D05306D2E0430C100C9
:102C40004130B0003C30F6260A168A11003A0319CA
:102C5000E82D06306D2E0B30BC00A701A70A3C30D2
:102C6000B5260A168A11003A0319E82D08306D2E90
:102C70000830C1004130B000A430F6260A168A118F
:102C8000003A0319452E09306D2E4108083A031900
:102C90004B2E0A306D2ED50A0830BC000F30BD0017
:102CA0000230A7003C30B5260A168A11003A0319F3
:102CB000E82D0B306D2E0430C1004130B0003C30A7
:102CC000F6260A168A11003A0319682E0C306D2E6A
:102CD0004108043A03198F2E0D30C0008F2E55087D
:102CE000003A0319DC2D013A0319EA2D033A0319BE
:102CF000F42D013A0319022E073A03190F2E013A57
:102D000003191E2E033A03192B2E013A0319382EEC
:102D10000F3A03194C2E013A031D08005B2E0030B8
:102D20008427D501BE30B6008030B700BB01053026
:102D3000BA00B830B900D830B8000A128A15A026F7
:102D40000A168A1140080319080035308316031744
:102D5000BA001C30BB00831203134008831603170C
:102D6000BC00BD010A128A150429A200A501A60112
:102D7000DF270A168A1111148312A301A401230864
:102D8000A03876270A168A110038031DCB2E83122D
:102D9000A501A50AF12E013076270A168A110038FE
:102DA000031DD62E02308312A500F12E83122708B0
:102DB00076270A168A1100380319D22E83122708A3
:102DC00026020318F12E2608220784008313000828
:102DD00076270A168A1100380319D22E8312A60A02
:102DE000DE2EDF271115831225080800A800AD018B
:102DF000AF01AE01DF270A168A1111148312A9014F
:102E0000AA012908A03876270A168A110038031D5E
:102E10000D2F8312AD01AD0A712F013076270A16EE
:102E20008A110038031D182F02308312AD00712F54
:102E3000DF270A168A1191148312AB01AB0AAC0189
:102E40002B08A03876270A168A1100380319142F88
:102E50008312A401A40A2F30B7270A168A118312FD
:102E6000AF0803196C2F2F08FF3A031D3A2F0330C8
:102E7000AD006C2F300884002F0883130002031864
:102E8000452F300884000008AF002F082E020318D9
:102E9000662F2E08013EA500003003180130A60061
:102EA000803AA70080302702031D582F2F082502E3
:102EB0000030031C013083120313A4002E082807DE
:102EC000B7270A168A118312AE0A452F30088400EC
:102ED0002E0883138000712FA4010030B7270A1633
:102EE0008A11DF27111583122D0808008312A10013
:102EF000DF2783122108930003108316111F031488
:102F00000030031801300800A200A501DF270A16CF
:102F10008A1111148312A301A4012308A038762773
:102F20000A168A110038031D992F8312A501A50ADC
:102F3000AC2F003076270A168A110038031DA42F03
:102F4000FF308312A500AC2F8312220876270A16C1
:102F50008A1100380319A02FDF27111583122508C5
:102F60000800DF2711150800DF2711140800A3004F
:102F7000DF270A168A119115DF270A168A11831294
:102F800023080319C82F2308840013088313800023
:102F9000DF270A168A118312A101A10AA2012408BF
:102FA0000319D42FA101A201211CDA2F83160313C8
:102FB0009116DD2F83160313911211160800FF30AE
:102FC0008312A000E82F8312A0080319FA2FA00390
:102FD000831611081F39F600F701031014190314A2
:102FE0000030031801307604F8007708F9007804FF
:102FF000031DE32F831611080800DF279114080032
:10380000FE00FE1F082C83137E1883170008080093
:103810008A0004088200463469346C346C3469349C
:103820006E3467340A34003443344D3444345F34E6
:1038300045344E3444340A340034013400341034F6
:1038400000340034013400341034463469346C34AC
:103850006C34653464340A34003475346E346B343B
:103860006E346F3477346E340034453472347234CD
:103870002034253464340A34003464008001840A1E
:1038800004060319003404063E2C42346F347834A5
:103890002034693473342034003443346134743454
:1038A0002034253473340A34003483120313060899
:1038B000D4000B178B17080028346E3475346C3421
:1038C0006C34293400346D34653473347334793492
:1038D0000034683469346734683400346C346F34CD
:1038E000773400347734653474340034643472349B
:0E38F000793400346F347534743400340800B9
:103A0000FE001D308A007E08820700000A168A1513
:103A10007E2C0A128A1190280A128A11FC282C3452
:103A2000203469346E3463346F346D3470346134EF
:103A30007434693462346C346534003455346E3413
:103A40006B346E346F3477346E34203472346534B2
:103A50007334653474340A3400345430831692005D
:103A60007D30831292002A3095001F3097008C1011
:103A700083168C14080042346F3478342034663452
:103A80006C346F346F3464346534643421340A34F4
:103A90000034463469346C346C3420347434693402
:103AA0006D3465346F34753474340A3400344334FF
:103AB0004D3444345F3453345434413452345434E8
:103AC0002C34203425347334003477346134693431
:103AD000743469346E3467342E342E342E340A3400
:103AE0000034493450342034303478342534303480
:103AF000343458343A342034003438309400831647
:103B000091010A3093001417941783128C138D11AE
:103B10000800013400340A34003464340034E834DA
:103B2000033410342734831290109016101690111D
:103B30001011101483160C140800443472346134CC
:103B400069346E3469346E3467340A34003457345F
:103B500061347434653472342034253473340A3457
:103B6000003473346B3469347034703469346E34B7
:103B700067340A34003444347234613469346E3446
:103B8000653464340A340034743469346434793408
:103B9000003444347234613469346E342034743403
:103BA00069346D3465346F34753474340A340034D8
:103BB00050346F347734653472342D346F346E344E
:103BC0002034723465347334653474340A34003408
:103BD0007E088A007F088200E8250A168A15800080
:103BE000840A04087D0603190034FF0A0319FE0A3B
:103BF000EC2D423472346F3477346E342D346F349C
:103C000075347434203472346534733465347434E8
:103C10000A3400342C3420346E346F34203473343E
:103C200074346134723474343A3420343034783437
:103C30002534583400342534643420342534643435
:103C40003A3425342E34323464342E3425342E3430
:103C50003234643420340034303431343234333448
:103C600034343534363437343834393441344234EA
:103C7000433444344534463400340C30990018152C
:103C80001812831298171816981283160C128C1299
:103C900018138312181383169812981608004334C9
:103CA00061347434743469346D346534723420345E
:103CB00065347834703469347234653464340A3469
:103CC00000345334743461347234743420346234C4
:103CD0007534743474346F346E342034683465341D
:103CE0006C3464340A3400345334653474347534B9
:103CF0007034203462347534743474346F346E34F8
:103D00002034683465346C3464340A3400345734F5
:103D100065347434203463346C34653461346E3407
:103D200075347034203466346F34723463346534DF
:103D300064340A3400340A342A342A342A342034CD
:103D4000433461347434473465346E3469347534C3
:103D5000733420342A342A342A340A340034563056
:103D60008312B6008030B700BB010130BA00E830E2
:103D7000B9004830B8000A128A15A0260A168A151A
:103D80001730C40A44020318C4010800FF34FF348A
:103D9000FF34FF34FF34FF34FF34FF34FF34FF348B
:103DA000FF34FF34FF34FF34FF34FF34FF34FF347B
:103DB000FF34FF34FF34FF34FF34FF34FF34FF346B
:103DC000FF34FF34FF34FF34FF34FF34FF34FF345B
:103DD000FF34FF346A3418340034003400340634BD
:103DE00001340434FF34FF34FF34FF34FF34FF3434
:103DF0006A34183400340034003406342034073474
:103E0000FF34FF34FF34FF34FF34FF346A34183496
:103E100000340034003406340234013400340034F9
:103E200000340034003400340134003400340734EA
:103E300002340034003400340034003400340134DF
:103E400000340034073401340034003400340034CA
:103E500000340034013400340034093404340034B4
:103E600000340034003400340034013400340034B1
:103E70000934013400340034003400340034003498
:103E80000134003400340934023400340E34063472
:103E9000013401340034023401340034073409346D
:103EA00055340234023400340734A4340334023469
:103EB000003400340A34013400340C34AD3411348D
:103EC0000C340D3410340134003400340E3400341A
:103ED00000344134753474346F34743469346D345F
:103EE0006534723420346534783470346934723413
:103EF000653464343A3420340034043401340034FA
:103F00000734763462340434003400340734FF3428
:103F1000FF340734C7342734043401340034073401
:103F20008E345E3404340034003407340A342034D0
:103F300004340134003407348E345E3404340034E5
:103F4000003407340A342034043401340034073494
:103F5000FF34FF340734C7342734043400340034CA
:103F60000834003400340D3400340034F001F10121
:103F7000F201F301F401F5018313423084005C3057
:103F80000A168A153D24A0308400CA300A168A1504
:103F90003D246430FA00FF30DC00DD00DE00DF008D
:103FA000E000E100E200E300E400E500E600E700F5
:103FB000E830FD001E30FE00C630FF00CA3084002D
:103FC0000A168A15EC258317BA30FD001E30FE0054
:103FD000E430FF00903084000A168A15EC25473043
:103FE000FD001F30FE000E30FF00103084000A1666
:103FF0008A15EC250A168A1583010A168A11C1282A
:02400E00751E1D
:00000001FF
