:100000000A128A1112280800FF000308831603173A
:10001000C8000408C9000A08CA007E08CB000A16F6
:100020008A1135290A168A115B2A003412340634E3
:100030000134023400340234013400340834A13471
:1000400033340234003400340834DD3446340134AF
:1000500001340034083439341834013402340034A3
:100060000234013400340834853416340234023446
:1000700000340834143402340234003400340834B8
:10008000763462340234023400340834AF34293414
:100090000234013400340834CA34193402340234CE
:1000A0000034083434344334023401340034083426
:1000B0009F34313402340034003408345D34123457
:1000C0000234013400340834C3342B340234023493
:1000D0000034083414340234023400340034083458
:1000E000763462340234023400340834AF342934B4
:1000F0000234013400340834C9341934023402346F
:1001000000340834AD344E34013401340034023448
:1001100001340034083409345534023402340034D4
:100120000834A43403340234003400341034B834B6
:10013000003408344C342F34013402340034023497
:10014000013400340834C0340C3402340234003436
:1001500008341434023402340034003408348E3449
:100160005E3402340234003408344B34293402340F
:10017000013400340834CA341934023402340034EF
:100180000334013400340834F5344234013401348A
:10019000003402340034003408345034493402341A
:1001A00001340034083476346234023402340034CA
:1001B00008346C340434023400340034093401341B
:1001C000003403340034003408345E34F834053429
:1001D0000134003408347634623405340034003499
:1001E0000834FF34FF340834C7342734053401346D
:1001F0000034083476346234053400340034083472
:100200000A3420340534013400340834763462343E
:1002100005340034003408340A3420340534013401
:1002200000340834FF34FF340834513400340534CA
:100230000034003403340134003408347A34D834C0
:1002400001340234003404340134003408342934D5
:100250000A340434003400340134013400340934E5
:10026000013400340334003400340834E234AB3455
:1002700005340134003408347634623405340034F3
:1002800000340834FF34FF340834C73427340534CD
:100290000134003408348E345E34053400340034C4
:1002A00008340A34203405340134003408348E34E0
:1002B0005E3405340034003408340A342034053404
:1002C000013400340834FF34FF340834C734273491
:1002D00005340034003403340134003408349E34CF
:1002E00063340234013400340834D53452340234D7
:1002F0000234003401340034003404340134003456
:1003000008346C34043402340034003408346C345F
:100310002534043400340034013402340034083409
:10032000D13414340134013400340834BA34D834AC
:100330000934013400340334003400340834C33445
:100340009834053401340034013402340034083464
:10035000FF34FF3408347134003401340134003484
:1003600008345B342734013400340034043401345D
:10037000003408344A34263401340134003404345F
:10038000003400340834B6346234013402340034AA
:1003900006340134003408342C348A3401340134F6
:1003A00000340834D934D8340134023400340834E9
:1003B000CD3489340534003400340834C434063470
:1003C0000134013400340834DA34D83401340234CE
:1003D00000340834ED3489340134013400340834F5
:1003E000DA34D8340134023400340834ED3489343A
:1003F00001340134003408346334B134013402343C
:10040000003408344C348A34023402340034083462
:10041000FC34263402340034003401340034003417
:10042000043401340034083429340A3401340234E9
:1004300000340434003400340834103415340234E9
:100440000134003408343F3428340234003400349A
:100450000834AD3489340134013400340834633451
:10046000B1340134023400340834ED3489340134B9
:100470000134003408346334B134013402340034BC
:1004800008344C348A3402340234003408348C3456
:10049000283402340034003401340034003404348D
:1004A00001340034083429340A340134023400346D
:1004B0000434003400340834283411340234013454
:1004C0000034083433342A3402340034003408341D
:1004D000AD3489340134013400340834ED348934C6
:1004E0000134023400340834ED34893401340134E9
:1004F00000340834EC3489340134023400340834D4
:100500004C348A340234023400340834EF342C344E
:1005100002340034003408347934083402340134AD
:1005200000340834B7342D34023400340034083435
:100530002334B1340134013400340834ED348934C7
:1005400001340234003408346334B13401340134EA
:1005500000340834ED348934013402340034083472
:100560006334B1340134013400340834EC34893458
:1005700001340234003408346334B13401340134BA
:10058000003408344C348A340234023400340834E1
:100590002C3401340234003400340834AB342F34AA
:1005A00002340234003408342C3401340234003470
:1005B00000340834AB342F340234023400340834AD
:1005C0002C3401340234003400340834DB34273452
:1005D00002340234003408342C3401340234003440
:1005E00000340834DA342734023402340034083456
:1005F000D234233402340134003408344A341934F8
:1006000006340034003402340234003408345C34DC
:1006100047340234013400340134003400340834E7
:1006200010340B34023400340034FE34003400340F
:100630000A34433461347434473465346E34693475
:10064000753473340A340034C13083120313D80074
:100650008030D9000A168A112C240A128A11003A15
:100660000319332B342B8A2BC13083160313E50077
:100670008030E6000030EA000030E9003030E80069
:10068000D430E7000A168A1149260A128A11F11B92
:100690004A2B4B2B612B8316031385146330831273
:1006A0000313DB00DB0B522B552B831203130608BD
:1006B0000839C000FD30DB005B0883160313850595
:1006C000662B8312031306080839C0008312400802
:1006D000330603196C2B6D2B8A2B2C3083160313D6
:1006E000E5008130E6003230840083170008E7001F
:1006F000840A0008E800840A0008E900840A000867
:10070000EA000A168A1149260A128A118312031373
:100710004008B30083120313060883160313EC008A
:100720006C0883120313340683160313EE006C085F
:1007300083120313B400831603136E1CA02BA12B8A
:10074000B82B1030E5008130E600163084008317A6
:100750000008E700840A0008E800840A0008E900AD
:10076000840A0008EA000A168A1149260A128A1128
:1007700083160313EE1EBD2BBE2BD52B1E30E500BA
:100780008130E6002430840083170008E700840AE3
:100790000008E800840A0008E900840A0008EA006A
:1007A0000A168A1149260A128A1183160313EE1CAF
:1007B000DA2BDB2BF22B3A30E5008130E6004030BB
:1007C000840083170008E700840A0008E800840A10
:1007D0000008E900840A0008EA000A168A1149267E
:1007E0000A128A1103100030031801308316031314
:1007F000EE000E3083120313CB00831603136E0832
:100800000A168A15E7250A128A11103E831203136D
:10081000D8008130D9000A168A112C240A128A11B4
:10082000003A0319142C152CA22C0E30831203133A
:10083000CB00831603136E080A168A15E7250A12E1
:100840008A110B3E103E8400831700088400831336
:10085000000883160313ED000E3083120313CB0040
:10086000831603136E080A168A15E7250A128A11E1
:100870000C3E103E84008317000883120313DB0034
:100880005B0883160313ED050E3083120313CB00B0
:10089000831603136E080A168A15E7250A128A11B1
:1008A0000A3E103E840083170008831603136D066A
:1008B00003195B2C5C2C8C2C6D0883120313DA005B
:1008C0000E30CB00831603136E080A168A15E7252F
:1008D0000A128A110D3E103E8400831700080A1286
:1008E0008A1500200A128A11831603136D088312D9
:1008F0000313DB000E30CB00831603136E080A16B9
:100900008A15E7250A128A110A3E103E84008312D6
:1009100003135B08831780000E308312CB0083160D
:1009200003136E080A168A15E7250A128A11103E6B
:1009300083120313CC008130CD000A128A11DA270A
:100940000A128A11013083120313DB005B0883163D
:100950000313EE0704306E02031CAF2CB02CF92BEE
:100960000310003003180130EE000B308312031324
:10097000CB00831603136E080A168A15E7250A12A0
:100980008A11903E83120313D8008130D9000A16D1
:100990008A112C240A128A11003A0319D02CD12C66
:1009A000C12D0B3083120313CB00831603136E0883
:1009B0000A168A15E7250A128A11063E903E84001F
:1009C0008317000883160313EB000B308312031305
:1009D000CB00831603136E080A168A15E7250A1240
:1009E0008A11903E83160313E5008130E600003043
:1009F000EA000030E9003D30E8000930E7000A165F
:100A00008A1149260A128A110B3083120313CB0074
:100A1000831603136E080A168A15E7250A128A112F
:100A2000073E903E840083170008831603136B056E
:100A300003191B2D1C2D462D0B3083120313CB00E5
:100A4000831603136E080A168A15E7250A128A11FF
:100A50000A3E903E84008317000883120313DB00D4
:100A60000B30CB00831603136E080A168A15E72590
:100A70000A128A11093E903E840083170008840000
:100A8000831203135B08831380046F2D0B308312D2
:100A90000313CB00831603136E080A168A15E72585
:100AA0000A128A110A3E903E8400831700098312BD
:100AB0000313DB000B30CB00831603136E080A16FA
:100AC0008A15E7250A128A11093E903E8400831791
:100AD00000088400831203135B08831380050B3026
:100AE000CB00831603136E080A168A15E7250A122F
:100AF0008A11063E903E840003108317800D800803
:100B0000031D832D842DC12D0B3083120313CB00C5
:100B1000831603136E080A168A15E7250A128A112E
:100B2000063E903E8400831780010314800D0B3035
:100B300083120313CB00831603136E080A168A155B
:100B4000E7250A128A11083E903E84008317800828
:100B5000031DAB2DAC2DC12D03100B3083120313DD
:100B6000CB00831603136E080A168A15E7250A12AE
:100B70008A11073E903E840000300318013083172D
:100B80008000013083120313DB005B08831603131C
:100B9000EE0705306E02031CCE2DCF2DB52C0800BC
:100BA00083120313B708031DD62DD72DEB2DBB30B1
:100BB000D8008030D9000A168A112C240A128A1112
:100BC000003A0319E42DE52DEB2D013083120313B8
:100BD000DA005A08B7070A168A154D240A128A1134
:100BE000003A0319F42DF52DA82FD92F10300A162D
:100BF0008A150B240A128A11013083120313DA00BA
:100C00005A08B707D92F0630B80003100030031870
:100C10000130B9000230C10038300A168A15AA27FF
:100C20000A128A11FC2D0A168A1565240A128A11E5
:100C3000FC2D38300A168A1576260A128A110130E0
:100C400083120313DA005A08B7073808DA005A0883
:100C5000B9000E30B8000230C10038300A168A15CB
:100C6000AA270A128A11013083120313DA005A08E4
:100C7000B707D92F38300A168A1576260A128A1134
:100C8000013083120313DA005A08B70783160313DF
:100C900007080A168A11F8200A128A110D300A165E
:100CA0008A1583270A128A110A300A168A158327A1
:100CB0000A128A110B3083120313B800C101031406
:100CC000C10D38300A168A15AA270A128A11FC2D7E
:100CD00038300A168A1576260A128A11BF30831216
:100CE0000313C5001C30C6000A168A11BB210A1264
:100CF0008A11831203133F080A168A11F8200A1278
:100D00008A1120300A168A1583270A128A11831243
:100D100003133E080A168A11F8200A128A1120309D
:100D20000A168A1583270A128A11831203133D08B3
:100D30000A168A11F8200A128A1120300A168A151A
:100D400083270A128A11831203133C080A168A1198
:100D5000F8200A128A1120300A168A1583270A12EF
:100D60008A11831203133B080A168A11F8200A120B
:100D70008A1120300A168A1583270A128A118312D3
:100D800003133A080A168A11F8200A128A11203031
:100D90000A168A1583270A128A1183120313390847
:100DA0000A168A11F8200A128A1120300A168A15AA
:100DB00083270A128A118312031338080A168A112C
:100DC000F8200A128A110D300A168A1583270A1292
:100DD0008A110A300A168A1583270A128A1103100B
:100DE00000300318013083120313A9000130DA0028
:100DF0005A08B7070830B8002908DA005A08B900BD
:100E00000230C10038300A168A15AA270A128A1140
:100E1000FC2D38300A168A1576260A128A114630B9
:100E200083120313C5001C30C6000A168A11BB21A9
:100E30000A128A118312031329080A168A11F8204C
:100E40000A128A1120300A168A1583270A128A117B
:100E500020300A168A1583270A128A118312031377
:100E60003B080A168A11F8200A128A1120300A1645
:100E70008A1583270A128A11831203133A080A1665
:100E80008A11F8200A128A1120300A168A1583273F
:100E90000A128A118312031339080A168A11F820DC
:100EA0000A128A1120300A168A1583270A128A111B
:100EB0008312031338080A168A11F8200A128A11BD
:100EC00020300A168A1583270A128A110D300A1655
:100ED0008A1583270A128A110A300A168A1583276F
:100EE0000A128A11013083120313DA005A08A90783
:100EF00080302902031C7D2F7E2F802FFF30A90018
:100F00002908031D842FFC2D0B30B700D92F00308A
:100F10000A168A150B240A128A11031000300318CE
:100F2000013083120313B700BB3083160313E500AF
:100F30008030E6000030EA000530E900B830E80013
:100F4000D830E7000A168A1149260A128A11D92FC9
:100F5000831203133708003A0319D92F013A0319F2
:100F6000F62D033A0319032E013A0319132E073AFB
:100F70000319192E013A0319252E033A0319132ECA
:100F8000013A03193A2E0F3A0319462E013A031972
:100F9000132E033A0319682E013A0319FA2E073A61
:100FA0000319132E013A0319092F033A0319872F46
:100FB000D92F0800831203134C08840083174D1C9B
:100FC0008313FF308000840AFF3080004C08023E0B
:100FD000F5004D080318013E003EF6007508840038
:100FE0008317761C8313FF308000840AFF30800053
:100FF000840AFF308000840AFF3080000800080067
:10100000FE0008308A007E08820700000A168A1156
:101010006C2F0A168A157F2C0A168A157E2C0A1642
:101020008A11D82E11308316031385000310003067
:10103000031801308312031385000730831603134E
:101040009F00831203138514FB308316031386005D
:101050000310003003180130831203138600831637
:1010600003138113831203130B108B150615233002
:10107000B400983083160313870003100030031860
:10108000013083120313870003100030031801306E
:1010900083160313880001308312031388000310A2
:1010A0000030031801308316031389000310003049
:1010B0000318013083120313890003100030031852
:1010C0000130CD000E30CB004D080A168A15E725F9
:1010D0000A128A150C3E103E840083170008831202
:1010E0000313CC000E30CB004D080A168A15E725F5
:1010F0000A128A150B3E103E8400831700088400F4
:1011000083130008831203134C05F5000E30CB0047
:101110004D080A168A15E7250A128A150A3E103E5E
:1011200084007508831780000130F500750883126C
:101130000313CD0704304D02031C9F28A02862280A
:101140000310003003180130CD000618A828A92884
:10115000AA284D14861AAD28AE28AF28CD144D0804
:101160000800AA290310003003180130AC00013038
:10117000D7005708F7070A307702031CC028C12898
:10118000C6280310003003180130F7007708013A31
:101190000319CB28CC28DE287708023A0319D12876
:1011A000D228DE287708033A0319D728D828DE2862
:1011B0007708043A031DDD28DE28DF28F114031028
:1011C000003003180130B200031000300318013062
:1011D000AF0044295D3083160313E5008030E6003C
:1011E0009B30EA007230E900EC30E8000030E700A4
:1011F0000A168A1149260A128A1552295D30831669
:101200000313E5008030E6005930EA009530E9002C
:101210007630E8000030E7000A168A1149260A12E3
:101220008A1552295D3083160313E5008030E600ED
:10123000D630EA009330E900A430E8000030E7003F
:101240000A168A1149260A128A1552295D30831618
:101250000313E5008030E600A030EA00EE30E9003C
:10126000BB30E8000030E7000A168A1149260A124E
:101270008A1552295D30CC008030CD000A128A11C7
:10128000DA270A128A1552297708013A0319EA283F
:10129000033A0319FE28013A03191229073A0319E0
:1012A00026293A29AF300A168A15B5250A128A1559
:1012B00070110A128A154B240A128A15B7290A30AE
:1012C0005C0203186429652968290A30DC00912929
:1012D00019305C0203186D296E2971291930DC0060
:1012E000912932305C020318762977297A29323025
:1012F000DC0091294B305C0203187F298029832967
:101300004B30DC00912964305C020318882989295C
:101310008C296430DC00912903100030031801305F
:10132000DC00A93083160313E5008030E6000030AE
:10133000EA000930E9008930E8006830E7000A1661
:101340008A1149260A128A150A128A154B240A1292
:101350008A15B729831203132C08003A0319B728FA
:10136000013A03195F29033A0319B729B228080083
:10137000831203132C08013A031DBF29C029B72A81
:10138000A930D8008030D9000A168A112C240A12FC
:101390008A15003A0319CD29CE29B72A83120313DF
:1013A0002D08031DD429D7290230AC00DC290310F5
:1013B000003003180130AC000A128A154B240A12BF
:1013C0008A15B72A0310003003180130B2005D30CF
:1013D000D8008030D9000A168A112C240A128A15E6
:1013E000003A0319F429F529C42A522A5D308316DC
:1013F0000313E5008030E6009B30EA007230E9001C
:10140000EC30E8000030E7000A168A1149260A127B
:101410008A15602A5D3083160313E5008030E600EC
:101420005930EA009530E9007630E8000030E700F6
:101430000A168A1149260A128A15602A5D30831617
:101440000313E5008030E600D630EA009330E9006F
:10145000A430E8000030E7000A168A1149260A1273
:101460008A15602A5D3083160313E5008030E6009C
:10147000A030EA00EE30E900BB30E8000030E700C1
:101480000A168A1149260A128A15602A5D308312CB
:101490000313CC008030CD000A128A11DA270A1219
:1014A0008A15602A7708013A0319F629033A0319C5
:1014B0000A2A013A03191E2A073A0319322A462A30
:1014C000701D632A642AC42A83120313B201031411
:1014D000B20D0A128A154B240A128A15C42AF01971
:1014E000722A732AC42AAF30D8008030D9000A1675
:1014F0008A112C240A128A15003A0319802A812A9B
:10150000C42A0030F11801300A168A1585250A12FE
:101510008A15023083120313B200692A0A168A154B
:101520006F240A128A150038031D972A982AC42AA4
:10153000AF300A168A15B5250A128A157011F11CEA
:10154000A22AA32AAB2A0310003003180130831209
:101550000313AF00B12A013083120313DA005A08D3
:10156000AF070310003003180130B200692A83125C
:1015700003133208003A0319E729013A03196F2AC5
:10158000033A03198E2AE2290800212CFF3079053D
:1015900083120313D70000307A05D80000305802B8
:1015A0001330031957020318D62AD72AF22A7218C1
:1015B000DA2ADB2ADF2AFA18DE2ADF2AE72A721C57
:1015C000E22AE32AF22A7A1DE62AE72AF22A0130E1
:1015D00083120313A4070318A50A0030A5070230DD
:1015E000AA024A2C0310003003180130AA004A2C2A
:1015F00079080A168A153F270A128A15E72A7908F8
:101600000A168A151D270A128A15E72A721C092B49
:101610000A2BE72A79080A168A154A250A128A151A
:10162000793084000008840A00040319182B192B50
:101630002D2BD93083160313E5008030E6000130EE
:10164000EA000130E9007D30E800F830E7000A16D2
:101650008A1149260A128A15E72AD9308312031300
:10166000CC008030CD000A128A11DA270A128A15BE
:10167000E72A721C3C2B3D2BE72A79080A168A15AB
:10168000F7240A128A15E72A721C472B482BE72AEF
:1016900079080A168A1507250A128A1579308400F6
:1016A0000008840A00040319562B572B6B2BD330E8
:1016B00083160313E5008030E6000030EA002F3087
:1016C000E900AF30E8000830E7000A168A11492621
:1016D0000A128A15E72AD33083120313CC00803014
:1016E000CD000A128A11DA270A128A15E72A721C1B
:1016F0007A2B7B2BE72A79080A168A15E7240A1227
:101700008A15E72ADF3083160313E5008030E600F0
:10171000790883120313C5007A08C600C701C801FF
:101720000030CC000030CB000030CA007D30C90052
:101730000A168A1173210A128A158313831203135E
:10174000480883160313EA0083120313470883161D
:101750000313E90083120313460883160313E800FA
:1017600083120313450883160313E7000A168A1130
:1017700049260A128A15013083120313D70057082D
:10178000AA074A2C721CC52BC62BE72ABB2B721842
:10179000CA2BCB2BE72A7908013E83120313D7000B
:1017A0007A080318013E003ED8005708A407031822
:1017B000A50A5808A507EF2A721CDF2BE02BE72AA1
:1017C000CB2B721CE42BE52BE72ACD3083160313B9
:1017D000E5008030E6007908E7007A08E800E901D2
:1017E000EA010A168A1149260A128A1501300A16D8
:1017F0008A15F7240A128A15E72AD93083120313AF
:10180000CC008030CD000A128A11DA270A128A151C
:10181000D33083120313CC008030CD000A128A111A
:10182000DA270A128A15003083120313A40000304D
:10183000A500F22A003083120313A4000030A50093
:101840004A2C7808003A0319C62A013A0319F82AE3
:10185000033A0319FF2A013A0319062B073A031921
:10186000392B013A0319442B033A0319772B0E3A0B
:101870000319822B013A0319C22B193A0319C72BFA
:10188000013A0319DC2B033A0319E12BEC3A031953
:10189000FD2B1A2C0800072E03100030031801300E
:1018A000AC000310003003180130F50000300A16B8
:1018B0008A15B7260A128A150A30831203135C02AE
:1018C000031C632C642C702C0310003003180130AF
:1018D000F50000300A168A1595260A128A15302D51
:1018E000F5010314F50D55300A168A1595260A12CE
:1018F0008A15302D0310003003180130F700802CBA
:101900007708013A003003190130F40001300A165B
:101910008A11BE200A128A157708023A003003198C
:101920000130F40002300A168A11BE200A128A150C
:101930007708033A003003190130F40003300A1627
:101940008A11BE200A128A157708043A003003195A
:101950000130F40004300A168A11BE200A128A15DA
:101960000310003003180130F50000300A168A1504
:10197000D9260A128A15142E7708093A0030031D59
:101980000130F40001300A168A11BE200A128A15AD
:101990007708063A003003190130F40002300A16C5
:1019A0008A11BE200A128A157708073A00300319F7
:1019B0000130F40003300A168A11BE200A128A157B
:1019C0007708083A003003190130F40004300A1691
:1019D0008A11BE200A128A15F01DEF2CF02C022D60
:1019E000831203133208023A0319F72CF82C022D44
:1019F000F5010314F50D55300A168A15D9260A1279
:101A00008A15142E701D052D062D262D8312031305
:101A10003208023A03190D2D0E2D262DF11C112D21
:101A2000122D1C2DF5010314F50DFA300A168A1536
:101A3000D9260A128A15142EF5010314F50DFE306D
:101A40000A168A15D9260A128A15142EF5010314CE
:101A5000F50DFF300A168A15D9260A128A15142E9A
:101A60007708003A0319802C013A0319802C033AB5
:101A70000319802C013A0319802C073A0319802C92
:101A8000013A0319BC2C033A0319BC2C013A03197F
:101A9000BC2C0F3A0319BC2C013A0319BC2C7A2C2C
:101AA0000310003003180130F50000300A168A15C3
:101AB000B7260A128A15F5010314F50DFF300A1630
:101AC0008A1595260A128A150A30831203135C02BE
:101AD000003003180130F40001300A168A11BE20CC
:101AE0000A128A151930831203135C02003003189E
:101AF0000130F40002300A168A11BE200A128A153B
:101B00003230831203135C02003003180130F400FA
:101B100003300A168A11BE200A128A154B3083122E
:101B200003135C02003003180130F40004300A167D
:101B30008A11BE200A128A156430831203135C02D4
:101B4000031CA32DA42DAE2DF5010314F50DFF30BC
:101B50000A168A15D9260A128A15142E0310003087
:101B600003180130F50000300A168A15D9260A122A
:101B70008A15142EF5010314F50D55300A168A1531
:101B8000B7260A128A150310003003180130F50039
:101B900000300A168A1595260A128A158312031335
:101BA0002D08013A003003190130F40001300A1603
:101BB0008A11BE200A128A15831203132D08023AD5
:101BC000003003190130F40002300A168A11BE20D9
:101BD0000A128A15831203132D08033A00300319E1
:101BE0000130F40003300A168A11BE200A128A1549
:101BF000831203132D08043A003003190130F40056
:101C000004300A168A11BE200A128A15142E831275
:101C100003132C08003A0319512C013A0319502DD3
:101C2000033A0319BA2D4C2C08000A168A153824D9
:101C30000A128A15003A03191E2E1F2EA12FFF2FFC
:101C40000A168A155A240A128A15013083120313C0
:101C5000C1004108B507FF2F031000300318013001
:101C6000F50050300A168A15D8240A128A15252E36
:101C70000A168A1577240A128A15003A0319412E8A
:101C8000422E492E00300A168A1528240A128A1577
:101C9000252EF0140A168A156A240A128A150310D2
:101CA00000300318013083120313B500FF2F0A160A
:101CB0008A1560240A128A15252EF5010314F50DE4
:101CC00050300A168A15D8240A128A15252E0A16AB
:101CD0008A1577240A128A15003A0319702E712E7C
:101CE000782E00300A168A1515240A128A15252E18
:101CF000F2144A2E0A168A1577240A128A15003A17
:101D00000319832E842E782E0A168A1573240A123C
:101D10008A1583160313A0004A2E031000300318FF
:101D20000130F50050300A168A15D8240A128A1597
:101D3000252E0A168A1577240A128A15003A0319E5
:101D4000A22EA32E492E00300A168A1528240A1224
:101D50008A15252E0A168A1577240A128A15003A42
:101D60000319B32EB42E782E8316031320080A16F7
:101D70008A1528240A128A15252E0A168A15772410
:101D80000A128A150038031DC62EC72E4A2E782E39
:101D90000310003003180130F50050300A168A1580
:101DA000D8240A128A15252E0A168A1577240A12B3
:101DB0008A15003A0319DD2EDE2E492E01300A164F
:101DC0008A1528240A128A15252EF5010314F50D0B
:101DD00050300A168A15D8240A128A15252E0A169A
:101DE0008A1577240A128A15003A0319F82EF92E5B
:101DF000782E01300A168A1515240A128A15252E06
:101E00000A168A1573240A128A1583120313B00066
:101E1000B008031D0C2F0D2F102F1630B500FF2F0B
:101E20003008FF3A031D152F162F182FF2100D2F13
:101E300009303002031C1D2F1E2F202F0830B00048
:101E4000031000300318013083120313AE00252E57
:101E500030082E0203182D2F2E2F472F2E08013E5B
:101E6000C100003003180130C2004208803AC300AC
:101E700080304302031D3E2F300841020030031C16
:101E800001300A168A1515240A128A15252E1730D4
:101E9000B500FF2F0A168A1573240A128A158312B9
:101EA0000313C1002E08A03E840041088313800064
:101EB0000130C1004108AE070130B502FF2F0030EC
:101EC0000A168A1515240A128A15252E03100030C9
:101ED00003180130F50050300A168A15D8240A126A
:101EE0008A15252E0A168A1577240A128A15003AB1
:101EF00003197B2F7C2F492E01300A168A152824BE
:101F00000A128A15252E30080A168A1528240A1264
:101F10008A15202F30082E0203188F2F902F252E80
:101F20002E08A03E8400831300080A168A15282470
:101F30000A128A15013083120313C1004108AE074B
:101F4000FF2F831203133508003A0319FF2F013ABC
:101F50000319202E033A03192C2E013A0319382EA7
:101F6000073A0319572E013A03195D2E033A031954
:101F7000672E013A03197A2E0F3A0319202E013ADF
:101F800003198D2E033A0319992E013A0319AA2E2B
:101F9000073A0319BD2E013A0319202E033A0319FB
:101FA000C82E013A0319D42E1F3A0319572E013AAD
:101FB0000319E52E033A0319EF2E013A0319002FF6
:101FC000073A0319282F013A03194A2F033A031934
:101FD0005F2F013A03194A2E0F3A0319202E013AB6
:101FE0000319662F033A0319722F013A0319832F3D
:101FF000073A03198A2F013A03194A2EFF2F0800C6
:1020000083120313AC010314AC0DA9308316031320
:10201000E5008030E6000030EA000930E900893050
:10202000E8006830E7000A168A1149260A168A1164
:102030000A128A154B240A168A110800711E2128DB
:1020400022284E2871120310003003180130831625
:10205000031392000310003003180130831203139E
:10206000920003100030031801309500831603130B
:102070008C10831203138C101211031000300318FC
:1020800001309700FB3083160317C70047088312FF
:1020900003138705F012F01F4E28F01608000034D5
:1020A000003400340034003400340134003400348F
:1020B0000734023400340034003400340034003477
:1020C0000134003400340734013400340034003467
:1020D0000034003400340134003400340934043452
:1020E000003400340034003400340034013400344F
:1020F0000034093401340034003400340034003436
:10210000003401340034003409340234FF34FF3425
:10211000FF34FF34FF34FF346A34183400340034A1
:102120000034063401340A34FF34FF34FF34FF3402
:10213000FF34FF346A341834003400340034063479
:1021400020340134FF34FF34FF34FF34FF34FF34D4
:102150009034D0340334003400344034083407342D
:10216000FF34FF34FF34FF34FF34FF346A34183453
:102170000034003400340634023404348312031370
:10218000C100D6280730C3002030C200E428053043
:10219000C3000430C200E4280530C3000830C20088
:1021A000E4280530C3002030C200E4284108013A89
:1021B0000319C228033A0319C728013A0319CC2886
:1021C000073A0319D128F7287408031DE828F028D6
:1021D0004208F30043088400730883138004F7283F
:1021E0004209F30043088400730883138005080044
:1021F00083120313C5004508F50004300310F50CE5
:10220000FF3E031DFE287508C6000A30460203186B
:102210000A290B2910293030F5007508C607142942
:102220003730F5007508C60746080A168A15832751
:102230000A168A118312031345080F39C6000A30A3
:1022400046020318242925292A293030F50075086B
:10225000C6072E293730F5007508C60746080A1646
:102260008A1583270A168A110800831203130C1C8F
:102270003A293B2941290C100A168A15CD250A1640
:102280008A11831203138C1C462947294D298C106F
:102290000A168A111E200A168A11831203130B1CB8
:1022A0005229532966290B1006082806831603179E
:1022B000CC004C1E5C295D2962290A168A15A724C8
:1022C0000A168A11831203130608A800831603173F
:1022D0004B08FE004A088A00490884004808830029
:1022E000FF0E7F0E0900003083120313C40000307C
:1022F000C3000030C2000030C100451C8029812984
:1023000098294908C1074A0803110318013E031917
:102310008A29C2074B0803110318013E03199129AA
:10232000C3074C0803110318013E03199829C40779
:102330000130F3000310C90DCA0DCB0DCC0DF30B0A
:102340009A2901300310C80CC70CC60CC50CFF3EFF
:10235000031DA2294808470446044504031DB1296A
:10236000B2297D294408C8004308C7004208C600B6
:102370004108C5000800FB294508840046080A16E4
:102380008A1500240A168A110A168A1583270A1646
:102390008A11831203134508840046080A168A1519
:1023A00000240A168A110D3A031DD729D829DE29DF
:1023B0000A300A168A1583270A168A118312031314
:1023C0004508840046080A168A1500240A168A1150
:1023D0000A3A031DEC29ED29F3290D300A168A1556
:1023E00083270A168A11013083120313C5070318C5
:1023F000C60A0030C6078312031345088400460846
:102400000A168A1500240A168A110038031D092AA3
:102410000A2ABC290800831203134508C201C20717
:102420004408C101C1070F08C3004408023EF3007D
:1024300045080318013E003EF4007308840083172A
:10244000741C831320088000840A21088000840AF9
:1024500022088000840A230880000E08F300410847
:1024600084008317421C8313730880000F08F30055
:102470004108013EF40042080318013E003EF50009
:10248000740884008317751C831373088000410847
:10249000013EF30042080318013E003EF4007308B9
:1024A00084008317741C831300084306031D592AF4
:1024B0005A2A132A0800F001F101F201F701F8018C
:1024C000F901FA0183132030840041300A168A157D
:1024D00030240A168A11A0308400C7300A168A15E3
:1024E00030240A168A116930FD001C30FE00CB3002
:1024F000FF005C3084000A168A152C250A168A1102
:10250000E530FD001E30FE005830FF00C73084006B
:102510000A168A152C250A168A118317C730FD0062
:102520001030FE004F30FF00903084000A168A15EC
:102530002C250A168A114830FD001030FE00863026
:10254000FF00103084000A168A152C250A168A11FD
:1025500083010A168A11C82BFD2ADF308312031368
:10256000D8008030D9000A168A112C240A168A1144
:10257000003A0319BC2ABD2A052B0130831203132C
:10258000A4070318A50A0030A5070330AA02052BEB
:10259000793084000008840A00040319D02AD12A63
:1025A000E72A0A168A1554240A168A11003A0319D2
:1025B000DA2ADB2A052BD93083120313CC008030B2
:1025C000CD000A128A11DA270A168A11BD2A0A16C4
:1025D0008A1554240A168A110038031DF02AF12A9C
:1025E000052BD33083120313CC008030CD000A12A8
:1025F0008A11DA270A168A11BD2A7808083A0319BF
:10260000AD2A013A0319C82ABD2A0800CD30831229
:102610000313D8008030D9000A168A112C240A1618
:102620008A11003A0319152B162B522B00300A166B
:102630008A15F7240A168A11CD3083120313CC00B1
:102640008030CD000A128A11DA270A168A11522B1D
:102650002508C201C2072408C101C1070A168A154C
:1026600070250A168A11013083120313DA005A0802
:10267000AA07652B78300A168A1517250A168A11BB
:10268000003A0319442B452B652B332B0A128A156C
:10269000C5220A168A11652B0A168A11AC220A165F
:1026A0008A11652B831203132A08003A0319652B3C
:1026B000013A0319282B033A03193A2B013A03195B
:1026C000462B073A03194C2B652B0800F5008312A3
:1026D00003132708C201C2072608C101C10703303E
:1026E000C3000030C4000A168A15D5270A168A11BD
:1026F000153083138312031341078400003003183D
:10270000013042070A168A1500240A168A11C500EC
:1027100075088400450880002708C201C207260802
:10272000C101C1070330C3000030C4000A168A1576
:10273000D5270A168A118313831203134108013E19
:10274000C50042080318013E003EC600153045078B
:1027500084000030031801304607C8000A168A15A5
:1027600000240A168A11C700840A0319C80A4808F7
:102770000A168A1500240A168A11C8007508013E37
:10278000840047088000840A48088000013008005F
:102790000A128A1512200A168A110A168A159D2510
:1027A0000A168A11183083120313C5000330C600BD
:1027B0000A168A11BB210A168A110A168A15B32431
:1027C0000A168A110A168A155C250A168A110A1633
:1027D0008A157D240A168A110A168A157C240A167F
:1027E0008A110A168A1539250A168A110A168A15B7
:1027F0007B240A168A110A128A1103200A168A11EA
:102800000A168A153F240A168A110A168A11AF245D
:102810000A168A110A128A1124230A168A110A1228
:102820008A15B8210A168A110A168A1106230A1671
:102830008A110A128A11D0250A168A110A128A15DB
:1028400015260A168A110A168A1137250A168A11C0
:10285000052C0A128A111228523083120313C40065
:102860008030C5000A168A110B220A168A118312BB
:1028700003135808023ECC0059080318013E003EDD
:10288000CD004C08840083174D1C83130008CE0034
:10289000840A0008CF00840A0008D000840A0008D7
:1028A000D1000230523E84004E0883130006840F8C
:1028B000031D662C4F080006840F031D662C50086C
:1028C0000006840F031D662C51080006031D692CA9
:1028D0006A2C832C580884008317591C8313000822
:1028E000CC00013084070008CD004D085302031DC1
:1028F0007B2C4C085202031C7E2C7F2C812C013037
:10290000AE2C0030AE2C5808023ECC0059080318FB
:10291000013E003ECD004C08840083174D1C8313FC
:102920000008CE00840A0008CF00840A0008D00006
:10293000840A0008D10057085102031DA92C56082B
:102940005002031DA92C55084F02031DA92C540841
:102950004E020318AC2CAD2C812C7F2C0800711A70
:10296000B22CB32CE82CB53083120313D80080307E
:10297000D9000A168A112C240A168A11003A031962
:10298000C22CC32CE82CB53083160313E50080302D
:10299000E6000030EA000030E9003030E800D430D2
:1029A000E7000A168A1149260A168A11F0137116D1
:1029B00054308316031392007D3083120313920068
:1029C0002A3095001F3097008C10831603138C1447
:1029D000701BEB2CED2C0130EE2C00308312031316
:1029E000DA00F01AF42CF62C0130F72C00305A06DD
:1029F0000319FB2CFC2C132DC73083160313E500A1
:102A00008030E6000030EA000030E9009230E80053
:102A10007C30E7000A168A1149260A168A117013BB
:102A2000F01E132D7017C73083120313D8008030A7
:102A3000D9000A168A112C240A168A11003A0319A1
:102A4000222D232D362D0030F01A01300A168A115E
:102A5000C0250A168A11C73083120313CC008030B8
:102A6000CD000A128A11DA270A168A110800831685
:102A7000031311081F3983120313C100C20103108D
:102A80008316031314190314003003180130831242
:102A900003134104C3004208C4004408430403195B
:102AA000522D532D962DBF2D831603131114013073
:102AB0008312C1004108B607BF2D03100030031870
:102AC000013083120313B600BF2D83160313911434
:102AD000572D2B089300572D701483160313111FC5
:102AE000722D70105D2D831603139115572D130849
:102AF000AB00572D0130F3000030F400701C812D25
:102B0000822D862D0030F3000030F4007318892DDB
:102B10008D2D831603139116902D83160313911296
:102B20001116572D831603131115572D3608003A29
:102B30000319BF2D013A0319542D033A03195D2DD2
:102B4000013A0319652D073A03195D2D013A03195E
:102B5000692D033A03196C2D013A0319732D0F3AAD
:102B60000319772D013A03197A2D033A03195D2DC4
:102B7000013A0319922D073A03195D2DBF2D080064
:102B800083120313D700F011571CC72DF0158312C1
:102B900003135708031DCD2DCE2D7015701DD12D9B
:102BA000D22DE52DAF3083160313E5008030E6000B
:102BB0000130EA00C930E900C330E8008030E700A6
:102BC0000A168A1149260A168A117708053A031946
:102BD000EA2DEB2D032E7708063A0319F02DF12D7F
:102BE000032E7708073A0319F62DF72D032E7708E1
:102BF000083A0319FC2DFD2D032E7708093A031D11
:102C0000022E032E482E701D062E072E432E8312F1
:102C10000313B208031D0D2E0E2E432E2D2EF1147C
:102C20003E2EAF08031D152E172EF114182EF1108D
:102C30003E2E02302F0203181E2E202EF114212EBC
:102C4000F1103E2E03302F020318272E292EF114E7
:102C50002A2EF1103E2EF1103E2E7708053A031968
:102C60000F2E033A0319112E013A0319192E0F3AA8
:102C70000319222E013A03192B2E3E2E8312031321
:102C8000B2010314B20D0A128A154B240A168A11D6
:102C9000080083160313660883120313D601D607B0
:102CA00083160313650883120313D501D507831612
:102CB0000313660883120313C501C50783160313A4
:102CC000650883120313C401C4070A168A110B2274
:102CD0000A168A11831603136A08690468046704D4
:102CE000031D732E742E752ED72E831203135508D1
:102CF00084008317561C83130008D100840A00083F
:102D0000D200840A0008D300840A0008D4005508C1
:102D100084008317561C83138316031367088007E8
:102D2000840A68080318013E031D8007840A6908A5
:102D30000318013E031D8007840A6A080318013E38
:102D4000800783120313550884008317561C8313CE
:102D50000008CD00840A0008CE00840A0008CF00D5
:102D6000840A0008D00050085402031DC12E4F08E9
:102D70005302031DC12E4E085202031DC12E4D08E1
:102D80005102031CC42EC52ED72E5508043ECD007B
:102D900056080318013E003ECE004D0884008317FC
:102DA0004E1C831301308007840A0318800A080030
:102DB00083120313DA08031DDE2EDF2E122F711784
:102DC000633083160313E5008030E6000030EA002C
:102DD0000330E900D030E8009030E7000A168A118D
:102DE00049260A168A11F11EF62EF72EF82EF11535
:102DF0007119FB2EFC2E082F031000300318013030
:102E0000F50001300A168A15FB260A168A116B2F67
:102E1000F5010314F50D55300A168A1561270A16B7
:102E20008A116B2F7113F119162F172F3F2F711D58
:102E30001A2F1B2F252FF5010314F50DFF300A164D
:102E40008A1561270A168A116B2F6330D8008030EB
:102E5000D9000A168A112C240A168A11003A03197D
:102E6000322F332F392F0A168A151E260A168A1179
:102E70006B2F0A168A153B260A168A116B2FF11A38
:102E8000422F432F6B2F6330D8008030D9000A16B1
:102E90008A112C240A168A11003A0319502F512F37
:102EA000572F0A168A1502260A168A116A2F711DD3
:102EB0005A2F5B2F652FF5010314F50DFF300A160D
:102EC0008A1561270A168A116A2F0A168A110020AC
:102ED0000A168A11F111080083120313DA08031D80
:102EE000722F732FA62FF116633083160313E5009C
:102EF0008030E6000030EA000330E900D030E8001E
:102F00009030E7000A168A1149260A168A11711FA5
:102F10008A2F8B2F8C2FF11571198F2F902F9C2FAB
:102F20000310003003180130F50001300A168A152D
:102F3000FB260A168A11FF2FF5010314F50D5530F3
:102F40000A168A1561270A168A11FF2FF112F11944
:102F5000AA2FAB2FD32F711DAE2FAF2FB92FF50195
:102F60000314F50DFF300A168A1561270A168A1117
:102F7000FF2F6330D8008030D9000A168A112C2424
:102F80000A168A11003A0319C62FC72FCD2F0A122D
:102F90008A11FF270A168A11FF2F0A128A15B120FB
:102FA0000A168A11FF2F711BD62FD72FFF2F6330E0
:102FB000D8008030D9000A168A112C240A168A11EA
:102FC000003A0319E42FE52FEB2F0A168A15022683
:102FD0000A168A11FE2F711DEE2FEF2FF92FF50122
:102FE0000314F50DFF300A168A1561270A168A1197
:102FF000FE2F0A168A1100200A168A11F111080004
:10380000FE00FE1F082C83137E1883170008080093
:103810008A0004088200F300730883160313A000D3
:10382000083083120313B5000800F3007010731CF6
:103830001A2C7014073083120313B60008007408A2
:1038400083120313A701A7077308A601A6070800A0
:10385000F300730883120313AB000530B6000800B1
:1038600064008001840A0406031900340406312C24
:10387000003083120313B608031D013008008312C1
:1038800003130608A8000B178B17080042346C348A
:103890006F3463346B3420340034003083120313EC
:1038A000B508031D01300800003083120313C01D4A
:1038B0000130080083120313B6010314B60D08008B
:1038C000033083120313B60008000D308312031374
:1038D000B50008000B3083120313B60008008312F2
:1038E00003132A080800831203132B080800003072
:1038F00070180130080008000800080008000800DF
:10394E00711EAA2CAB2CB22C83120313061AB02CA8
:10395E00B12CB22CF017080083120313901090169E
:10396E001016901110111014831603130C14080066
:10397E0055346E34693471347534653420344934B9
:10398E0044343A34203400346434FF34FF34FF348A
:10399E00FF34FF34FF34FF34FF34FF34FF34FF3481
:1039AE00FF34F4007408F300730783120313AB00A3
:1039BE007508031DE32CE42C2B140530B60008000B
:1039CE00F4007408031DEC2CF02C8312031308155D
:1039DE00F62CFB30F30073088312031388050800DE
:1039EE00F4007408031DFC2C002D8312031388159C
:1039FE00062DF730F30073088312031388050800B1
:103A0E00F4007408031D0C2D102D8312031388145B
:103A1E00162DFD30F300730883120313880508007A
:103A2E0083120313C900222D49080A168A11662330
:103A3E000A168A15272D3108003A03191B2D1B2D46
:103A4E0008007E088A007F08820028250A168A153B
:103A5E008000840A04087D0603190034FF0A031946
:103A6E00FE0A2C2D54308316031392007D308312E0
:103A7E00031392002A3095001F3097008C10831686
:103A8E0003138C140800F4007408031D4F2D542DDD
:103A9E00F1178316031385145B2DF113FD30F3001C
:103AAE007308831603138505080038308312031339
:103ABE009400031000300318013083160313910095
:103ACE000A30930014179417831203138C138D115D
:103ADE0008007D2D4208F401F4074108F301F307B5
:103AEE000A168A151F240A168A15842D83120313AB
:103AFE003108003A0319712D842D0800F400831249
:103B0E00031325082404031D8D2D8E2D9C2D72105C
:103B1E00741C922D7214003083120313A400003013
:103B2E00A5000130F3007308AA0708000C308316B5
:103B3E0003139900181518128312031398171816E9
:103B4E009812831603130C128C121813831203137C
:103B5E00181383160313981298160800F3007308AF
:103B6E008400003083138000840A003080007308C4
:103B7E00023E840000308000840A00308000840AF7
:103B8E0000308000840A003080000800013083126B
:103B9E000313A007003003110318013E0319D82D9B
:103BAE00A107003003110318013E0319DF2DA207F0
:103BBE00003003110318013E0319E62DA307080078
:103BCE0083120313CA000310003003180130C9001A
:103BDE004A1CF22DF32DF72D4B08F4007408C9077B
:103BEE000310CB0D0310CA0CCA08031DFF2D002EA7
:103BFE00EF2D490808000430F106711D072E082E1E
:103C0E00122EF5010314F50DFF300A168A156127E1
:103C1E000A168A151D2E0310003003180130F50008
:103C2E0000300A168A1561270A168A1508000A1628
:103C3E008A156F240A168A150038031D272E282E82
:103C4E003A2EF1140030F11801300A168A15852526
:103C5E000A168A15023083120313B2000A128A154D
:103C6E004B240A168A1508000A168A156F240A169E
:103C7E008A150038031D442E452E572EF1100030A4
:103C8E00F11801300A168A1585250A168A15023092
:103C9E0083120313B2000A128A154B240A168A15D0
:103CAE000800FF34FF34FF34FF34FF34FF34FF3499
:103CBE00FF34FF34FF34FF34FF34FF34FF34FF345E
:103CCE00FF34FF34FF34FF34FF34FF34FF34FF344E
:103CDE00FF34FF34FF34FF34FF34FF34FF34F4007D
:103CEE000310003003180130F5008C2E7508A03E2D
:103CFE00840083130008F3007508740784007308AA
:103D0E0080000130F3007308F507831203133008A7
:103D1E007502031C932E942E7D2E0800F400750858
:103D2E00031D9A2EA92E8316031738087406031D39
:103D3E00A12EA22EA92E39087506031DA72EA82E78
:103D4E00A92EB62E83160317B7010314B70D7408E8
:103D5E00F3007308B8007508F3007308B900080083
:103D6E00F4007508031DBC2ECB2E831603172208F4
:103D7E007406031DC32EC42ECB2E23087506031DF9
:103D8E00C92ECA2ECB2ED82E83160317A1010314CB
:103D9E00A10D7408F3007308A2007508F3007308F0
:103DAE00A3000800F4007508031DDE2EED2E831609
:103DBE00031743087406031DE52EE62EED2E440868
:103DCE007506031DEB2EEC2EED2EFA2E8316031721
:103DDE00C2010314C20D7408F3007308C300750802
:103DEE00F3007308C4000800F4007508031D002FCB
:103DFE000F2F8316031717087406031D072F082F9E
:103E0E000F2F18087506031D0D2F0E2F0F2F1C2FA9
:103E1E008316031796010314960D7408F3007308A6
:103E2E0097007508F300730898000800F400332F0C
:103E3E003F30F30073088312031388053E2FBF3003
:103E4E00F300730883120313880588173E2F83121D
:103E5E000313081788173E2F7408003A03191F2FF3
:103E6E00013A03192E2F033A0319262F1F2F08008C
:103E7E00F400552FCF30F300730883120313880517
:103E8E00602F8312031308168816602FEF30F3008D
:103E9E0073088312031388058816602F7408003A7E
:103EAE000319412F013A0319482F033A03194D2FD5
:103EBE00412F0800F4007508031D662F752F831619
:103ECE0003172D087406031D6D2F6E2F752F2E08E8
:103EDE007506031D732F742F752F822F83160317EC
:103EEE00AC010314AC0D7408F3007308AD00750833
:103EFE00F3007308AE000800F4009C2F981C882F66
:103F0E00892F912F83160313981298168312031379
:103F1E0018121816181D942F952F9B2F1A088316FA
:103F2E000313A800981298166400831203130C1E34
:103F3E00A12FA22F852F74089900C730F300F30B21
:103F4E00A62FA92F0800F400093083120313410293
:103F5E00031CB22FB32FB52F0830C1000310003051
:103F6E0003180130F500CA2F7508740784008313F7
:103F7E000008F3007508A03E84007308800001302D
:103F8E00F3007308F50741087502031CCF2FD02FDD
:103F9E00BB2F4108B0001830B50008000030F30008
:103FAE000030F40083120313411CDE2FDF2FE52FA8
:103FBE004308F3070318F40A4408F407013003100A
:103FCE00C30DC40DFF3E031DE62F01300310C20CBE
:103FDE00C10CFF3E031DED2F42084104031DF82FB7
:103FEE00F92FD92F7408C201C2077308C101C10786
:023FFE000800B9
:02400E00713708
:00000001FF
