:100000000A128A1110280800FF0003088316031340
:10001000E9000A08EA007E08EB000A168A11772A2E
:100020000A168A11C12AD52758080319080000307A
:100030000A128A155E2700300A128A1532270A1220
:100040008A11003088200A128A1100304E200A12CC
:100050008A110030462000300A128A15CD260A1275
:100060008A11B930A3008030A4000A210A128A1133
:10007000B330A3008030A4000A210A128A11AD30E7
:10008000A3008030A4000A21D8010800F200720801
:1000900003194C288814080088100800F200720820
:1000A0008312031955288815080088110800410893
:1000B000003A031D5D2871165E2871128F30D52716
:1000C000BE001E30BF00711E6928CD30BE001D303D
:1000D000BF002930B6001E30B7003F08B9003E0807
:1000E000B80069220A128A115808711E0800031903
:1000F0008328003088200A128A11B9308312A300A5
:100100008030A4000A29D430B6001F30B700692A15
:10011000F200720803199128F1168316031385144F
:100120000800F1128316031385108312851408004A
:10013000F118C228DD30B1008030B200B9260A12B1
:100140008A11003A0319C228DD30B6008030B700AA
:10015000BB01BA013030B900D430B8000A128A1598
:1001600041260A128A11F012F114543083169200BB
:100170007D30831292002A3095001F3097008C103A
:1001800083168C14701EC6280130C72800308312D5
:10019000C100701DCD280130CE2800304106A130AD
:1001A0000319E428B6008030B700BB01BA019230D1
:1001B000B9007C30B8000A128A1541260A128A1149
:1001C000701270197016A130D527B1008030B200BE
:1001D000B9260A128A11003A03190800A130A300B7
:1001E0008030A4000A210A128A11F01DF92801307A
:1001F000FA280030C100701DFF28013000290030AE
:10020000410603190800F0117019F0150030F019BB
:1002100001302929230884008317241C8313FF300D
:100220008000840A80002308023EF300240803189B
:10023000013E003EF400730884008317741C83138E
:10024000FF308000840A8000840A8000840A8000D5
:100250000800D527C000F0104018F014BD3003137B
:10026000BE001D30BF00400803193A29FD30BE0012
:100270000730BF007730B6001E30B7003F08B90026
:100280003E08B80069220A128A114008031D701442
:10029000701C5B29D730B6008030B7000130BB003E
:1002A000C930BA00C330B9008030B8000A128A15CC
:1002B00041260A128A117708053A03196F2977082F
:1002C000063A03196F297708073A03196F29770847
:1002D000083A03196F297708093A031D0800701CB2
:1002E0009829DB080319852998298316CE08031954
:1002F0008329812902307D29033083164E02031C95
:10030000832970179529701395297708053A0319E1
:100310008129033A03197529013A03197A290F3AF9
:1003200003197C29013A03198329D527DB01DB0A4C
:100330000A128A15BD296730D527B6001E30B700CE
:1003400069220A128A11C729D2300313B6001D3060
:10035000B70069220A128A11E329D7300313B600C5
:100360001D30B70069220A128A110030E9210A12F1
:100370008A11E329C9300313B6001D30B700692282
:100380000A128A110130E9210A128A11E329013087
:100390000A128A15D5200A128A11003A0319A429D3
:1003A000013A0319AD29033A0319BA295F3003133F
:1003B000B6001E30B7006922F30101300A128A1517
:1003C000AB260A128A11E030D527B6001F30B700DD
:1003D000692AF200D808031D08008316CF013330C4
:1003E0008312D6001230D7007113721871170313DD
:1003F000D801D80A0800B9300313B1008030B20028
:10040000B9260A128A11003A03191E2AF030B600E2
:100410001F30B70069220A128A11B930A300803058
:10042000A4000A21F301F30A01300A128A15EA2610
:100430000A128A11003088200A128A11B3308312FE
:10044000B1008030B200B9260A128A11003A0319AD
:100450003D2AA730B6001F30B70069220A128A1160
:10046000B330A3008030A4000A21F301F30A053061
:100470000A128A15EA260A128A11AD300313B10056
:100480008030B200B9260A128A11003A0319532AA1
:10049000AD30A3008030A4000A210A128A11003076
:1004A0004E200A128A115808003A03190800013A2E
:1004B00003197E2A033A0319882A013A0319E22A0A
:1004C000073A0319EC2A013A031D08000A128A159B
:1004D00090283830AC00D527B8270A168A15002690
:1004E0000A128A11B500B50803190800253A031944
:1004F000F62A3508B0240A128A116B2A5708A1007F
:100500005608A0002C270A128A1102308312D80044
:100510007830CC240A128A11003A03190800A93055
:10052000B6001E30B7005708B9005608B800692257
:100530000A128A11F808031DD22AC130BE001D30EC
:10054000BF00711FA72AC930BE001D30BF00E230B6
:10055000B6001F30B7003F08B9003E08B800692256
:100560000A128A110F3079020318CC2A711BBA2A99
:10057000FA18BD2A711B7A1DCC2AF301F30A013047
:100580000A128A15AB260A128A110330D527D6071C
:100590000318D70AD800DD2AD801B630B6001F30BC
:1005A000B700DA2AD8012330B6001F30B700780828
:1005B000B800B90169220A128A11E030B6001F3072
:1005C000B700692A5708A1005608A0002C270A1274
:1005D0008A1104308312D8007830CC240A128A1190
:1005E000003A031908000A128A15092BAF01B0015D
:1005F000AE01FE2A2E15B60A0319B70A3608840082
:1006000037080A168A1500260A128A11303A031989
:10061000FA2A3608840037080A168A1500260A12B4
:100620008A111E270A128A11031CA92BAF01B001DF
:100630003608840037080A168A150026F300F401EC
:100640003008A3002F08A2000A30A400A5010A1256
:100650008A154527730883132207F50074080318C9
:10066000740A2307F6007508D03EAF007608031819
:10067000013EFF3EB000B60A0319B70A36088400EF
:1006800037080A168A1500260A128A111E270A122E
:100690008A11031CA92B182BAE17C02BAD270A12E9
:1006A0008A113104031D582BF930B1001D30B200FE
:1006B000B301B40131083307840032080318013E46
:1006C00034070A168A1500260A128A1100380319FF
:1006D0006D2BB30A0319B40A5A2B30083402031DD8
:1006E000732B2F08330203187C2B3308AF02340816
:1006F000D1270A128A117E2BAF01B001FF30D52716
:10070000AF07031CB0032F0A0319300A03199C2BEF
:100710002030B0240A128A117E2B3108840032085E
:100720000A168A1500260A128A11B0240A128A11A2
:10073000D527B10A0319B20A0130B302031CB4036E
:10074000330A0319340A03196B2A8D2BC030AE0407
:10075000C02BB8270A168A1500260A128A11B5007E
:10076000003A03190800583A03194C2B2B3A031985
:100770004E2B063A0319A62B0D3A03194C2B6B2A64
:10078000AD270A128A110E2CB501B50A0310350DDA
:100790000B3E84001E300318013EF4000A168A1531
:1007A0000026F300840A0319F40A74080A168A154D
:1007B00000260A128A11F4003202031DE12B73088D
:1007C0003102031C162CB50A3508053A0319162CFC
:1007D000C62BB501B50A0310350D573E84001E30F7
:1007E0000318013EF4000A168A150026F300840A55
:1007F0000319F40A74080A168A1500260A128A11C7
:10080000F4003202031D062C73083102031C162C5F
:10081000B50A3508043A0319162CEB2B2E08C039FB
:10082000803A0319E92B403A0319C42B3508F30029
:10083000F401F31BF4037408803AF5003008803AA1
:100840007502031D252C2F087302D5270318332C9E
:100850003508F300F401F31BF403AF027408D12749
:100860000A128A11352CAF01B00130082F042E1D59
:10087000442C0319502C3030B0240A128A11FF3056
:10088000C2270A128A11392C0319502C2030B024A7
:100890000A128A11FF30C2270A128A11031D462C40
:1008A0003508AD00AB2CCA270B3E84001E30031860
:1008B000013EF3000A168A150026A500840A0319D2
:1008C000F30A73080A168A1500260A128A11A6006E
:1008D0003D2783132408A9002308A8000A30AA0092
:1008E000AB010A128A15BC270A128A118313280841
:1008F000303E9D2CCA27573E84001E300318013E0F
:10090000F3000A168A150026A500840A0319F30AC3
:1009100073080A168A1500260A128A11A6003D27B6
:10092000831323080F39003E840010300318013E62
:100930000A168A1500260A128A11B500A72C2E085D
:10094000C039803A03197A2C403A0319532C3508E0
:10095000B0240A128A11D527AD032D0F9F2C6B2AC4
:10096000A40083120C1AC42C981CBC2C8316981259
:100970009816831218121816181DC22C1A088316FE
:10098000981298166400B12C24089900C730F20020
:10099000F20BC82CCB2C0800A1008312CF2CA00096
:1009A0008316490884004A08F4000A168A150026AE
:1009B000F200840A0319F40A74080A168A1500263C
:1009C000F300840A0319F40A74080A168A1500262B
:1009D0000A128A11F4008312200884007208800031
:1009E000840A73088000840A740880000134C108F6
:1009F000031D0C2DF115A1270A128A1541260A1292
:100A00008A1171197114F01B082DF3010130672F41
:100A1000F301F30A5530D92DF1117118252DF01F6E
:100A2000152DF301F30AFF30D92DA730B100803026
:100A3000B200B9260A128A11003A0319222D0A12AD
:100A40008A15EC280A128A15042971190800A730A2
:100A5000B1008030B200B9260A128A11003A031997
:100A6000352D43250A128A11412DF01F3E2DF30129
:100A7000F30AFF30D9250A128A11412D13270A12D1
:100A80008A11711008008030F006F301F01F4B2D21
:100A9000F30AFF30D92D0030D92DC108031D622D76
:100AA0007115A1270A128A1541260A128A11F11915
:100AB0007114F01B5E2DF3010130672FF301F30A6F
:100AC0005530D92D71117118BB2DF01F6B2DF3010D
:100AD000F30AFF30D92DA730B1008030B200B9261B
:100AE0000A128A11003A0319992D7C2F19304E02EF
:100AF00003187C2D19308D2D32304E020318822DB3
:100B000032308D2D4B304E020318882D4B308D2DF9
:100B100064304E0203188F2D6430CE00902DCE012C
:100B200095270A128A1541260A128A110A128A1575
:100B3000BD295908003A0319A42D013A0319B52D0E
:100B4000033A03190800D9017708013EBF000030BD
:100B500003180130C0007708093A031DB12DBF0109
:100B6000C0013F080A128A152E290A304E020318C6
:100B7000762D0A308D2DF1190800A730B100803094
:100B8000B200B9260A128A11003A0319CB2D432567
:100B90000A128A11D72DF01FD42DF301F30AFF306A
:100BA000D9250A128A11D72D13270A128A1171101A
:100BB0000800F200730803170319E72D2D087206C9
:100BC000031DE62D2E087306031908000317AC0158
:100BD000AC0A7208AD007308AE000800590B002E75
:100BE000D130B1008030B200B9260A128A11003A21
:100BF0000319002ED9010A128A15BD210A128A1181
:100C000003135B08003A03190C2E013A0319862ED0
:100C1000033A0319A22EDB014F30B1008030B2003D
:100C2000B9260A128A11003A031908005A2E4F30C9
:100C3000B6008030B7009B30BB007230BA00EC3099
:100C4000B900B8010A128A1541260A128A116E2EBD
:100C50004F30B6008030B7005930BB009530BA0035
:100C60007630B900B8010A128A1541260A128A1193
:100C70006E2E4F30B6008030B700D630BB009330B8
:100C8000BA00A430B900B8010A128A1541260A1226
:100C90008A116E2EB6008030B700A030BB00EE3057
:100CA000BA00BB30B900B8010A128A1541260A12EF
:100CB0008A116E2E7708013A0319172E033A031989
:100CC000282E013A0319392E073A4F3003194A2EBC
:100CD000A3008030A4000A210A128A119430B600C1
:100CE0001030B70069220A128A11701C812EC1309F
:100CF000B6001E30B7006922DB01DB0A0A128A1532
:100D0000BD291F30B6001E30B700692AF018080050
:100D1000D730B1008030B200B9260A128A11003AE9
:100D2000031908001130B6001030B70069220030F6
:100D3000701B01300A128A1516210230DB000A12DC
:100D40008A15BD290A128A15FF200A128A11003855
:100D5000031D0800D73001270A128A117010701F76
:100D6000B42E8316CE01B62E8316CE0A8312DB0173
:100D70009F2E2B30A3008030A4000A128A15712701
:100D80000A128A117D270A128A112D308400270841
:100D900083130006840F031DD92E28080006840F34
:100DA000031DD92E29080006840F031DD92E2A08F9
:100DB0000006031DED2E310884008317321C8313B7
:100DC0000008A500840A0008A6002C02031DEA2ED4
:100DD00025082B020318013400347D270A128A11DA
:100DE00030082A02031DFE2E2F082902031DFE2EA5
:100DF0002E082802031DFE2E2D082702031C013495
:100E00000034F200840083138001840A8001720898
:100E1000023E840000308001840A8001840A80013F
:100E2000840A80010800D901D90A95270A128A1577
:100E300041260A128A110A128A15BD29A100A001B1
:100E40003A30210203182A2F30302102031C2A2FA6
:100E5000A001A00A200C080083164F08003A031DC9
:100E6000080083122108F3002008F200372F7308CE
:100E70008316CA007208C9000800A101A201260851
:100E800025040319622FA001A00A0310A61B4C2FF2
:100E9000A50DA60D442F0310A10DA20D26082402B6
:100EA000031D542F25082302031C5E2F2508A302CF
:100EB0002608031CA403A40221140310A60CA50CED
:100EC000A00B4B2F2208A4002108A3000800F20069
:100ED000730803170319752F17087206031D742F63
:100EE000180873060319080003179601960A72087A
:100EF000970073089800080008003108023EA5001A
:100F000032080318013EA600250884008317261C1A
:100F100083130008A700840A0008A800840A0008B8
:100F2000A900840A0008AA000800D130B600803069
:100F3000B700BB010930BA008930B9006830B80089
:100F40000800A730B6008030B700BB010330BA00FC
:100F5000D030B9009030B80008002C08840083130A
:100F60000008B100840A0008B200AC0AAC0A08000C
:100F70003708F4003608F300B60A0319B70A8400EC
:100F80007408080083120313AF07031CB003300872
:100F90002F0408003208A4003108A30003102D0D0F
:100FA0000800031CB003B0020800831203130800FA
:100FB0000834FF34FF34FF34FF34FF34FF34FF3490
:100FC000FF34FF34FF34FF34FF34FF34FF34FF3489
:100FD000FF34FF34FF34FF34FF34FF34FF34FF3479
:100FE000FF34FF34FF34FF34FF34FF34FF34FF3469
:100FF000FF34FF34FF34FF34FF3469346E3400347F
:101000006F346E34003404340134003407347634E1
:1010100062340434003400340734FF34FF340734BE
:10102000C734273404340134003407348E345E343A
:1010300004340034003407340A34203404340134D6
:10104000003407348E345E34043400340034073402
:101050000A3420340434013400340734FF34FF34BC
:101060000734C734273404340034003408340034DF
:1010700000340D340034003407344C348A340234E4
:101080000234003407342C34013402340034003488
:101090000734AB342F3402340234003407342C3498
:1010A00001340234003400340734AB342F340234BA
:1010B0000234003407342C34013402340034003458
:1010C0000734DB34273402340234003407342C3440
:1010D00001340234003400340734DA342734023463
:1010E000023400340734D23423340234013400345F
:1010F00007344A34193405340034003402340234DD
:10110000003407345C34473402340134003407348B
:1011100010340B340234003400340D340034003405
:10112000C228BF30B1008030B2000A128A11B9263D
:101130000A128A15003A031908000330D60703186B
:10114000D70AD8000800E0270A128A150319AB282D
:10115000711E08009D28711A0800B330A30080306A
:10116000A4000A128A110A210A128A150330D6072E
:101170000318D70AD8000800080808390038031DEA
:1011800008009D287808073A031991280F3A031997
:10119000A328013A0319BC289D280808083908002B
:1011A0000030D5200A128A152E29F4008316031761
:1011B0008C18D628740883128D003F3083168C0556
:1011C0000C1403100C180314003003180130F20043
:1011D000F30183120C080800FF200A128A15003858
:1011E000031DFC2870170030701B013016210A12F5
:1011F0008A150230DB00BD290A128A11132800303B
:10120000D808031D01300800FF200A128A15003893
:10121000031D142970130030701B013016210A12AF
:101220008A150230DB00BD290030BB2FF200D80840
:10123000031D08002129B7308312D6001430D700CF
:10124000262983164F08003A03191B2971137218B7
:10125000711783120313D801D80A08000313BE00C4
:101260000A303E02031C3629F70138293E08F700F0
:10127000F330B6001E30B7007708B800B9010A1283
:101280008A1169220A128A157703031953297708EC
:10129000023A031953297708033A031953297708A7
:1012A000043A031D542970175B08023A03199A295E
:1012B000DB018316CE019A294F308312B6008030AD
:1012C000B7009B30BB007230BA00EC30B900B801F7
:1012D00041260A128A15AF294F308312B60080309A
:1012E000B7005930BB009530BA007630B900B8016C
:1012F00041260A128A15AF294F308312B60080307A
:10130000B700D630BB009330BA00A430B900B801A2
:1013100041260A128A15AF29B6008030B700A030E6
:10132000BB00EE30BA00BB30B900B80141260A124A
:101330008A15AF297708013A03195C29033A031982
:101340006C29013A03197C29073A4F30831203199B
:101350008C29A3008030A4000A128A110A21D730F8
:101360000A128A1101270A128A157010BD210A1269
:101370008A157708F3000030AB2E5908003A03199C
:10138000C829013A03196C2A033A0319AA2AD90178
:10139000F3010030EA260A128A150A3003134E02BE
:1013A000F301031CD5290030D729F30A5530D5267F
:1013B0000A128A157708003A0319FA29013A031923
:1013C000FA29033A0319FA29013A0319FA29073AC3
:1013D0000319FA29013A0319252A033A0319252A80
:1013E000013A0319252A0F3A0319252A013A03194C
:1013F000252AF70177030030031901300313A000F9
:101400000130C8220A128A157708023A00300319FF
:101410000130A0000230C8220A128A157708033A68
:10142000003003190130A0000330C8220A128A15C7
:101430007708043A003003190130A0000430C822B4
:101440000A128A15F3010030F42A7708093A0030AD
:10145000031D01300313A0000130C8220A128A15AF
:101460007708063A003003190130A0000230C82284
:101470000A128A157708073A003003190130A000D4
:101480000330C8220A128A157708083A0030031977
:101490000130A0000430C8220A128A15F01C582A14
:1014A0005B08023A0319582AF301F30A5530F42A6B
:1014B000701C682A5B08023A0319682A701F642AA4
:1014C000F301F30AFA30F42AF301F30AFE30F42AA6
:1014D000F301F30AFF30F42AF3010030EA260A127E
:1014E0008A15F301F30AFF30D5260A128A150A304D
:1014F00003134E02003003180130A0000130C8224F
:101500000A128A1519304E02003003180130A0006B
:101510000230C8220A128A1532304E0200300318F7
:101520000130A0000330C8220A128A154B304E0247
:10153000003003180130A0000430C8220A128A15B6
:1015400064304E02F301031CA82AF30AFF30F42A88
:101550000030F42AF301F30A5530EA260A128A15FC
:10156000F3010030D5260A128A150313A0010130B9
:10157000C8220A128A15A0010230C8220A128A154E
:10158000A0010330C8220A128A15A0010430C82A1B
:10159000F200D42A0730E22A0530F4000430E42AAD
:1015A0000530F4000830E42A7208013A0319CA2A07
:1015B000033A0319CC2A013A0319D02A073A031D2A
:1015C00008000530F4002030F30020080319EE2A4B
:1015D000740884007308831380040800740884006E
:1015E0007309831380050800F200730803170319B9
:1015F000022B43087206031D012B440873060319CE
:1016000008000317C201C20A7208C3007308C400AD
:101610000800A930B6001E30B7005708B9005608B8
:10162000B8000A128A1169220A128A15FE2D4E305C
:101630000317DF001E30E00079037A04031D242B1A
:101640006F30DF001E30E0006008DE005F08DD0064
:101650007A087904031D302B1530DD001E30DE00C2
:10166000D9300313B6001E30B70003175E0803130A
:10167000B90003175D080313B8000A128A11692222
:101680000A128A1579085E270A128A15CA2CE430D4
:101690000317DB001D30DC0079037A04031D542B93
:1016A0003C30DB001E30DC005C08DA005B08D9004F
:1016B0007A087904031D602B3330D9001E30DA001C
:1016C000CD300313B6001E30B70003175A080313BA
:1016D000B900031759080313B8000A128A116922C6
:1016E0000A128A15790832270A128A15CA2CF23092
:1016F0000317E1001D30E200711F822BE130E10091
:101700001F30E200C530E7001D30E800E0270A1274
:101710008A1503198F2B0030E7000830E800873066
:101720000313B6001F30B700031768080313B9008E
:10173000031767080313B800031762080313BB00FD
:10174000031761080313BA000A128A1169220A12E8
:101750008A15711FEA2B793084000008840A00047E
:101760000319DC2B0230F3000130AB260A128A1574
:10177000711AD02B01300A128A1188200A128A1598
:10178000B9308312B6008030B7000130BB00BA0018
:101790007D30B900F830B80041260A128A15EA2BCC
:1017A000933083120313B6001E30B7000A128A1159
:1017B00069220A128A15EA2B00300A128A1188203F
:1017C000B9308312A3008030A4000A128A110A21C2
:1017D0000A128A150330D6070318D70A0330CE2C15
:1017E000F2300317E9001D30EA00711FFB2BE130D6
:1017F000E9001F30EA00C530E3001D30E400E027B7
:101800000A128A150319082C0030E3000830E4009E
:10181000C5300313B6001F30B70003176408031365
:10182000B900031763080313B80003176A0803130A
:10183000BB00031769080313BA000A128A11692250
:101840000A128A15711FEA2B79080A128A1146209A
:101850000A128A15EA2BF2300317E5001D30E60064
:10186000711F362CE130E5001F30E600C530CF0097
:101870001D30D000E0270A128A150319432C0030CE
:10188000CF000830D00067300313B6001F30B70018
:10189000031750080313B90003174F080313B800C8
:1018A000031766080313BB00031765080313BA0088
:1018B0000A128A1169220A128A15711FEA2B790805
:1018C000CD260A128A15EA2B4830B6001030B70030
:1018D0007A08B9007908B8000A128A1169220A1236
:1018E0008A15BF30E6270A128A157D30A800A901A3
:1018F000AA01AB01FF260A128A15F0270A128A15DF
:10190000B80041260A128A150530CE2CF230031792
:10191000CD001D30CE00711F912CE130CD001F3065
:10192000CE008F30CB001E30CC00E0270A128A1583
:1019300003199E2CCD30CB001D30CC00E4300313B6
:10194000B6001030B70003174C080313B900031793
:101950004B080313B80003174E080313BB0003170B
:101960004D080313BA000A128A1169220A128A1555
:10197000711FCA2C7A087904031D842CB330B60079
:101980008030B7000430BB007830BA006830B9004E
:10199000C030802C0330D6070318D70AD8003A2E5F
:1019A000F2300317D1001D30D200711FDB2CE13063
:1019B000D1001F30D20045300313B6001F30B700EE
:1019C000031752080313B900031751080313B80093
:1019D0000A128A1169220A128A15711B842CCA2CD8
:1019E000E1300317D7001F30D800711FFB2CF230F5
:1019F000D7001D30D800A8300313B6001030F927E7
:101A000058080313BB00031757080313BA000A1240
:101A10008A1169220A128A15711BEA2B7908013E84
:101A2000A2007A080318013EA3000330A400A50118
:101A300045270A128A1583132208D6070318D70AE6
:101A40002308D707EE2BF2300317D5001D30D60040
:101A5000711F2E2DE130D5001F30D600BC3003138E
:101A6000B6001030F92756080313BB0003175508BA
:101A70000313BA000A128A1169220A128A15711B0D
:101A80000E2DEA2BF2300317D3001D30D400711F46
:101A90004D2DE130D3001F30D4007A080313A40089
:101AA0007908A3000A30A500A6010A128A113D2771
:101AB0000A128A15831324080317C8000313230886
:101AC0000317C7007A080313A9007908A8000A3091
:101AD000AA00AB01BC27831329080317CA0003130C
:101AE00028080317C90048080313B900031747085B
:101AF0000313B8000E30B6001130B70003175408B6
:101B00000313BD00031753080313BC0003174A084F
:101B10000313BB00031749080313BA000A128A1102
:101B200069220A128A15711FEA2BAD30E6270A12C4
:101B30008A15AB010130AA00E830A9004830A8009E
:101B4000FF260A128A15F0270A128A15B8004126C4
:101B500001300A128A114E200A128A15EA2B5630D9
:101B6000B6001F30B7007A08B9007908B8000A1229
:101B70008A1169220A128A155608033E8316CB0081
:101B8000831257080318013E003E8316CC007930BB
:101B9000840000088312D600840A0008D700EE2BC8
:101BA0006E30B6001030B70083164C088312B900AF
:101BB00083164B088312B8000A128A1169220A128E
:101BC0008A1583164C088312D70083164B0883129C
:101BD000D600EE2B8730B6001E30B7000A128A11ED
:101BE00069220A128A15F3010130AB260A128A15FE
:101BF000372EF830B6001030B700342E7808003A8F
:101C00000319F92D013A0319172B033A0319472B2E
:101C1000013A0319772B073A0319F02B013A0319FC
:101C20002B2C033A0319422D013A0319642C0F3A65
:101C30000319862C013A0319D02C033A0319F02C0E
:101C4000013A0319232D073A0319AF2D013A03195D
:101C5000D02D033A0319EA2D2330B6001030B70017
:101C60007A08B9007908B8000A128A1169220A12A2
:101C70008A111320E030B6001F30B7000A128A1113
:101C8000692A3708B5003608B4003708A4003608BA
:101C9000A30071270A128A153B083A043904380454
:101CA00003190800340884008317351C83130008C7
:101CB000B000840A0008B100840A0008B200840A57
:101CC0000008B300340884008317351C83133808D8
:101CD0008007840A39080318013E031D8007840A1F
:101CE0003A080318013E031D8007840A3B080318C5
:101CF000013E8007340884008317351C83130008D5
:101D0000AC00840A0008AD00840A0008AE00840A12
:101D10000008AF003302031D972E2E083202031D68
:101D2000972E2D083102031D972E2C083002031C1C
:101D300008003408043EAC0035080318013EAD002D
:101D40002C08840083172D1C831301308007840A1C
:101D50000318800A0800F200831603178C18AC2EB3
:101D6000720883128D0073088C003F3083168C0537
:101D70000310831203138B1B03148B138316031797
:101D80000C1555308D00AA308D008C140C11031CDD
:101D90000800831203138B170800F200720803195E
:101DA000D32E0815080008110800F2007308031765
:101DB0000319E32E38087206031DE22E3908730654
:101DC000031908000317B701B70A7208B8007308AF
:101DD000B9000800F200730803170319F82E22084F
:101DE0007206031DF72E2308730603190800031754
:101DF000A101A10A7208A2007308A3000800A001B3
:101E0000A101A201A301241C192F2808A007290859
:101E100003110318013E031DA1072A08031103182B
:101E2000013E031DA2072B0803110318013E031DE9
:101E3000A3070310A80DA90DAA0DAB0D0310A70C45
:101E4000A60CA50CA40C2708260425042404031DB5
:101E5000032F2308A7002208A6002108A5002008B8
:101E6000A4000800F200003A03193C2F013A0319BC
:101E7000422F033A03193F2F3F308805080008130B
:101E800088170800081788170800A001A101221C64
:101E90004F2F2408A0070318A10A2508A107031043
:101EA000A40DA50D0310A30CA20C23082204031DEE
:101EB000472F2108A3002008A2000800F200003AE2
:101EC0000319682F013A03196B2F033A03196E2F78
:101ED000CF308805080008168816080008128816F2
:101EE00008002408A1002308A0000F08A20023086E
:101EF000023EF20024080318013EF3007208840039
:101F00008317731C8313831645088000840A4608D0
:101F10008000840A47088000840A480880008312F1
:101F20000E08F2002008840083132118831772081A
:101F300080000F08F2002008013EF300210803187A
:101F4000013EF40073088400831374188317720829
:101F500080002008013EF20021080318013E003EE7
:101F6000F300720884008317731C83130008220691
:101F700003190800752F08002B082A040319DB2F0A
:101F8000A701A70AAB1BC82F0310AA0DAB0DC12FC9
:101F90002B082902031DCE2F2A082802031CD72F45
:101FA0002A08A8022B08031CA903A9020310AB0CE2
:101FB000AA0CA70BC82F2908A9002808A800080008
:101FC000793084000008840A00040800B6008030DC
:101FD000B7007908A4007A08A500A601A7010800A7
:101FE00083132708BB002608BA002508B900240877
:101FF0000800B7007A08B9007908B800031708008C
:102000003034313432343334343435343634373494
:10201000383439344134423443344434453446341A
:102020000034433461347434743469346D34653449
:1020300072342034653478347034693472346534E1
:1020400064340A34003443344D3444345F347534DA
:102050006E346B346E346F3477346E343A342034EB
:10206000303478342534583400340C3083169900D9
:1020700018151812831298171816981283160C1236
:102080008C121813831218138316981298160800CE
:1020900043344D3444345F34573441344934543438
:1020A000543449344D3445342C342034253475347B
:1020B0006D3473340034533465347434753470348F
:1020C000203462347534743474346F346E34203494
:1020D000683465346C3464340A34003443344D3429
:1020E00044345F34523445345434553452344E34CD
:1020F0002C3420343034783425343034343458346B
:10210000003453347434613472347434203462349F
:102110007534743474346F346E34203468346534F8
:102120006C3464340A3400344134753474346F349C
:10213000743469346D3465347234203465347834E1
:10214000703469347234653464343A342034003481
:1021500043344D3444345F3453344B344934503475
:10216000493446344434523459342C3420342534E0
:10217000753425347334003443344D3444345F347F
:1021800053344B344934503449344634573445344D
:1021900054342C34203425347534253473340034CD
:1021A0000A342A342A342A342034433461347434CF
:1021B000473465346E3469347534733420342A34CA
:1021C0002A342A340A34003443344D3444345F34DE
:1021D00057344134493454345734413454344534F9
:1021E00052342C3420342534733425347334003481
:1021F00043344D3444345F345334543441345234D2
:1022000054342C34203475346E346534783470345E
:1022100065346334743465346434003443344D3489
:1022200044345F344134553454344F3444344F349F
:10223000533445342C342034253475342E3425342D
:1022400075346D346C342534733400345434523462
:1022500049345334433420343D34203430347834DA
:1022600025343034323458342C34203450344F3404
:1022700052345434433420343D34203430347834B0
:1022800025343034323458340A340034543452341F
:1022900049345334453420343D3420343034783498
:1022A00025343034323458342C34203450344F34C4
:1022B00052345434453420343D342034303478346E
:1022C00025343034323458340A34003454345234DF
:1022D00049345334443420343D3420343034783459
:1022E00025343034323458342C34203450344F3484
:1022F00052345434443420343D342034303478342F
:1023000025343034323458340A3400340034003444
:102310000034003400340034013400340034073415
:10232000023400340034003400340034003401340A
:1023300000340034073401340034003400340034F5
:1023400000340034013400340034093404340034DF
:1023500000340034003400340034013400340034DC
:1023600009340134003400340034003400340034C3
:1023700001340034003409340234FF34FF34FF34B4
:10238000FF34FF34FF346A3418340034003400342E
:10239000063401340434FF34FF34FF34FF34FF3497
:1023A000FF346A34183400340034003406342034E6
:1023B0000134FF34FF34FF34FF34FF34FF3448343A
:1023C000E834013400340034553408340A34FF341E
:1023D000FF34FF34FF34FF34FF346A3418340034E0
:1023E000003400340634023407345730B60012305B
:1023F000B700831606088312B800B9010608BA00B0
:10240000BB010A128A1169222630B6001130B700CA
:10241000831607088312B800B9010708BA00BB0188
:102420000A128A1169226630B6001130B70083168D
:1024300008088312B800B9010808BA00BB010A12E3
:102440008A1169220A168A114630B6001130B70087
:10245000831609088312B800B9010908BA00BB0144
:102460000A128A11692A00340E3406340134013408
:102470000034023401340034073409345534023452
:10248000023400340734A4340334023400340034FA
:102490000A34013400340C34A03413340C343C348A
:1024A00008340134003400340E3400340034543421
:1024B000523449345334423420343D34203430349F
:1024C000783425343034323458342C342034503479
:1024D0004F3452345434423420343D342034303478
:1024E000783425343034323458340A34003483128A
:1024F0000C1C7E2A0C10B2220A168A1183128C1C24
:10250000852A8C109F220A168A11831203130B1C32
:10251000952A0B10060883164D06EC006C1E912AB6
:10252000BB22831206088316CD0083166B08FE00BB
:102530006A088A0069088300FF0E7F0E0900F11CFB
:102540000800F110831692018312920195018316FF
:102550008C1083128C101211970107117011F01A50
:10256000701508008316C50A0319C60A0319C70A9D
:102570000319C80A0800F11C08008312061EF01691
:102580000800F001F101F701F801F901FA01D601A3
:10259000D701D801D901DA01DB018313C5308400EA
:1025A000E9300A168A157F268317C8308400D63092
:1025B0000A168A157F266430CE00FF30CF00D00087
:1025C000D100D200D300D4000830D5008313C53029
:1025D000FD000730FE00D830FF00A03084000A164E
:1025E0008A1516278317C830FD001130FE00BD3054
:1025F000FF00903084000A168A1516274730FD0028
:102600001130FE008630FF00103084000A168A1553
:1026100016270A168A1183010A168A110F2B0A1629
:102620008A11E325CD000A168A113520D030831295
:10263000B6001030B7000A128A1169220A168A11F0
:1026400083168E182D2B77308312B6001F30B700FB
:102650000A128A1169220A168A1183160E183A2B59
:1026600034308312B6001F30B7000A128A11692273
:102670000A168A11031A462B97308312B6001F30B0
:10268000B7000A128A1169220A168A118319522B7D
:102690009E308312B6001E30B7000A128A116922DA
:1026A0000A168A1183124D1C5E2B8130B600103041
:1026B000B7000A128A1169220A168A11CD1C672BEB
:1026C0005B30B6001030B7000A128A1169220A1670
:1026D0008A1545260A168A15E6260A128A15D0207A
:1026E0000A128A119B210A168A15EB250A128A11F1
:1026F00098200A168A1156260A128A11EE250A1205
:102700008A11FB210A168A1183128C1E762B981CC3
:102710008F2B831698129816831218121816181DEC
:10272000962B1A08831698129816842B1A080A3AC0
:10273000031D842B0A168A11F5210A168A11842B8F
:102740000434013400340134023400340734FF34DB
:10275000FF3401340134003407345B34273401344E
:102760000034003406340A340034093400340034B0
:102770000134013400340734B63462340134023495
:10278000003405340134003407342C348A340134E5
:10279000013400340734D934D834013402340034DD
:1027A0000734CD3489340434003400340734C4345D
:1027B00006340134013400340734DA34D8340134B7
:1027C000023400340734ED348934013401340034E8
:1027D0000734DA34D8340134023400340734ED34A9
:1027E000893401340134003407346334B1340134A2
:1027F0000234003407344C348A3402340234003456
:102800000734FC34263402340034003401340034FC
:102810000034063403340034093400340034013405
:1028200002340034073410341534023401340034D7
:1028300007343F3428340234003400340734AD34D4
:10284000893401340134003407346334B134013441
:10285000023400340734ED34893401340134003457
:1028600007346334B13401340234003407344C3457
:102870008A3402340234003407348C34283402346D
:10288000003400340134003400340634033400349E
:10289000093400340034013402340034073428345D
:1028A0001134023401340034073433342A3402340E
:1028B000003400340734AD34893401340134003439
:1028C0000734ED3489340134023400340734ED34F4
:1028D00089340134013400340734EC348934013450
:1028E0000234003407344C348A3402340234003465
:1028F0000734EF342C340234003400340734793494
:1029000008340234013400340734B7342D3402342F
:102910000034003407342334B1340134013400343A
:102920000734ED348934013402340034073463341D
:10293000B1340134013400340734ED3489340134C6
:102940000234003407346334B134013401340034C8
:102950000734EC34893401340234003407346334EE
:10296000B1340134013400340D3400340034003407
:102970000E3406340134023400340234013400349D
:102980000734A13433340234003400340734DD34E6
:1029900046340134013400340734393418340134F6
:1029A00002340034023401340034073485341634E0
:1029B0000234023400340734143402340234003454
:1029C000003407347634623402340234003407347D
:1029D000AF3429340234013400340734CA34193492
:1029E00002340234003407343434433402340134C2
:1029F000003407349F343134023400340034073457
:102A00005D3412340234013400340734C3342B34BF
:102A100002340234003407341434023402340034F3
:102A2000003407347634623402340234003407341C
:102A3000AF3429340234013400340734C934193432
:102A40000234023400340734AD344E3401340134DE
:102A5000003402340134003407340934553402346C
:102A6000023400340734A434033402340034003414
:102A70000A343534003407344C342F3401340234F2
:102A800000340234013400340734C0340C340234CE
:102A90000234003407341434023402340034003475
:102AA00007348E345E3402340234003407344B343D
:102AB00029340234013400340734CA34193402345E
:102AC000023400340734F534423402340034003424
:102AD0000834003400340334013400340134013448
:102AE000003407345034493402340134003407349C
:102AF0007634623402340234003407346C340434E3
:102B000002340034003408340134003407345E34B5
:102B1000F8340C34033408340334013400340734FB
:102B20007A34D834013402340034063403340034A7
:102B300009340034003401340134003408340134E1
:102B400000340734E234AB340C3403340834033437
:102B50000134003407349E346334023401340034C9
:102B60000734D53452340234023400340134003492
:102B7000003406340B34003407346C34043402342B
:102B80000034003409340034003401340234003499
:102B90000734D13414340134013400340734BA34E6
:102BA000D8340834013400340734C33498340C3436
:102BB000A03413340C343C34083401340034003471
:102BC0000E340034003411308316850083128501E1
:102BD000073083169F0083128514FB30831686000E
:102BE000831286018316811383120B108B15061531
:102BF00023308316D0009830870083128701831614
:102C000088010130831288008316890183128901AB
:102C10008230F400DD30F300F30B0C2EF40B0C2E9D
:102C2000112E8230F400DD30F300F30B152EF40B7F
:102C3000152E1A2E83120313A7010E30A2002708A7
:102C4000DD270A168A119C3E840083170008A6001F
:102C50000E30A2002708DD270A168A119B3E840049
:102C60000008840083130008F3000E30A200270838
:102C7000DD270A168A119A3E8400730883178000A4
:102C80000E30A2002708DD270A168A119A3E84001A
:102C900026088005A70A04302702031C1D2EA70161
:102CA000061C2714861EA71427080800E330031308
:102CB000B1008030B2000A128A11B9260A168A11B0
:102CC000003A0319B32EE330B6008030B700BB01E1
:102CD000BA013030B900D430B8000A128A15412642
:102CE0000A168A11F11A762E83168514443083123F
:102CF000B6008030B700FA30B800B901BA01BB01A4
:102D00000A128A1541260A168A11922E4430B10001
:102D10008030B2000A128A11B9260A168A11003AC6
:102D2000031D992E0608D5000830D505D5080319CE
:102D3000862EF11A9F2E831685108312851455084E
:102D4000831620060319B32EAC308312B6008130EF
:102D5000B700B230EB270A128A1541260A168A11EB
:102D600055088316A00083120608CA008316500671
:102D70008312CC004A088316D00083124C1CCB2E41
:102D80009030B6008130B7009630EB270A128A15D2
:102D900041260A168A11CC1ED82E9E30B6008130EC
:102DA000B700A430EB270A128A1541260A168A11A9
:102DB000CC1CE52EBA30B6008130B700C030EB270E
:102DC0000A128A1541260A168A11CC010E30A20079
:102DD0004C08DD27903EB1008130B2000A128A1102
:102DE000B9260A168A11003A0319432F0E30A200A1
:102DF0004C08DD270A168A119B3E840083170008C1
:102E0000840083130008CB000E30A2004C08DD279D
:102E10000A168A119C3E840083170008CB050E30E9
:102E2000A2004C08DD270A168A119A3E8400000889
:102E30004B060319362F4B08C1000E30A2004C0878
:102E4000DD279D3E840000080A168A1500270A1611
:102E50008A110E3083120313A2004C08DD270A16D4
:102E60008A119A3E84004B08831780000E30A2001E
:102E70004C08DD27903EA3008130A4000A128A117D
:102E80000A210A168A11CC0A04304C02031CE62ED1
:102E9000CC010B30A2004C08DD27103EB100813080
:102EA000B2000A128A11B9260A168A11003A0319C9
:102EB000D72F0B30A2004C08DD270A168A11163EC8
:102EC000840083170008C3000B30A2004C08DD27E4
:102ED000103EB6008130B700BB01BA013D30B900E9
:102EE0000930B8000A128A1541260A168A110B30D9
:102EF000A2004C08DD270A168A11173E84008317AA
:102F0000000843050B30A2000319992F4C08DD2758
:102F10000A168A111A3E84000008C2000B30A20073
:102F20004C08DD270A168A11F9270A168A1180042F
:102F3000AB2F4C08DD270A168A111A3E84000009BF
:102F4000C2000B30A2004C08DD270A168A11F927AF
:102F50000A168A1180050B30A2004C08DD270A16DC
:102F60008A11163E840003108317800D8008031D0C
:102F7000D72F0B30A2004C08DD270A168A11163E07
:102F800084008001800A0B30A2004C08DD270A165D
:102F90008A11183E84008008031DD72F0B30A20031
:102FA0004C08DD270A168A11173E84008001CC0ADE
:102FB00005304C0203180800492FA100A001220887
:102FC0002118A0070310A20D0310A10CA108031DD6
:102FD000DF2F20080800840083170008B800840A47
:102FE0000008B900840A0008BA00840A0008BB007F
:102FF0000800193E8400000884004208831308007A
:103B7A006F347534743400346434723479340034F4
:103B8A006F34663466340034773465347434003400
:103B9A00683469346734683400347434693464349A
:103BAA00793400346D3465347334733479340034C1
:103BBA0042346C346F3463346B342034003441340F
:103BCA0052344D345F345534503400340608831669
:103BDA00CD0083120B178B170800203428346E345B
:103BEA006F3470342934003428346E3475346C34AC
:103BFA006C3429340034FE00FE1F082E83137E180D
:103C0A008317000808008A0004088200013400347F
:103C1A000A34003464340034E8340334103427346A
:103C2A0042344F3457344C345F34533454344F3461
:103C3A005034003473346B346934703470346934FA
:103C4A006E3467340A34003457346134743465345A
:103C5A0072342034253473340A34003441345234F3
:103C6A004D345F34533454344F3450340034413477
:103C7A0052344D345F3444344F3457344E34003464
:103C8A0090109016101690111011101483160C141F
:103C9A00080042344F3457344C345F34433443348D
:103CAA005734003401340034103400340034013401
:103CBA000034103475346E346B346E346F347734A8
:103CCA006E34003442346F347834203469347334B7
:103CDA002034003442344F3457344C345F34433444
:103CEA005734003443346134743420342534733403
:103CFA000A34003464008001840A0406031900347B
:103D0A000406802E43344D3444345F3445344E34F3
:103D1A00443400346C346F3477340034203428341B
:103D2A0073346B34693470347034653464342934D0
:103D3A000034503469346E34203472346534733448
:103D4A00653474340A3400344934503420343034FD
:103D5A00783425343034343458343A342034003406
:103D6A0055346E34693471347534653420344934C9
:103D7A0044343A3420340034773461346934743446
:103D8A0069346E3467342E342E342E340A340034B7
:103D9A0043344D3444345F34413452344D342C343A
:103DAA00203425347334003443344D3444345F347E
:103DBA0042344F3457344C342C3420342534733441
:103DCA000034543092007D30831292002A309500DC
:103DDA001F3097008C1083168C14080053346534F6
:103DEA00743420346D346F346434653420342534AB
:103DFA0075340A340034FE001F308A007E088207B8
:103E0A0000000A128A114D2D0A128A11F72C0A1281
:103E1A008A1103280A128A1157287E088A007F0805
:103E2A00820012270A168A158000840A04087D0671
:103E3A0003190034FF0A0319FE0A162F2C34203402
:103E4A006E346F342034733474346134723474349D
:103E5A003A342034303478342534583400344234F7
:103E6A0072346F3477346E342D346F34753474345D
:103E7A002034723465347334653474340A3400344B
:103E8A0043344D3444345F34573441344934543420
:103E9A0044344F345334413447344534253473342D
:103EAA00003443344D3444345F34433441344C3465
:103EBA004C342C342034303478342534303434348F
:103ECA005834003443344D3444345F344434523427
:103EDA005934453452342C3420342534733425343F
:103EEA007334003450346F347734653472342D347B
:103EFA006F346E34203472346534733465347434F8
:103F0A000A34003443344D3444345F345734413432
:103F1A005434453452342C34203425347334253403
:103F2A007334003457346134743463346834643419
:103F3A006F346734203472346534733465347434BE
:103F4A000A34003444347234613469346E342034AF
:103F5A00743469346D3465346F34753474340A34A6
:103F6A0000342C34203469346E3463346F346D3445
:103F7A00703461347434693462346C3465340034B6
:103F8A0043344D3444345F34503455344D34503412
:103F9A002C342034253473342534733400344234B9
:103FAA006F347834203466346C346F346F3464344C
:103FBA006534643421340A34003443344D3444348F
:103FCA005F34533454344134523454342C3420340E
:103FDA00253473340034463469346C346C342034F8
:103FEA00743469346D3465346F34753474340A3416
:023FFA00003491
:02400E00313F40
:00000001FF
