:060000000A128A1110280B
:10000800FF00030883160313E2000A08E3007E08D2
:10001800E4000A128A1127290A128A11E0290A1211
:100028008A154720BB000A128A11C822B4308312ED
:10003800B1000230B2000A128A15BC250A128A11D0
:1000480083168E18312855308312B1000430B2005F
:100058000A128A15BC250A128A1183160E183E2820
:1000680034308312B1000430B2000A128A15BC255C
:100078000A128A11031A4A2845308312B100043043
:10008800B2000A128A15BC250A128A118319562849
:100098008C308312B1000430B2000A128A15BC25D4
:1000A8000A128A1183123B1C6228EE30B10002301A
:1000B800B2000A128A15BC250A128A11BB1C6B28C9
:1000C800DB30B1000230B2000A128A15BC250A12D0
:1000D8008A1115250A128A117F240A128A150A2004
:1000E8000A128A1135250A128A1589240A128A15D4
:1000F800D6210A128A1152250A128A1183128C1EDD
:100108007728981C8D28831698129816831218122F
:100118001816181D94281A088316981298168228FB
:100128001A080A3A031D82280A128A1582250A1219
:100138008A1182287708003A0319BE28013A031960
:10014800C528033A0319CC28013A0319D328073ADA
:100158000319DA28013A031D08000230C40A4402D0
:100168000318C40144081929F20072080319E12888
:10017800881408000330C20A42020318C201420868
:1001880006290330C10A41020318C1014108F328B6
:100198000230F80A78020318F8017808E3280230D8
:1001A800C30A43020318C3014308B8280230F90AF6
:1001B80079020318F9017908EB2888100800F20081
:1001C80072080319E9288815080088110800F20048
:1001D80072080319F1280815080008110800F20030
:1001E800003A0319FD28013A03190329033A0319B0
:1001F80000293F30880508000813881708000817E9
:1002080088170800F200003A03191029013A031967
:100218001329033A03191629CF3088050800081650
:1002280088160800081288160800F20072080319D8
:1002380021297017831685140800701383168510FA
:1002480083128514080083120C1C2E290C106221BD
:100258000A128A118C1C34298C104F210A128A1117
:10026800831203130B1C45290B100608400683163E
:100278000317C700471E41296A2183120313060882
:10028800C00083166408FE0063088A0062088300C1
:10029800FF0E7F0E0900F01D0800F0118316920171
:1002A80083129201950183168C1083128C101211FF
:1002B80097010711F013F118F0170800BC0A031989
:1002C800BD0A0319BE0A0319BF0A0800F01D080079
:1002D80083120313061EF1140800FF34FF34FF34A1
:1002E800FF34FF34FF346A341834003400340034E7
:1002F800063401340434FF34FF34FF34FF34FF3450
:10030800FF346A341834003400340034063420349E
:100318000A34FF34FF34FF34FF34FF34FF344834E9
:10032800E8340134003400347A3408340734FF34B4
:10033800FF34FF34FF34FF34FF346A341834003498
:1003480000340034063402340134003400340034FC
:1003580000340034003401340034003407340234EB
:1003680000340034003400340034003401340034E4
:1003780000340734013400340034003400340034CD
:1003880000340134003400340934043400340034B7
:1003980000340034003400340134003400340934AB
:1003A80001340034003400340034003400340134A3
:1003B8000034003409340234F001F101F701F80186
:1003C800F90183133C30840058300A128A111E2523
:1003D8000830FA006530FD000430FE007230FF007E
:1003E800583084000A128A111624D830FD000130D2
:1003F800FE007130FF00A03084000A128A11162412
:100408008317C730FD000130FE00A930FF0090308F
:1004180084000A128A1116240A128A1183010A1208
:100428008A111328013400341034003400340134A4
:10043800003410345434523449345334443420345E
:100448003D34203430347834253430343234583420
:100458002C34203450344F345234543444342034FF
:100468003D34203430347834253430343234583400
:100478000A34003454345234493453344334203425
:100488003D342034303478342534303432345834E0
:100498002C34203450344F345234543443342034C0
:1004A8003D342034303478342534303432345834C0
:1004B8000A340034543452344934533442342034E6
:1004C8003D342034303478342534303432345834A0
:1004D8002C34203450344F34523454344234203481
:1004E8003D34203430347834253430343234583480
:1004F8000A340034543452344934533445342034A3
:100508003D3420343034783425343034323458345F
:100518002C34203450344F3452345434453420343D
:100528003D3420343034783425343034323458343F
:100538000A3400344C30B7000530B80039080319C4
:10054800A92A4030B7000530B8006530B100043042
:10055800B2003808B4003708B3000A128A15BC2D57
:100568000A342A342A342A342034473465346E3421
:1005780069346534443469346134673420342A3446
:100588002A342A340A3400340C308316990018159A
:100598001812831298171816981283160C128C12B8
:1005A80018138312181383169812981608005334D8
:1005B800653474347534703420346234753474346A
:1005C80074346F346E342034683465346C34643475
:1005D8000A3400345334743461347234743420343B
:1005E80062347534743474346F346E34203468343F
:0A05F80065346C3464340A340034B6
:10080000FE0004308A007E08820700000A128A1166
:100810009E2A0A128A15902B0A128A150F280A128C
:100820008A15B7287E088A007F08820012240A12DF
:100830008A118000840A04087D0603190034FF0A27
:100840000319FE0A162C3034313432343334343444
:10085000353436343734383439344134423443341F
:100860004434453446340034423472346F3477347F
:100870006E342D346F3475347434203472346534EE
:100880007334653474340A34003457346134743446
:100890006334683464346F346734203472346534BC
:1008A0007334653474340A34003450346F3477341C
:1008B000653472342D346F346E34203472346534C0
:1008C0007334653474340A3400344F347634653408
:1008D00072346834653461347434203425347334AC
:1008E0000A3400340834FF34FF34FF34FF34FF345B
:1008F000FF34FF34FF34FF34FF34FF34FF3454300F
:1009000092007D30831292002A3095001F309700AC
:100910008C1083168C140800503469346E342034E3
:0E092000723465347334653474340A34003430
:100A0000FE00FE1F082D83137E18831700080800C0
:100A10008A000408820057346134743465347234B7
:100A20002034253473340A34003490109016101694
:100A300090111011101483160C140800640080012A
:100A4000840A04060319003404061F2D433461345C
:100A500074342034253473340A34003428346E342A
:100A600075346C346C342934003483120608C000A9
:100A70000B178B1708006834693467346834003406
:100A800079346534733400346C346F347734003423
:100A90006F347534743400346E346F340034693418
:060AA0006E340034080072
:101014008312A001A00A013049293B30B7000530F2
:10102400B800390803191A284430B7000530B8004D
:101034000B30B1000530B2003808B4003708B300F3
:10104400BC250A128A15B908031D2C28F301F30ADA
:10105400FF303028F301F30A00303028F20073081F
:10106400831603170319402822087206031D3E281D
:10107400230873060319080083160317A101A10AA4
:101084007208A2007308A3000800113083168500BB
:1010940083128501073083169F0083128514FB3069
:1010A40083168600831286018316811383120B1024
:1010B4008B1506152330C5009830831687008312DC
:1010C4008701831688010130831288008316890101
:1010D400831289018230F400DD30F300F30B7028B1
:1010E400F40B702875288230F400DD30F300F30B24
:1010F4007928F40B79287E28FA27A7010E30A2005C
:1011040027086E230A128A15AC3E84008313000854
:10111400A6000E30A20027086E230A128A15AB3EE1
:101124008400000884000008F3000E30A2002708A1
:101134006E230A128A15AA3E8400730880000E30BA
:10114400A20027086E230A128A15AA3E84002608E4
:101154008005A70A04302702031C8028A701061C67
:101164002714861EA71427080800B908031DCC28D5
:101174007016BD270A128A15D7230A128A15F01A87
:101184007015F018C828F3010130352DF301F30A66
:101194005530FC2870127019E128F01CD528F30191
:1011A400F30AFF30FC285F30B1008030B200EE2437
:1011B4000A128A15003A0319E0281C291D29F01A7D
:1011C40008005F30B1008030B200EE240A128A15A4
:1011D400003A0319F12811210A128A15FA28F01C81
:1011E400FA28F301F30AFF30FC200A128A15FA28C0
:1011F40070110800F2007308FD2703190A292D084D
:101204007206031D09292E08730603190800FD2719
:10121400AC01AC0A7208AD007308AE0008000230DD
:10122400F006F301F01C1929F30AFF30FC28003002
:10123400FC28080008000630F70A77020318F701B3
:101244007708003A03194B29013A03195E29033A36
:1012540003197129013A03198529073A03199829B1
:10126400013A031D0800A001013049210A128A1520
:10127400A001A00A023049210A128A15A001A00A7D
:10128400033049210A128A15A00104304929F200C9
:10129400B629A001A00A013049210A128A15A00129
:1012A400023049210A128A15A001033049210A1289
:1012B4008A15A00104304929A001013049210A12EC
:1012C4008A15A001A00A023049210A128A15A00138
:1012D400033049210A128A15A00104304929A001CA
:1012E400A00A013049210A128A15A001A00A02307D
:1012F40049210A128A15A001033049210A128A15CC
:10130400A00104304929A001013049210A128A159B
:10131400A001023049210A128A15A001A00A033053
:1013240049210A128A15A00104304929A001A00A02
:10133400013049210A128A15A001023049210A12FA
:101344008A15A001A00A033049210A128A15A001B6
:10135400043049290730C4290530F4000430C62973
:101364000530F4000830C6297208013A0319AC2983
:10137400033A0319AE29013A0319B229073A031DA6
:1013840008000530F4002030F30020080319D029A8
:1013940074088400730883138004080074088400AC
:1013A40073098313800508005230FA27B100803096
:1013B400B200EE240A128A15003A0319222A523086
:1013C400C9270A128A15D7230A128A15701BEC2919
:1013D40083168514D9308312B0008030B100FA30FE
:1013E400B200B301B401B501D7230A128A15042A45
:1013F400D930B1008030B200EE240A128A15003AC6
:10140400031D0B2A0608FA000830FA05FA08031926
:10141400FA29701B112A83168510831285147A0801
:1014240058060319222ABC30B0008030B100C23003
:1014340097270A128A15D7230A128A157A08D80020
:1014440006088316DF00831245068316E1005F0851
:101454008312C5008316611C3B2AA0308312B0009E
:101464008030B100A63097270A128A15D7230A12B2
:101474008A158316E11E4A2AAE308312B0008030EA
:10148400B100B43097270A128A15D7230A128A1595
:101494008316E11C592ACA308312B0008030B1008F
:1014A400D03097270A128A15D7230A128A15831671
:1014B400E1010E308312A200831661086E230A1222
:1014C4008A15A03EB1008030B200EE240A128A15BB
:1014D400003A0319C22A0E30A200831661086E2353
:1014E4000A128A15AB3E84008313000884000008A6
:1014F4008316E0000E308312A200831661086E2367
:101504000A128A15AC3E840000088316E0050E30EA
:101514008312A200831661086E230A128A15AA3E5A
:1015240084000008831660060319B62A6008831233
:10153400B9000E30A200831661086E23AD3E84000C
:1015440000080A128A1100240A128A150E30FA279A
:10155400A200831661086E230A128A15AA3E84002B
:1015640083166008831380000E308312A200831652
:1015740061086E230A128A15A03E7D230A128A1579
:101584008316E10A04306102031C5B2AE1010B307B
:101594008312A200831661086E230A128A15903EF4
:1015A400B1008130B200EE240A128A15003A031900
:1015B400672B0B30A200831661086E230A128A156A
:1015C400963E8400831700088316D8000B308312DC
:1015D400A200831661086E230A128A15903EB00099
:1015E4008130B100B501B4013D30B3000930B2001F
:1015F400D7230A128A150B30A200831661086E23C2
:101604000A128A15973E840083170008831658052A
:101614000B308312A20083160319242B61086E2356
:101624000A128A159A3E84000008BA000B30A20000
:10163400831661086E230A128A15EF270A128A1587
:101644008004372B61086E230A128A159A3E84009F
:101654000009BA000B30A200831661086E230A1237
:101664008A15EF270A128A1580050B30A20083160B
:1016740061086E230A128A15963E840003108317AC
:10168400800D8008031D672B0B30A20083166108B0
:101694006E230A128A15963E84008001800A0B305C
:1016A400A200831661086E230A128A15983E8400EC
:1016B4008008031D672B0B30A200831661086E237C
:1016C4000A128A15973E840080018316E10A0530C8
:1016D400610203180800C92A8312A100A00122088C
:1016E4002118A0070310A20D0310A10CA108031DCB
:1016F400712B20080800F2008400FF30831380005F
:10170400840A80007208023E8400FF308000840A4C
:101714008000840A8000840A80000800B908031D40
:10172400A52BF016BD270A128A15D7230A128A158B
:10173400701A7015F018A12BF3010130352DF30147
:10174400F30A5530FC28F0127019BC2BF01CAE2B98
:10175400F301F30AFF30FC285F30B1008030B2009F
:10176400EE240A128A15003A0319B92B342D0A12F1
:101774008A119E28701A08005F30B1008030B200D0
:10178400EE240A128A15003A0319CC2B11210A12ED
:101794008A15D52BF01CD52BF301F30AFF30FC205E
:1017A4000A128A15D52B701108003108AF003008D1
:1017B400AE003108A4003008A30041240A128A159F
:1017C4003508340433043204031908002E08840055
:1017D40083172F1C83130008AA00840A0008AB0097
:1017E400840A0008AC00840A0008AD002E088400B6
:1017F40083172F1C831332088007840A33080318C5
:10180400013E031D8007840A34080318013E031DAA
:101814008007840A35080318013E80072E088400D7
:1018240083172F1C83130008A600840A0008A7004E
:10183400840A0008A800840A0008A9002D02031DD8
:101844002D2C28082C02031D2D2C27082B02031DE8
:101854002D2C26082A02031C08002E08043EA6008C
:101864002F080318013EA700260884008317271CAD
:10187400831301308007840A0318800A08002408AF
:10188400A1002308A0000F08A2002308023EF200D2
:1018940024080318013EF300720884008317731CA4
:1018A40083133C088000840A3D088000840A3E08B3
:1018B4008000840A3F0880000E08F200200884009B
:1018C400831321188317720880000F08F200200880
:1018D400013EF30021080318013EF400730884005C
:1018E400831374188317720880002008013EF200E5
:1018F40021080318013E003EF30072088400831798
:10190400731C83130008220603190800452CF019E0
:10191400AB2C4630B1008030B200EE240A128A1596
:10192400003A0319AB2C4630C9270A128A15D7236B
:101934000A128A15F110F0155430831692007D3086
:10194400831292002A3095001F3097008C10831662
:101954008C14711CAF2C0130B02C00308312BA00EF
:10196400F01FB62C0130B72C00303A065930031959
:10197400CB2CB0008030B100B501B4019230B3007B
:101984007C30B200D7230A128A157110F01B71142F
:101994005930FA27B1008030B200EE240A128A15B9
:1019A400003A0319080059307D230A128A15701C65
:1019B400DD2C0130DE2C0030BA00F01FE32C0130A6
:1019C400E42C00303A06031908007010F01B701460
:1019D4000030701801304A2D2B30A3008030A40051
:1019E40041240A128A15A5270A128A152D3084006B
:1019F400270883130006840F031D0C2D28080006F6
:101A0400840F031D0C2D29080006840F031D0C2DC3
:101A14002A080006031D202D310884008317321C78
:101A240083130008A500840A0008A6002C02031DE5
:101A34001D2D25082B02031801340034A5270A1292
:101A44008A1530082A02031D312D2F082902031D8F
:101A5400312D2E082802031D312D2D082702031CC9
:101A6400013400340800F2007308FD270319432DE4
:101A740017087206031D422D18087306031908007F
:101A8400FD279601960A72089700730898000800CB
:101A9400FA27B9004830B7000530B80039080319EF
:101AA400572D4F30B7000530B8002630B10005304F
:101AB400B2003808B4003708B300BC250A128A15EE
:101AC40039080319692DF301F30AFF306D2DF30171
:101AD400F30A00306D2DF2007308FD2703197B2DE6
:101AE40043087206031D7A2D44087306031908007F
:101AF400FD27C201C20A7208C3007308C4000800AB
:101B04005E30B1000230B200831606088312B300BF
:101B1400B4010608B500B601BC250A128A153E3088
:101B2400B1000230B200831607088312B300B40177
:101B34000708B500B601BC250A128A151E30B1008B
:101B44000230B200831608088312B300B4010808F7
:101B5400B500B601BC250A128A157E30B1000230E8
:101B6400B200831609088312B300B4010908B50052
:101B7400B601BC2D3330A900FA27D3270A128A11E3
:101B840000250A128A15AC00AC0803190800253A8E
:101B94000319D12D2C082A270A128A15BE2DAA0151
:101BA400AB01A701D92D2715B10A0319B20A3108CF
:101BB400840032080A128A1100250A128A15303A62
:101BC4000319D52D3108840032080A128A11002520
:101BD4000A128A1546270A128A15031C832EAA01A3
:101BE400AB013108840032080A128A1100250A1256
:101BF4008A15F300F4012B08A3002A08A2000A3076
:101C0400A400A5015427730883132207F500740860
:101C14000318740A2307F6007508D03EAA00760854
:101C24000318013EFF3EAB00B10A0319B20A3108A2
:101C3400840032080A128A1100250A128A154627DE
:101C44000A128A15031C832EF32D2908DD270A1294
:101C54008A152D04031D322E2E30AD000530AE0042
:101C6400AF01B0012E08F4002D08F3002F0873070C
:101C7400840074080318740A0A128A1100250A12CF
:101C84008A15003803194A2EAF0A0319B00A342EF4
:101C94002B083002031D502E2A082F020318592E38
:101CA4002F08AA023008F6270A128A155B2EAA0109
:101CB400AB01FF30FA27AA07031CAB032A0A031956
:101CC4002B0A0319792E20302A270A128A155B2E33
:101CD4002D0884002E080A128A1100250A128A157A
:101CE4002A270A128A15FA27AD0A0319AE0A013007
:101CF400AF02031CB0032F0A0319300A0319BE2DC7
:101D04006A2ED3270A128A1100250A128A15AC00FA
:101D1400003A03190800583A0319962E2B3A03196E
:101D2400272E0B3A031DBE2D2908DD27AC01AC0A72
:101D340003102C0D163E840002300318013EF400FB
:101D44000A128A110025F300840A0319F40A74089C
:101D54000A128A1100250A128A15F4002E02031DA4
:101D6400B52E73082D02031CBC2EAC0A2C08043AB1
:101D7400031D9A2E2C08F300F401F31BF4037408DA
:101D8400803AF5002B08803A7502031DCB2E2A08F1
:101D94007302FA270318D92E2C08F300F401F31B5D
:101DA400F403AA027408F6270A128A15DB2EAA0184
:101DB400AB012B082A04271DEA2E0319F62E303016
:101DC4002A270A128A15FF30E7270A128A15DF2EFE
:101DD4000319F62E20302A270A128A15FF30E72726
:101DE4000A128A15031DEC2E2C08A800252F2E0894
:101DF400A4002D08A3000310280D163E8400023011
:101E04000318013EF3000A128A110025A500840A72
:101E14000319F30A73080A128A1100250A128A1593
:101E2400A6006D27831323080F39233E8400043052
:101E34000318013E0A128A1100250A128A15AC0001
:101E44002A270A128A15FA27A803280FF92EBE2D6D
:101E5400A40083120C1A3E2F981C362F8316981256
:101E64009816831218121816181D3C2F1A08831678
:101E74009812981664002B2F24089900C730F2009A
:101E8400F20B422F452F0800A100A0013A30210295
:101E94000318522F30302102031C522FA001A00A34
:101EA400200C0800A001A101221C5E2F2408A00719
:101EB4000318A10A2508A1070310A40DA50D0310FA
:101EC400A30CA20C23082204031D562F2108A300EF
:101ED4002008A2000800A101A20126082504031974
:101EE400922FA001A00A0310A61B7C2FA50DA60DFE
:101EF400742F0310A10DA20D26082402031D842FA4
:101F040025082302031C8E2F2508A3022608031C80
:101F1400A403A40221140310A60CA50CA00B7B2F70
:101F24002208A4002108A3000800840083130008E9
:101F3400B200840A0008B300840A0008B400840ACA
:101F44000008B50008003108023EA5003208031855
:101F5400013EA600250884008317261C831300086D
:101F6400A700840A0008A800840A0008A900840ABB
:101F74000008AA0008005F30B0008030B100B5014D
:101F84000330B400D030B3009030B2000800B00089
:101F94008030B100B501B4013030B300D430B200A8
:101FA40008003208F4003108F300B10A0319B20A38
:101FB400840074080800840083130008AD00840AB8
:101FC4000008AE00A90AA90A080083120313AA078D
:101FD400031CAB032B082A040800993E8400000864
:101FE40084003A0883130800031CAB03AB02080007
:0C1FF40083120313080083160317080073
:02400E00313F40
:00000001FF
