:100000000A128A1112280800FF000308831603133E
:10001000E8000408E9000A08EA007E08EB000A1676
:100020008A15E32E0A168A15942EF600C230A227EE
:10003000B6008030B700BB010130BA00E830B9002B
:100040004830B800F3250A128A11F61F0800031081
:10005000003003180130A227C70003100030031836
:100060000130C8000310003003180130C90003102C
:10007000003003180130CA0008004F200A128A110C
:100080000038031D4E28F1140030F11801306720AC
:100090000A128A110230A227D2006A29B02E00303B
:1000A000F808031D013008004F200A128A11003899
:1000B000031D6528F1100030F118013067200A1285
:1000C0008A110230A227D2006A290030712FF30072
:1000D000F808031D080071282A30CB001330CC002B
:1000E0007628A2275108003A03196C28F2107318D9
:1000F000F214F8010314F80D0800A2274E08013A83
:10010000031D9C28B030B7008030B8000A168A1151
:1001100015260A128A11003AA22703199D284F08B2
:100120000319942802309828031000300318013076
:10013000CE006A210A128A11A2275208003A031936
:10014000AC28013A03192929033A03194A29031053
:10015000003003180130D2005730B7008030B800AB
:100160000A168A1115260A128A11003A0319080084
:10017000F1288B270A128A119B30BB007230BA001B
:10018000EC30B900B801F3250A128A1106298B2731
:100190000A128A115930BB009530BA007630B90086
:1001A000B801F3250A128A1106298B270A128A112F
:1001B000D630BB009330BA00A430B900B801F325A3
:1001C0000A128A110629B6008030B700A030BB00A1
:1001D000EE30BA00BB30B900B801F3250A128A111B
:1001E00006297708013A0319B928033A0319C728E1
:1001F000013A0319D528073A5730A2270319E328F3
:10020000AB008030AC00A1240A128A118630A527E9
:10021000C8001D30C9000A128A15CB210A128A11A2
:10022000701D21294830A527C8001C30C9000A12BA
:100230008A15CB210A128A11A227D2010314D20DEA
:100240006A291530A527C8001C30C9000A128A1572
:10025000CB29F0190800B630B7008030B8000A1674
:100260008A1115260A128A11003A031908004E3025
:10027000A527C8001D30C9000A128A15CB210A1211
:100280008A110030F118013067200A128A110230F9
:10029000A22768294F200A128A110038031D08007E
:1002A000B6300A128A152F270A128A117011F11C12
:1002B00060290310003003180130A227D000642900
:1002C0000130A227BC00D007031000300318013012
:1002D000D2002029A2274E08003A03197A29013AB0
:1002E0000319422A033A0319882A0310003003181D
:1002F0000130CE009C270A128A1132270A128A1175
:100300000A307902031C8B290310003003180130D6
:10031000F50000308F29F5010314F50D553018272D
:100320000A128A117708003A0319B629013A03190B
:10033000B629033A0319B629013A0319B629073A2F
:100340000319B629013A0319EC29033A0319EC29D8
:10035000013A0319EC290F3A0319EC29013A031960
:10036000EC290310003003180130F7007708013A38
:10037000003003190130A227A0000130D6220A1252
:100380008A117708023A003003190130A227A00031
:100390000230D6220A128A117708033A0030031974
:1003A0000130A227A0000330D6220A128A11770852
:1003B000043A003003190130A227A0000430D622ED
:1003C0000A128A110310003003180130F5000030C2
:1003D00007230A128A11C42A7708093A0030031D3C
:1003E0000130A227A0000130D6220A128A11770814
:1003F000063A72270A128A110230D6220A128A118C
:100400007708073A72270A128A110330D6220A1295
:100410008A117708083A72270A128A110430D62204
:100420000A128A11F01D212AA2275208023A031942
:10043000212AF5010314F50D553007230A128A11FC
:10044000C42A701D3A2AA2275208023A03193A2AEE
:10045000F11C322AF5010314F50DFA3007230A12B4
:100460008A11C42AF5010314F50DFE3007230A1280
:100470008A11C42AF5010314F50DFF3007230A126F
:100480008A11C42A9C270A128A1132270A128A1159
:10049000F5010314F50DFF3018270A128A110A30EE
:1004A000790272270A128A110130D6220A128A11A1
:1004B0001930790272270A128A110230D6220A12E2
:1004C0008A113230790272270A128A110330D62239
:1004D0000A128A114B30790272270A128A110430EB
:1004E000D6220A128A1164307902031C7F2AF50190
:1004F0000314F50DFF3007230A128A11C42A0030B5
:1005000003180130F500003007230A128A11C42AAB
:10051000F5010314F50D553032270A128A11031024
:10052000003003180130F500003018270A128A1134
:10053000A2274F08013A003003190130A000013012
:10054000D6220A128A11A2274F08023A0030031954
:100550000130A0000230D6220A128A11A2274F08C9
:10056000033A003003190130A0000330D6220A12EA
:100570008A11A2274F08043A003003190130A00065
:100580000430D6220A128A11711DCD2AF5010314F6
:10059000F50DFF300A168A117E2D03100030031866
:1005A0000130F50000300A168A117E2DF400E22A8F
:1005B0000730F02A0530F6000430F22A0530F60044
:1005C0000830F22A7408013A0319D82A033A0319A9
:1005D000DA2A013A0319DE2A073A031D080005301A
:1005E000F6002030F500A22720080319FF2A75081D
:1005F000F3007608840073088313800408007509EB
:10060000F300760884007308831380050800F40063
:100610007508831603170319172B43087406031D67
:10062000152B440875060319080083160317C20129
:100630000314C20D7408F300C3007508F300C4006E
:100640000800A2274308003A031D282BF117292B85
:10065000F113B830C1001B30C200F11F332BC13081
:10066000C1001B30C2000B300317C8001C30C9008A
:10067000031342080317CB01CB07031341080317E9
:10068000CA01CA070A128A15CB210A128A117808F0
:1006900003196C2BF11F612B0030A2260A128A115C
:1006A00079270A128A11A1240A128A1176230A12C2
:1006B0008A114130A527C8001C30C9000A128A15CA
:1006C000CB2976230A128A11F030A527C8001B30E7
:1006D000C9000A128A15CB29F11F08009530A527F9
:1006E000C8001C30C9000A128A15CB29A2274A0863
:1006F000B900BA010317CA0003133A080317CB0065
:100700001230C8001D30C90003134908BB00BC01EA
:100710000317CC0003133C080317CD00031347084D
:10072000BD00BE010317D00003133E080317D1001C
:1007300003134808BF00C0010317CE00031340088D
:100740000317CF000A128A15CB29711AD22BBC309D
:10075000A227B7008030B8000A168A1115260A129F
:100760008A11003A0319D22BBC30A227B600803080
:10077000B700BB01BA013030B900D430B800F3255E
:100780000A128A11F0137116543083160313920063
:100790007D30831292002A3095001F3097008C1014
:1007A00083168C14701FD62B0130D72B0030A22754
:1007B000C400701EDD2B0130DE2B00304406C93032
:1007C0000319F22BB6008030B700BB01BA0192309A
:1007D000B9007C30B800F3250A128A117013701A20
:1007E0007017C930A227B7008030B8000A168A11E6
:1007F00015260A128A11003A03190800C930A227E7
:10080000AB008030AC00A1240A128A11F01E0A2C21
:1008100001300B2C0030A227C400701E112C0130B7
:10082000122C0030440603190800F012701AF0165A
:100830000030F01A01301C2CA227C300F01143181D
:10084000F01576230A128A11AC30A227C1001B30A2
:10085000C20043080319302CA930C1001B30C2006C
:10086000E8300317C8001B30C90003134208031700
:10087000CB01CB07031341080317CA01CA070A12A9
:100880008A15CB210A128A11A2274308031D70156D
:10089000701D632C4308B6300319552CAB00803013
:1008A000AC00A1240A128A11632CB6008030B70074
:1008B0000130BB00C930BA00C330B9008030B80085
:1008C000F3250A128A117708053A0319772C77085D
:1008D000063A0319772C7708073A0319772C77081B
:1008E000083A0319772C7708093A031D0800701D90
:1008F000A02CA227D20803198C2CA02CD0080319F5
:100900008A2C882C0230852C03305002031C8A2C40
:10091000F1149C2CF1109C2C7708053A0319882CB3
:10092000033A03197E2C013A0319822C0F3A03195A
:10093000842C013A03198A2CA227D2010314D20D68
:100940006A29A2272B08840083172C1C8313FF30ED
:100950008000840A80002B08023EF5002C08031852
:10096000013E003EF600750884008317761C831351
:10097000FF308000840A8000840A8000840A80009E
:100980000800A2275408003A0319F22D013A03196E
:10099000F12C033A0319FF2C013A0319042D073AED
:1009A0000319432D013A0319582D033A0319A92DB0
:1009B000013A03195F2D0F3A0319862D013A0319E5
:1009C0008A2D033A03198D2D013A0319A62D073AF2
:1009D0000319C62D013A0319DC2D033A0319E72D3B
:1009E000F22D5508FF260A128A110330A227CB07E1
:1009F0000318CC0A0030CC070330F8000800550873
:100A000058270A128A11F52CF21CF52C5530840057
:100A100083130008840A00040319382D0230F500FE
:100A20000A128A1506210A128A11F11BF52C762367
:100A30000A128A113130A527C8001C30C9000A12D9
:100A40008A15CB210A128A110130A2260A128A11B4
:100A5000E130A227B6008030B7000130BB00BA00F9
:100A60007D30B900F830B800F3250A128A11F52C50
:100A70000030A2260A128A1179270A128A11A124AB
:100A80000A128A11F52CF21CF52C76230A128A110F
:100A90000030A527C8000830C9000A128A15CB21EA
:100AA0000A128A11A2275508E7260A128A11F52C84
:100AB000F21CF52C55084C270A128A11F52CC73068
:100AC000B600813092270A128A11AA00A9007D304F
:100AD000A80065260A128A1180270A128A117F2D22
:100AE00056085504031D832DDB30B6008030B70057
:100AF0000430BB007830BA006830B900C030B800AC
:100B0000F3250A128A110530F8000800F218702D3A
:100B10000330EA2FF218832D882DF218F52C550892
:100B2000013EA00056080318013EA1000330A200B8
:100B3000A3010A128A1541270A128A118313A227D8
:100B40002008CB070318CC0A2108FB2CF2188F2DA4
:100B5000F52CF21CF52CD530B600803092270A1205
:100B60008A110130AA00E830A9004830A8006526A3
:100B70000A128A1180270A128A11B800F3250A1274
:100B80008A110130F3260A128A11F52C4B08033E14
:100B900083160313A60083124C080318013E003E7F
:100BA0008316A70055308400831300088312CB00FE
:100BB000840A0008CC00FC2C831627088312CC0181
:100BC000CC07831626088312CB01CB07FC2C03101D
:100BD000003003180130F50002300A128A15062190
:100BE0000A128A11B02EA2273708B501B5073608B8
:100BF000B401B4073708A401A4073608A301A3076A
:100C00000A168A1153270A128A11A2273B083A04AE
:100C10003904380403190800340884008317351C8C
:100C200083130008B000840A0008B100840A000899
:100C3000B200840A0008B300340884008317351C0E
:100C4000831338088007840A39080318013E031DFE
:100C50008007840A3A080318013E031D8007840AAE
:100C60003B080318013E8007340884008317351CB5
:100C700083130008AC00840A0008AD00840A000851
:100C8000AE00840A0008AF003302031D512E2E0867
:100C90003202031D512E2D083102031D512E2C0846
:100CA0003002031C08003408043EAC003508031869
:100CB000013EAD002C08840083172D1C83130130E6
:100CC0008007840A0318800A08000030A227A300C6
:100CD000A200A100A000241C812E2808A00729083A
:100CE00003110318013E031DA1072A08031103186D
:100CF000013E031DA2072B0803110318013E031D2B
:100D0000A3070130F3000310A80DA90DAA0DAB0D28
:100D1000F30B832E01300310A70CA60CA50CA40C1A
:100D2000FF3E031D8B2E2708260425042404031DE3
:100D30006B2E2308A7002208A6002108A500200882
:100D4000A4000800F40074080319AA2E7214A22744
:100D5000061508007210FB30F300A2278605080074
:100D60007808031908000030FF260A128A110030A3
:100D700058270A128A110030A2260A128A1100305E
:100D8000F3260A128A110030E7260A128A1100306F
:100D90004C270A128A1179270A128A11A1240A12F1
:100DA0008A11DB30A227AB008030AC00A1240A12EC
:100DB0008A11D530A227AB008030AC00A1240A12E2
:100DC0008A110310003003180130F8000800F40005
:100DD00074080319EE2EA22788140800FD30F300D2
:100DE000A22788050800F40074080319FA2EA22728
:100DF00088150800F730F300A22788050800F400E2
:100E0000003A0319092F013A03190E2F033A031967
:100E1000122FCF30F300A22788050800A22708165A
:100E200088160800EF30F300A2278805881608000E
:100E3000F4007508831603170319282F3808740661
:100E4000031D262F3908750603190800831603179A
:100E5000B7010314B70D7408F300B8007508F30068
:100E6000B9000800F4007508831603170319422F10
:100E700022087406031D402F230875060319080075
:100E800083160317A1010314A10D7408F300A20037
:100E90007508F300A3000800F40074080319532F29
:100EA000A22708150800FB30F300A22788050800D8
:100EB000F400003A0319622F013A03196D2F033A27
:100EC0000319672F3F30F300A22788050800BF30C1
:100ED000F300A227880588170800A227081788179B
:100EE0000800080000300319013083120313A0002A
:100EF0000800E13083120313AB008030AC0008001F
:100F00008313831203132708BB002608BA002508A1
:100F1000B90024080800573083120313B60080304C
:100F2000B7000800B7005508A4005608A500A601A0
:100F3000A7010030AB000800031000300318013097
:100F4000F50000348312031308008312031708000E
:100F5000D82FC730B7008130B8000A168A1115267D
:100F60000A128A11003A031908000330831203138E
:100F7000EA2F5530840083130008840A0004031903
:100F8000C42FF11F0800B52FF11B0800DB30AB00A8
:100F90008030AC00A1240A128A110330831203139B
:100FA000EA2FE5270A128A110038031D0800B52F21
:100FB000831203135408073A0319A92F0F3A031990
:100FC000B92F013A0319D12FB52F83120313080843
:100FD00008390800CB070318CC0A0030CC070330CF
:100FE000F800080083120313080083120313901003
:100FF0009016101690111011101483160C1408007E
:1010000044347234613469346E3469346E34673414
:1010100000340834FF34FF34FF34FF34FF34FF342E
:10102000FF34FF34FF34FF34FF34FF34FF34FF3428
:10103000FF34FF34FF34FF34FF34FF34FF34FF3418
:10104000FF34FF34FF34FF34FF34FF34FF34FF3408
:1010500007344C348A3402340234003407342C34DC
:1010600001340234003400340734AB342F340234FA
:101070000234003407342C34013402340034003498
:101080000734AB342F3402340234003407342C34A8
:1010900001340234003400340734DB3427340234A2
:1010A0000234003407342C34013402340034003468
:1010B0000734DA3427340234023400340734D234AB
:1010C000233402340134003407344A3419340534EB
:1010D0000034003402340234003407345C344734C2
:1010E000023401340034073410340B340234003439
:1010F00000340D3400340034FA27BB000339B90042
:10110000BA013A08003A0319E028EA284530F727DF
:10111000C8001D30C900CB210A128A15B228BC3084
:10112000F727C8001B30C900CB210A128A15D02826
:10113000C630F727C8001B30C900CB210A128A1518
:101140000030F1200A128A15D028B030F727C800E5
:101150001B30C900CB210A128A150130F1200A1276
:101160008A15D0280230E2260A128A15003A03199D
:101170008F28013A03199828033A0319A528393012
:10118000F727C8001C30C900CB210A128A150310AA
:10119000003003180130F500023006210A128A15CA
:1011A000A130F727C8001C30C900CB29D230F7275F
:1011B000C8001D30C900CB210A128A150130F12860
:1011C0003908003A03198628013A0319D628033A48
:1011D000031908000310003003180130F500023035
:1011E0000629F300F808031D080003100030031857
:1011F0000130FA27D100AE30CB001D30CC00F21008
:101200007318F214F8010314F80D0800F4008316A3
:1012100003178C180729740883128D0075088C0039
:101220003F30F30083168C05FA2703108B1B031441
:101230008B13831603170C1555308D00AA308D00C3
:101240008C140C11FA2703188B170800FA27BE001C
:101250000A303E02031C312903100030031801300C
:1012600032293E08F7006C300317C8001C30C90053
:1012700077080313BC00BD010317CA0003133D0820
:101280000317CB00CB210A128A157708013A0319FC
:1012900055297708023A031955297708033A0319A3
:1012A00055297708043A031D5629F114FA275208E4
:1012B000023A0319A9290310003003180130D200A3
:1012C0000310003003180130D000A9295730B600B0
:1012D0008030B7009B30BB007230BA00EC30B900F0
:1012E000B8010A128A11F3250A128A15BF2957304C
:1012F000B6008030B7005930BB009530BA00763068
:10130000B900B8010A128A11F3250A128A15BF29F9
:101310005730B6008030B700D630BB009330BA00EB
:10132000A430B900B8010A128A11F3250A128A15ED
:10133000BF29B6008030B700A030BB00EE30BA0045
:10134000BB30B900B8010A128A11F3250A128A15B6
:10135000BF297708013A03196629033A0319772947
:10136000013A03198829073A573003199929AB0024
:101370008030AC000A128A11A1240A128A15B630F4
:101380002F2770110A128A116A210A128A1577080A
:10139000F500003006294A30FA27AF0073270A16F5
:1013A0008A1500240A128A15B400B408031908002B
:1013B000253A0319E02934086D240A128A15CE292A
:1013C000B101B2010310003003180130B000ED2963
:1013D000FA273015A0270A128A15F7274808840033
:1013E00049080A168A1500240A128A15303A031988
:1013F000E8294808840049080A168A1500240A12B8
:101400008A158A240A128A158312031C432A03139D
:10141000B101B20103174808840049080A168A1569
:1014200000240A128A15FA27AB00AC013208A10188
:10143000A1073108A001A0070A30A200A30141279B
:101440000A128A15FA272B0883132007AD002C08EF
:1014500003182C0A2107AE002D08D03EB1002E083B
:101460000318013EFF3EB200A02748088400490847
:101470000A168A1500240A128A158A240A128A1565
:10148000831203180A2A03174808840049080A1619
:101490008A1500240A128A152E3A031D7F2A01306C
:1014A000C8070318C90A0310D4270A128A15F72798
:1014B0004808840049080A168A1500240A128A1569
:1014C0008A240A128A15031CFE2A0A30FA27AA0067
:1014D00033086B260A128A15FA27AB00031748084F
:1014E000840049080A168A1500240A128A15FA2768
:1014F0002B07D03EB300A0270A128A15572A0310E3
:10150000D4270A128A15FE2AB0171B2B2F0886270C
:101510000A128A1536083504031D922AD330B50005
:101520001B30B600B701B80135083707840036080C
:101530000318013E38070A168A1500240A128A1574
:1015400000380319A82A0130B7070318B80A942AEB
:1015500033080319BD2A3308AB00AC01AB1BAC0345
:1015600038082C02031DB62A37082B020318BD2A9F
:101570003308B700B801B71BB80332083802031D9F
:10158000C32A310837020318CC2A3708B1023808B9
:10159000EF270A128A15CE2AB101B20198270A1242
:1015A0008A153206031DD62AFF3031060319ED2AAB
:1015B00020306D240A128A15CE2A35088400360898
:1015C0000A168A1500240A128A156D240A128A1531
:1015D0000130FA27B5070318B60A0130B702031C19
:1015E000B803FF303806031DF72AFF30370603190A
:1015F000CE29DD2AC030AB00B0041B2B73270A169E
:101600008A1500240A128A15B400003A031908004A
:10161000583A0319842A3C3A03191B2B0D3A031933
:101620001B2B1A3A0319862A063A0319FA2A0D3A8D
:101630000319842ACE293008C039031D2E2B2F0808
:1016400086270A128A15B61F322B0330AB00B0046E
:10165000B509B609B50A0319B60A322B2F08862731
:101660000A128A15B308031D8B2B36083504031D97
:101670008B2B0130AB00B3078B2BF3273408AB0067
:101680002B071F3E84001C300318013EAD000A16D4
:101690008A150024AC00840A0319AD0A2D080A1625
:1016A0008A1500240A128A15AD003602031D5A2B32
:1016B0002C083502031C952B0130AB00B40734080D
:1016C000053A0319952B3E2BF3273408AB002B0763
:1016D000293E84001C300318013EAD000A168A150D
:1016E0000024AC00840A0319AD0A2D080A168A15D5
:1016F00000240A128A15AD003602031D812B2C0826
:101700003502031C952B0130AB00B4073408043AB2
:101710000319952B652B3008C03903193D2B803AEE
:101720000319642B403A03193D2B3308AC003408ED
:10173000E9270A128A150318A02B3308B400AA2B34
:101740003408AC003308E9270A128A150318AA2BBB
:101750003408B300320831040319B72B30080339B9
:101760000319B72BFF30B1070318B20AB2073408C8
:10177000AB00AC01AB1BAC032C08803AAD003208C7
:10178000803A2D02031DC62B31082B02FA270318BD
:10179000D42B3408AB00AC01AB1BAC03B1022C085A
:1017A000EF270A128A15D62BB101B201301DEF2B9B
:1017B000300803390319E02B2D306D240A128A15E5
:1017C000FA273208310403195A2C30306D240A12DA
:1017D0008A1598270A128A1532083104E32B320839
:1017E00031040319FE2B20306D240A128A15982724
:1017F0000A128A1532083104031DF32B300803390D
:1018000003195A2C2D30572CBB271F3E84001C3047
:101810000318013EAC000A168A150024A500840AAC
:101820000319AC0A2C080A168A1500240A128A1514
:10183000A60080260A128A158313FA272408A80115
:10184000A8072308A701A7070A30A900AA01FA26BA
:101850000A128A158313FA272708303E552CBB2716
:10186000293E84001C300318013EAC000A168A157C
:101870000024A500840A0319AC0A2C080A168A154C
:1018800000240A128A15A60080260A128A158313DC
:10189000FA2723080F39EF3E84001C300318013E5D
:1018A0000A168A1500240A128A15B40034086D2419
:1018B0000A128A15FF30FA27AB00B3073308FF3A44
:1018C0000319CE293008C0390319042C803A0319B2
:1018D0002F2C403A0319042C562CF400FA270C1A2A
:1018E000822C981C792C8316981298168312181241
:1018F0001816181D802C1A088316AA00981298161C
:1019000064006E2C74089900C730F300F30B862C2A
:10191000892C0800F4000310003003180130F30094
:101920003A30740203189B2C30307402031C9B2C39
:10193000F3010314F30D730C0800E730FA27B70026
:101940008130B8000A168A1115260A128A15003A43
:101950000319F32CE730A8273030B900D430B80091
:101960000A128A11F3250A128A157218B92CFA275D
:1019700006155430A827B901FA30B8000A128A11A6
:10198000F3250A128A15D02C5430B7008130B800E4
:101990000A168A1115260A128A15003A031DD72C39
:1019A000FA2706080839DD00DD080319C42C72186F
:1019B000DD2CFB30FA27C4008605FA275D08831664
:1019C00048060319F32C2C308312B6008130B7007F
:1019D000323065270A128A11F3250A128A15FA276E
:1019E0005D088316C800FA2706080317DA000313F8
:1019F0004D060317DC005A080313CD0003175C1CC7
:101A00000D2D10300313B6008130B7001630652756
:101A10000A128A11F3250A128A15F727DC1E1C2DDB
:101A20001E300313B6008130B700243065270A1238
:101A30008A11F3250A128A15F727DC1C2B2D3A3060
:101A40000313B6008130B700403065270A128A11AF
:101A5000F3250A128A150310003003180130F72706
:101A6000DC000E30FA27AA0003175C086B260A1266
:101A70008A15103EFA27B7008130B8000A168A117D
:101A800015260A128A15003A0319B12D0E30FA27CD
:101A9000AA0003175C086B260A128A150B3E103E3B
:101AA000840083170008840083130008F727DB00F5
:101AB0000E300313AA0003175C086B260A128A155E
:101AC0000C3E103E840083170008FA27C400031759
:101AD000DB050E300313AA0003175C086B260A12FD
:101AE0008A150A3EDB270A128A155B060E3003139D
:101AF000AA0003170319A32D5C086B260A128A1586
:101B00000D3EDB27D2005B080313C3000317520806
:101B10000A168A1500250A128A15F7275B0803138F
:101B2000C4000E30AA0003175C086B260A128A153F
:101B30000A3E103E8400FA274408831780000E30C6
:101B40000313AA0003175C086B260A128A15103EBD
:101B5000FA27AB008130AC000A128A11A1240A12C4
:101B60008A15E2270A128A1504305C02031C312D03
:101B70000310003003180130DC0091270A128A1587
:101B80006B260A128A15903EFA27B7008130B800FA
:101B90000A168A1115260A128A15003A0319632EAD
:101BA0000B30FA27AA0003175C086B260A128A1565
:101BB000063EC5270A128A15D3000B300313AA006C
:101BC00003175C086B260A128A15903EA8273D3041
:101BD000B9000930B8000A128A11F3250A128A15D1
:101BE00091270A128A156B260A128A15073EC52705
:101BF0000A128A1553050B300313AA0003170319A1
:101C0000152E5C086B260A128A150A3E903E840047
:101C100083170008CC270A128A156B260A128A1528
:101C2000B0270A128A158004282E5C086B260A1237
:101C30008A150A3E903E840083170009CC270A12B9
:101C40008A156B260A128A15B0270A128A15800592
:101C50000B30AA0003175C086B260A128A15063E91
:101C6000903E840003108317800D8008031D632EAF
:101C70000B30FA27AA0003175C086B260A128A1594
:101C8000063E903E8400831780010314800D912747
:101C90000A128A156B260A128A15083E903E8400A5
:101CA00083178008031D632E031091270A128A15DB
:101CB0006B260A128A15073E903E840000300318F6
:101CC000013083178000E2270A128A1505305C0272
:101CD00003180800BD2DFA27A900031000300318CF
:101CE0000130A800291C772E2A08F400A807031049
:101CF000AA0D0310A90CA908031D722E28080800BC
:101D0000FA27A101A201260825040319B82EA00173
:101D10000314A00D0130A61B982E0310A50DA60DCF
:101D2000FF3E031D8D2E0130F300A0078A2E0130E7
:101D30000310A10DA20DFF3E031D982E26082402BC
:101D4000031DA42E25082302031CAD2E2508A30283
:101D50002608031CA403A402211401300310A60CBE
:101D6000A50CFF3E031DAE2E0130A002031D972ED1
:101D70002208A401A4072108A301A3070800FA2749
:101D8000BF003F18BF1CD32E0310003003180130D2
:101D9000F500003006210A128A15FF30F5000130E7
:101DA00006210A128A150130E2260A128A15003A23
:101DB000031DDC2E7115DD2E71110030E2260A1292
:101DC0008A152629F600831603178C18E32E760849
:101DD00083128D003F30F30083168C050C14031022
:101DE0000C180314003003180130F400F5018312BD
:101DF0000C080800FA272A0829040319282FF501DE
:101E00000314F50DAA1B0F2F01300310A90DAA0D05
:101E1000FF3E031D052F0130F400F507022F2A08AD
:101E20002802031D152F29082702031C1D2F29082E
:101E3000A7022A08031CA803A80201300310AA0C59
:101E4000A90CFF3E031D1E2F0130F502031D0F2FAD
:101E50002808A801A8072708A701A7070800F3007A
:101E6000840083138001840A80017308023E840089
:101E700000308001840A8001840A8001840A800184
:101E80000800F301F401FA27201C4C2F2208F30765
:101E90000318F40A2308F40701300310A20DA30D60
:101EA000FF3E031D4D2F01300310A10CA00CFF3E7F
:101EB000031D542F21082004031D432F7408A10182
:101EC000A1077308A001A007080084008317000879
:101ED000B800840A0008B900840A0008BA00840A1D
:101EE0000008BB0008008312031749080313AC0065
:101EF000031748080313AB0001300317C807031882
:101F0000C90A03132B0884002C08080084008317D7
:101F10000008B500840A0008B6000230AB00AF0725
:101F200008000B3083120313AA0003175C08080093
:101F3000FF3083120313B1070318B20AB207080077
:101F400001300317C8070318C90A0030C907080081
:101F500083120313B6008130B700BB01BA01080039
:101F6000093E903E84008317000884008312031307
:101F70004408831308003608A401A4073508A30108
:101F8000A3073308AB002B070800903E840083179B
:101F9000000883120317080083120313C4000B30D8
:101FA000AA0003175C0808000030031801308312F0
:101FB0000313B3000800103E840083170008831247
:101FC00003170800013083120313C4000317DC0752
:101FD0000800803AAB002C08803AAB020800031CD2
:101FE000B203B2020800B4010314B40D0800831256
:101FF0000317080083120313080083120313080059
:102000007E088A007F08820000200A168A1180005C
:10201000840A04087D0603190034FF0A0319FE0A26
:1020200004280C3083160313990018151812831214
:1020300098171816981283160C128C121813831204
:10204000181383169812981608000A168A156B271B
:102050000A168A111321C6000A168A1111200A16BF
:102060008A119A301621C8001D30C9000A128A153B
:10207000CB210A168A11831603138E184C28DF30E1
:102080001621C8001C30C9000A128A15CB210A1675
:102090008A111321C6175D280E18532834301621D3
:1020A000C8001D304328A3301621C8001C30C900C9
:1020B0000A128A15CB210A168A11831603138E146D
:1020C0000E148312461C6E2860300317C8001D30A2
:1020D000C9000A128A15CB210A168A111321C61CBF
:1020E000792873300317C8001D30C9000A128A15F9
:1020F000CB210A128A11F5270A168A1113214608E4
:102100000A128A1115200A168A15C1240A168A1184
:10211000132146080A128A15BF260A168A111321AE
:1021200046080A128A157C200A168A15E1230A1627
:102130008A115A210A128A11A5230A128A159D248E
:102140000A128A117D200A168A1198250A168A1108
:1021500013218C1E1129981CB328831698129816E7
:10216000831218121816181D03291A0883169812BC
:102170009816A8280A168A1143210A128A11762372
:102180000A168A11A1301621C8001C30C9000A1293
:102190008A15CB210A168A11A8280A168A11192134
:1021A0000A128A1176230A168A11A1301621C80054
:1021B0001C30C9000A128A15CB210A168A11A828D8
:1021C0000A168A112E210A128A1176230A168A11FA
:1021D000A1301621C8001C30C9000A128A15CB2173
:1021E0000A168A11A8280A128A1176230A168A1159
:1021F000A1301621C8001C30C9000A128A15CB2153
:102200000A168A11A8281A080A3A0319F328623A0A
:102210000319CD28053A0319BA281A3A0319E028F8
:10222000A828640097288312031308008312031759
:102230000800831207220A168A11B6210A168A118B
:1022400001301022AA00C90717304902031C0800F8
:102250000310003003180130C90008008312072260
:102260000A168A11B6210A168A1101301022AA0014
:10227000CA0707304A02031C080003100030031885
:102280000130CA000800831207220A168A11B621FB
:102290000A168A1101301022C100C8073C304802DA
:1022A000031C57290310003003180130C8000A121C
:1022B0008A11772BC2301022B7008030B8000A167E
:1022C0008A1115260A168A11003A0319080083128A
:1022D00007220A168A11B6210A168A1101308316BE
:1022E0000317D507003003110318013E031DD6075D
:1022F000003003110318013E031DD70700300311FE
:102300000318013E031DD80701301022B900C7078A
:102310003C304702031C0800031000300318013052
:10232000C7000130B900C8073C304802031C080050
:102330000310003003180130C8000130B900C9078C
:1023400018304902031C0800031000300318013044
:10235000C9000130B900CA0707304A02031C08004F
:102360000310003003180130CA0008001022A40036
:10237000A5002908280427042604031908002508B5
:10238000840083130008A000840A0008A100840AC6
:102390000008A200840A0008A3002508840026087B
:1023A0008007840A27080318013E031D8007840A5A
:1023B00028080318013E031D8007840A2908031812
:1023C000013E8007250884000008F300840A000805
:1023D000F400840A0008F500840A0008F6002302CD
:1023E000031DFC2975082202031DFC297408210223
:1023F000031DFC2973082002031C08002508043E65
:10240000840001308007840A0318800A080003133F
:10241000A9010130A800E830A7004830A600C23466
:1024200083120313080004340134003401340234ED
:1024300000340734FF34FF340134013400340734EE
:102440005B34273401340034003406340A34003459
:102450000934003400340134013400340734B63414
:10246000623401340234003405340134003407345A
:102470002C348A340134013400340734D934D8344C
:102480000134023400340734CD3489340434003448
:1024900000340734C43406340134013400340734C2
:1024A000DA34D8340134023400340734ED3489345A
:1024B0000134013400340734DA34D83401340234BE
:1024C00000340734ED3489340134013400340734E6
:1024D0006334B13401340234003407344C348A3468
:1024E0000234023400340734FC342634023400341D
:1024F0000034013400340034063403340034093429
:1025000000340034013402340034073410341534FC
:1025100002340134003407343F34283402340034A8
:1025200000340734AD3489340134013400340734C5
:102530006334B1340134023400340734ED34893467
:1025400001340134003407346334B13401340234CB
:10255000003407344C348A340234023400340734F3
:102560008C34283402340034003401340034003414
:1025700006340334003409340034003401340234A6
:102580000034073428341134023401340034073461
:1025900033342A340234003400340734AD348934FF
:1025A0000134013400340734ED3489340134023409
:1025B00000340734ED3489340134013400340734F5
:1025C000EC34893401340234003407344C348A3416
:1025D0000234023400340734EF342C340234003433
:1025E00000340734793408340234013400340734B9
:1025F000B7342D3402340034003407342334B1347A
:102600000134013400340734ED34893401340234A8
:10261000003407346334B1340134013400340734F6
:10262000ED34893401340234003407346334B13476
:102630000134013400340734EC3489340134023479
:10264000003407346334B1340134013400340D34C0
:102650000034003400340E340634013402340034C3
:102660000234013400340734A134333402340034EA
:1026700000340734DD344634013401340034073487
:102680003934183401340234003402340134003453
:1026900007348534163402340234003407341434D9
:1026A00002340234003400340734763462340234A5
:1026B000023400340734AF34293402340134003496
:1026C0000734CA3419340234023400340734343441
:1026D000433402340134003407349F34313402343B
:1026E0000034003407345D341234023401340034D1
:1026F0000734C3342B340234023400340734143426
:102700000234023400340034073476346234023444
:10271000023400340734AF34293402340134003435
:102720000734C93419340234023400340734AD3468
:102730004E3401340134003402340134003407349F
:10274000093455340234023400340734A4340334D9
:102750000234003400340A343534003407344C3445
:102760002F3401340234003402340134003407348D
:10277000C0340C34023402340034073414340234CC
:1027800002340034003407348E345E3402340234B0
:10279000003407344B342934023401340034073414
:1027A000CA3419340234023400340734F534423464
:1027B000023400340034083400340034033401346B
:1027C00000340134013400340734503449340234C5
:1027D0000134003407347634623402340234003475
:1027E00007346C34043402340034003408340134C7
:1027F000003407345E34F8340C341E341E34033491
:102800000134003407347A34D834013402340034CB
:102810000634033400340934003400340134013404
:1028200000340834013400340734E234AB340C345F
:102830001E341E3403340134003407349E346334B0
:102840000234013400340734D534523402340234B3
:10285000003401340034003406340B3400340734BF
:102860006C3404340234003400340934003400344D
:102870000134023400340734D134143401340134C7
:1028800000340734BA34D8340834013400340734FF
:10289000C33498340C34133412340C3428340834D0
:1028A0000134003400340E3400340034711F5A2CCB
:1028B00001305B2C0030FD27BC004308003A031DAB
:1028C000632C0130642C00303C06031908004308D7
:1028D000003A031D6D2C71176E2C7113711F872C1C
:1028E000CF30D4270A128A11F3250A168A11F11A59
:1028F000F1157119822C0310003003180130F50016
:102900000130A12FF5010314F50D55307E2DF1197D
:102910009F2C711D902CF5010314F50DFF307E2DB9
:10292000F6270A168A1115260A168A11003A031983
:102930009C2C0A128A113D280A128A115428F11A75
:102940000800CF30FD27B7008030B80015260A16E2
:102950008A11003A0319B02CBF240A168A11BD2C23
:10296000711DBA2CF5010314F50DFF307E250A16F2
:102970008A11BD2C33270A168A11F1110800043080
:10298000F1060310711D0314003003180130F50027
:1029900001300A128A1506210A128A116A29F11ECB
:1029A000D32C0130D42C0030FD27BF004308003A5F
:1029B000031DDC2C0130DD2C00303F06031908001C
:1029C0004308003A031DE62CF116E72CF112F11E24
:1029D000002DCF30D4270A128A11F3250A168A1146
:1029E000711BF1157119FB2C031000300318013015
:1029F000F5000130A12FF5010314F50D55307E2DA2
:102A0000F1195E2D711D092DF5010314F50DFF302F
:102A10007E2DF6270A168A1115260A168A11003A03
:102A20000319372DBB2F193079020318192D1930CE
:102A30002F2D3230790203181F2D32302F2D4B30BD
:102A400079020318252D4B302F2D6430790203189D
:102A50002B2D64302F2D0310003003180130F900A6
:102A6000E1270A128A11F3250A128A116A29FD2721
:102A70004E08003A0319472D013A0319582D033A1D
:102A8000031908000310003003180130CE00770846
:102A9000013EC000003003180130C1007708093A38
:102AA000031D542DC001C10140080A128A152629B0
:102AB0000A3079020318132D0A302F2D711B0800DC
:102AC000CF30FD27B7008030B80015260A168A11CE
:102AD000003A03196F2DBF240A168A117C2D711D2F
:102AE000792DF5010314F50DFF307E250A168A11A4
:102AF0007C2D33270A168A11F1110800F40075089D
:102B00008316031703198E2D2D087406031D8C2DB3
:102B10002E0875060319080083160317AC01031469
:102B2000AC0D7408F300AD007508F300AE000800AA
:102B3000E130FD27B7008030B80015260A168A114B
:102B4000003A0319BF2D873083120317C8001C30C9
:102B5000C9000A128A15CB210A128A1179270A1292
:102B60008A11A124F5010314F50D01300A128A110E
:102B7000322700300A128A11A2260A168A11DB3087
:102B8000FD27B7008030B80015260A168A11003AD2
:102B90000319E62DB23083120317C8001C30C90098
:102BA0000A128A15CB210A168A11DB30FD27AB00E9
:102BB0008030AC000A128A11A124F5010314F50D2E
:102BC00005300A128A1132270A168A11D530FD27DC
:102BD000B7008030B80015260A168A11003A03198A
:102BE000FF2DD530FD27AB008030AC000A128A11D2
:102BF000A12400300A128A11F3260A168A117808D5
:102C0000003A03190800013A03194A2E033A03193E
:102C1000522E013A0319E12E073A0319E92E013A1F
:102C2000031D08000A128A11A82F3130FD27A300C6
:102C30008030A40053270A168A11FD27BC270A16E4
:102C40008A11333084002D0883130006840F031D7E
:102C5000352E2E080006840F031D352E2F08000682
:102C6000840F031D352E30080006031DF32E370890
:102C700084008317381C83130008AB0001308407DD
:102C80000008AC003202031D472E2B083102031846
:102C900001340034ED270A168A113E270A168A11DC
:102CA0000230F800543007270A168A11003A031937
:102CB00008000A128A117623603083120317C800B5
:102CC0001C30C90003134C080317CB01CB070313B7
:102CD0004B080317CA01CA070A128A15CB210A1624
:102CE0008A11FD27D408031DC12EB430C3001B3048
:102CF000C400F21C7F2EB030C3001B30C4007930FA
:102D00000317C8001C30C900031344080317CB0184
:102D1000CB07031343080317CA01CA070A128A150F
:102D2000CB210A168A11FF30FD275505C10000305E
:102D3000C20142020F30031941020318B62EF218E5
:102D4000A32ED618A62EF218561DB62EF501031482
:102D5000F50D02300A128A1506210A168A1103306F
:102D6000FD27CB070318CC0AF800D82E031000303B
:102D700003180130F800D0300317C8001C30C90018
:102D8000D52E0310003003180130F800233003174C
:102D9000C8001D30C90003135408C100C201031745
:102DA000CA00031342080317CB000A128A15CB216D
:102DB000A13083120317C8001C30C9000A128A15FB
:102DC000CB29ED270A168A113E270A168A110430EC
:102DD000F800543007270A168A11003A0319080030
:102DE0000A128A11C12CBC270A168A113608300231
:102DF000031D042F35082F02031D042F34082E0253
:102E0000031D042F33082D02031C01340034FD2759
:102E1000A0000A2FF6008316031324088400250857
:102E2000F5000A168A150024F300840A0319F50A2E
:102E300075080A168A150024F400840A0319F50A95
:102E400075080A168A1500240A168A11F5007608F4
:102E50008400730883138000840A74088000840A45
:102E6000750880000134FD27CE010314CE0DE12743
:102E70000A128A11F3250A128A116A29FD275108BC
:102E8000003A031D08007608F401F4077508F30101
:102E9000F3074A2F740883160313A501A5077308C7
:102EA000A401A4070800FD272408A101A107230805
:102EB000A001A0070F08A2002308023EF300240887
:102EC0000318013EF400730884008317741C8313F5
:102ED0008316031320088000840A21088000840AD6
:102EE00022088000840A2308800083120E08F30061
:102EF000200884008317211C8313730880000F08A7
:102F0000F3002008013EF40021080318013EF500FB
:102F1000740884008317751C8313730880002008CD
:102F2000013EF30021080318013E003EF40073083F
:102F300084008317741C83130008220603190800F9
:102F40005A2FF4007508831603170319B12F1708B9
:102F50007406031DAF2F18087506031908008316A1
:102F6000031796010314960D7408F3009700750873
:102F7000F3009800080008003708023EAB0038084C
:102F80000318013EAC002B08840083172C1C83130C
:102F90000008AD00840A0008AE00840A0008AF00F3
:102FA000840A0008B000080083120313B6008030C2
:102FB000B700BB010330BA00D030B9009030B80080
:102FC0000800B030B6008030B700BB010930BA004D
:102FD0008930B9006830B8000800831203134C0828
:102FE000F601F6074B08F501F5070800CF3083120C
:102FF0000313B7008030B8000800831203130800E1
:1037520069346E3400346F34753474340034773421
:1037620065347434003464347234793400346C3423
:103772006F34773400347434693464347934003407
:10378200683469346734683400346D3465347334B2
:10379200733479340034FF34FF34FF34FF34FF34A0
:1037A200FF34083428346E3475346C346C34293464
:1037B200003442346C346F3463346B34203400345C
:1037C200831203130608D3000B178B170800433428
:1037D200613474342034253473340A34003444346C
:1037E2007234613469346E34653464340034640094
:1037F2008001840A0406031900340406F92BFE0032
:10380200FE1F082C83137E188317000808008A0005
:1038120004088200573461347434653472342034BD
:10382200253473340A34003473346B34693470349D
:10383200703469346E3467340A340034013400342D
:103842000A34003464340034E83403341034273446
:1038520001340034103400340034013400341034A4
:10386200463469346C346C3469346E3467340034F1
:1038720075346E346B346E346F3477346E34003496
:10388200463469346C346C346534643400347734CF
:1038920061346934743469346E3467342E342E34AE
:1038A2002E340A34003455346E346934713475342C
:1038B20065342034493444343A34203400344934B1
:1038C200503420343034783425343034343458345D
:1038D2003A342034003453346534743420346D3433
:1038E2006F34643465342034253475340A3400343A
:1038F20043344D3444345F345334543441345234B9
:1039020054342C342034253473340034463469342E
:103912006C346C342034743469346D3465346F34EF
:10392200753474340A34003442346F3478342034B9
:1039320066346C346F346F346434653464342134E7
:103942000A34003455346E346B346E346F34773449
:103952006E342034723465347334653474340A340A
:10396200003444347234613469346E342034743433
:1039720069346D3465346F34753474340A34003408
:1039820054308316031392007D30831292002A3042
:1039920095001F3097008C1083168C1408002C346D
:1039A200203469346E3463346F346D34703461346E
:1039B2007434693462346C346534003450346F3496
:1039C2007734653472342D346F346E34203472346B
:1039D20065347334653474340A3400343034313429
:1039E2003234333434343534363437343834393489
:1039F2004134423443344434453446340034FE00C6
:103A02001D308A007E08820700000A128A11212BCB
:103A12000A168A11CF2C0A168A11562C0A128A11FA
:103A22000328253464342034253464343A3425346C
:103A32002E34323464342E3425342E343234643409
:103A4200203400342C3420346E346F3420347334F8
:103A520074346134723474343A3420343034783407
:103A6200253458340034423472346F3477346E342F
:103A72002D346F34753474342034723465347334B5
:103A8200653474340A34003442346F347834203468
:083A9200693473342034003460
:103A9C00433461347434743469346D346534723441
:103AAC002034653478347034693472346534643459
:103ABC000A34003453347434613472347434203422
:103ACC0062347534743474346F346E342034683426
:103ADC0065346C3464340A340034533465347434CF
:103AEC0075347034203462347534743474346F34F7
:103AFC006E342034683465346C3464340A340034E5
:103B0C004134753474346F34743469346D346534C1
:103B1C0072342034653478347034693472346534DA
:103B2C0064343A34203400340A342A342A342A34A3
:103B3C002034433461347434473465346E3469341E
:103B4C007534733420342A342A342A340A34003439
:103B5C0000340E34063401340134003402340134A0
:103B6C000034073409345534023402340034073439
:103B7C00A43403340234003400340A3401340034E5
:103B8C000C34133412340C3428340834013400341B
:103B9C0000340E340034003457346534743420341B
:103BAC0063346C34653461346E3475347034203461
:103BBC0066346F3472346334653464340A340034DC
:103BCC00FF34FF34FF34FF34FF34FF346A341834CD
:103BDC00003400340034063401340734FF34FF342D
:103BEC00FF34FF34FF34FF346A34183400340034AB
:103BFC000034063420340434FF34FF34FF34FF34F3
:103C0C00FF34FF344834E8340134003400345D347C
:103C1C0008340134FF34FF34FF34FF34FF34FF34F5
:103C2C006A341834003400340034063402340A3454
:103C3C0004340134003407347634623404340034F0
:103C4C0000340734FF34FF340734C73427340434CA
:103C5C000134003407348E345E34043400340034C0
:103C6C0007340A34203404340134003407348E34DD
:103C7C005E3404340034003407340A342034043401
:103C8C00013400340734FF34FF340734C73427348D
:103C9C000434003400340834003400340D3400345F
:103CAC000034003400340034003400340034013467
:103CBC00003400340734023400340034003400344F
:103CCC00003400340134003400340734013400343F
:103CDC000034003400340034003401340034003437
:103CEC00093404340034003400340034003400341B
:103CFC00013400340034093401340034003400340D
:103D0C0000340034003401340034003409340234FB
:103D1C00FF34FF34FF34FF34FF34FF34F001F10182
:103D2C00F201F701F80183134730840057300A166B
:103D3C008A15F823A0308400C8300A168A15F82397
:103D4C008317CD308400ED300A168A15F8236430C1
:103D5C00F90083135E30FD001B30FE00CC30FF00F9
:103D6C00573084000A168A110420E730FD00083011
:103D7C00FE000930FF00C83084000A168A110420A6
:103D8C008317CD30FD001E30FE005730FF00903001
:103D9C0084000A168A1104204830FD001D30FE00F4
:103DAC00E630FF00103084000A168A1104200A162F
:103DBC008A1583010A168A112528831203130C1CF9
:103DCC00EB2E0C1038270A168A15831203138C1C41
:103DDC00F32E8C1010270A168A15831203130B1C52
:103DEC00042F0B100608530683160317ED006D1EE7
:103DFC00002F6427831203130608D30083166B0865
:103E0C00FE006A088A006908840068088300FF0EB7
:103E1C007F0E0900711E0800711203100030031888
:103E2C000130831603139200031000300318013085
:103E3C008312920003100030031801309500831692
:103E4C008C1083128C1012110310003003180130E7
:103E5C009700FB308316E700831287057012F01B66
:103E6C0070160800013083160313A00700300311ED
:103E7C000318013E031DA107003003110318013E76
:103E8C00031DA207003003110318013E031DA307F5
:103E9C00FF302302031D5C2FFF302202031D5C2F19
:103EAC0000302102031D5C2F00302002031C08008F
:103EBC000030A300A200A100A000632F711E080017
:103ECC0083120313061EF017080013308316031316
:103EDC008500031000300318013083128500073071
:103EEC0083169F00FB30860003100030031801304E
:103EFC00831286008316811383120B108B152330CB
:103F0C00CD00983083168700031000300318013061
:103F1C0083128700031000300318013083168800C9
:103F2C00013083128800031000300318013083160F
:103F3C00890003100030031801308312890082308D
:103F4C00F600DD30F500F50BA92FF60BA92FAE2FDF
:103F5C008230F600DD30F500F50BB22FF60BB22FE8
:103F6C00B72F031000300318013083120313AC0079
:103F7C000E30AA002C080A128A156B260C3E103E35
:103F8C0084008317000883120313AB000E30AA00C1
:103F9C002C080A128A156B260B3E103E84008317E0
:103FAC000008840083130008831203132B05F5000B
:103FBC000E30AA002C080A128A156B260A168A15CE
:103FCC000A3E103E84007508831780000130F5000E
:103FDC0083120313AC0704302C02031CBE2F0310F6
:103FEC00003003180130AC00061C2C14861EAC14D7
:043FFC002C08080085
:02400E00751E1D
:00000001FF
