:100000000A128A1110280800FF0003088316031340
:10001000EA000A08EB007E08EC000A168A11572B4A
:100020000A168A11A42B003018200A128A11F02B0C
:100030008312A000831603178C181A289A2620080A
:1000400003178D003F3083168C050C1403100C1819
:100050000314003003180130F200F30183120C087E
:1000600008005F28BF30B1008030B2004D230A1273
:100070008A11003A031908000330D8070318D90A77
:10008000DA0008000A128A1589270A128A11031950
:100090004C28711E08003C28711A0800B330A300D8
:1000A0008030A4001F210330D8070318D90ADA00D2
:1000B0000800080808390038031D08003C287708A4
:1000C000073A031932280F3A03194228013A031953
:1000D00059283C280808083908004408003A031D3C
:1000E0007328711674287112C7309A26C1001D300A
:1000F000C200711E7F28DB30C1001D30C2001230EB
:10010000B9001030BA004208BC004108BB000A1216
:100110008A15F0200A128A115A08711E0800031964
:100120009A280030A1200A128A11B930A300803029
:10013000A4001F291F30B9001F30BA000A128A1507
:10014000F028F20072080319A928F1169A2606155C
:100150000800F1129A2606110800F118D728DE309F
:10016000B1008030B2004D230A128A11003A0319FF
:10017000D728DE30B6008030B700BB01BA0130307E
:10018000B900D430B8000A128A158F260A128A11D3
:10019000F012F1145430831692007D3083129200D5
:1001A0002A3095001F3097008C1083168C14701E17
:1001B000DB280130DC2800308312C400701DE228E7
:1001C0000130E32800304406A1300319F928B600B5
:1001D0008030B700BB01BA019230B9007C30B80062
:1001E0000A128A158F260A128A1170127019701657
:1001F000A1309A26B1008030B2004D230A128A1134
:10020000003A03190800A130A3008030A4001F2188
:100210000A128A11F01D0E2901300F290030C40086
:10022000701D1429013015290030440603190800F7
:10023000F0117019F0150030F01901303E29230833
:1002400084008317241C8313FF308000840A8000FD
:100250002308023EF30024080318013E003EF40088
:10026000730884008317741C8313FF308000840A92
:100270008000840A8000840A800008009A26C30057
:10028000F0104318F014CB300313C1001D30C2002E
:10029000430803194F29C430C1001D30C2008C30FF
:1002A000B9001E30BA004208BC004108BB000A1267
:1002B0008A15F0200A128A114308031D7014701C5D
:1002C0007229D830B6008030B7000130BB00C93089
:1002D000BA00C330B9008030B8000A128A158F26E0
:1002E0000A128A117608053A031986297608063A11
:1002F000031986297608073A031986297608083AE9
:10030000031986297608093A031D0800701CAF29D5
:10031000DC0803199C29AF298316CF0803199A29F1
:10032000982902309429033083164F02031C9A291E
:100330007017AC297013AC297608053A031998296F
:10034000033A03198C29013A031991290F3A031929
:100350009329013A03199A299A26DC01DC0A622CB6
:10036000C408031DC529F1155E260A128A158F26B9
:100370000A128A1171197114F01BC129F30101309D
:10038000222EF301F30A55308C2AF1117118DA2963
:10039000F01FCE29F301F30AFF308C2AA730B100F9
:1003A0008030B2004D230A128A11003A0319D9296C
:1003B000AF2BC72B71190800A730B1008030B200F5
:1003C0004D230A128A11003A0319EA29F8210A1268
:1003D0008A11F629F01FF329F301F30AFF308C226A
:1003E0000A128A11F629A5230A128A11711008002F
:1003F0008030F006F301F01F002AF30AFF308C2A48
:1004000000308C2AC408031D172A71155E260A12B3
:100410008A158F260A128A11F1197114F01B132AFA
:10042000F3010130222EF301F30A55308C2A7111A9
:1004300071186E2AF01F202AF301F30AFF308C2A6C
:10044000A730B1008030B2004D230A128A11003A61
:1004500003194C2A372E19307A020318312A193021
:10046000422A32307A020318372A3230422A4B307D
:100470007A0203183D2A4B30422A64307A0203186C
:10048000442A6430FA00452AFA0151260A128A15D4
:100490008F260A128A11622C96260A128A110319D3
:1004A000582A013A0319682A033A03190800CE01B1
:1004B0007608013E8312C200003003180130C300E9
:1004C0007608093A031D662AC201C3014208F02BCF
:1004D0000A307A0203182B2A0A30422AF11908003E
:1004E000A730B1008030B2004D230A128A11003AC1
:1004F00003197E2AF8210A128A118A2AF01F872AF4
:10050000F301F30AFF308C220A128A118A2AA523EA
:100510000A128A1171100800F200730803170319F8
:100520009A2A2D087206031D992A2E0873060319AC
:1005300008000317AC01AC0A7208AD007308AE00E6
:10054000080083164E0BB42AD2308312B1008030DB
:10055000B2004D230A128A11003A0319B42A8316F5
:10056000CE0162240A128A119A265C08003A031905
:10057000C02A013A03191A2B033A0319382BDC015C
:100580005130B1008030B2004D230A128A11003A76
:1005900003190800EA2A51308B260A128A158F2681
:1005A0000A128A11FC2A513080260A128A158F26D7
:1005B0000A128A11FC2A513075260A128A158F26D2
:1005C0000A128A11FC2A6A260A128A158F260A1232
:1005D0008A11FC2A7608013A0319CB2A033A031937
:1005E000D32A013A0319DB2A073A51300319E32AC7
:1005F000A3008030A4001F211330B9001130BA00CD
:100600000A128A15F0200A128A11701C132BB830B6
:10061000B9001E30BA000A128A15F0200A128A1197
:10062000DC01DC0A622C2B30B9001E30BA000A1241
:100630008A15F028F0180800D830B1008030B200D8
:100640004D230A128A11003A031908003F30B900FD
:100650001030BA000A128A15F0200A128A110030EE
:10066000701B0130D9230A128A110230DC00622C7F
:10067000C2230A128A110038031D0800D8309323C0
:100680000A128A117010701F482B8316CF014A2B53
:100690008316CF0A8312DC01372B2B30A300803066
:1006A000A400D8250A128A1139260A128A112D307F
:1006B0008400270883130006840F031D6B2B280872
:1006C0000006840F031D6B2B29080006840F031DF1
:1006D0006B2B2A080006031D7F2B3108840083172B
:1006E000321C83130008A500840A0008A6002C020F
:1006F000031D7C2B25082B020318013400343926F6
:100700000A128A1130082A02031D902B2F08290291
:10071000031D902B2E082802031D902B2D08270265
:10072000031C01340034F200840083138001840A26
:1007300080017208023E840000308001840A80013A
:10074000840A8001840A800108008316CE01CE0A43
:1007500051260A128A158F260A128A11622CC22388
:100760000A128A110038031DBF2B70170030701B4E
:100770000130D9230A128A110230DC00622C0A12DD
:100780008A15252F0030DA08031D01300800C22326
:100790000A128A110038031DD72B70130030701B0A
:1007A0000130D9230A128A110230DC00622C003099
:1007B000382EF200DA08031D0800E42B9D30831266
:1007C000D8000630D900E92B83165008003A0319E7
:1007D000DE2B7113721871179A26DA01DA0A0800F3
:1007E0000313C1000A304102031CF82BF601FA2B57
:1007F0004108F600E930B9001E30BA007608BB00A7
:10080000BC010A128A15F0200A128A117603031914
:10081000152C7608023A0319152C7608033A0319A9
:10082000152C7608043A031D162C70175C08023A42
:100830000319402CDC018316CF01402C5130831268
:100840008B260A128A158F260A128A11552C5130CE
:10085000831280260A128A158F260A128A11552CB5
:100860005130831275260A128A158F260A128A11B0
:10087000552C6A260A128A158F260A128A11552CBF
:100880007608013A03191E2C033A0319272C013A62
:100890000319302C073A513083120319392CA30065
:1008A0008030A4001F210A128A11D83093230A1223
:1008B0008A117010622476080313A00000300A1217
:1008C0008A15FB2E96260A128A1103196E2C013AFC
:1008D0000319112D033A03194F2DCE01F3010030F6
:1008E000C1250A128A110A307A02F301031C7A2CFC
:1008F00000307C2CF30A5530AE250A128A11760896
:10090000003A03199F2C013A03199F2C033A03194B
:100910009F2C013A03199F2C073A03199F2C013A87
:100920000319CA2C033A0319CA2C013A0319CA2C19
:100930000F3A0319CA2C013A0319CA2CF60176039F
:100940000030031901300313A00001306D250A1295
:100950008A117608023A003003190130A0000230F3
:100960006D250A128A117608033A00300319013006
:10097000A00003306D250A128A117608043A00306F
:1009800003190130A00004306D250A128A11F30109
:100990000030992D7608093A0030031D0130031309
:1009A000A00001306D250A128A117608063A00303F
:1009B00003190130A00002306D250A128A11760851
:1009C000073A003003190130A00003306D250A12E8
:1009D0008A117608083A003003190130A00004306B
:1009E0006D250A128A11F01CFD2C5C08023A0319CD
:1009F000FD2CF301F30A5530992D701C0D2D5C0868
:100A0000023A03190D2D701F092DF301F30AFA3074
:100A1000992DF301F30AFE30992DF301F30AFF300B
:100A2000992DF3010030C1250A128A11F301F30A4E
:100A3000FF30AE250A128A110A307A0200300318FC
:100A400001300313A00001306D250A128A111930FC
:100A50007A02003003180130A00002306D250A121E
:100A60008A1132307A02003003180130A0000330BE
:100A70006D250A128A114B307A02003003180130BA
:100A8000A00004306D250A128A1164307A02F30145
:100A9000031C4D2DF30AFF30992D0030992DF301E1
:100AA000F30A5530C1250A128A11F3010030AE2530
:100AB0000A128A110313A00101306D250A128A114E
:100AC000A00102306D250A128A11A00103306D25A4
:100AD0000A128A11A00104306D2DF200792D073021
:100AE000872D0530F4000430892D0530F4000830DE
:100AF000892D7208013A03196F2D033A0319712DDC
:100B0000013A0319752D073A031D08000530F4005A
:100B10002030F30020080319932D74088400730813
:100B2000831380040800740884007309831380050C
:100B30000800F200730803170319A72D4308720673
:100B4000031DA62D44087306031908000317C201EC
:100B5000C20A7208C3007308C4000800F2007308D8
:100B60000319BA2D38087206031DBA2D3908730609
:100B700003190800B701B70A7208B8007308B90072
:100B80000800F2007308831203170319D12D2208FD
:100B90007206031DCF2D2308730603190800831264
:100BA0000317A101A10A7208A2007308A30008009C
:100BB0002408A1002308A0000F08A2002308023E79
:100BC000F20024080318013EF30072088400831722
:100BD000731C8313831645088000840A460880002E
:100BE000840A47088000840A4808800083120E089F
:100BF000F2002008840083132118831772088000F4
:100C00000F08F2002008013EF30021080318013EFE
:100C1000F40073088400831374188317720880002B
:100C20002008013EF20021080318013E003EF300B7
:100C3000720884008317731C8313000822060319AB
:100C40000800DC2DF200730803170319302E170873
:100C50007206031D2F2E18087306031908000317C8
:100C60009601960A72089700730898000800080019
:100C700008003108023EA50032080318013EA60014
:100C8000250884008317261C83130008A700840A04
:100C90000008A800840A0008A900840A0008AA0025
:100CA0000800D2308312B6008030B700BB01093093
:100CB000BA008930B9006830B8000800A730B60023
:100CC0008030B700BB010330BA00D030B90090309B
:100CD000B8000800B6008030B700A030BB00EE308E
:100CE000BA00BB30B900B8010800B6008030B700C8
:100CF000D630BB009330BA00A430B900B801080068
:100D0000B6008030B7005930BB009530BA0076305D
:100D1000B900B8010800B6008030B7009B30BB00B6
:100D20007230BA00EC30B900B801080083164E08E2
:100D3000003A080083120313080000340E3406340E
:100D40000134023400340234013400340734A13455
:100D500033340234003400340734DD344634013493
:100D60000134003407343934183401340234003487
:100D7000023401340034073485341634023402342A
:100D8000003407341434023402340034003407349D
:100D9000763462340234023400340734AF342934F8
:100DA0000234013400340734CA34193402340234B2
:100DB000003407343434433402340134003407340B
:100DC0009F34313402340034003407345D3412343B
:100DD0000234013400340734C3342B340234023477
:100DE000003407341434023402340034003407343D
:100DF000763462340234023400340734AF34293498
:100E00000234013400340734C93419340234023452
:100E100000340734AD344E3401340134003402342C
:100E200001340034073409345534023402340034B8
:100E30000734A43403340234003400340A34353423
:100E4000003407344C342F3401340234003402347B
:100E5000013400340734C0340C340234023400341A
:100E600007341434023402340034003407348E342E
:100E70005E3402340234003407344B3429340234F3
:100E8000013400340734CA341934023402340034D3
:100E90000734F5344234023400340034083400346A
:100EA0000034033401340034013401340034073495
:100EB0005034493402340134003407347634623417
:100EC00002340234003407346C3404340234003405
:100ED000003408340134003407345E34F8340C3400
:100EE0009C34123403340134003407347A34D83457
:100EF000013402340034063403340034093400343D
:100F0000003401340134003408340134003407342F
:100F1000E234AB340C349C341234033401340034E6
:100F200007349E3463340234013400340734D5343A
:100F300052340234023400340134003400340634B4
:100F40000B34003407346C3404340234003400347D
:100F50000934003400340134023400340734D1340D
:100F600014340134013400340734BA34D83408342A
:100F7000013400340734C33498340C34D934143475
:100F80000C34F13413340134003400340E340034A2
:100F900000340034003400340034003400340134B0
:100FA0000034003407340234003400340034003498
:100FB0000034003401340034003407340134003488
:100FC0000034003400340034003401340034003480
:100FD0000934043400340034003400340034003464
:100FE0000134003400340934013400340034003456
:100FF0000034003400340134003400340934023445
:10100200C1000339F400F5017508003A031960289C
:101012006A287C30B9001E30BA00F0200A128A1504
:101022003528E0300313B9001D30BA00F0200A124F
:101032008A155128E5300313B9001D30BA00F0209B
:101042000A128A1500306D200A128A155128D730EB
:101052000313B9001D30BA00F0200A128A150130BC
:101062006D200A128A15512801300A128A1118209D
:101072000A128A15003A03191228013A03191B2889
:10108200033A0319282874300313B9001E30BA003A
:10109200F0200A128A15A0010130FB260A128A15D5
:1010A2002B30D927B9001F30BA00F028D730B90049
:1010B2001030BA00F0200A128A1501306D28740827
:1010C200003A03190A28013A03195728033A031967
:1010D2000800A0010130FB2EF200DA08031D08000F
:1010E2008316D00113308312D8001330D900711344
:1010F200721871170313DA01DA0A0800B930031300
:10110200B1008030B2000A128A114D230A128A15E8
:10111200003A0319A2280330B9001F30BA00F020A8
:10112200B930A3008030A4000A128A111F21F301F2
:10113200F30A01300A128A11C12500300A128A11FB
:10114200A120B330B1008030B2000A128A114D23BF
:101152000A128A15003A0319C0283C30B9001F3020
:10116200BA00F020B330A3008030A4000A128A1122
:101172001F21F301F30A05300A128A11C125AD308D
:101182000313B1008030B2000A128A114D230A12F1
:101192008A15003A0319DA28AD30A3008030A40082
:1011A2000A128A111F210A128A15003060270A12B8
:1011B2008A155A08003A03190800013A0319052949
:1011C200033A03191129013A03196529073A031948
:1011D2007129013A031D08000A128A1131283B3095
:1011E200AF00D9279A270A168A1500260A128A15ED
:1011F200B800B80803190800253A031979293808F4
:1012020033230A128A15F2285908A1005808A000AF
:101212000A168A159A270A128A1502308312DA00F0
:1012220077304F230A128A15003A03190800C43096
:10123200BF270A128A15F0200A128A15F708031D21
:101242005529D330C1001D30C200711F2C29D7305F
:10125200C1001D30C2001130B9001F30BA0042086F
:10126200BC004108BB00F0200A128A150F30780238
:1012720003184F29711B3F29F9184229711B791D47
:101282004F29A001A00A0130FB260A128A15033059
:10129200D927D8070318D90ADA006029DA014B30B6
:1012A200B9001F30BA005D29DA01CD30B9001F3014
:1012B200BA007708BB00BC01F0200A128A152B3055
:1012C200B9001F30BA00F0285908A1005808A00040
:1012D2000A168A159A270A128A1504308312DA002E
:1012E20077304F230A128A15003A031908007A2B25
:1012F200B201B301B10181293115B90A0319BA0A40
:10130200390884003A080A168A1500260A128A1534
:10131200303A03197D29390884003A080A168A15D9
:1013220000260A128A157B270A128A15031C2C2A08
:10133200B201B301390884003A080A168A15002658
:10134200AB00AC013308A3003208A2000A30A400AB
:10135200A5010A168A1169212B0883132207AD0001
:101362002C0803182C0A2307AE002D08D03EB20029
:101372002E080318013EFF3EB300B90A0319BA0A48
:10138200390884003A080A168A1500260A128A15B4
:101392007B270A128A15031C2C2A9B29B117432A80
:1013A2008F270A128A153404031DDB29A430B400E6
:1013B2001E30B500B601B70134083607840035087F
:1013C2000318013E37070A168A1500260A128A15E3
:1013D20000380319F029B60A0319B70ADD293308C0
:1013E2003702031DF629320836020318FF29360890
:1013F200B2023708D5270A128A15012AB201B301AF
:10140200FF30D927B207031CB303320A0319330A88
:1014120003191F2A203033230A128A15012A34089D
:10142200840035080A168A1500260A128A15332303
:101432000A128A15D927B40A0319B50A0130B6026D
:10144200031CB703360A0319370A0319F228102AB4
:10145200C030B104432A9A270A168A1500260A12B6
:101462008A15B800003A03190800583A0319CF291F
:101472002B3A0319D129063A0319292A0D3A0319DD
:10148200CF29F2288F270A128A15912AB801B80AA1
:101492000310380D213E84001E300318013EAC00BB
:1014A2000A168A150026AB00840A0319AC0A2C0816
:1014B2000A168A1500260A128A15AC003502031D87
:1014C200642A2B083402031C992AB80A3808053A00
:1014D2000319992A492AB801B80A0310380D943E13
:1014E20084001E300318013EAC000A168A1500263D
:1014F200AB00840A0319AC0A2C080A168A150026C6
:101502000A128A15AC003502031D892A2B083402FF
:10151200031C992AB80A3808043A0319992A6E2A30
:101522003108C039803A03196C2A403A0319472A14
:101532003808AB00AC01AB1BAC032C08803AAD0001
:101542003308803A2D02031DA82A32082B02D9271C
:101552000318B62A3808AB00AC01AB1BAC03B202CD
:101562002C08D5270A128A15B82AB201B30133080A
:101572003204311DC72A0319D32A303033230A1209
:101582008A15FF30B7270A128A15BC2A0319D32AF3
:10159200203033230A128A15FF30B7270A128A1520
:1015A200031DC92A3808B0002E2BC727213E84000C
:1015B2001E300318013EAB000A168A150026A5004C
:1015C200840A0319AB0A2B080A168A150026A600FC
:1015D2000A168A1107220A128A1583132408A80000
:1015E2002308A7000A30A900AA01DC270A128A15DB
:1015F20083132708303E202BC727943E84001E30D9
:101602000318013EAB000A168A150026A500840ABB
:101612000319AB0A2B080A168A150026A6000A1619
:101622008A110722831323080F39DE3E84001F30FC
:101632000318013E0A168A1500260A128A15B800F6
:101642002A2B3108C039803A0319FD2A403A03197E
:10165200D62A380833230A128A15D927B003300F45
:10166200222BF228A40083120C1A472B981C3F2B22
:10167200831698129816831218121816181D452BE5
:101682001A088316981298166400342B24089900BD
:10169200C730F200F20B4B2B4E2B0800A100831235
:1016A200522BA0008316490884004A08F4000A1647
:1016B2008A150026F200840A0319F40A74080A162D
:1016C2008A150026F300840A0319F40A74080A161C
:1016D2008A1500260A128A15F40083122008840053
:1016E20072088000840A73088000840A74088000EB
:1016F2000134C430BF270A128A15F0200A128A1553
:101702004E2E48300317DF001E30E00078037904C4
:10171200031D8F2B6C30DF001E30E0006008DE00FE
:101722005F08DD0079087804031D9B2B3530DD004E
:101732001E30DE00DC300313B9001E30BA0003177E
:101742005E080313BC0003175D080313BB00F020FF
:101752000A128A15780868270A128A15202DF23093
:101762000317DB001D30DC0078037904031DBD2B59
:101772005130DB001E30DC005C08DA005B08D90067
:1017820079087804031DC92B3F30D9001E30DA00D6
:10179200AC300313B9001E30BA0003175A08031302
:1017A200BC00031759080313BB00F02078080A167F
:1017B2008A11B0200A128A15202DF9300317E10090
:1017C2001D30E200711FE92B2C30E1001F30E200D6
:1017D200CF30E7001D30E80089270A128A15031965
:1017E200F62BC130E7001D30E8006A300313B90060
:1017F2001F30BA00031768080313BC0003176708F9
:101802000313BB00031762080313BE00031761082A
:101812000313BD00F0200A128A15711F4A2C78307A
:1018220084000008840A000403193D2C0230A00041
:101832000130FB260A128A15711A342C01300A1261
:101842008A11A1200A128A15B930B6008030B70079
:101852000130BB00BA007D30B900F830B8008F26E5
:101862000A128A154A2C1630D927B9001E30BA003E
:10187200F0200A128A154A2C00300A128A11A1207D
:10188200B930A3008030A4000A128A111F210A1263
:101892008A150330D8070318D90A0330242DF930EA
:1018A2000317E9001D30EA00711F5B2C2C30E900A0
:1018B2001F30EA00CF30E3001D30E40089270A120E
:1018C2008A150319682CC130E3001D30E4002D3065
:1018D2000313B9001F30BA00031764080313BC00D6
:1018E200031763080313BB0003176A080313BE0040
:1018F200031769080313BD00F0200A128A15711F2D
:101902004A2C780858270A128A154A2CF9300317EC
:10191200E5001D30E600711F922C2C30E5001F30CF
:10192200E600CF30CF001D30D00089270A128A1579
:1019320003199F2CC130CF001D30D0008A30031311
:10194200B9001F30BA00031750080313BC00031775
:101952004F080313BB00031766080313BE000317E7
:1019620065080313BD00F0200A128A15711F4A2C64
:1019720078081D270A128A154A2C8A30B9001030BD
:10198200BA007908BC007808BB00F0200A128A1558
:10199200BF30A4277D30A800A901AA01AB010A1615
:1019A2008A1131220A128A15AE270A128A15B80044
:1019B2008F260A128A150530242DF9300317CD001F
:1019C2001D30CE00711FE92C2C30CD001F30CE000F
:1019D200C730CB001D30CC0089270A128A150319A3
:1019E200F62CDB30CB001D30CC00C3300313B90022
:1019F2001030BA0003174C080313BC0003174B083E
:101A02000313BB0003174E080313BE0003174D0850
:101A12000313BD00F0200A128A15711F202D7908C8
:101A22007804031DDC2CB330B6008030B7000430DC
:101A3200BB007830BA006830B900C030D82C03300F
:101A4200D8070318D90ADA008A2EF9300317D10011
:101A52001D30D200711F312D2C30D1001F30D20029
:101A6200BC300313B9001F30BA0003175208031326
:101A7200BC00031751080313BB00F0200A128A1599
:101A8200711BDC2C202D2C300317D7001F30D800FF
:101A9200711F4F2DF930D7001D30D800EB300313E2
:101AA200B9001030CE270A128A1558080313BE0057
:101AB200031757080313BD00F0200A128A15711B81
:101AC2004A2C7808013EA20079080318013EA300BF
:101AD2000330A400A5010A168A1169210A128A1587
:101AE20083132208D8070318D90A2308D9074E2CD2
:101AF200F9300317D5001D30D600711F842D2C300C
:101B0200D5001F30D600FF300313B9001030CE27A6
:101B12000A128A1556080313BE0003175508031349
:101B2200BD00F0200A128A15711B622D4A2CF93071
:101B32000317D3001D30D400711FA32D2C30D30006
:101B42001F30D40079080313A4007808A3000A30D8
:101B5200A500A6010A168A1107220A128A15831302
:101B620024080317C800031323080317C7007908C2
:101B72000313A8007808A7000A30A900AA01DC27ED
:101B82000A128A15831328080317CA0003132708A9
:101B92000317C90048080313BC00031747080313BF
:101BA200BB005130B9001130BA00031754080313B7
:101BB200C000031753080313BF0003174A08031397
:101BC200BE00031749080313BD00F0200A128A154C
:101BD200711F4A2CAD30A427AB010130AA00E830B6
:101BE200A9004830A8000A168A1131220A128A1561
:101BF200AE270A128A15B8008F260A128A150130FA
:101C020060270A128A154A2C1C30B9001030BA001B
:101C12007908BC007808BB00F0200A128A1558081F
:101C2200033E8316CB00831259080318013E003E7F
:101C32008316CC007830840000088312D800840A0E
:101C42000008D9004E2C9D30B9001030BA0083161E
:101C52004C088312BC0083164B088312BB00F02091
:101C62000A128A1583164C088312D90083164B0870
:101C72008312D8004E2C8430B9001E30BA00F020F6
:101C82000A128A15A0010130FB260A128A15872E34
:101C92003B30B9001130BA00842E7708003A03199C
:101CA200492E013A0319822B033A0319B02B013A48
:101CB2000319DE2B073A0319502C013A0319872C1A
:101CC200033A0319982D013A0319BE2C0F3A03194E
:101CD200DE2C013A0319262D033A0319442D013A49
:101CE2000319792D073A0319052E013A0319242EF7
:101CF200033A03193C2E2D30B9001030BA0079088E
:101D0200BC007808BB00F0200A128A1525270A12A7
:101D12008A152B30B9001F30BA00F0283708B500F9
:101D22003608B4003708A4003608A3000A128A1144
:101D3200D8250A128A153B083A04390438040319D3
:101D42000800340884008317351C83130008B00090
:101D5200840A0008B100840A0008B200840A00085C
:101D6200B300340884008317351C831338088007B6
:101D7200840A39080318013E031D8007840A3A08C1
:101D82000318013E031D8007840A3B080318013E25
:101D92008007340884008317351C83130008AC00C5
:101DA200840A0008AD00840A0008AE00840A000814
:101DB200AF003302031DE72E2E083202031DE72E69
:101DC2002D083102031DE72E2C083002031C0800E7
:101DD2003408043EAC0035080318013EAD002C085F
:101DE200840083172D1C831301308007840A031893
:101DF200800A0800F200831603178C18FC2E720862
:101E020083128D000313200803178C003F308316C2
:101E12008C050310D9278B1B03148B13831603170E
:101E22000C1555308D00AA308D008C140C11031C3A
:101E32000800D9278B170800F20072080319232F14
:101E42000815080008110800D9275A0803190800C4
:101E52000030682700300A168A11B02000300A12BA
:101E62008A11A1200A128A15003060270A128A15E7
:101E7200003058270A128A1500301D27B930A300F6
:101E82008030A4000A128A111F21B330A3008030CF
:101E9200A4000A128A111F21AD30A3008030A400D1
:101EA2000A128A111F210A128A15DA010800F200A9
:101EB200720803195E2F8814080088100800F200C7
:101EC20072080319662F8815080088110800F200AD
:101ED200003A0319722F013A0319752F033A0319B5
:101EE200782FCF30880508000816881608000812D7
:101EF20088160800A100A0013A3021020318872F9A
:101F020030302102031C872FA001A00A200C0800F8
:101F1200783084000008840A000408002F08840036
:101F220083130008B400840A0008B500AF0AAF0AA0
:101F320008003A08AC003908AB00B90A0319BA0A1A
:101F420084002C080800B6008030B7007808A4008E
:101F52007908A500A601A701080083132708BB0082
:101F62002608BA002508B9002408080083120313C2
:101F7200B207031CB303330832040800B9001E3051
:101F8200BA005908BC005808BB0008003508A40074
:101F92003408A3000310300D0800BA007908BC0011
:101FA2007808BB0003170800031CB303B302080040
:101FB2008312031308002A0829040319FB2FF201D4
:101FC200F20AAA1BE82F0310A90DAA0DE12F2A0875
:101FD2002802031DEE2F29082702031CF72F2908C8
:101FE200A7022A08031CA803A8020310AA0CA90C22
:101FF200F20BE82F2808A8002708A7000800FE0017
:1020020010308A007E08820700000A128A11022A12
:102012000A128A11B0290A128A1103280A128A1195
:102022006D28573461347434653472342034253465
:1020320073340A34003443344D3444345F3443340B
:1020420041344C344C342C342034303478342534FC
:10205200303434345834003443344D3444345F34EF
:1020620075346E346B346E346F3477346E343A3484
:1020720020343034783425345834003443346134D5
:102082007434743469346D34653472342034653494
:102092007834703469347234653464340A34003408
:1020A2005334653474347534703420346234753486
:1020B200743474346F346E342034683465346C3460
:1020C20064340A34003453347434613472347434F2
:1020D200203462347534743474346F346E34203482
:1020E200683465346C3464340A3400340C3083163A
:1020F2009900181518128312981718169812831639
:102102000C128C1218138312181383169812981635
:10211200080043344D3444345F3457344134493435
:102122005434543449344D3445342C342034253419
:1021320075346D347334003443344D3444345F3475
:10214200523445345434553452344E342C342034C1
:102152003034783425343034343458340034F20096
:10216200003A0319BA28013A0319C028033A03199D
:10217200BD283F3088050800081388170800081793
:102182008817080043344D3444345F3457344134A3
:1021920049345434573441345434453452342C3451
:1021A2002034253473342534733400345734653481
:1021B2007434203463346C34653461346E34753471
:1021C2007034203466346F3472346334653464346A
:1021D2000A34003443344D3444345F3453344B3482
:1021E20049345034493446344434523459342C340A
:1021F20020342534753425347334003443344D345B
:1022020044345F3453344B344934503449344634C3
:102212005734453454342C34203425347534253421
:10222200733400344134753474346F347434693423
:102232006D346534723420346534783470346934E2
:102242007234653464343A34203400340A342A3423
:102252002A342A34203443346134743447346534A4
:102262006E3469347534733420342A342A342A346F
:102272000A34003443344D3444345F3453345434D8
:102282004134523454342C34203475346E34653431
:1022920078347034653463347434653464340034AF
:1022A20043344D3444345F344134553454344F3420
:1022B20044344F34533445342C342034253475346B
:1022C2002E34253475346D346C3425347334003433
:1022D200A001A101221C73292408A0070318A10A46
:1022E2002508A1070310A40DA50D0310A30CA20C31
:1022F20023082204031D6B292108A3002008A20041
:1023020008005434523449345334443420343D3474
:1023120020343034783425343034323458342C3448
:10232200203450344F3452345434443420343D3405
:1023320020343034783425343034323458340A344A
:1023420000345434523449345334453420343D3407
:1023520020343034783425343034323458342C3408
:10236200203450344F3452345434453420343D34C4
:1023720020343034783425343034323458340A340A
:1023820000345434523449345334433420343D34C9
:1023920020343034783425343034323458342C34C8
:1023A200203450344F3452345434433420343D3486
:1023B20020343034783425343034323458340A34CA
:1023C20000340834FF34FF34FF34FF34FF34FF3469
:1023D200FF34FF34FF34FF34FF34FF34FF34FF3463
:1023E200FF34FF34FF34FF34FF34FF34FF34FF3453
:1023F200FF34FF34FF34FF34FF34FF34FF34FF3443
:10240200FF34FF34FF34FF34FF34FF34A101A20153
:102412002608250403192C2AA001A00A0310A61BD2
:10242200162AA50DA60D0E2A0310A10DA20D26082F
:102432002402031D1E2A25082302031C282A25081C
:10244200A3022608031CA403A40221140310A60C51
:10245200A50CA00B152A2208A4002108A30008003D
:10246200A001A101A201A301241C4B2A2808A00754
:10247200290803110318013E031DA1072A080311AD
:102482000318013E031DA2072B0803110318013E86
:10249200031DA3070310A80DA90DAA0DAB0D031070
:1024A200A70CA60CA50CA40C2708260425042404BA
:1024B200031D352A2308A7002208A6002108A5002B
:1024C2002008A4000800FF34FF34FF34FF34FF3437
:1024D200FF346A34183400340034003406340134D2
:1024E2000434FF34FF34FF34FF34FF34FF346A34E2
:1024F2001834003400340034063420340134FF34FC
:10250200FF34FF34FF34FF34FF344834E8340134FD
:1025120000340034573408340A34FF34FF34FF34B3
:10252200FF34FF34FF346A3418340034003400348A
:102532000634023407340434013400340734763468
:1025420062340434003400340734FF34FF34073477
:10255200C734273404340134003407348E345E34F3
:1025620004340034003407340A342034043401348F
:10257200003407348E345E340434003400340734BB
:102582000A3420340434013400340734FF34FF3475
:102592000734C73427340434003400340834003498
:1025A20000340D34003400343730B9001330BA002F
:1025B200831606088312BB00BC010608BD00BE01DB
:1025C2000A128A15F020C230B9001130BA008316FF
:1025D20007088312BB00BC010708BD00BE010A1236
:1025E2008A15F0208230B9001130BA00831608082B
:1025F2008312BB00BC010808BD00BE010A128A1585
:10260200F0200A168A11A230B9001130BA008316DE
:1026120009088312BB00BC010908BD00BE010A12F1
:102622008A15F02800340E340634013401340034A3
:10263200023401340034073409345534023402348C
:1026420000340734A43403340234003400340A342E
:10265200013400340C34D93414340C34F1341334CE
:102662000134003400340E34003400345434523413
:1026720049345334423420343D34203430347834B5
:1026820025343034323458342C34203450344F34DE
:1026920052345434423420343D342034303478348B
:1026A20025343034323458340A34003483120C1C4A
:1026B2005E2B0C1094230A168A1183128C1C652B34
:1026C2008C1081230A168A11831203130B1C772B99
:1026D2000B10060883164D060317D600561E722BE2
:1026E2009D238312031306088316CD0083166C08FC
:1026F200FE006B088A006A088300FF0E7F0E090045
:10270200F11C0800F11083169201831292019501C7
:1027120083168C1083128C101211970107117011FD
:10272200F01A701508008316C50A0319C60A0319A0
:10273200C70A0319C80A0800F11C08008312031310
:10274200061EF0160800F001F101F601F701F8018A
:10275200F901D801D901DA01DB01DC018313C530AB
:102762008400EA300A168A159C268317C830840032
:10277200D6300A168A159C266430FA00FF30D10042
:10278200D200D300D400D500D6000830D70083137E
:10279200C530FD001130FE00E230FF00A0308400A1
:1027A2000A168A15AF278317C830FD001230FE00C3
:1027B2006430FF00903084000A168A15AF27473034
:1027C200FD000730FE00C930FF00103084000A16F9
:1027D2008A15AF270A168A1183010A168A11452C17
:1027E20007344C348A3402340234003407342C3433
:1027F20001340234003400340734AB342F34023451
:102802000234003407342C340134023400340034EE
:102812000734AB342F3402340234003407342C34FE
:1028220001340234003400340734DB3427340234F8
:102832000234003407342C340134023400340034BE
:102842000734DA3427340234023400340734D23401
:10285200233402340134003407344A341934053441
:102862000034003402340234003407345C34473418
:10287200023401340034073410340B34023400348F
:1028820000340D34003400340A168A11F025D000C9
:102892000A168A11772027308312B9001130BA0044
:1028A2000A128A15F0200A168A1183168E18632CD2
:1028B2007A308312B9001F30BA000A128A15F0204A
:1028C2000A168A1183160E18702CEF308312B90083
:1028D2001F30BA000A128A15F0200A168A11031A4A
:1028E2007C2C5A308312B9001F30BA000A128A15A2
:1028F200F0200A168A118319882C0B308312B90032
:102902001E30BA000A128A15F0200A168A118312A2
:10291200501C942C6430B9001030BA000A128A1587
:10292200F0200A168A11D01C9D2C5130B9001030AB
:10293200BA000A128A15F0200A168A1563260A16A8
:102942008A15F6260A128A111320831203135008DD
:102952000A128A1501200A168A155A260A128A11A3
:10296200AD200A168A115F260A128A11A1220A12C2
:102972008A157F200A168A1183128C1EAF2C981C8E
:10298200C82C831698129816831218121816181D3E
:10299200CF2C1A08831698129816BD2C1A080A3AD8
:1029A200031DBD2C0A168A11D5220A168A11BD2CC6
:1029B2000434013400340134023400340734FF3467
:1029C200FF3401340134003407345B3427340134DA
:1029D2000034003406340A3400340934003400343C
:1029E2000134013400340734B63462340134023421
:1029F200003405340134003407342C348A34013471
:102A0200013400340734D934D83401340234003468
:102A12000734CD3489340434003400340734C434E8
:102A220006340134013400340734DA34D834013442
:102A3200023400340734ED34893401340134003473
:102A42000734DA34D8340134023400340734ED3434
:102A5200893401340134003407346334B13401342D
:102A62000234003407344C348A34023402340034E1
:102A72000734FC3426340234003400340134003488
:102A82000034063403340034093400340034013491
:102A92000234003407341034153402340134003463
:102AA20007343F3428340234003400340734AD3460
:102AB200893401340134003407346334B1340134CD
:102AC200023400340734ED348934013401340034E3
:102AD20007346334B13401340234003407344C34E3
:102AE2008A3402340234003407348C3428340234F9
:102AF200003400340134003400340634033400342A
:102B020009340034003401340234003407342834E8
:102B12001134023401340034073433342A34023499
:102B2200003400340734AD348934013401340034C4
:102B32000734ED3489340134023400340734ED347F
:102B420089340134013400340734EC3489340134DB
:102B52000234003407344C348A34023402340034F0
:102B62000734EF342C34023400340034073479341F
:102B720008340234013400340734B7342D340234BB
:102B82000034003407342334B134013401340034C6
:102B92000734ED34893401340234003407346334A9
:102BA200B1340134013400340734ED348934013452
:102BB2000234003407346334B13401340134003454
:102BC2000734EC348934013402340034073463347A
:102BD200B1340134013400340D3400340034133084
:102BE2008316850083128501073083169F00FB3010
:102BF2008600831286018316811383120B108B15B4
:102C020023308316D1009830870083128701831600
:102C12008801013083128800831689018312890199
:102C22008230F400DD30F300F30B152EF40B152E79
:102C32001A2E8230F400DD30F300F30B1E2EF40B5B
:102C42001E2E232E83120313A7010E30A200270883
:102C5200DD270A168A119C3E840083170008A6000D
:102C62000E30A2002708DD270A168A119B3E840037
:102C72000008840083130008F3000E30A200270826
:102C8200DD270A168A119A3E840073088317800092
:102C92000E30A2002708DD270A168A119A3E840008
:102CA20026088005A70A04302702031C262EA70146
:102CB200061C2714861EA71427080800E4300313F5
:102CC200B1008030B2000A128A114D230A168A110D
:102CD200003A0319B32EE430B6008030B700BB01CE
:102CE200BA013030B900D430B8000A128A158F26E2
:102CF200F11E06154730B6008030B700FA30B80032
:102D0200B901BA01BB010A128A158F260A168A1165
:102D1200962E4730B1008030B2000A128A114D233C
:102D22000A168A11003A031D9D2E0608D7000830A4
:102D3200D705D70803198A2EF11E061157088316E4
:102D420020060319B32EAC308312B6008130B700CF
:102D5200B230EB270A128A158F260A168A115708F3
:102D62008316A00083120608CD0083165106831233
:102D7200CF004D088316D10083124F1CCB2E90300A
:102D8200B6008130B7009630EB270A128A158F26DB
:102D92000A168A11CF1ED82E9E30B6008130B70097
:102DA200A430EB270A128A158F260A168A11CF1C25
:102DB200E52EBA30B6008130B700C030EB270A12D8
:102DC2008A158F260A168A11CF010E30A2004F08EB
:102DD200DD27903EB1008130B2000A128A114D23E4
:102DE2000A168A11003A0319432F0E30A2004F0827
:102DF200DD270A168A119B3E84008317000884008F
:102E020083130008CE000E30A2004F08DD270A16F9
:102E12008A119C3E840083170008CE050E30A20062
:102E22004F08DD270A168A119A3E840000084E06D2
:102E32000319362F4E08C4000E30A2004F08DD27BA
:102E42009D3E840000080A168A1100200A168A1183
:102E52000E3083120313A2004F08DD270A168A11CF
:102E62009A3E84004E08831780000E30A2004F085D
:102E7200DD27903EA3008130A4000A128A111F218F
:102E82000A168A11CF0A04304F02031CE62ECF0124
:102E92000B30A2004F08DD27103EB1008130B20096
:102EA2000A128A114D230A168A11003A0319D72FE2
:102EB2000B30A2004F08DD270A168A11163E840045
:102EC20083170008C6000B30A2004F08DD27103E12
:102ED200B6008130B700BB01BA013D30B9000930FC
:102EE200B8000A128A158F260A168A110B30A20020
:102EF2004F08DD270A168A11173E8400831700083F
:102F020046050B30A2000319992F4F08DD270A1638
:102F12008A111A3E84000008C5000B30A2004F0837
:102F2200DD270A168A11F9270A168A118004AB2FA7
:102F32004F08DD270A168A111A3E84000009C500CF
:102F42000B30A2004F08DD270A168A11F9270A164C
:102F52008A1180050B30A2004F08DD270A168A115C
:102F6200163E840003108317800D8008031DD72F9F
:102F72000B30A2004F08DD270A168A11163E840084
:102F82008001800A0B30A2004F08DD270A168A1141
:102F9200183E84008008031DD72F0B30A2004F0873
:102FA200DD270A168A11173E84008001CF0A0530F8
:102FB2004F0203180800492FA100A001220821187E
:102FC200A0070310A20D0310A10CA108031DDF2FFF
:102FD20020080800840083170008B800840A00084B
:102FE200B900840A0008BA00840A0008BB0008007D
:0E2FF200193E8400000884004508831308007F
:103B82006F346E34003469346E3400346C346F3404
:103B9200773400346F347534743400346F346634DF
:103BA20066340034643472347934003477346534E2
:103BB20074340034683469346734683400347434DB
:103BC20069346434793400346D3465347334733455
:103BD2007934003442346C346F3463346B342034BF
:103BE2000034413452344D345F345534503400344F
:103BF200203428346E346F34703429340034FE009B
:103C0200FE1F082E83137E188317000808008A00FF
:103C120004088200503469346E34203472346534BE
:103C22007334653474340A340034203428347334E1
:103C32006B3469347034703465346434293400343C
:103C4200013400340A34003464340034E834033478
:103C52001034273473346B346934703470346934FB
:103C62006E3467340A34003442344F3457344C349F
:103C72005F34533454344F3450340034413452346A
:103C82004D345F34533454344F345034003442345E
:103C92004F3457344C345F34433443345734003454
:103CA200413452344D345F3444344F3457344E34FB
:103CB20000348312031306088316CD0083120B17F8
:103CC2008B170800901090161016901110111014F6
:103CD20083160C14080042344F3457344C345F348A
:103CE20043345734003475346E346B346E346F346D
:103CF20077346E34003442346F347834203469348B
:103D020073342034003443344D3444345F34453406
:103D12004E34443400344334613474342034253412
:103D220073340A3400340134003410340034003463
:103D320001340034103464008001840A040603193B
:103D4200003404069D2E28346E3475346C346C3481
:043D520029340034DC
:103D580043344D3444345F34413452344D342C347C
:103D6800203425347334003477346134693474343E
:103D780069346E3467342E342E342E340A340034C9
:103D880049345034203430347834253430343434A1
:103D980058343A342034003455346E34693471342C
:103DA800753465342034493444343A34203400348A
:103DB80043344D3444345F3442344F3457344C34F4
:103DC8002C3420342534733400345334653474343B
:103DD80020346D346F3464346534203425347534BC
:103DE8000A340034543092007D30831292002A3015
:103DF80095001F3097008C1083168C1408004634E9
:103E080069346C346C342034743469346D346534FA
:103E18006F34753474340A34003443344D344434C4
:103E28005F34533454344134523454342C342034B1
:103E380025347334003442346F3478342034663493
:103E48006C346F346F3464346534643421340A3428
:103E5800003443344D3444345F34503455344D3495
:103E680050342C34203425347334253473340034DE
:103E780044347234613469346E34203474346934AF
:103E88006D3465346F34753474340A3400342C342A
:103E9800203469346E3463346F346D347034613473
:103EA8007434693462346C346534003457346134A2
:103EB80074346334683464346F346734203472344F
:103EC80065347334653474340A34003443344D34FF
:103ED80044345F34573441345434453452342C34E8
:103EE80020342534733425347334003450346F341B
:103EF8007734653472342D346F346E342034723430
:103F080065347334653474340A34003443344D34BE
:103F180044345F34443452345934453452342C34A4
:103F28002034253473342534733400348316500810
:103F3800003A031D080083122108F3002008F2004C
:103F4800A52F73088316CA007208C90008007E08E6
:103F58008A007F088200AB270A168A158000840A27
:103F680004087D0603190034FF0A0319FE0AAF2F5F
:103F780043344D3444345F34573441344934543431
:103F880044344F345334413447344534253473343E
:103F980000342C3420346E346F3420347334743449
:103FA8006134723474343A342034303478342534FB
:103FB80058340034303431343234333434343534D2
:103FC8003634373438343934413442344334443461
:103FD800453446340034423472346F3477346E34A6
:103FE8002D346F347534743420347234653473343A
:083FF800653474340A3400340E
:02400E00313F40
:00000001FF
