:100000000A128A1110280800FF0003088316031340
:10001000D8000A08D9007E08DA000A128A15BF2E15
:100020000A128A151A2EFB30B7000730B8003908BB
:1000300003191E284E30B7000C30B8001630B1003E
:100040000C30B2003808B4003708B300B7250A12E4
:100050008A11B908031D3028F301F30AFF30342850
:10006000F301F30A00303428F200730883160317F3
:100070000319442822087206031D42282308730628
:100080000319080083160317A101A10A7208A20030
:100090007308A30008008312A001A00A0130B82C45
:1000A0005530B7000C30B800390803195B284A30C6
:1000B000B7000C30B800D330B1000C30B2003808B3
:1000C000B4003708B300B72D5630F827B1008030A0
:1000D000B20045230A128A11003A0319A9285630A2
:1000E000C4270A128A112E220A128A11F11C06153F
:1000F0003C30B0008030B100FA30B200B301B4013E
:10010000B5012E220A128A118F283C30B1008030AE
:10011000B20045230A128A11003A031D96280608E8
:10012000FA000830FA05FA0803198528F11C0611AF
:100130007A085C060319A928BC30B0008030B100F1
:10014000C23092270A128A112E220A128A117A08C4
:10015000DC000608C2004F06C4004208CF00441C61
:10016000BC28A030B0008030B100A63092270A121F
:100170008A112E220A128A11C41EC928AE30B0007C
:100180008030B100B43092270A128A112E220A124E
:100190008A11C41CD628CA30B0008030B100D030DB
:1001A00092270A128A112E220A128A11C4010E30D5
:1001B000A2004408C8210A128A11A03EB100803072
:1001C000B20045230A128A11003A03192E290E3073
:1001D000A2004408C8210A128A11AB3E840083138E
:1001E000000884000008C3000E30A2004408C821A3
:1001F0000A128A11AC3E84000008C3050E30A2002A
:100200004408C8210A128A11AA3E84000008430645
:10021000031924294308B9000E30A2004408C8215C
:10022000AD3E840000080A128A1500250A128A11C0
:100230000E30F827A2004408C8210A128A11AA3EEB
:1002400084004308831380000E30A2004408C821B4
:100250000A128A11A03ED6210A128A11C40A043059
:100260004402031CD728C4010B30A2004408C82153
:100270000A128A11903EB1008130B20045230A1261
:100280008A11003A0319C2290B30A2004408C82180
:100290000A128A11963E840083170008BB000B30B7
:1002A000A2004408C8210A128A11903EB000813091
:1002B000B100B501B4013D30B3000930B2002E22C7
:1002C0000A128A110B30A2004408C8210A128A11AE
:1002D000973E8400831700083B050B30A2000319EA
:1002E00084294408C8210A128A119A3E8400000811
:1002F000BA000B30A2004408C8210A128A11EA276A
:100300000A128A11800496294408C8210A128A1107
:100310009A3E84000009BA000B30A2004408C821AC
:100320000A128A11EA270A128A1180050B30A200EC
:100330004408C8210A128A11963E840003108317CC
:10034000800D8008031DC2290B30A2004408C8217B
:100350000A128A11963E84008001800A0B30A200A6
:100360004408C8210A128A11983E84008008031D9F
:10037000C2290B30A2004408C8210A128A11973EF4
:1003800084008001C40A053044020318080034299F
:10039000A100A00122082118A0070310A20D03103C
:1003A000A10CA108031DCA2920080800F20084003E
:1003B000FF3083138000840A80007208023E8400AC
:1003C000FF308000840A8000840A8000840A800054
:1003D0000800B908031DFE297114B8270A128A11F2
:1003E0002E220A128A11F01BF016701AFA29F30154
:1003F0000130F02BF301F30A5530D02B7110F01AB5
:10040000132A701E072AF301F30AFF30D02B633042
:10041000B1008030B20045230A128A11003A031954
:10042000122A062C072CF01B08006330B100803024
:10043000B20045230A128A11003A0319232AE52340
:100440000A128A112C2A701E2C2AF301F30AFF309B
:10045000D0230A128A112C2AF01208003108AF00AA
:100460003008AE003108A4003008A30098220A1218
:100470008A113508340433043204031908002E08A5
:10048000840083172F1C83130008AA00840A000825
:10049000AB00840A0008AC00840A0008AD002E08F6
:1004A000840083172F1C831332088007840A3308C3
:1004B0000318013E031D8007840A34080318013E17
:1004C000031D8007840A35080318013E80072E08A3
:1004D000840083172F1C83130008A600840A0008D9
:1004E000A700840A0008A800840A0008A9002D02B9
:1004F000031D842A28082C02031D842A27082B02A6
:10050000031D842A26082A02031C08002E08043E24
:10051000A6002F080318013EA700260884008317B1
:10052000271C831301308007840A0318800A0800FF
:100530002408A1002308A0000F08A2002308023EFF
:10054000F20024080318013EF300720884008317A8
:10055000731C831346088000840A47088000840ABD
:1005600048088000840A490880000E08F20020082C
:100570008400831321188317720880000F08F2008B
:100580002008013EF30021080318013EF40073081F
:100590008400831374188317720880002008013EBA
:1005A000F20021080318013E003EF30072088400A7
:1005B0008317731C831300082206031908009C2A62
:1005C000701B022B5030B1008030B20045230A125C
:1005D0008A11003A0319022B5030C4270A128A11DB
:1005E0002E220A128A11F0117017543083169200CD
:1005F0007D30831292002A3095001F3097008C10B6
:1006000083168C14701D062B0130072B00308312CB
:10061000BA00701C0D2B01300E2B00303A065D30F5
:100620000319222BB0008030B100B501B401923023
:10063000B3007C30B2002E220A128A117011701899
:1006400070155D30F827B1008030B20045230A12E2
:100650008A11003A031908005D30D6210A128A1166
:10066000F01C342B0130352B0030BA00701C3A2BB3
:1006700001303B2B00303A0603190800F0107018C7
:10068000F0140030F0180130452D2B30A3008030DD
:10069000A40098220A128A11A0270A128A112D306A
:1006A0008400270883130006840F031D632B28088A
:1006B0000006840F031D632B29080006840F031D09
:1006C000632B2A080006031D772B3108840083174B
:1006D000321C83130008A500840A0008A6002C021F
:1006E000031D742B25082B02031801340034A027A6
:1006F0000A128A1130082A02031D882B2F082902AA
:10070000031D882B2E082802031D882B2D08270285
:10071000031C01340034B908031DA02BF017B827BF
:100720000A128A112E220A128A117118F016701AF2
:100730009C2BF3010130F02BF301F30A5530D02B41
:10074000F013F01AB52B701EA92BF301F30AFF303A
:10075000D02B6330B1008030B20045230A128A11D9
:10076000003A0319B42B052C8C2C71180800633047
:10077000B1008030B20045230A128A11003A0319F1
:10078000C52BE5230A128A11CE2B701ECE2BF30146
:10079000F30AFF30D0230A128A11CE2BF012080080
:1007A000F2007308F5270319DE2B2D087206031DCE
:1007B000DD2B2E08730603190800F527AC01AC0ADF
:1007C0007208AD007308AE0008001030F006F301A7
:1007D000701EED2BF30AFF30D02B0030D02B080019
:1007E000F2007308F5270319FE2B17087206031D84
:1007F000FD2B1808730603190800F5279601960AC1
:10080000720897007308980008000800080077082D
:10081000003A0319272C013A03192E2C033A031925
:10082000352C013A03193C2C073A0319432C013AA1
:10083000031D08000230CE0A4E020318CE014E08F6
:10084000822CF200720803194A2C88140800033025
:10085000CC0A4C020318CC014C086F2C0330CB0A95
:100860004B020318CB014B085C2C0230F80A7802CB
:100870000318F80178084C2C0230CD0A4D020318F9
:10088000CD014D08212C0230F90A79020318F90133
:100890007908542C88100800F20072080319522CB1
:1008A0008815080088110800F200720803195A2CF4
:1008B0000815080008110800F200003A0319662C18
:1008C000013A03196C2C033A0319692C3F3088054F
:1008D0000800081388170800081788170800F20096
:1008E000003A0319792C013A03197C2C033A0319B5
:1008F0007F2CCF30880508000816881608000812DB
:1009000088160800F20072080319892CF1140615E4
:100910000800F110061108000630F70A77020318E4
:10092000F7017708003A0319BA2C013A0319CD2CC4
:10093000033A0319E02C013A0319F42C073A03197E
:10094000072D013A031D0800A0010130B8240A1246
:100950008A11A001A00A0230B8240A128A11A0014B
:10096000A00A0330B8240A128A11A0010430B82C5E
:10097000F200252DA001A00A0130B8240A128A1124
:10098000A0010230B8240A128A11A0010330B82451
:100990000A128A11A0010430B82CA0010130B82439
:1009A0000A128A11A001A00A0230B8240A128A1180
:1009B000A0010330B8240A128A11A0010430B82C17
:1009C000A001A00A0130B8240A128A11A001A00ACD
:1009D0000230B8240A128A11A0010330B8240A1286
:1009E0008A11A0010430B82CA0010130B8240A12E9
:1009F0008A11A0010230B8240A128A11A001A00AAB
:100A00000330B8240A128A11A0010430B82CA001C6
:100A1000A00A0130B8240A128A11A0010230B824B9
:100A20000A128A11A001A00A0330B8240A128A11FE
:100A3000A0010430B82C0730332D0530F400043009
:100A4000352D0530F4000830352D7208013A0319B0
:100A50001B2D033A03191D2D013A0319212D073AC5
:100A6000031D08000530F4002030F30020080319AE
:100A70003F2D7408840073088313800408007408F1
:100A800084007309831380050800F827B9004630F5
:100A9000B7000C30B80039080319522D5230B70096
:100AA0000C30B8003130B1000C30B2003808B4005E
:100AB0003708B300B7250A128A1139080319642DC3
:100AC000F301F30AFF30682DF301F30A0030682DBB
:100AD000F2007308F5270319762D43087206031DEB
:100AE000752D4408730603190800F527C201C20AD0
:100AF0007208C3007308C4000800D230B1000D3082
:100B0000B200831606088312B300B4010608B500CC
:100B1000B601B7250A128A11B230B1000D30B20009
:100B2000831607088312B300B4010708B500B601A5
:100B3000B7250A128A11FA30B1000D30B2008316BF
:100B400008088312B300B4010808B500B601B72540
:100B50000A128A119230B1000D30B20083160908D2
:100B60008312B300B4010908B500B601B72D3330C4
:100B7000A900F827D8270A128A1500240A128A1118
:100B8000AC00AC0803190800253A0319CC2D2C0839
:100B900025270A128A11B92DAA01AB01A701D42D6C
:100BA0002715B10A0319B20A3108840032080A1263
:100BB0008A1500240A128A11303A0319D02D3108FF
:100BC000840032080A128A1500240A128A11412769
:100BD0000A128A11031C7E2EAA01AB01310884007F
:100BE00032080A128A1500240A128A11F300F4014D
:100BF0002B08A3002A08A2000A30A400A5014F2751
:100C0000730883132207F50074080318740A230776
:100C1000F6007508D03EAA0076080318013EFF3E94
:100C2000AB00B10A0319B20A3108840032080A1273
:100C30008A1500240A128A1141270A128A11031CFC
:100C40007E2EEE2D2908CE270A128A112D04031DAF
:100C50002D2E3930AD000C30AE00AF01B0012E08A2
:100C6000F4002D08F3002F0873078400740803189C
:100C7000740A0A128A1500240A128A11003803190C
:100C8000452EAF0A0319B00A2F2E2B083002031D80
:100C90004B2E2A082F020318542E2F08AA023008C0
:100CA000F1270A128A11562EAA01AB01FF30F8274C
:100CB000AA07031CAB032A0A03192B0A0319742E73
:100CC000203025270A128A11562E2D0884002E085E
:100CD0000A128A1500240A128A1125270A128A117B
:100CE000F827AD0A0319AE0A0130AF02031CB003A6
:100CF0002F0A0319300A0319B92D652ED8270A12B5
:100D00008A1500240A128A11AC00003A031908005F
:100D1000583A0319912E2B3A0319222E0B3A031D30
:100D2000B92D2908CE27AC01AC0A03102C0DF23ED8
:100D300084000D300318013EF4000A128A150024C5
:100D4000F300840A0319F40A74080A128A150024AD
:100D50000A128A11F4002E02031DB02E73082D0210
:100D6000031CB72EAC0A2C08043A031D952E2C0840
:100D7000F300F401F31BF4037408803AF5002B0828
:100D8000803A7502031DC62E2A087302F82703183D
:100D9000D42E2C08F300F401F31BF403AA02740808
:100DA000F1270A128A11D62EAA01AB012B082A04B8
:100DB000271DE52E0319F12E303025270A128A113E
:100DC000FF30E2270A128A11DA2E0319F12E2030A1
:100DD00025270A128A11FF30E2270A128A11031D01
:100DE000E72E2C08A800202F2E08A4002D08A30011
:100DF0000310280DF23E84000D300318013EF3006D
:100E00000A128A150024A500840A0319F30A73083C
:100E10000A128A1500240A128A11A6006827831371
:100E200023080F39343E84000D300318013E0A12A6
:100E30008A1500240A128A11AC0025270A128A1189
:100E4000F827A803280FF42EB92DA40083120C1A3A
:100E5000392F981C312F8316981298168312181266
:100E60001816181D372F1A08831698129816640042
:100E7000262F24089900C730F200F20B3D2F402F97
:100E80000800A100A0013A30210203184D2F303094
:100E90002102031C4D2FA001A00A200C0800A00174
:100EA000A101221C592F2408A0070318A10A250814
:100EB000A1070310A40DA50D0310A30CA20C230879
:100EC0002204031D512F2108A3002008A2000800BE
:100ED000A101A2012608250403198D2FA001A00A53
:100EE0000310A61B772FA50DA60D6F2F0310A10DC4
:100EF000A20D26082402031D7F2F25082302031CB0
:100F0000892F2508A3022608031CA403A402211488
:100F10000310A60CA50CA00B762F2208A400210814
:100F2000A3000800840083130008B200840A0008AC
:100F3000B300840A0008B400840A0008B500080061
:100F40003108023EA50032080318013EA60025081C
:100F500084008317261C83130008A700840A000856
:100F6000A800840A0008A900840A0008AA00080052
:100F70006330B0008030B100B5010330B400D03030
:100F8000B3009030B2000800B0008030B100B5016D
:100F9000B4013030B300D430B200080084008313B1
:100FA0000008AD00840A0008AE00A90AA90A0800DA
:100FB0003208F4003108F300B10A0319B20A8400C0
:100FC0007408080083120313AA07031CAB032B0841
:100FD0002A040800993E8400000884003A0883131C
:100FE0000800031CAB03AB020800831603170800BC
:100FF000831203130800683469346734683400349A
:10180000FE00FE1F082C83137E18831700080800B3
:101810008A0004088200503469346E3420347234F3
:1018200065347334653474340A34003457346134A5
:101830007434653472342034253473340A340034FB
:1018400090109016101690111011101483160C148D
:10185000080064008001840A0406031900340406A9
:101860002A2C4334613474342034253473340A34DC
:10187000003428346E3475346C346C3429340034BC
:1018800083120608CA000B178B1708006F347534D3
:101890007434003479346534733400346C346F3408
:1018A0007734003469346E3400346E346F3400346D
:10197200543092007D30831292002A3095001F303D
:1019820097008C1083168C1408000834FF34FF343F
:10199200FF34FF34FF34FF34FF34FF34FF34FF34AD
:1019A200FF34FF344F34763465347234683465342E
:1019B200613474342034253473340A340034573497
:1019C200613474346334683464346F34673420347B
:1019D200723465347334653474340A3400345034E8
:1019E2006F347734653472342D346F346E3420346E
:1019F200723465347334653474340A340034FE004E
:101A02000D308A007E08820700000A128A115028CF
:101A12000A128A11E9290A128A1113280A128A1152
:101A22008B2B7E088A007F08820012250A128A15F3
:101A32008000840A04087D0603190034FF0A031992
:101A4200FE0A162D423472346F3477346E342D34DC
:101A52006F347534743420347234653473346534BD
:101A620074340A340034303431343234333434345C
:101A720035343634373438343934413442344334EB
:101A82004434453446340034533465347434753444
:101A92007034203462347534743474346F346E3478
:101AA2002034683465346C3464340A34003453347A
:101AB200743461347234743420346234753474345E
:101AC20074346F346E342034683465346C34643466
:101AD2000A3400340C308316990018151812831238
:101AE20098171816981283160C128C121813831258
:101AF200181383169812981608000A342A342A34C6
:101B02002A342034473465346E34693465344434BD
:101B120069346134673420342A342A342A340A344A
:101B220000345434523449345334453420343D342F
:101B320020343034783425343034323458342C3430
:101B4200203450344F3452345434453420343D34EC
:101B520020343034783425343034323458340A3432
:101B620000345434523449345334433420343D34F1
:101B720020343034783425343034323458342C34F0
:101B8200203450344F3452345434433420343D34AE
:101B920020343034783425343034323458340A34F2
:101BA20000345434523449345334423420343D34B2
:101BB20020343034783425343034323458342C34B0
:101BC200203450344F3452345434423420343D346F
:101BD20020343034783425343034323458340A34B2
:101BE2000034013400341034003400340134003441
:101BF20010345434523449345334443420343D3450
:101C020020343034783425343034323458342C345F
:101C1200203450344F3452345434443420343D341C
:101C220020343034783425343034323458340A3461
:101C32000034F001F101F701F801F9018313463094
:101C420084005C300A128A1529240830FA006930AF
:101C5200FD000C30FE00C630FF005C3084000A122A
:101C62008A151625D830FD000E30FE008730FF00A1
:101C7200A03084000A128A1516258317C730FD008A
:101C82000E30FE005030FF00903084000A128A1598
:101C920016250A128A1583010A128A15752F003435
:101CA2000034003400340034003401340034003491
:101CB2000734023400340034003400340034003479
:101CC2000134003400340734013400340034003469
:101CD2000034003400340134003400340934043454
:101CE2000034003400340034003400340134003451
:101CF2000034093401340034003400340034003438
:101D0200003401340034003409340234FF34FF3427
:101D1200FF34FF34FF34FF346A34183400340034A3
:101D22000034063401340434FF34FF34FF34FF340A
:101D3200FF34FF346A34183400340034003406347B
:101D420020340A34FF34FF34FF34FF34FF34FF34CD
:101D52004834E8340134003400347A340834073427
:101D6200FF34FF34FF34FF34FF34FF346A34183455
:101D720000340034003406340234013483120C1C63
:101D8200C62E0C10F8260A128A158C1CCC2E8C102A
:101D9200E5260A128A15831203130B1CDB2E0B1085
:101DA20006084A068316DB005B1ED82E0027831224
:101DB2000608CA0083165A08FE0059088A00580805
:101DC2008300FF0E7F0E0900701F08007013831638
:101DD200920183129201950183168C1083128C104A
:101DE2001211970107117010F01970140800C60A39
:101DF2000319C70A0319C80A0319C90A0800701F80
:101E020008008312061EF0150800133083168500A1
:101E120083128501073083169F00FB3086008312F0
:101E220086018316811383120B108B152330CF008A
:101E32009830831687008312870183168801013048
:101E42008312880083168901831289018230F4008B
:101E5200DD30F300F30B2B2FF40B2B2F302F8230BE
:101E6200F400DD30F300F30B342FF40B342F392F51
:101E720083120313A7010E30A20027080A128A1147
:101E8200C821AC3E840083130008A6000E30A200D5
:101E920027080A128A11C821AB3E84000008840078
:101EA2000008F3000E30A20027080A128A11C82186
:101EB200AA3E8400730880000E30A20027080A128E
:101EC2008A11C8210A128A15AA3E840026088005B2
:101ED200A70A04302702031C3C2FA701061C271463
:101EE200861EA714270808000A128A150627C500AD
:101EF2000A128A156B257E308312B1000D30B200B2
:101F02000A128A11B7250A128A1583168E18932F80
:101F1200F0308312B1000C30B2000A128A11B725D8
:101F22000A128A1583160E18A02F23308312B100CD
:101F32000D30B2000A128A11B7250A128A15031A45
:101F4200AC2FE0308312B1000C30B2000A128A11B9
:101F5200B7250A128A158319B82F0B308312B100E4
:101F62000C30B2000A128A11B7250A128A1583129E
:101F7200451CC42F5830B1000D30B2000A128A112C
:101F8200B7250A128A15C51CCD2F4530B1000D3078
:101F9200B2000A128A11B7250A128A1520240A12DF
:101FA2008A15B9240A128A114B200A128A15402472
:101FB2000A128A11E0220A128A1164200A128A1174
:101FC20003200A128A1583128C1ED92F981CEF2F18
:101FD200831698129816831218121816181DF62FC7
:101FE2001A08831698129816E42F1A080A3A031D43
:0E1FF200E42F0A128A117D250A128A15E42FA7
:02400E00313F40
:00000001FF
