:100000000A128A1112280800FF000308831603133E
:10001000E6000408E7000A08E8007E08E9000A167E
:100020008A112E280A168A1192290B308312031383
:10003000B6001930B7008316031325088312031383
:10004000B901B90783160313240883120313B801F7
:10005000B8070A128A158B220A128A117F2CDD300A
:1000600083120317DE001830DF00F21C382839280D
:100070003D28E530DE001830DF001F308312031307
:10008000B6001A30B700831203175F0883120313F8
:10009000B901B907831203175E0883120313B8016D
:1000A000B8070A128A158B220A128A11FF307905C5
:1000B00083120313BC0000307A05BD0000303D02FE
:1000C000133003193C020318662867288D28F2189C
:1000D0006A286B286F28FA186E286F287728F21C78
:1000E000722873288D287A1D762877288D28F501A7
:1000F0000314F50D01300A168A1101200A128A1123
:10010000013083160313A4070318A50A0030A507BE
:10011000023083120313D302A82C031000300318FB
:100120000130D3003B30B6001930B7000A128A15EF
:100130008B220A128A11A82C323083120317DA009C
:100140001930DB00013079067A04031DA828A9289C
:10015000AD289030DA001930DB005B08E101E107DF
:100160005A08E001E0077A087904031DB828B92885
:10017000BD281530E0001930E1001230831203135E
:10018000B6001A30B70083120317610883120313F5
:10019000B901B90783120317600883120313B8016A
:1001A000B8070A128A158B220A128A1179080A16D0
:1001B0008A1535250A128A11013083160313A40704
:1001C0000318A50A0030A5078828A7308312031753
:1001D000E6001930E700013079067A04031DF128A2
:1001E000F228F6284D30E6001930E7006708DD01F7
:1001F000DD076608DC01DC077A087904031D0129A4
:10020000022906295F30DC001930DD00E23083125C
:100210000313B6001930B700831203175D08831269
:100220000313B901B907831203175C088312031380
:10023000B801B8070A128A158B220A128A117908A6
:100240000A168A1523260A128A110130831603130F
:10025000A4070318A50A0030A5078828B530831223
:100260000317E8001930E900F21C372938293C2926
:10027000B130E8001B30E900BC30E2001930E30087
:10028000793084000008840A0004031948294929A8
:100290004D290030E2000830E3004630831203139A
:1002A000B6001B30B70083120317630883120313D1
:1002B000B901B90783120317620883120313B80147
:1002C000B80783120317690883120313BB01BB0726
:1002D00083120317680883120313BA01BA070A12BC
:1002E0008A158B220A128A11F21C77297829802814
:1002F000793084000008840A0004031980298129C8
:10030000B3290230F50001300A168A1101200A12C1
:100310008A11F11B8C298D29A72901300A168A150B
:10032000F1230A128A11DF3083120313B6008030E2
:10033000B7000130BB000130BA007D30B900F830A1
:10034000B8000A128A1503200A128A118028C030C8
:1003500083120313B6001930B7000A128A158B22D4
:100360000A128A11802800300A168A15F1230A120F
:100370008A11DF3083120313AB008030AC000A1601
:100380008A1545260A128A118028B5308312031770
:10039000E4001930E500F21CCE29CF29D329B13071
:1003A000E4001B30E500BC30D8001930D9007930AA
:1003B00084000008840A00040319DF29E029E429E5
:1003C0000030D8000830D900123083120313B60071
:1003D0001B30B70083120317590883120313B901A6
:1003E000B90783120317580883120313B801B8071B
:1003F00083120317650883120313BB01BB07831223
:100400000317640883120313BA01BA070A128A1584
:100410008B220A128A11F21C0E2A0F2A80287908D0
:100420000A168A159B220A128A118028B530831277
:100430000317CC001930CD00F21C1F2A202A242AD1
:10044000B130CC001B30CD00BC30CE001930CF0015
:10045000793084000008840A00040319302A312A04
:10046000352A0030CE000830CF008B3083120313C2
:10047000B6001A30B700831203174F088312031314
:10048000B901B907831203174E0883120313B80189
:10049000B807831203174D0883120313BB01BB0770
:1004A000831203174C0883120313BA01BA070A1206
:1004B0008A158B220A128A11F21C5F2A602A802870
:1004C00079080A168A157B220A128A11793084006B
:1004D0000008840A000403196E2A6F2A8028F11F7D
:1004E000722A732A872AD93083120313B600803008
:1004F000B7000030BB001C30BA009C30B900383067
:10050000B8000A128A1503200A128A118028D930ED
:1005100083120313AB008030AC000A168A154526FF
:100520000A128A118028B53083120317C8001930C7
:10053000C900F21C9C2A9D2AA12AB130C8001B3098
:10054000C900BC30CA001930CB00793084000008E3
:10055000840A00040319AD2AAE2AB22A0030CA0068
:100560000830CB00EF3083120313B6001A30B70007
:10057000831203174B0883120313B901B9078312BF
:1005800003174A0883120313B801B807831203172D
:10059000490883120313BB01BB07831203174808E2
:1005A00083120313BA01BA070A128A158B220A12A0
:1005B0008A11F21CDC2ADD2A802879080A168A159D
:1005C0006B220A128A1180288A3083120313B60024
:1005D0001B30B7007A08B901B9077908B801B80724
:1005E0000A128A158B220A128A11C730831203134A
:1005F000B6008130B7007908A4007A08A500A601EA
:10060000A7010030AB000030AA000030A9007D3007
:10061000A8000A168A11AB200A128A1183138312CA
:1006200003132708BB002608BA002508B9002408D0
:10063000B8000A128A1503200A128A1101308312A7
:100640000313BC003C08D307A82CB5308312031752
:10065000D4001930D500F21C2E2B2F2B332BB130A8
:10066000D4001B30D500353083120313B6001B3085
:10067000B70083120317550883120313B901B90792
:1006800083120317540883120313B801B8070A1220
:100690008A158B220A128A11F21C4F2B502B8028AC
:1006A0001E2BB13083120317D6001B30D700F21C6B
:1006B0005A2B5B2B5F2BB530D6001930D700C730D3
:1006C00083120313B6001B30B7007A08B901B907CB
:1006D0007908B801B8078312031757088312031368
:1006E000BB01BB0783120317560883120313BA0119
:1006F000BA070A128A158B220A128A11F218812B64
:10070000822B80287908013E83120313BC007A08EB
:100710000318013E003EBD003C0883160313A407E6
:100720000318A50A831203133D0883160313A507B4
:100730008828B53083120317D0001930D100F21C7D
:10074000A22BA32BA72BB130D0001B30D100B2308D
:1007500083120313B6001B30B7007A08B901B9073A
:100760007908B801B80783120317510883120313DD
:10077000BB01BB0783120317500883120313BA018E
:10078000BA070A128A158B220A128A11F21CC92B87
:10079000CA2B8028822BB53083120317D200193060
:1007A000D300F21CD42BD52BD92BB130D2001B3067
:1007B000D3001E3083120313B6001D30B7007A0831
:1007C000B901B9077908B801B807831203175308AC
:1007D00083120313BB01BB07831203175208831252
:1007E0000313BA01BA070A128A158B220A128A1158
:1007F000F21CFB2BFC2B8028D33083120313B60092
:100800008030B7007908A4007A08A500A601A701E6
:100810000030AB000030AA000030A9007D30A800F5
:100820000A168A11AB200A128A118313831203134A
:100830002708BB002608BA002508B9002408B8001C
:100840000A128A1503200A128A1101300A168A1523
:100850009B220A128A118028983083120313B60053
:100860001930B7000A128A158B220A128A11DF305A
:1008700083120313AB008030AC000A168A1545269C
:100880000A128A11D93083120313AB008030AC00F6
:100890000A168A1545260A128A1100308316031398
:1008A000A4000030A50003100030031801308312AB
:1008B0000313D3000310003003180130F50001309A
:1008C0000A168A1101200A128A11A82C5B308312A1
:1008D0000313B6001A30B7007808BC00BD013C080D
:1008E000B8003D08B9000A128A158B220A128A1133
:1008F000003083160313A4000030A500A82C78084C
:10090000003A03192F28013A03199C28033A0319C6
:10091000E528013A03192E29073A0319C529013A96
:100920000319162A033A0319932A0E3A0319E42AE3
:10093000013A0319252B193A0319512B013A0319CE
:10094000992B033A0319CB2BEC3A03192C2C662C68
:10095000B03083120313B6001B30B7000A128A1599
:100960008B220A128A110800003412340634013432
:10097000023400340234013400340834A1343334F6
:100980000234003400340834DD3446340134013498
:100990000034083439341834013402340034023459
:1009A00001340034083485341634023402340034FF
:1009B00008341434023402340034003408347634F9
:1009C00062340234023400340834AF34293402343F
:1009D000013400340834CA34193402340234003487
:1009E00008343434433402340134003408349F343E
:1009F000313402340034003408345D3412340234AB
:100A0000013400340834C3342B340234023400344B
:100A10000834143402340234003400340834763498
:100A200062340234023400340834AF3429340234DE
:100A3000013400340834C934193402340234003427
:100A40000834AD344E3401340134003402340134FE
:100A50000034083409345534023402340034083484
:100A6000A43403340234003400341034B834003475
:100A700008344C342F34013402340034023401344D
:100A800000340834C0340C340234023400340834E6
:100A90001434023402340034003408348E345E34AA
:100AA00002340234003408344B3429340234013423
:100AB00000340834CA3419340234023400340334A4
:100AC000013400340834F534423401340134003444
:100AD00002340034003408345034493402340134D0
:100AE000003408347634623402340234003408347A
:100AF0006C340434023400340034093401340034DA
:100B000003340034003408345E34F83405340134DE
:100B10000034083476346234053400340034083448
:100B2000FF34FF340834C73427340534013400342B
:100B300008347634623405340034003408340A341E
:100B400020340534013400340834763462340534FA
:100B50000034003408340A342034053401340034BD
:100B60000834FF34FF340834513400340534003481
:100B7000003403340134003408347A34D834013476
:100B800002340034043401340034083429340A3483
:100B900004340034003401340134003409340134A5
:100BA00000340334003400340834E234AB34053408
:100BB00001340034083476346234053400340034AF
:100BC0000834FF34FF340834C73427340534013483
:100BD000003408348E345E34053400340034083474
:100BE0000A34203405340134003408348E345E3441
:100BF00005340034003408340A3420340534013418
:100C000000340834FF34FF340834C7342734053443
:100C10000034003403340134003408349E34633427
:100C20000234013400340834D534523402340234EE
:100C30000034013400340034043401340034083406
:100C40006C34043402340034003408346C342534F9
:100C50000434003400340134023400340834D13414
:100C600014340134013400340834BA34D83409342B
:100C7000013400340334003400340834C33498346D
:100C80000534013400340134023400340834FF34B4
:100C9000FF34083471340034013401340034083432
:100CA0005B3427340134003400340434013400341C
:100CB00008344A3426340134013400340434003416
:100CC00000340834B634623401340234003406345B
:100CD0000134003408342C348A34013401340034B3
:100CE0000834D934D8340134023400340834CD34D3
:100CF00089340534003400340834C43406340134F3
:100D0000013400340834DA34D83401340234003485
:100D10000834ED3489340134013400340834DA34D1
:100D2000D8340134023400340834ED3489340134C9
:100D30000134003408346334B134013402340034F3
:100D400008344C348A340234023400340834FC341D
:100D500026340234003400340134003400340434C6
:100D600001340034083429340A34013402340034A4
:100D7000043400340034083410341534023401349F
:100D8000003408343F34283402340034003408344A
:100D9000AD34893401340134003408346334B1345F
:100DA0000134023400340834ED3489340134013420
:100DB000003408346334B13401340234003408346C
:100DC0004C348A3402340234003408348C342834ED
:100DD000023400340034013400340034043401346B
:100DE0000034083429340A34013402340034043421
:100DF000003400340834283411340234013400340F
:100E0000083433342A340234003400340834AD3426
:100E100089340134013400340834ED348934013428
:100E2000023400340834ED348934013401340034A0
:100E30000834EC34893401340234003408344C343E
:100E40008A340234023400340834EF342C3402344F
:100E50000034003408347934083402340134003466
:100E60000834B7342D3402340034003408342334C9
:100E7000B1340134013400340834ED3489340134A0
:100E80000234003408346334B134013401340034A2
:100E90000834ED34893401340234003408346334C6
:100EA000B1340134013400340834EC348934013471
:100EB0000234003408346334B13401340134003472
:100EC00008344C348A3402340234003408342C346C
:100ED00001340234003400340834AB342F3402348B
:100EE0000234003408342C34013402340034003429
:100EF0000834AB342F3402340234003408342C3438
:100F000001340234003400340834DB342734023432
:100F10000234003408342C340134023400340034F8
:100F20000834DA3427340234023400340834D2343A
:100F3000233402340134003408344A34193406347A
:100F40000034003402340234003408345C34473452
:100F500002340134003401340034003408341034D5
:100F60000B34023400340034FE3400340034831275
:100F700003134108003A0319BE2FC02FF117C12FE8
:100F8000F113E93083120313BC001830BD00F11FC8
:100F9000CA2FCB2FCF2F8030BC001930BD001F309F
:100FA000B6001930B7003D08B901B9073C08B801CF
:100FB000B8070A128A158B220A128A11F11FE12F33
:100FC000E22FF42F00300A168A15F1230A128A1133
:100FD000DF3083120313AB008030AC000A168A1591
:100FE00045260A128A11FF2FD93083120313AB0052
:100FF0008030AC000A168A1545260A128A110800AC
:101000006F346E340034831203133708B501B5070B
:101010003608B401B4073708A401A4073608A301B1
:10102000A3070A168A113E210A128A158312031396
:101030003B083A0439043804031D1F2820282128BE
:101040007D28340884008317351C83130008B00002
:10105000840A0008B100840A0008B200840A00086B
:10106000B300340884008317351C831338088007C5
:10107000840A39080318013E031D8007840A3A08D0
:101080000318013E031D8007840A3B080318013E34
:101090008007340884008317351C83130008AC00D4
:1010A000840A0008AD00840A0008AE00840A000823
:1010B000AF002F083302031D67282E083202031DDC
:1010C00067282D083102031D67282C083002031CF5
:1010D0006A286B287D283408043EAC0035080318C4
:1010E000013E003EAD002C08840083172D1C8313A5
:1010F00001308007840A0318800A08008312031352
:10110000C108031D84288528B628F116CD30B60005
:101110008030B7000030BB000330BA00D030B900D7
:101120009030B8000A128A1503200A128A15711F1E
:101130009A289B289C28F11571199F28A028AC2873
:101140000310003003180130F50001300A168A152B
:1011500001260A128A157D29F5010314F50D553073
:101160000A168A15BD250A128A157D29F112F11970
:10117000BA28BB285129711DBE28BF28C928F501EE
:101180000314F50DFF300A168A15BD250A128A15BB
:101190007D29CD30B7008030B8000A168A11CC22E4
:1011A0000A128A15003A0319D628D72843290A16A5
:1011B0008A1100200A128A157D29031000300318B5
:1011C0000130D4007708013EBF0000300318013021
:1011D000C0007708093A031DEE28EF28F3280030F5
:1011E000BF000030C0003F080A168A1167260A12A5
:1011F0008A157D290A3048020318FF28002903298F
:101200000A30C8002C291930480203180829092976
:101210000C291930C8002C29323048020318112932
:10122000122915293230C8002C294B3048020318E6
:101230001A291B291E294B30C8002C29643048026A
:1012400003182329242927296430C8002C290310D6
:10125000003003180130C800AF30B6008030B7004E
:101260000030BB000930BA008930B9006830B800DE
:101270000A128A1503200A128A150A128A15D32324
:101280000A128A157D29831203135408003A0319A0
:10129000E228013A0319FA28033A03195029DD28F4
:1012A0007D29711B542955297D29CD30B700803007
:1012B000B8000A168A11CC220A128A15003A0319BC
:1012C0006229632969290A168A15A0240A128A1537
:1012D0007C29711D6C296D297729F5010314F50D01
:1012E000FF300A168A15BD250A128A157C290A16AE
:1012F0008A1584240A128A15F11108008312031337
:101300005408013A031D852986297D2AAF30B7008C
:101310008030B8000A168A11CC220A128A15003AC7
:101320000319932994297D2A831203135508031D59
:101330009A299D290230D400A229031000300318F5
:101340000130D4000A128A15D3230A128A157D2A85
:101350000310003003180130D8004A30B700803045
:10136000B8000A168A11CC220A128A15003A03190B
:10137000BA29BB298A2A182A4A3083120313B600D5
:101380008030B7009B30BB007230BA00EC30B9003F
:101390000030B8000A128A1503200A128A15262A7C
:1013A0004A3083120313B6008030B7005930BB00B7
:1013B0009530BA007630B9000030B8000A128A15AC
:1013C00003200A128A15262A4A3083120313B60014
:1013D0008030B700D630BB009330BA00A430B900DB
:1013E0000030B8000A128A1503200A128A15262A2C
:1013F0004A3083120313B6008030B700A030BB0020
:10140000EE30BA00BB30B9000030B8000A128A15BD
:1014100003200A128A15262A4A3083120313AB00CE
:101420008030AC000A168A1545260A128A15262A2B
:101430007708013A0319BC29033A0319D029013A64
:101440000319E429073A0319F8290C2A701D292ADF
:101450002A2A8A2A83120313D8010314D80D0A12E8
:101460008A15D3230A128A158A2AF019382A392AAA
:101470008A2AB530B7008030B8000A168A11CC220B
:101480000A128A15003A0319462A472A8A2A003086
:10149000F11801300A168A1536240A128A1502300C
:1014A00083120313D8002F2A0A168A15E1200A1284
:1014B0008A150038031D5D2A5E2A8A2AB5300A166D
:1014C0008A1506240A128A157011F11C682A692AE5
:1014D000712A031000300318013083120313D60061
:1014E000772A013083120313BC003C08D60703108F
:1014F000003003180130D8002F2A83120313580834
:10150000003A0319AD29013A0319352A033A0319A0
:10151000542AA8290800383083120313B000BA2BCC
:101520003508253A0319952A962A9D2A35080A1660
:101530008A156A260A128A15BA2B0310003003187E
:101540000130AF00DF2A3008840083130008B100A7
:10155000840A0008B2000230AB002B08B007320842
:101560003104031DB42AB52ACF2AAE30B100193098
:10157000B200CF2A3108840032080A168A150021E9
:101580000A128A150A168A156A260A128A15013065
:1015900083120313B1070318B20A0030B2073108EF
:1015A000840032080A168A1500210A128A150038AA
:1015B000031DDB2ADC2ABA2ABA2B2F17002B370887
:1015C000AC003608AB000130B6070318B70A2B0889
:1015D00084002C080A168A1500210A128A15B50003
:1015E000003A0319D22B643A0319002B0D3A031960
:1015F000002B1A3A0319A32A063A0319DD2ABA2B3B
:101600002F1B032B042B1E2B300884008313000890
:10161000B100840A0008B2000230AB002B08B0070A
:10162000B21F132B142B2A2B0330AB002B08AF0453
:10163000B109B209B10A0319B20A2A2B3008840091
:1016400083130008B100840A0008B2000230AB0026
:101650002B08B007B5010314B50D3508AB002B07F7
:10166000143E84001D300318013EAD000A168A1591
:1016700000210A128A15AC00840A0319AD0A2D084C
:101680000A168A1500210A128A15AD002D083202A9
:10169000031D4C2B2C08310203184F2B502B512BC0
:1016A0005B2B0130AB002B08B5073508053A031D4D
:1016B0005A2B5B2B2D2B2F0803390319602B612B21
:1016C000672B2D300A168A156A260A128A1583128C
:1016D00003133508AE00AE2B3208A401A40731086D
:1016E000A301A3072E08AB002B07143E84001D3076
:1016F0000318013EAC000A168A1500210A128A1549
:10170000A500840A0319AC0A2C080A168A150021C0
:101710000A128A15A6000A168A11F3200A128A15DF
:101720008313831203132408A801A8072308A70121
:10173000A7070A30A9000030AA000A168A116C20F7
:101740000A128A158313831203132708303EB5004B
:1017500035080A168A156A260A128A15FF3083127E
:101760000313AB002B08AE072E08FF3A031DB92B5D
:10177000BA2B6C2B831203133708AC003608AB006E
:101780000130B6070318B70A2B0884002C080A1684
:101790008A1500210A128A15B500B508031DD12B40
:1017A000D22B902A08008F2D03100030031801302F
:1017B000D4000310003003180130F50000300A1681
:1017C0008A1579250A128A150A30831203134802F2
:1017D000031CEB2BEC2BF82B03100030031801300B
:1017E000F50000300A168A15DF250A128A15B82C72
:1017F000F5010314F50D55300A168A15DF250A1276
:101800008A15B82C0310003003180130F700082C9B
:101810007708013A003003190130F40001300A164C
:101820008A1589270A128A157708023A00300319A7
:101830000130F40002300A168A1589270A128A1527
:101840007708033A003003190130F40003300A1618
:101850008A1589270A128A157708043A0030031975
:101860000130F40004300A168A1589270A128A15F5
:101870000310003003180130F50000300A168A15F5
:101880009B250A128A159C2D7708093A0030031D02
:101890000130F40001300A168A1589270A128A15C8
:1018A0007708063A003003190130F40002300A16B6
:1018B0008A1589270A128A157708073A0030031912
:1018C0000130F40003300A168A1589270A128A1596
:1018D0007708083A003003190130F40004300A1682
:1018E0008A1589270A128A15F01D772C782C8A2CE4
:1018F000831203135808023A03197F2C802C8A2C78
:10190000F5010314F50D55300A168A159B250A12A8
:101910008A159C2D701D8D2C8E2CAE2C83120313DA
:101920005808023A0319952C962CAE2CF11C992CD0
:101930009A2CA42CF5010314F50DFA300A168A1519
:101940009B250A128A159C2DF5010314F50DFE3016
:101950000A168A159B250A128A159C2DF501031477
:10196000F50DFF300A168A159B250A128A159C2D43
:101970007708003A0319082C013A0319082C033A96
:101980000319082C013A0319082C073A0319082CEB
:10199000013A0319442C033A0319442C013A031960
:1019A000442C0F3A0319442C013A0319442C022CFD
:1019B0000310003003180130F50000300A168A15B4
:1019C00079250A128A15F5010314F50DFF300A1660
:1019D0008A15DF250A128A150A308312031348027A
:1019E000003003180130F40001300A168A158927E7
:1019F0000A128A15193083120313480200300318A3
:101A00000130F40002300A168A1589270A128A1555
:101A10003230831203134802003003180130F400FF
:101A200003300A168A1589270A128A154B30831249
:101A300003134802003003180130F40004300A1682
:101A40008A1589270A128A15643083120313480203
:101A5000031C2B2D2C2D362DF5010314F50DFF3015
:101A60000A168A159B250A128A159C2D0310003030
:101A700003180130F50000300A168A159B250A125A
:101A80008A159C2DF5010314F50D55300A168A159B
:101A900079250A128A150310003003180130F50069
:101AA00000300A168A15DF250A128A1583120313DD
:101AB0005508013A003003190130F40001300A16CC
:101AC0008A1589270A128A15831203135508023AC8
:101AD000003003190130F40002300A168A158927F4
:101AE0000A128A15831203135508033A00300319AA
:101AF0000130F40003300A168A1589270A128A1564
:101B0000831203135508043A003003190130F4001E
:101B100004300A168A1589270A128A159C2D831209
:101B200003135408003A0319D92B013A0319D82C8E
:101B3000033A0319422DD42B0800C130831203133A
:101B4000B7008030B8000A168A11CC220A128A1512
:101B5000003A0319AC2DAD2D032EC13083120313AF
:101B6000B6008030B7000030BB000030BA00303023
:101B7000B900D430B8000A128A1503200A128A1557
:101B80007218C32DC42DDD2D831603138514F9306F
:101B900083120313C200C20BCB2DCE2D831203136D
:101BA00006080839D000FD30C2004208831603132E
:101BB0008505831203138514E22D8312031306088F
:101BC0000839D000500849060319E72DE82D032EE7
:101BD0002C30B6008130B700323084008317000803
:101BE000B800840A0008B900840A0008BA00840A10
:101BF0000008BB000A128A1503200A128A158312F4
:101C000003135008C900831203130608C4004408D4
:101C10005906C6004408D900461C0F2E102E272E48
:101C20001030B6008130B7001630840083170008EA
:101C3000B800840A0008B900840A0008BA00840ABF
:101C40000008BB000A128A1503200A128A158312A3
:101C50000313C61E2C2E2D2E442E1E30B6008130AE
:101C6000B7002430840083170008B800840A0008F5
:101C7000B900840A0008BA00840A0008BB000A12EE
:101C80008A1503200A128A1583120313C61C492ED3
:101C90004A2E612E3A30B6008130B70040308400C1
:101CA00083170008B800840A0008B900840A0008F5
:101CB000BA00840A0008BB000A128A1503200A121F
:101CC0008A15031000300318013083120313C60075
:101CD0000E30AA0046080A168A1569240A128A15C7
:101CE000103E83120313B7008130B8000A168A1120
:101CF000CC220A128A15003A03197F2E802EF62E66
:101D00000E3083120313AA0046080A168A156924A6
:101D10000A128A150B3E103E8400831700088400C7
:101D20008313000883120313C5000E30AA0046086F
:101D30000A168A1569240A128A150C3E103E840080
:101D40008317000883120313C2004208C5050E3032
:101D5000AA0046080A168A1569240A128A150A3E3C
:101D6000103E8400831700088312031345060319ED
:101D7000BA2EBB2EE32E4508C1000E30AA0046083D
:101D80000A168A1569240A128A150D3E103E84002F
:101D9000831700080A168A1500230A128A1583126F
:101DA00003134508C2000E30AA0046080A168A1519
:101DB00069240A128A150A3E103E84008312031316
:101DC0004208831780000E30AA0046080A168A15BA
:101DD00069240A128A15103E83120313AB00813066
:101DE000AC000A168A1545260A128A15013083129C
:101DF0000313C2004208C60704304602031C012F29
:101E0000022F682E0310003003180130C6000B307B
:101E1000AA0046080A168A1569240A128A15903EF5
:101E200083120313B7008130B8000A168A11CC223E
:101E30000A128A15003A03191E2F1F2FF32F0B3099
:101E400083120313AA0046080A168A1569240A1287
:101E50008A15063E903E8400831700088312031300
:101E6000C3000B30AA0046080A168A1569240A1214
:101E70008A15903E83120313B6008130B7000030FC
:101E8000BB000030BA003D30B9000930B8000A127A
:101E90008A1503200A128A150B3083120313AA0035
:101EA00046080A168A1569240A128A15073E903ECA
:101EB0008400831700088312031343050319612F5D
:101EC000622F862F0B30AA0046080A168A1569244D
:101ED0000A128A150A3E903E840083170008831276
:101EE0000313C2000B30AA0046080A168A1569249B
:101EF0000A128A15093E903E840083170008840068
:101F000083120313420883138004A92F0B30AA0005
:101F100046080A168A1569240A128A150A3E903E56
:101F200084008317000983120313C2000B30AA0038
:101F300046080A168A1569240A128A15093E903E37
:101F4000840083170008840083120313420883135C
:101F500080050B30AA0046080A168A1569240A1261
:101F60008A15063E903E840003108317800D80087A
:101F7000031DBB2FBC2FF32F0B3083120313AA00BA
:101F800046080A168A1569240A128A15063E903EEA
:101F90008400831780010314800D0B308312031318
:101FA000AA0046080A168A1569240A128A15083EEC
:101FB000903E840083178008031DDF2FE02FF32F4E
:101FC00003100B3083120313AA0046080A168A1561
:101FD00069240A128A15073E903E840000300318D7
:101FE000013083178000013083120313C2004208BE
:101FF000C60705304602031CFE2FFF2F072F0800DF
:102000000800F400831603178C18072808280228F4
:102010007408831203178D0075088C003F30F3009D
:102020007308831603178C058312031303108B1F89
:102030001A281B281C2803148B13831603170C154E
:1020400055308D00AA308D008C140C1183120313AF
:10205000031C2B282C282D288B1708008312031310
:102060000C1C332834283A280C100A168A154F24E1
:102070000A168A11831203138C1C3F284028462815
:102080008C100A168A15E6260A168A118312031383
:102090000B1C4B284C285F280B1006085106831692
:1020A0000313EA006A1E552856285B280A168A156B
:1020B000EE210A168A11831203130608D100831633
:1020C00003136908FE0068088A0067088400660830
:1020D0008300FF0E7F0E0900831203132A082904D0
:1020E000031973287428A428F5010314F50D832817
:1020F00001300310A90DAA0DFF3E031D7928013000
:10210000F4007408F507AA1F8628872878282A086B
:102110002802031D8D2829082702031C90289128D6
:1021200097282908A7022A08031CA803A80201303F
:102130000310AA0CA90CFF3E031D98280130F502DC
:10214000031DA328A42887282808A801A807270872
:10215000A701A7070800003083120313A300003073
:10216000A2000030A1000030A000241CB828B9282B
:10217000D0282808A007290803110318013E0319D5
:10218000C228A1072A0803110318013E0319C92810
:10219000A2072B0803110318013E0319D028A30737
:1021A0000130F3000310A80DA90DAA0DAB0DF30B20
:1021B000D22801300310A70CA60CA50CA40CFF3EDE
:1021C000031DDA282708260425042404031DE92812
:1021D000EA28B5282308A7002208A6002108A500A0
:1021E0002008A4000800003083120313A10000306F
:1021F000A200260825040319FE28FF283729A0017C
:102200000314A00D0E2901300310A50DA60DFF3EED
:10221000031D04290130F3007308A007A61F11292C
:102220001229032901300310A10DA20DFF3E031D49
:10223000132926082402031D1F2925082302031C35
:10224000222923292A292508A3022608031CA403DE
:10225000A402211401300310A60CA50CFF3E031D9F
:102260002B290130A002031D362937291229220803
:10227000A401A4072108A301A307080083120313E4
:102280002408A101A1072308A001A0070F08A200AC
:102290002308023EF30024080318013E003EF40028
:1022A000730884008317741C831383160313200898
:1022B0008000840A21088000840A22088000840AA1
:1022C00023088000831203130E08F3002008840003
:1022D0008317211C8313730880000F08F300200864
:1022E000013EF40021080318013E003EF500740889
:1022F00084008317751C8313730880002008013E37
:10230000F30021080318013E003EF4007308840026
:102310008317741C831300082206031D902991293A
:1023200046290800F001F101F201F701F801F90175
:10233000FA018313513084005A300A168A15682135
:102340000A168A11A0308400C7300A168A1568213F
:102350000A168A118317CD308400E3300A168A15D5
:1023600068210A168A1183135130FD001930FE00CE
:102370005630FF00483084000A168A15E2220A16F9
:102380008A11E530FD001C30FE00F630FF00C7303A
:1023900084000A168A15E2220A168A118317CD30A4
:1023A000FD001F30FE00C330FF00903084000A168D
:1023B0008A15E2220A168A114830FD001F30FE00FD
:1023C0001730FF00103084000A168A15E2220A1620
:1023D0008A1183010A168A110B2D78308312031398
:1023E000B6001930B7000A128A158B220A168A1114
:1023F000402AEE3083120313B6001830B7000A12D9
:102400008A158B220A168A11502AF330831203137D
:10241000B6001830B7000A128A158B220A168A11E4
:1024200000300A168A1591260A168A11502AE530BC
:1024300083120313B6001830B7000A128A158B22D4
:102440000A168A1101300A168A1591260A168A116F
:10245000502A883083120313B6001930B7000A12CD
:102460008A158B220A168A110310003003180130D6
:10247000F50001300A168A1101200A168A11502A25
:1024800001300A168A1557250A168A11003A0319CF
:10249000F929013A0319052A033A0319172A292AA7
:1024A000B03083120313B6001B30B7000A128A152E
:1024B0008B220A168A110800F500831603132708D9
:1024C00083120313A101A1078316031326088312A5
:1024D0000313A001A0070330A2000030A3000A16D6
:1024E0008A15BB260A168A11B4308313831203138C
:1024F0002007840004300318053021070A168A15C6
:1025000000210A168A11A40075088400240880009E
:1025100083160313270883120313A101A10783164F
:102520000313260883120313A001A0070330A2009F
:102530000030A3000A168A15BB260A168A118313D7
:10254000831203132008013EA40021080318013E52
:10255000003EA500B4302407840004300318053081
:102560002507A7000A168A1500210A168A11A60057
:10257000840A0319A70A27080A168A1500210A16D1
:102580008A11A7007508013E840026088000840A8D
:102590002708800001300800313083120313A300A4
:1025A0008030A4000A168A113E210A168A1183126D
:1025B00003133708023EAB0038080318013E003E03
:1025C000AC002B08840083172C1C83130008AD007B
:1025D000840A0008AE00840A0008AF00840A0008DC
:1025E000B0000230313E84002D0883130006840FB2
:1025F000031D062B2E080006840F031D062B2F0833
:102600000006840F031D062B30080006031D092B4E
:102610000A2B232B370884008317381C83130008E8
:10262000AB00013084070008AC002C083202031D07
:102630001B2B2B083102031C1E2B1F2B212B0130BF
:102640004E2B00304E2B3708023EAB0038080318E3
:10265000013E003EAC002B08840083172C1C831322
:102660000008AD00840A0008AE00840A0008AF002C
:10267000840A0008B00036083002031D492B3508D3
:102680002F02031D492B34082E02031D492B33084A
:102690002D0203184C2B4D2B212B1F2B0800711AD8
:1026A000522B532B882BBB3083120313B70080307F
:1026B000B8000A168A11CC220A168A11003A0319A8
:1026C000622B632B882BBB3083120313B600803040
:1026D000B7000030BB000030BA003030B900D43051
:1026E000B8000A128A1503200A168A11F01371160F
:1026F00054308316031392007D308312031392002B
:102700002A3095001F3097008C10831603138C1409
:10271000701B8B2B8D2B01308E2B003083120313FB
:10272000BF00F01A942B962B0130972B00303F06F8
:1027300003199B2B9C2BB12BC730B6008030B70000
:102740000030BB000030BA009230B9007C30B800D5
:102750000A128A1503200A168A117013F01EB12B73
:102760007017C73083120313B7008030B8000A1601
:102770008A11CC220A168A11003A0319C02BC12BE8
:10278000D42B0030F01A01300A168A1167240A1679
:102790008A11C73083120313AB008030AC000A16D5
:1027A0008A1545260A168A11080083120313C108E8
:1027B000031DDB2BDC2B0D2C7117CD30B6008030C8
:1027C000B7000030BB000330BA00D030B900903001
:1027D000B8000A128A1503200A168A11F11EF12B7D
:1027E000F22BF32BF1157119F62BF72B032C031099
:1027F000003003180130F50001300A168A15012651
:102800000A168A11662CF5010314F50D55300A16C7
:102810008A15BD250A168A11662C7113F119112C1F
:10282000122C3A2C711D152C162C202CF50103149A
:10283000F50DFF300A168A15BD250A168A11662C79
:10284000CD30B7008030B8000A168A11CC220A16A3
:102850008A11003A03192D2C2E2C342C0A168A15B5
:10286000D9240A168A11662C0A168A15BC240A165F
:102870008A11662CF11A3D2C3E2C662CCD30B70007
:102880008030B8000A168A11CC220A168A11003A42
:1028900003194B2C4C2C522C0A168A15A0240A160C
:1028A0008A11652C711D552C562C602CF5010314D2
:1028B000F50DFF300A168A15BD250A168A11652CFA
:1028C0000A168A1584240A168A11F1110800831247
:1028D0000313BE00F0113E1C6E2CF015E93083127C
:1028E0000313BC001830BD003E08031D782C7C2C5F
:1028F0002930BC001930BD007030B6001930B70067
:102900003D08B901B9073C08B801B8070A128A1591
:102910008B220A168A11831203133E08031D912C81
:10292000922C7015701D952C962CA72CB530B600E6
:102930008030B7000130BB00C930BA00C330B900E5
:102940008030B8000A128A1503200A168A11770807
:10295000053A0319AC2CAD2CC52C7708063A03199F
:10296000B22CB32CC52C7708073A0319B82CB92C14
:10297000C52C7708083A0319BE2CBF2CC52C770844
:10298000093A031DC42CC52C0A2D701DC82CC92C56
:10299000052D83120313D808031DCF2CD02C052D31
:1029A000EF2CF114002DD608031DD72CD92CF114CF
:1029B000DA2CF110002D023056020318E02CE22C24
:1029C000F114E32CF110002D033056020318E92C0A
:1029D000EB2CF114EC2CF110002DF110002D7708E8
:1029E000053A0319D12C033A0319D32C013A0319E0
:1029F000DB2C0F3A0319E42C013A0319ED2C002DBE
:102A000083120313D8010314D80D0A128A15D32395
:102A10000A168A1108000A168A11B2250A168A11A6
:102A200083120313C7000A168A151E240A168A1178
:102A30009E3083120313B6001B30B7000A128A15AA
:102A40008B220A168A11831603138E18282D292D1E
:102A5000342D3B3083120313B6001A30B7000A122C
:102A60008A158B220A168A11831603130E18392D24
:102A70003A2D452DBC3083120313B6001A30B7002F
:102A80000A128A158B220A168A1183120313031A5B
:102A90004A2D4B2D542D4B30B6001A30B7000A1278
:102AA0008A158B220A168A11831203138319592D52
:102AB0005A2D632DCB30B6001930B7000A128A1593
:102AC0008B220A168A1183120313471C682D692D65
:102AD000722D6430B6001B30B7000A128A158B22A3
:102AE0000A168A1183120313C71C772D782D812DA6
:102AF0007730B6001B30B7000A128A158B220A16EF
:102B00008A110A168A1506220A168A110A168A15C9
:102B1000CD220A168A110A168A15FA210A168A1176
:102B20000A168A11ED210A168A110A168A15F92049
:102B30000A168A110A168A114F230A168A110A12D6
:102B40008A159D250A168A110A128A157E210A16EF
:102B50008A110A168A1129270A168A119A2D0A1231
:102B60008A111228113083160313850003100030D8
:102B700003180130831203138500073083160313F3
:102B80009F00831203138514FB3083160313860002
:102B900003100030031801308312031386008316DC
:102BA00003138113831203130B108B1506152330A7
:102BB000D9009830831603138700031000300318E0
:102BC0000130831203138700031000300318013013
:102BD0008316031388000130831203138800031047
:102BE00000300318013083160313890003100030EE
:102BF000031801308312031389008230AC00DD30EA
:102C0000AB00AB0B012EAC0B012E062E82308312D3
:102C10000313AC00DD30AB00AB0B0C2EAC0B0C2E59
:102C2000112E031000300318013083120313AE007D
:102C30000E30AA002E080A168A1569240A168A116F
:102C40000C3E103E84008317000883120313AD006E
:102C50000E30AA002E080A168A1569240A168A114F
:102C60000B3E103E84008317000884008313000885
:102C7000831203132D05AB000E30AA002E080A168E
:102C80008A1569240A168A110A3E103E84008312AE
:102C900003132B08831780000130AB002B08AE070D
:102CA00004302E02031C552E562E182E0310003011
:102CB00003180130AE0006185E2E5F2E602E2E1413
:102CC000861A632E642E652EAE142E080800831219
:102CD0000313BE000A303E02031C6F2E702E762EA8
:102CE0000310003003180130F700782E3E08F7007B
:102CF0005730B6001B30B7007708BC00BD013C0858
:102D0000B8003D08B9000A128A158B220A168A11EA
:102D10007708013A03198D2E8E2EA02E7708023ADD
:102D20000319932E942EA02E7708033A0319992E97
:102D30009A2EA02E7708043A031D9F2EA02EA12EB6
:102D4000F114831203135808023A0319A82EA92E6E
:102D5000062F0310003003180130D8000310003094
:102D600003180130D600062F4A30B6008030B70075
:102D70009B30BB007230BA00EC30B9000030B800B4
:102D80000A128A1503200A168A11142F4A30B60037
:102D90008030B7005930BB009530BA007630B900AA
:102DA0000030B8000A128A1503200A168A11142F5F
:102DB0004A30B6008030B700D630BB009330BA003E
:102DC000A430B9000030B8000A128A1503200A1690
:102DD0008A11142F4A30B6008030B700A030BB00F3
:102DE000EE30BA00BB30B9000030B8000A128A15C4
:102DF00003200A168A11142F4A30AB008030AC0031
:102E00000A168A1545260A168A11142F7708013AE0
:102E10000319B42E033A0319C62E013A0319D82E0A
:102E2000073A0319EA2EFC2EB5300A168A15062435
:102E30000A168A1170110A128A15D3230A168A11EA
:102E40007708F50000300A168A1101200A168A1147
:102E50000800DF3083120313B7008030B8000A1671
:102E60008A11CC220A168A11003A0319382F392FF9
:102E70005E2F2D3083120313B6001A30B7000A12EA
:102E80008A158B220A168A11DF3083120313AB00D6
:102E90008030AC000A168A1545260A168A11F501FB
:102EA0000314F50D01300A168A1579250A168A11C0
:102EB00000300A168A15F1230A168A11D9308312B6
:102EC0000313B7008030B8000A168A11CC220A1604
:102ED0008A11003A03196D2F6E2F8D2F2D3083121A
:102EE0000313B6001A30B7000A128A158B220A168D
:102EF0008A11D93083120313AB008030AC000A165C
:102F00008A1545260A168A11F5010314F50D0530B8
:102F10000A168A1579250A168A11D33083120313EB
:102F2000B7008030B8000A168A11CC220A168A111E
:102F3000003A03199C2F9D2FEC2F2430831203138A
:102F4000B6001B30B7000A128A158B220A168A11A6
:102F500000300A168A159B220A168A11D330831272
:102F60000313AB008030AC000A168A1545260A16FA
:102F70008A11EC2F83160313250883120313A10172
:102F8000A10783160313240883120313A001A007CB
:102F90000A168A15DC230A168A11013083120313DC
:102FA000BE003E08D307FF2F78300A168A15AB22E1
:102FB0000A168A11003A0319DE2FDF2FFF2FCD2FBB
:102FC0000A128A1115200A168A11FF2F0A168A156D
:102FD0004F270A168A11FF2F831203135308003A52
:102FE0000319FF2F013A0319BA2F033A0319D42FFB
:102FF000013A0319E02F073A0319E62FFF2F0800C3
:1031BA0064347234793400348312031353080800D8
:1031CA00773465347434003467346F346E3465345C
:1031DA000034743469346434793400346D346534B9
:1031EA007334733479340034831203130608D1001C
:1031FA000B178B170800FE00FE1F082983137E1881
:10320A008317000808008A00040882004C346934D5
:10321A006E3465342034253464343A34203400342E
:10322A0042344F3457344C345F34533454344F346B
:10323A005034003457346134743465347234203471
:10324A00253473340A340034643465347434653490
:10325A006334743465346434003442344F3457343C
:10326A004C345F3443344334573400342C342034E0
:10327A006634613469346C346534643400347408F7
:10328A0083160313A701A7077308A601A607080058
:10329A00413452344D345F3444344F3457344E340D
:1032AA00003464340834FF34FF34FF34FF34FF340D
:1032BA00FF340834413452344D345F345334543477
:1032CA004F345034003464008001840A0406031920
:1032DA0000340406692943346134743420342534B3
:1032EA0073340A34003442346F3478342034693405
:1032FA007334203400347034723465347334653472
:10330A006E347434003475346E346B346E346F3406
:10331A0077346E34003442344F3457344C345F348B
:10332A0043345734003443344D3444345F344534E1
:10333A004E344434003442346C346F3463346B3466
:10334A0020340034413452344D345F3455345034CF
:10335A00003428346E3475346C346C3429340034B7
:10336A00203428346E346F347034293400346F3486
:10337A006634663400342034283473346B34693448
:10338A007034703465346434293400345034693408
:10339A006E342034723465347334653474340A34C8
:1033AA00003455346E3469347134753465342034DC
:1033BA00493444343A342034003443344D344434A8
:1033CA005F34413452344D342C3420342534733430
:1033DA000034711EF129F229F92983120313061AFE
:1033EA00F729F829F929F017080000300A168A1572
:1033FA0057250A168A150A168A1167260A168A1581
:10340A0008008312031390109016101690111011D1
:10341A001014831603130C14080043344D34443437
:10342A005F3442344F3457344C342C3420342534EE
:10343A007334003443344D3444345F345334543495
:10344A004134523454342C34203425347334003407
:10345A0044347234613469346E34203474346934D7
:10346A006D346F34753474340A34003450346F3424
:10347A007734653472342D346F346E3420347234B8
:10348A0065347334653474340A340034573461341F
:10349A0074346334683464346F3467342034723477
:1034AA0065347334653474340A34003443344D3427
:1034BA0044345F3475346E346B346E346F3477341D
:1034CA006E343A342034253464340034F4007408F9
:1034DA00031D702A742A8312031308157A2AFB30F3
:1034EA00F30073088312031388050800F4007408B4
:1034FA00031D802A842A8312031388148A2AFD3022
:10350A00F3007308831203138805080043344D340B
:10351A0044345F34503455344D3450342C342034D0
:10352A00253473342034253473340034F400740899
:10353A00031DA02AA42A831203138815AA2AF73086
:10354A00F300730883120313880508008312031318
:10355A00A800B62A28080A168A115C220A168A15B1
:10356A00BB2A5708003A0319AF2AAF2A0800423487
:10357A0072346F3477346E342D346F347534743456
:10358A002034723465347334653474340A34003444
:10359A0054308316031392007D3083120313920072
:1035AA002A3095001F3097008C10831603138C1451
:1035BA0008007E088A007F088200DE220A168A1521
:1035CA008000840A04087D0603190034FF0A0319DF
:1035DA00FE0AE22A43344D3444345F3444345234CC
:1035EA005934453452342C3420342534733420343D
:1035FA00253473340034FE001B308A007E088207AB
:10360A0000000A128A11B72F0A128A157E280A1296
:10361A008A1103280A168A11D52B43344D344434AF
:10362A005F3444344F3453344134473445342C34B2
:10363A00203425347334203425347334003441342F
:10364A00753474346F3444346F34733465342034CD
:10365A00743469346D346F34753474340A34003414
:10366A0043344D3444345F34573441344934543448
:10367A005734413454344534523420342534733465
:10368A00003443344D3444345F3457344134543471
:10369A00453452342C3420342534733420342534C0
:1036AA007334003453346534743420346D346F34D5
:1036BA00643465342034253475340A340034533480
:1036CA00743461347234743420346234753474342A
:1036DA0074346F346E342034683465346C34643432
:1036EA000A340034533465347434753470342034F5
:1036FA0062347534743474346F346E3420346834FC
:10370A0065346C3464340A34003443344D344434FC
:10371A005F345734413449345434543449344D3481
:10372A0045342C3420342534753420346D347334C4
:10373A0000340A342A342A342A3420344334613493
:10374A007434473465346E346934753473342034D0
:10375A002A342A342A340A34003443344D34443463
:10376A005F3453344B344934503449344634573433
:10377A00453454342C3420342534753420342534DB
:10378A007334003443344D3444345F3453344B344B
:10379A0049345034493446344434523459342C343C
:1037AA002034253475342034253473340034E92B1D
:1037BA002108F401F4072008F301F3070A168A1511
:1037CA0044210A168A15F02B831203135708003A6C
:1037DA000319DD2BF02B0800F4007408031DF62BE7
:1037EA00FB2B7214831603138514052C7210FD30FB
:1037FA00F3007308831603138505831203138514D4
:10380A000800F30073088400003083138000840AE0
:10381A00003080007308023E840000308000840A71
:10382A0000308000840A00308000840A0030800062
:10383A0008000C3083160313990018151812831206
:10384A000313981718169812831603130C128C1266
:10385A001813831203131813831603139812981656
:10386A000800F40083120313D308031D3D2C3E2CD9
:10387A004E2CF210741C422CF214003083160313DF
:10388A00A4000030A5000130F3007308831203136B
:10389A00D3070800013083160313A0070030031171
:1038AA000318013E03195A2CA1070030031103180B
:1038BA00013E0319612CA207003003110318013ECF
:1038CA000319682CA307080083120313A900031025
:1038DA00003003180130A800291C742C752C792C8F
:1038EA002A08F4007408A8070310AA0D0310A90CEB
:1038FA00A908031D812C822C712C28080800831228
:10390A000313D4010314D40DAF30B6008030B700CE
:10391A000030BB000930BA008930B9006830B800FD
:10392A000A128A1503200A168A150A128A15D3233F
:10393A000A168A1508000430F106711DA52CA62C5A
:10394A00B02CF5010314F50DFF300A168A15BD25B2
:10395A000A168A15BB2C0310003003180130F50033
:10396A0000300A168A15BD250A168A1508000A1695
:10397A008A15E1200A168A150038031DC52CC62CA3
:10398A00D82CF1100030F11801300A168A153624A5
:10399A000A168A15023083120313D8000A128A15EE
:1039AA00D3230A168A1508000A168A15E1200A1670
:1039BA008A150038031DE22CE32CF52CF114003093
:1039CA00F11801300A168A1536240A168A150230A9
:1039DA0083120313D8000A128A15D3230A168A15EA
:1039EA000800FF34FF34FF34FF34FF34FF34FF3460
:1039FA00FF34FF34FF34FF34FF34FF34FF34FF3425
:103A0A00FF34FF34FF34FF34FF34FF34FF34FF3414
:103A1A00FF34FF34FF34FF34FF34FF34FF34013402
:103A2A0000340A34003464340034E8340334103483
:103A3A00273443344D3444345F3441345534543498
:103A4A004F3444344F34533445342C3420342534E1
:103A5A00753420346D34733420342534733400348F
:103A6A00F4004B2DCF30F30073088312031388053B
:103A7A00562D8312031308168816562DEF30F300BD
:103A8A0073088312031388058816562D7408003AA2
:103A9A000319372D013A03193E2D033A0319432D11
:103AAA00372D080083120313A000831603178C18FE
:103ABA005F2D602D5A2D83120313200883120317DA
:103ACA008D003F30F3007308831603178C050C141E
:103ADA0003100C180314003003180130F400F50128
:103AEA00831203170C080800F4007508031D7E2DC5
:103AFA008D2D8316031722087406031D852D862D26
:103B0A008D2D23087506031D8B2D8C2D8D2D9A2D39
:103B1A0083160317A1010314A10D7408F300730897
:103B2A00A2007508F3007308A3000800F4007508E2
:103B3A00031DA02DAF2D8316031743087406031D1A
:103B4A00A72DA82DAF2D44087506031DAD2DAE2D4A
:103B5A00AF2DBC2D83160317C2010314C20D7408BE
:103B6A00F3007308C3007508F3007308C400080063
:103B7A00F4007508031DC22DD12D831603172D08D5
:103B8A007406031DC92DCA2DD12D2E087506031DD5
:103B9A00CF2DD02DD12DDE2D83160317AC010314A2
:103BAA00AC0D7408F3007308AD007508F3007308D0
:103BBA00AE000800F4007508031DE42DF32D8316EA
:103BCA00031738087406031DEB2DEC2DF32D390865
:103BDA007506031DF12DF22DF32D002E8316031702
:103BEA00B7010314B70D7408F3007308B800750819
:103BFA00F3007308B9000800F4007508031D062EC7
:103C0A00152E8316031717087406031D0D2E0E2E84
:103C1A00152E18087506031D132E142E152E222E86
:103C2A008316031796010314960D7408F30073089C
:103C3A0097007508F300730898000800F400392EFD
:103C4A003F30F3007308831203138805442EBF30F4
:103C5A00F30073088312031388058817442E83120E
:103C6A00031308178817442E7408003A0319252EDF
:103C7A00013A0319342E033A03192C2E252E080073
:103C8A00831203132B08840083172C1C8313FF3021
:103C9A008000840AFF3080002B08023EF5002C08C1
:103CAA000318013E003EF600750884008317761C4F
:103CBA008313FF308000840AFF308000840AFF30BB
:103CCA008000840AFF3080000800F400832E981CCC
:103CDA006F2E702E782E831603139812981683125D
:103CEA00031318121816181D7B2E7C2E822E1A0802
:103CFA0083160313A90098129816640083120313FB
:103D0A000C1E882E892E6C2E74089900C730F30079
:103D1A00F30B8D2E902E080083120313A000D308F4
:103D2A00031D982E992EBA2EF210201C9D2EF214E5
:103D3A00F21CA02EA12EAE2E01300A168A153525A8
:103D4A000A168A15743083160313A4000030A500DE
:103D5A00B42E253083160313A4000030A5000130C9
:103D6A00F500750883120313D30708000030F30027
:103D7A000030F40083120313201CC42EC52ECB2E50
:103D8A002208F3070318F40A2308F4070130031082
:103D9A00A20DA30DFF3E031DCC2E01300310A10C72
:103DAA00A00CFF3E031DD32E21082004031DDE2E86
:103DBA00DF2EBF2E7408A101A1077308A001A00776
:103DCA000800711EE92EEA2E162F71120310003018
:103DDA0003180130831603139200031000300318EE
:103DEA0001308312031392000310003003180130CC
:103DFA009500831603138C10831203138C1012116F
:103E0A0003100030031801309700FB3083160313A8
:103E1A00E5006508831203138705F012F01F162FB9
:103E2A00F0160800FF34FF34FF34FF34FF34FF3448
:103E3A006A341834003400340034063401340A3445
:103E4A00FF34FF34FF34FF34FF34FF346A3418344C
:103E5A00003400340034063420340434FF34FF3490
:103E6A00FF34FF34FF34FF344834E834013400347B
:103E7A000034503408340134FF34FF34FF34FF3443
:103E8A00FF34FF346A341834003400340034063402
:103E9A0002340734802FC73083120313B7008130EE
:103EAA00B8000A168A11CC220A168A15003A031992
:103EBA005F2F602F882F013083160313A40703187E
:103ECA00A50A0030A507033083120313D302882FF3
:103EDA00793084000008840A00040319752F762FAC
:103EEA007B2FF11F792F7A2F882F602FF11B7E2FBE
:103EFA007F2F882F602F7808083A0319502F013A2C
:103F0A0003196D2F602F080083120313A000A12F3D
:103F1A000730A2002030A100AF2F0530A2000430E4
:103F2A00A100AF2F0530A2000830A100AF2F053045
:103F3A00A2002030A100AF2F2008013A03198D2FCB
:103F4A00033A0319922F013A0319972F073A0319D3
:103F5A009C2FC22F7408031DB32FBB2F2108F30017
:103F6A0022088400730883138004C22F2109F300F6
:103F7A002208840073088313800508000034003483
:103F8A00003400340034003401340034003407347F
:103F9A000234003400340034003400340034013474
:103FAA00003400340734013400340034003400345F
:103FBA000034003401340034003409340434003449
:103FCA000034003400340034003401340034003446
:103FDA00093401340034003400340034003400342D
:103FEA0001340034003409340234FF34FF34FF341E
:063FFA00FF34FF34FF3428
:02400E00313748
:00000001FF
