:060000000A128A11A02F74
:10000A007E088A007F08820005200A128A11800071
:10001A00840A04087D0603190034FF0A0319FE0A3C
:10002A0009280C308316990018151812831298178C
:10003A001816981283160C128C121813831218139E
:10004A00831698129816080041347F340034053418
:10005A0085344234FF340034063486344334FF3462
:10006A000034073487344434FF3400340834883485
:10007A004534FF3400340934893400340034003400
:10008A000034003401346E0803190800CC30A00093
:10009A008930A10031294E300F260A128A11003800
:1000AA000319080083124E08E5200A128A11502803
:1000BA003108803AFF0080307F02031D6628033032
:1000CA003002031C6A28FF30F22EFD263008023A5D
:1000DA003104031D8E28CF30F3008930D1260A124D
:1000EA008A11A4250A128A1174087304031D802830
:1000FA00EE01EE0A8E28C830F3008930D1260A12A2
:10010A008A11A4250A128A1174087304031D682827
:10011A00EE01EE08031D9528C830B30089309828EF
:10012A00CF30B3008930B400A530A0008930A100D7
:10013A003408A3003308A2003121B001B10108003C
:10014A00B301B4013108803AFF0080307F02031DF9
:10015A00B02802303002031CB428FF30F22EFD30E2
:10016A00FD26A0008830A10031210A128A11093027
:10017A00F000330896250A128A11C9260A128A152E
:10018A0000200A128A1100380319E228AB30A000B5
:10019A008930A1000930F000330896250A128A1125
:1001AA001C3EA20088300318013EA30031210A1226
:1001BA008A11B30A0319B40ABC28B001B1010800B4
:1001CA00CD0020304D02031C03297F304D02031855
:1001DA00032913306F020318FE286F08CA3E8400F1
:1001EA004D0883138000EF0A6E08031908004D08B2
:1001FA00F3296E08031908000730F3294D080D3A50
:10020A00031D24296E0803190E290A30F3210A1244
:10021A008A11FD266F0803191B296F08CA3E84003C
:10022A00CA30831380015D220A128A11EF016E0817
:10023A0003190800CC30A0008930A10031294D08EB
:10024A007F3A031D08006F0803190800EF036E08C0
:10025A00031908004D08F3292230AA00FD26AA2610
:10026A000A128A1500200A128A11AF00AF08031970
:10027A000800253A031946292F08F3210A128A1180
:10028A003329A8017B29B6260A128A112B04031DD9
:10029A005229AF30AB008930AC002C08FF002B0884
:1002AA0084000A128A1500200A128A1100380319DA
:1002BA0033292C08FF002B0884000A128A15002013
:1002CA000A128A11F3210A128A11FD26AB0A0319AE
:1002DA00AC0A52292A08840083130008AF00AA0A2C
:1002EA00AA0A2F08F3210A128A113329AA260A1206
:1002FA008A1500200A128A11AF00003A0319F2295E
:10030A00633A03196F29073A031992290D3A031917
:10031A0092291A3A031948297629B6260A128A1105
:10032A00AC1F9E290330A804AB09AC09AB0A031918
:10033A00AC0AAF01AF0A03102F0DE4260A128A1580
:10034A0000200A128A11FC000A128A1500200A12D9
:10035A008A11FD002C02031DB4297C082B02031C00
:10036A00BB29AF0A2F08053A031DA029280803391B
:10037A000319C3292D30F3210A128A11FD262F08E9
:10038A00A900ED290A30F700F8010310290DE42627
:10039A000A128A1500200A128A11F0000A128A1516
:1003AA0000200A128A11F1002C08F3002B08F2002F
:1003BA000F220A128A117108FA007008F90039220C
:1003CA000A128A117708303EAF00F3210A128A1105
:1003DA00FD26A903290FC72933290800F100FD26A4
:1003EA000C1A072A981CFF2983169812981683124A
:1003FA0018121816181D052A1A0883169812981624
:10040A006400F42971089900C730F000F00B0B2A38
:10041A000E2A0800F401F501710870040319342A40
:10042A00F601F60AF11B1D2A0310F00DF10D162A2A
:10043A000310F40DF50D71087302031D262A7008C6
:10044A007202031C302A7008F2027108031CF303BB
:10045A00F30274140310F10CF00CF60B1D2A750844
:10046A00F1007408F0000800780877040319582A84
:10047A00FB01FB0AF81B452A0310F70DF80D3E2A6B
:10048A0078087A02031D4B2A77087902031C542A3A
:10049A007708F9027808031CFA03FA020310F80C29
:1004AA00F70CFB0B452A7A08F8007908F7000800D0
:1004BA00CC002E260A128A117108CB007008CA00D5
:1004CA00C801C9014B084A040319BA2A4A084C0749
:1004DA00C000FF3E84000008203A03197D2A4A081A
:1004EA004C07C000FF3E84000008093A031DBA2ADF
:1004FA004A084C07C000FF3E840001308001CA024E
:10050A000030031CCB03CB02672A4C08840080010D
:10051A00CC0A4C0884000008203A03198A2A4C089D
:10052A0084000008093A03198A2A4C0884008008C2
:10053A000319B52A4808423E84004C088000C80ABC
:10054A000319C90AB52A4C0884000008203A03197D
:10055A00BA2A4C0884000008093A0319BA2ACC0AB4
:10056A004C0884008008031DA82A4C0884008008CF
:10057A00031D8E2A420841260A128A117B08C700E7
:10058A007A08C600C71FDE2A102B8C30A0008930DB
:10059A00A10031299A30A0008930A10031290E30FA
:1005AA00A0008930A10031296E30A0008930A10055
:1005BA0031290930F000460896250A128A11C926FF
:1005CA000A128A1500200A128A11C1004908B100CC
:1005DA004808B0004230B20041080A128A110027C6
:1005EA000A128A11FD263108003A0319002BFF3A34
:1005FA000319052BD92A3008003A0319192BD92ACD
:10060A003008FD3A0319D42A033A0319CF2A013ACA
:10061A000319CA2AD92A9730A0008830A1004208B3
:10062A00A2000030A301312108001330831685008F
:10063A0083128501073083169F00FB3086008312E0
:10064A0086018316983081130B108B15870083124D
:10065A008701831688010130831288008316890175
:10066A00831289018230F400DD30F300F30B3B2B57
:10067A00F40B3B2B402B8230F400DD30F300F30BFC
:10068A00442BF40B442B492BF6010E30F00076086C
:10069A0096250A128A11AC3E840083130008F500DD
:1006AA000E30F000760896250A128A11AB3E8400B5
:1006BA00000884000008F3000E30F0007608962542
:1006CA000A128A11AA3E8400730880000E30F000D4
:1006DA00760896250A128A11AA3E840075088005B2
:1006EA000330F60A7602031C4A2BF601FD26061C85
:1006FA007614861EF61476080800BF013108803A7F
:10070A00FF0080307F02031D8C2B04303002031C53
:10071A00902BFF30F22EFD263008033A3104031DD8
:10072A00B62C3208013E8400831300082E260A12D2
:10073A008A117008023A7104031D8E2BBE2B0530F4
:10074A00F0003F0896250A128A11503E84000008DC
:10075A00203EB300003003180130B4003208013ED5
:10076A008400000884000008330634040319D72BD8
:10077A00BF0A0530F0003F0896250A128A11503E3A
:10078A00840080080319D72B3208013EA1260A12D9
:10079A008A1196250A128A11503E840000083306EF
:1007AA00031DA42B0530F0003F0896250A128A1172
:1007BA00503E84008008031DE72BFD30B000FF3057
:1007CA00B10008003208013E84000008013E84009E
:1007DA003030000232080318FC2B013E8400000866
:1007EA00013E8400383000020318E22B3208013E31
:1007FA0084000008013E84000008D03EBE00053097
:10080A00F0003F0896250A128A11513E84000130F1
:10081A00B3003E0A122C0310B30DFF3E031D102C29
:10082A00330800050319E22BB630F3008930C126DC
:10083A000A128A110008A4250A128A11740873047C
:10084A00031D552C0530F0003F0896250A128A111F
:10085A00543E78260A128A1180040530F0003F08B7
:10086A0096250A128A11533E87260A128A11000512
:10087A00031D432CD230B8008930462CD430B8003E
:10088A008930B9008130A000883095260A128A1171
:10089A003908A7003808A60031210A128A11922DB8
:1008AA00C430F3008930C1260A128A118313000862
:1008BA00A4250A128A1174087304031D852C0530B5
:1008CA00F0003F0896250A128A11533E78260A122A
:1008DA008A1180040530F0003F0896250A128A1111
:1008EA00543E87260A128A11FF3A8005AD30A000CD
:1008FA00883095260A128A1131210A128A11922DFC
:10090A00C030F3008930C1260A128A118313000805
:10091A00A4250A128A1174087304031D922D053046
:10092A00F0003F0896250A128A11533E78260A12C9
:10093A008A11FF3A80050530F0003F0896250A1211
:10094A008A11543E87260A128A11FF3A80056830B6
:10095A00A000883095260A128A1131210A128A11BA
:10096A00922D3008023A3104031DCE2CBC30F3001C
:10097A008930F4001430F500F6013208013E840093
:10098A0083130008A4250A128A1174087304031D2C
:10099A008E2B0530F0003F0896250A128A11533E25
:1009AA008400831380080319282D0530F0003F08BE
:1009BA0096250A128A11533EA1260A128A119625F1
:1009CA000A128A11523E840033088000F7260A125E
:1009DA008A1196250A128A11523E84000008E325DC
:1009EA000A128A113030A0008930A1000530F000C7
:1009FA003F0896250A128A11DB260A128A1131212A
:100A0A000A128A11F7260A128A1196250A128A11DF
:100A1A00543E84008313000884000008E3250A1268
:100A2A008A115030A0008930A1000530F0003F083B
:100A3A0096250A128A11DB260A128A1131210A1214
:100A4A008A11BF0ACE2C3008023A3104031D922DB6
:100A5A004930A0008830A10031210A128A1183127C
:100A6A00BF010530F0003F0896250A128A11533E4D
:100A7A0084008313800803198B2D0530F0003F088A
:100A8A0096250A128A11533EA1260A128A11962520
:100A9A000A128A11523E8400000833060319892D6E
:100AAA000530F0003F0896250A128A11533EA12606
:100ABA000A128A1196250A128A11523E84003308B4
:100ACA0080003530F3000530F0003F0896250A1201
:100ADA008A11523E84000008E3250A128A115F3007
:100AEA00A0008930A1000530F0003F0896250A12BF
:100AFA008A11503E84000008A2003530A301A400E8
:100B0A00A50131210A128A11BF0A362D3D300F265E
:100B1A000A128A11003A0319342D8312B001B10165
:100B2A000800F200F10170087218F1070310F00DC5
:100B3A000310F20CF208031D982D71080800F90041
:100B4A000130F5020030031CF603F602750A031998
:100B5A00760A0319E02D79088400831380080319A3
:100B6A00C72D7408FF00730884000A128A15002032
:100B7A000A128A11F700790884008313000877069D
:100B8A000319DB2D7408FF00730884000A128A1502
:100B9A000020F7007908840083130008F80077081A
:100BAA007802F300F401031CF4030800F90AF30ABB
:100BBA000319F40AA52DF301F4010800F800780ED0
:100BCA000F39EB260A128A11F400031CEE2D373076
:100BDA00EF2D3030F501F4070318F50A7308840085
:100BEA00740880007808EB260A128A11F600031CA2
:100BFA00002E3730012E3030F701F6070318F70AB6
:100C0A007308013E8400760880007308023E84005F
:100C1A0080010800F000FD268C1E0034242E831665
:100C2A009812981683121812181600347008840045
:100C3A001A0883138000831698129816003498189D
:100C4A00142E18191B2E700884001A0883138000AA
:100C5A000134F200F3007308F30A84008008031DCC
:100C6A00302E72087302F000F101F01BF103FF301D
:100C7A00F007031CF1030800A000A101A20109303A
:100C8A00F000210896250A128A11C9260A128A1525
:100C9A0000200A128A1100380319742E1C30F3003E
:100CAA008830F4000930F000210896250A128A11CA
:100CBA00F3070318F40A0830F500F6012008A42502
:100CCA000A128A1174087304031D702E2208FB008D
:100CDA002108FA000800A10A0319A20A442EFF30CB
:100CEA00FA00FB0008008400831300088400013026
:100CFA00B3003E0A822E0310B30DFF3E031D802E61
:100D0A00330808008400000884000130B3003E0A5A
:100D1A00902E0310B30DFF3E031D8E2E33080800DC
:100D2A00A1003F08413EA200003003180130A30091
:100D3A003E08A400A50108008400000884000008F9
:100D4A00B3000530F0003F0808002108FD00200824
:100D5A00FC00A00A0319A10A7D08FF007C08840090
:100D6A0008002A08840083130008AB00840A0008DC
:100D7A00AC00AA0AAA0A0800F4001430F500F60129
:100D8A003208023E84000800083E1C3E8400883077
:100D9A000318013EFF000800F4001430F500F601C4
:100DAA003208013E8400831300080800503E840084
:100DBA000008A2003A30A301A400A5010800123ECF
:100DCA00840088300318013EFF000800F9000F3044
:100DDA00F9050A3079027908080083120313B00072
:100DEA00B10008003A30F3000530F0003F0808006F
:100DFA00831203130800FF0007308A007F08820766
:100E0A00052F0A128A11822B0A128A11A5280A12A0
:100E1A008A115D280A128A111A230A128A11CF002E
:100E2A000A128A1116200A128A11C2308312A000ED
:100E3A008830A1000A128A1131210A128A118316F6
:100E4A008E18332F40308312A0008930A1000A1275
:100E5A008A1131210A128A11CF17442F0E183A2FFC
:100E6A001F308312A00089302B2F7D308312A000FF
:100E7A008930A1000A128A1131210A128A118316B5
:100E8A008E140E1483124F1C532FEA30A0008830A0
:100E9A00A1000A128A1131210A128A11CF1C5E2F6F
:100EAA00D730A0008830A1000A128A1131210A1213
:100EBA008A110A128A1148200A128A110A128A1100
:100ECA0050200A128A11632F00340034003400348F
:100EDA00003400340134003400340734023400345E
:100EEA000034003400340034003401340034003457
:100EFA000734013400340034003400340034003440
:100F0A000134003400340934043400340034003429
:100F1A00003400340034013400340034093401341C
:100F2A000034003400340034003400340134003416
:100F3A00003409340234CA30EF0183138400DE30EE
:100F4A000A128A15F8270A128A11C7308317FD0078
:100F5A000730FE006930FF00903084000A128A11BF
:100F6A0009200A128A11CA308313FD000730FE00D5
:100F7A00D530FF00A03084000A128A1109200A1213
:100F8A008A116F30FD000030FE002930FF0050301A
:100F9A0084000A128A11092083010A128A110F2F6A
:100FAA00FF34FF34FF34FF34FF34FF346A3418341B
:100FBA00003400340034063401340034FF34FF3482
:100FCA00FF34FF34FF34FF346A34183400340034F9
:100FDA000034063420340034FF34FF34FF34FF3445
:100FEA00FF34FF346A3418340034003400340634D1
:040FFA000234003489
:10100000FF1B0A2883137F1883170008840A03191B
:10101000FF0A08007F087F398A000408840A031940
:10102000FF0A8200013400340A340034643400348E
:10103000E8340334103427343F34003400340034AF
:1010400000340034003400340434683465346C34C3
:1010500070340034003400340034043465346334B4
:1010600068346F340034003400340034073467349B
:10107000703469346F340034003400340034013487
:1010800000340034003400340034003400340034C0
:101090000034503472346534733473342034613422
:1010A0006E34793420346B346534793420347434BC
:1010B0006F342034653478346934743420346C34BB
:1010C0006F346734673469346E3467340A340034FB
:1010D00050346F34723474342034253463342C34F7
:1010E0002034703469346E34203425346434203430
:1010F00063346C34653461347234653464340A3476
:10110000003450346F3472347434203425346334F2
:101110002C342034703469346E34203425346434F3
:1011200020343D342034253473340A3400345534AB
:101130006E346B346E346F3477346E3420346334F1
:101140006F346D346D3461346E346434203427343C
:101150002534733427340A34003450346F347234F5
:1011600074342034253463342C342034703469349E
:101170006E3420342534643420347334653474344C
:101180000A3400340A342A342A342A3420344934C4
:101190002F344F342034543465347334743465340C
:1011A000723420342A342A342A340A340034533432
:1011B0006534743475347034203462347534743466
:1011C00074346F346E342034683465346C34643471
:1011D0000A34003453347434613472347434203437
:1011E00062347534743474346F346E34203468343B
:1011F00065346C3464340A3400344B346E346F34E8
:1012000077346E34203463346F346D346D3461342C
:101210006E34643473343A340A34003450346134F4
:10122000723461346D34653474346534723420340E
:101230006534723472346F3472340A340034423498
:1012400072346F3477346E342D346F3475347434B3
:101250002034723465347334653474340A340034A1
:1012600050344F34523454342534633420343D34B4
:10127000203430347834253473342C342034003422
:1012800050346F347734653472342D346F346E34A7
:101290002034723465347334653474340A34003461
:1012A00054345234493453342534633420343D3477
:1012B000203430347834253473340A3400345034D4
:1012C0004F34523454342534633420343D34203484
:1012D00030347834253473340A34003455346E3461
:1012E0006B346E346F3477346E342034653472343A
:1012F00072346F3472340A34003455346E346B34C3
:101300006E346F3477346E34203472346534733411
:10131000653474340A340034533479346E3474349C
:101320006134783420346534723472346F347234FA
:101330000A34003449342F344F3420346534723445
:1013400072346F3472340A34003445346334683490
:101350006F343A342034253473340A34003428345A
:101360006E3475346C346C342934003469346E3422
:1013700070347534743400346C346F346734003432
:1013800063346C3472340034733465347434003430
:101390006F346634663400342334203400346F34C0
:0C13A0006E34003430340034313400343A
:101FF00064008001840A0406031900340406F92FE2
:02400E0031F788
:00000001FF
