:100000000A128A1112280800FF000308831603133E
:10001000BE000408BF000A08C0007E08C1000A161E
:100020008A11882E0A168A11AA2F83120313A3009D
:1000300023085A0603191D281E284F2B5A2B03107C
:10004000003003180130DA000310003003180130CB
:10005000A00000300A168A1100240A128A110A3000
:100060007A02031C34283528432803100030031873
:10007000013083120313A00000300A168A111324E2
:100080000A128A11782A83120313A0010314A00D07
:1000900055300A168A1113240A128A11782A03107D
:1000A000003003180130D60003100030031801306F
:1000B000F70001300A168A114E260A128A1103101F
:1000C000003003180130F70002300A168A114E265C
:1000D0000A128A110310003003180130F7000330B0
:1000E0000A168A114E260A128A11031000300318CC
:1000F0000130F70004300A168A114E260A128A11BE
:10010000031000300318013083120313A0000030E5
:100110000A168A1126240A128A115A2BF70103148F
:10012000F70D01300A168A114E260A128A110310A1
:10013000003003180130F70002300A168A114E26EB
:100140000A128A110310003003180130F70003303F
:100150000A168A114E260A128A110310003003185B
:100160000130F70004300A168A114E260A128A114D
:10017000031000300318013083120313A000003075
:100180000A168A1126240A128A115A2B03100030EB
:1001900003180130F70001300A168A114E260A12A0
:1001A0008A11F7010314F70D02300A168A114E2640
:1001B0000A128A110310003003180130F7000330CF
:1001C0000A168A114E260A128A11031000300318EB
:1001D0000130F70004300A168A114E260A128A11DD
:1001E000031000300318013083120313A000003005
:1001F0000A168A1126240A128A115A2B031000307B
:1002000003180130F70001300A168A114E260A122F
:100210008A110310003003180130F70002300A166B
:100220008A114E260A128A11F7010314F70D0330C2
:100230000A168A114E260A128A110310003003187A
:100240000130F70004300A168A114E260A128A116C
:10025000031000300318013083120313A000003094
:100260000A168A1126240A128A115A2B031000300A
:1002700003180130F70001300A168A114E260A12BF
:100280008A110310003003180130F70002300A16FB
:100290008A114E260A128A11031000300318013009
:1002A000F70003300A168A114E260A128A11F70146
:1002B0000314F70D04300A168A114E260A128A1109
:1002C000031000300318013083120313A000003024
:1002D0000A168A1126240A128A115A2BF7010314CE
:1002E000F70D01300A168A114E260A128A110310E0
:1002F000003003180130F70002300A168A114E262A
:100300000A128A110310003003180130F70003307D
:100310000A168A114E260A128A1103100030031899
:100320000130F70004300A168A114E260A128A118B
:1003300083120313A0010314A00DFF300A168A11C3
:1003400026240A128A115A2BF7010314F70D0130E3
:100350000A168A114E260A128A11F7010314F70DA4
:1003600002300A168A114E260A128A110310003032
:1003700003180130F70003300A168A114E260A12BC
:100380008A110310003003180130F70004300A16F8
:100390008A114E260A128A1183120313A001031434
:1003A000A00DFF300A168A1126240A128A115A2B30
:1003B000F7010314F70D01300A168A114E260A12AE
:1003C0008A110310003003180130F70002300A16BA
:1003D0008A114E260A128A11F7010314F70D033011
:1003E0000A168A114E260A128A11031000300318C9
:1003F0000130F70004300A168A114E260A128A11BB
:1004000083120313A0010314A00DFF300A168A11F2
:1004100026240A128A115A2BF7010314F70D013012
:100420000A168A114E260A128A1103100030031888
:100430000130F70002300A168A114E260A128A117C
:100440000310003003180130F70003300A168A1138
:100450004E260A128A11F7010314F70D04300A160A
:100460008A114E260A128A1183120313A001031463
:10047000A00DFF300A168A1126240A128A115A2B5F
:100480000310003003180130F70001300A168A11FA
:100490004E260A128A110310003003180130F700AB
:1004A00002300A168A114E260A128A1103100030F1
:1004B00003180130F70003300A168A114E260A127B
:1004C0008A110310003003180130F70004300A16B7
:1004D0008A114E260A128A1183120313A0010314F3
:1004E000A00DFF300A168A1126240A128A115A2BEF
:1004F000831203135608003A03195428013A0319CA
:100500008E28033A0319C628013A0319FE28073A30
:1005100003193629013A03196E29033A0319A4294C
:10052000013A0319D8290F3A03190C2A013A031981
:10053000402A4F280310003003180130A00000307B
:100540000A168A1100240A128A1183120313A001C9
:100550000314A00DFF300A168A1113240A128A11FF
:100560000A307A02003003180130F70001300A1611
:100570008A114E260A128A1119307A0200300318A5
:100580000130F70002300A168A114E260A128A112B
:1005900032307A02003003180130F70003300A16B7
:1005A0008A114E260A128A114B307A020030031843
:1005B0000130F70004300A168A114E260A128A11F9
:1005C00064307A02031CE52AE62AF22A8312031316
:1005D000A0010314A00DFF300A168A1126240A1266
:1005E0008A115A2B031000300318013083120313B1
:1005F000A00000300A168A1126240A128A115A2BEA
:10060000A0010314A00D55300A168A1100240A1205
:100610008A11031000300318013083120313A00065
:1006200000300A168A1113240A128A118312031346
:100630005C08013A003003190130F70001300A1656
:100640008A114E260A128A11831203135C08023A99
:10065000003003190130F70002300A168A114E26C5
:100660000A128A11831203135C08033A003003193B
:100670000130F70003300A168A114E260A128A1139
:10068000831203135C08043A003003190130F700A9
:1006900004300A168A114E260A128A115A2B5A0859
:1006A000003A03192428013A03199A2A033A031934
:1006B000002B1F28080000341234063401340234A1
:1006C00000340234013400340834A13433340234A9
:1006D000003400340834DD3446340134013400344D
:1006E000083439341834013402340034023401340B
:1006F00000340834853416340234023400340834AB
:100700001434023402340034003408347634623451
:100710000234023400340834AF3429340234013452
:1007200000340834CA341934023402340034083432
:100730003434433402340134003408349F343134C7
:1007400002340034003408345D341234023401348D
:1007500000340834C3342B340234023400340834F7
:1007600014340234023400340034083476346234F1
:100770000234023400340834AF34293402340134F2
:1007800000340834C93419340234023400340834D3
:10079000AD344E34013401340034023401340034B9
:1007A0000834093455340234023400340834A43493
:1007B00003340234003400341034B83400340834C4
:1007C0004C342F3401340234003402340134003408
:1007D0000834C0340C340234023400340834143485
:1007E000023402340034003408348E345E3402346F
:1007F0000234003408344B342934023401340034D8
:100800000834CA3419340234023400340334013455
:1008100000340834F53442340134013400340234F5
:100820000034003408345034493402340134003484
:1008300008347634623402340234003408346C34C0
:1008400004340234003400340934013400340334F5
:100850000034003408345E34F83405340134003494
:100860000834763462340534003400340834FF34FC
:10087000FF340834C73427340534013400340834D5
:100880007634623405340034003408340A342034B9
:1008900005340134003408347634623405340034CD
:1008A000003408340A342034053401340034083468
:1008B000FF34FF340834513400340534003400343C
:1008C00003340134003408347A34D8340134023427
:1008D0000034043401340034083429340A34043434
:1008E000003400340134013400340934013400345C
:1008F0000334003400340834E234AB3405340134BA
:10090000003408347634623405340034003408345A
:10091000FF34FF340834C73427340534013400343D
:1009200008348E345E3405340034003408340A341C
:10093000203405340134003408348E345E340534F8
:100940000034003408340A342034053401340034CF
:100950000834FF34FF340834C734273405340034F6
:10096000003403340134003408349E3463340234D8
:10097000013400340834D5345234023402340034A3
:1009800001340034003404340134003408346C344D
:10099000043402340034003408346C342534043414
:1009A000003400340134023400340834D1341434B7
:1009B0000134013400340834BA34D83409340134F1
:1009C00000340334003400340834C334983405341C
:1009D000013400340134023400340834FF34FF346D
:1009E00008347134003401340134003408345B3489
:1009F0002734013400340034043401340034083422
:100A00004A342634013401340034043400340034D0
:100A10000834B6346234013402340034063401340C
:100A2000003408342C348A3401340134003408345E
:100A3000D934D8340134023400340834CD34893404
:100A40000534003400340834C4340634013401342D
:100A500000340834DA34D834013402340034083431
:100A6000ED3489340134013400340834DA34D834B4
:100A70000134023400340834ED3489340134013453
:100A8000003408346334B13401340234003408349F
:100A90004C348A340234023400340834FC342634B2
:100AA000023400340034013400340034043401349E
:100AB0000034083429340A34013402340034043454
:100AC0000034003408341034153402340134003456
:100AD00008343F3428340234003400340834AD3450
:100AE000893401340134003408346334B1340134BE
:100AF000023400340834ED348934013401340034D4
:100B000008346334B13401340234003408344C34D2
:100B10008A3402340234003408348C3428340234E9
:100B2000003400340134003400340434013400341F
:100B3000083429340A3401340234003404340034D3
:100B400000340834283411340234013400340834B9
:100B500033342A340234003400340834AD34893458
:100B60000134013400340834ED3489340134023462
:100B700000340834ED34893401340134003408344D
:100B8000EC34893401340234003408344C348A346F
:100B90000234023400340834EF342C34023400348C
:100BA0000034083479340834023401340034083411
:100BB000B7342D3402340034003408342334B134D3
:100BC0000134013400340834ED3489340134023402
:100BD000003408346334B13401340134003408344F
:100BE000ED34893401340234003408346334B134D0
:100BF0000134013400340834EC34893401340234D3
:100C0000003408346334B13401340134003408341E
:100C10004C348A3402340234003408342C34013425
:100C20000234003400340834AB342F34023402343C
:100C3000003408342C3401340234003400340834D5
:100C4000AB342F3402340234003408342C340134F1
:100C50000234003400340834DB34273402340234E4
:100C6000003408342C3401340234003400340834A5
:100C7000DA3427340234023400340834D2342334D2
:100C800002340134003408344A3419340234023452
:100C9000003408345C344734023401340034013405
:100CA00000340034083410340B340234003400347F
:100CB000FE3400340034BE2FFF307405831203135A
:100CC000B60000307505B700003037021330031945
:100CD000360203186C2E6D2E872E7208031D712E9E
:100CE000752EF518742E752E7E2EF208031D792EA2
:100CF0007A2E872E751D7D2E7E2E872E0130831233
:100D00000313B6003608D7070230D802E72F0310C6
:100D1000003003180130D800E72F74080A168A1132
:100D2000F9240A128A11013083120313B60036081F
:100D3000D7070230D802E72F74080A168A111B253C
:100D40000A128A11932EF208031DA72EA82E932EA5
:100D500074080A168A1112230A128A117430840048
:100D60000008840A00040319B62EB72ECB2E4C308F
:100D700083160313B2008030B3000130B700013096
:100D8000B6007D30B500F830B4000A128A1504238D
:100D90000A128A11932E4C3083120313AD00803057
:100DA000AE000A168A113D250A128A11932EF20806
:100DB000031DDB2EDC2E932E74080A168A11A9233C
:100DC0000A128A11932EF208031DE72EE82E932EA5
:100DD00074080A168A1179230A128A117430840061
:100DE0000008840A00040319F62EF72E0B2F463054
:100DF00083160313B2008030B3000030B7002F30E9
:100E0000B600AF30B5000830B4000A128A150423CA
:100E10000A128A11932E463083120313AD008030DC
:100E2000AE000A168A113D250A128A11932EF20885
:100E3000031D1B2F1C2F932E74080A168A11892359
:100E40000A128A11932EC93083160313B200803020
:100E5000B300740883120313A4007508A500A6014B
:100E6000A7010030AB000030AA000030A9007D309F
:100E7000A8000A128A1505200A128A118313831208
:100E80000313270883160313B700831203132608DE
:100E900083160313B6008312031325088316031366
:100EA000B50083120313240883160313B4000A1237
:100EB0008A1504230A128A11013083120313B60023
:100EC0003608D807E72FF208031D672F682F7E2EFC
:100ED0005C2F7208031D6D2F932E7408013E831240
:100EE0000313B6003608D707992EF208031D792F91
:100EF0007A2F932E6D2FF208031D7F2F802F932EB4
:100F0000C33083160313B2008030B3007408B400FA
:100F10007508B500B601B7010A128A1504230A1232
:100F20008A1101300A168A11A9230A128A11932EF6
:100F30004C3083120313AD008030AE000A168A11C4
:100F40003D250A128A11463083120313AD0080300A
:100F5000AE000A168A113D250A128A1103100030CC
:100F60000318013083120313D700872E03100030BB
:100F70000318013083120313D700E72F7308003AD8
:100F800003195C2E013A03198D2E033A03199C2E86
:100F9000013A0319A32E073A0319D72E013A031970
:100FA000E32E033A0319172F0E3A0319232F013AA0
:100FB0000319632F193A0319692F013A0319752F81
:100FC000033A03197B2FEC3A0319982FB62F080028
:100FD0000C3083160313990018151812831203138B
:100FE000981718169812831603130C128C121813E4
:100FF000831203131813831603139812981608000C
:1010000008008312031358080800003083120313EA
:10101000A3000030A2000030A1000030A000241C7A
:10102000122813282A282808A007290803110318C2
:10103000013E03191C28A1072A0803110318013EC9
:1010400003192328A2072B0803110318013E0319D3
:101050002A28A3070130F6000310A80DA90DAA0D38
:10106000AB0DF60B2C2801300310A70CA60CA50C19
:10107000A40CFF3E031D342827082604250424045D
:10108000031D432844280F282308A7002208A60090
:101090002108A5002008A4000800A428C930831254
:1010A0000313B1008030B2000A128A15BB240A1261
:1010B0008A15003A03195D285E28AC280130831296
:1010C0000313B3003308D7070330D802AC287430B9
:1010D00084000008840A000403196F2870288E28F1
:1010E0000A168A111A220A128A15003A0319792857
:1010F0007A28AC284C3083120313AD008030AE0048
:101100000A168A113D250A128A150130831203132B
:10111000B3003308D7070330D802AC280A168A1167
:101120001A220A128A150038031D97289828AC281D
:10113000463083120313AD008030AE000A168A11C8
:101140003D250A128A1585287308083A03194E2886
:10115000013A031967285E280800F8008312031378
:101160005908A400A5012408A0002508A100033007
:10117000A2000030A3000A168A1189250A128A15D6
:101180005B3083138312031320078400033003189A
:10119000043021070A168A1100220A128A15A600B5
:1011A00078088400260880005908A400A5012408B6
:1011B000A0002508A1000330A2000030A3000A16F9
:1011C0008A1189250A128A158313831203132008B2
:1011D000013EA60021080318013E003EA7005B3037
:1011E000260784000330031804302707A9000A16D5
:1011F0008A1100220A128A15A800840A0319A90A72
:1012000029080A168A1100220A128A15A9007808EC
:10121000013E840028088000840A290880000130EB
:1012200008007B290310003003180130DA00013078
:10123000F9007908D6070A305602031C2029212913
:1012400026290310003003180130D6005A080A126C
:101250008A1115200A128A1588290A307A02031881
:101260003229332936290A30FA005F2919307A02E7
:1012700003183B293C293F291930FA005F293230F5
:101280007A0203184429452948293230FA005F2997
:101290004B307A0203184D294E2951294B30FA0060
:1012A0005F2964307A020318562957295A29643075
:1012B000FA005F290310003003180130FA00A03053
:1012C00083160313B2008030B3000030B700033040
:1012D000B600D030B5009030B4000A128A1504234D
:1012E0000A128A15831203135A080A128A1115204A
:1012F0000A128A158829831203135A08003A03191F
:101300001729013A03192D29033A031988291229AB
:1013100008004C3083120313B1008030B2000A126F
:101320008A15BB240A128A15003A031998299929AB
:101330009929463083120313B1008030B2000A129B
:101340008A15BB240A128A15003A0319A829A9296B
:10135000A929C33083120313B1008030B2000A12EE
:101360008A15BB240A128A15003A0319B829B9292B
:10137000F02900300A168A11A9230A128A15C330EF
:1013800083120313AD008030AE000A168A113D258A
:101390000A128A15F02957080A168A1146230A12DA
:1013A0008A15013083120313B8003808D807032ABE
:1013B00073300A168A1157230A128A15003A031944
:1013C000E229E329032AD1290A128A115B260A128B
:1013D0008A15032A0A128A154D200A128A15032A31
:1013E000831203135808003A0319032A013A031918
:1013F000CB29033A0319D829013A0319E429073AFA
:101400000319EA29032A080083120313B608031DEF
:101410000A2A0B2A3E2AF114403083160313B20025
:101420008030B3000030B7000530B600B830B500EA
:10143000D830B4000A128A1504230A128A15711CC6
:10144000222A232A242A7017F01A272A282A342A23
:101450000310003003180130F80001300A168A1119
:10146000B9230A128A15832AF8010314F80D55309E
:101470000A168A11C8230A128A15832AF110701BD2
:10148000422A432A572AF01E462A472A512AF8019F
:101490000314F80DFF300A168A11C8230A128A15A0
:1014A000832A0A168A1199230A128A15832A711827
:1014B0005A2A5B2A832A4030B1008030B2000A12D7
:1014C0008A15BB240A128A15003A0319682A692A68
:1014D0006F2A0A168A11A0240A128A15822AF01E7F
:1014E000722A732A7D2AF8010314F80DFF300A16B8
:1014F0008A11C8230A128A15822A0A168A11D82448
:101500000A128A157013080083120313B608031D0C
:101510008A2A8B2ABE2A7114403083160313B20024
:101520008030B3000030B7000530B600B830B500E9
:10153000D830B4000A128A1504230A128A15F11C45
:10154000A22AA32AA42A7017F01AA72AA82AB42A22
:101550000310003003180130F80001300A168A1118
:10156000B9230A128A15032BF8010314F80D55301C
:101570000A168A11C8230A128A15032B7110701BD0
:10158000C22AC32AD72AF01EC62AC72AD12AF8019E
:101590000314F80DFF300A168A11C8230A128A159F
:1015A000032B0A128A1511210A128A15032BF1182E
:1015B000DA2ADB2A032B4030B1008030B2000A1255
:1015C0008A15BB240A128A15003A0319E82AE92A67
:1015D000EF2A0A168A11A0240A128A15022BF01E7D
:1015E000F22AF32AFD2AF8010314F80DFF300A1637
:1015F0008A11C8230A128A15022B0A168A11D824C6
:101600000A128A1570130800831603133308831215
:101610000313B501B50783160313320883120313AE
:10162000B401B40783160313330883120313A40110
:10163000A40783160313320883120313A301A3071D
:101640000A168A115A270A128A15831603133708B5
:10165000360435043404031D2E2B2F2B302B922BF4
:1016600083120313340884008317351C8313000886
:10167000B000840A0008B100840A0008B200840A9D
:101680000008B300340884008317351C83138316C5
:10169000031334088007840A35080318013E031D2C
:1016A0008007840A36080318013E031D8007840A58
:1016B00037080318013E800783120313340884009F
:1016C0008317351C83130008AC00840A0008AD00A2
:1016D000840A0008AE00840A0008AF002F08330215
:1016E000031D7C2B2E083202031D7C2B2D0831029A
:1016F000031D7C2B2C083002031C7F2B802B922B8C
:101700003408043EAC0035080318013E003EAD002D
:101710002C08840083172D1C831301308007840A52
:101720000318800A08001130831603138500031084
:10173000003003180130831203138500073083162D
:1017400003139F00831203138514FB3083160313C6
:101750008600031000300318013083120313860043
:10176000831603138113831203130B108B150615B5
:10177000C0308316031387000310003003180130B4
:1017800083120313870003100030031801308316FF
:101790000313880001308312031388000310003004
:1017A0000318013083160313890003100030031857
:1017B00001308312031389000608E3000310003090
:1017C00003180130AC000E30AA002C080A168A114A
:1017D00085240A128A150C3E903E84008317000867
:1017E00083120313AB000E30AA002C080A168A11CC
:1017F00085240A128A150B3E903E84008317000848
:10180000840083130008831203132B05F8000E30A5
:10181000AA002C080A168A1185240A128A150A3E83
:10182000903E84007808831780000130F800780823
:1018300083120313AC0704302C02031C202C212C30
:10184000E32B00300800A63083120313B100803070
:10185000B2000A128A15BB240A128A15003A03192B
:10186000322C332CBA2CA63083160313B2008030EE
:10187000B3000030B7000130B600E830B5004830A2
:10188000B4000A128A1504230A128A150A168A114C
:101890006B240A128A158316031311081F39831249
:1018A0000313B600B70103108316031314190314AE
:1018B000003003180130831203133604B8003708D0
:1018C000B90039083804031D662C672C4B2C83168D
:1018D000031311148316031311081F398312031302
:1018E000B600B70103108316031314190314003054
:1018F00003180130831203133604B8003708B90007
:1019000039083804031D852C862C6A2CA0309300DE
:101910008316031311081F3983120313B600B7018E
:101920000310831603131419031400300318013035
:10193000831203133604B8003708B9003908380495
:10194000031DA32CA42C882C83160313111BA92C74
:10195000AA2CB12C41300A168A1162250A128A1566
:10196000B72C4E300A168A1162250A128A15831680
:10197000031311150800B23083120313A300803043
:10198000A4000A168A115A270A128A158312031311
:101990003108023EAB0032080318013E003EAC00A5
:1019A0002B08840083172C1C83130008AD00840AC5
:1019B0000008AE00840A0008AF00840A0008B000E6
:1019C0000230B23E84002D0883130006840F031DED
:1019D000F52C2E080006840F031DF52C2F08000699
:1019E000840F031DF52C30080006031DF82CF92C7C
:1019F000182D310884008317321C83130008AB00B4
:101A0000013084070008AC002C088316031333024E
:101A1000031D102D831203132B08831603133202A8
:101A2000031C132D142D162D0130532D0030532D72
:101A30003108023EAB0032080318013E003EAC0004
:101A40002B08840083172C1C83130008AD00840A24
:101A50000008AE00840A0008AF00840A0008B00045
:101A6000831603133708831203133002031D4E2D10
:101A7000831603133608831203132F02031D4E2D02
:101A8000831603133508831203132E02031D4E2DF4
:101A9000831603133408831203132D020318512DE8
:101AA000522D162D142D0800AC3083120313B100F3
:101AB0008030B2000A128A15BB240A128A15003A35
:101AC0000319632D642DBA2DAC3083160313B200B5
:101AD0008030B3000030B7000030B6003030B500C1
:101AE000D430B4000A128A1504230A128A15711917
:101AF0007A2D7B2D912D8316031385146330831269
:101B00000313B700B70B822D852D8312031306082C
:101B10000839E400FD30B700370883160313850544
:101B2000962D8312031306080839E4008312640813
:101B3000610603199C2D9D2DBA2DAC30831603131D
:101B4000B2008130B300B230840083170008B400C3
:101B5000840A0008B500840A0008B600840A000858
:101B6000B7000A128A1504230A128A158312031376
:101B70006408E10083120313060883160313B900F7
:101B8000390883120313630683160313BB00390855
:101B900083120313E300831603133B1CD02DD12DB6
:101BA000E82D9030B2008130B30096308400831766
:101BB0000008B400840A0008B500840A0008B600D2
:101BC000840A0008B7000A128A1504230A128A152B
:101BD00083160313BB1EED2DEE2D052E9E30B20095
:101BE0008130B300A430840083170008B400840A55
:101BF0000008B500840A0008B600840A0008B7008F
:101C00000A128A1504230A128A1583160313BB1CB1
:101C10000A2E0B2E222EBA30B2008130B300C03013
:101C2000840083170008B400840A0008B500840A01
:101C30000008B600840A0008B7000A128A150423B7
:101C40000A128A150310003003180130831603139B
:101C5000BB000E3083120313AA00831603133B0844
:101C60000A168A1185240A128A15903E83120313DC
:101C7000B1008130B2000A128A15BB240A128A15FB
:101C8000003A0319442E452ED22E0E308312031330
:101C9000AA00831603133B080A168A1185240A1228
:101CA0008A150B3E903E840083170008840083133E
:101CB000000883160313BA000E3083120313AA0020
:101CC000831603133B080A168A1185240A128A1503
:101CD0000C3E903E84008317000883120313B70064
:101CE000370883160313BA050E3083120313AA00B4
:101CF000831603133B080A168A1185240A128A15D3
:101D00000A3E903E840083170008831603133A06A8
:101D100003198B2E8C2EBC2E3A0883120313B600A7
:101D20000E30AA00831603133B080A168A11852475
:101D30000A128A150D3E903E8400831700080A1689
:101D40008A1100230A128A15831603133A08831294
:101D50000313B7000E30AA00831603133B080A16BC
:101D60008A1185240A128A150A3E903E8400831245
:101D700003133708831780000E308312AA008316DE
:101D800003133B080A168A1185240A128A15903E0D
:101D900083120313AD008130AE000A168A113D256F
:101DA0000A128A15013083120313B700370883160D
:101DB0000313BB0704303B02031CDF2EE02E292E49
:101DC0000310003003180130BB000B3083120313E3
:101DD000AA00831603133B080A168A1185240A12E7
:101DE0008A15103E83120313B1008130B2000A122B
:101DF0008A15BB240A128A15003A0319002F012FF5
:101E0000F12F0B3083120313AA00831603133B0830
:101E10000A168A1185240A128A15063E103E84008D
:101E20008317000883160313B8000B3083120313C3
:101E3000AA00831603133B080A168A1185240A1286
:101E40008A15103E83160313B2008130B3000030B0
:101E5000B7000030B6003D30B5000930B4000A12BA
:101E60008A1504230A128A150B3083120313AA0061
:101E7000831603133B080A168A1185240A128A1551
:101E8000073E103E840083170008831603133805AD
:101E900003194B2F4C2F762F0B3083120313AA00FC
:101EA000831603133B080A168A1185240A128A1521
:101EB0000A3E103E84008317000883120313B70004
:101EC0000B30AA00831603133B080A168A118524D7
:101ED0000A128A15093E103E840083170008840008
:101EE000831203133708831380049F2F0B30831250
:101EF0000313AA00831603133B080A168A118524CC
:101F00000A128A150A3E103E8400831700098312C4
:101F10000313B7000B30AA00831603133B080A16FD
:101F20008A1185240A128A15093E103E84008317FF
:101F300000088400831203133708831380050B30D5
:101F4000AA00831603133B080A168A1185240A1275
:101F50008A15063E103E840003108317800D80080A
:101F6000031DB32FB42FF12F0B3083120313AA00DC
:101F7000831603133B080A168A1185240A128A1550
:101F8000063E103E8400831780010314800D0B3041
:101F900083120313AA00831603133B080A168A113F
:101FA00085240A128A15083E103E84008317800893
:101FB000031DDB2FDC2FF12F03100B3083120313D3
:101FC000AA00831603133B080A168A1185240A12F5
:101FD0008A15073E103E8400003003180130831735
:101FE0008000013083120313B700370883160313F0
:101FF000BB0705303B02031CFE2FFF2FE52E080018
:10240000FE00FE1F082A83137E18831700080800A9
:102410008A000408820064008001840A040603190B
:10242000003404060C2A831203130608E5000B1778
:102430008B170800003083120313E41D01300800DD
:10244000F600760883120313D900080008006434EC
:10260000FE0013308A007E08820700000A128A1535
:10261000842A0A128A15042A0A168A11262A0A16F8
:102620008A11FE2BF7007708031D172B1C2B711541
:10263000831603138514232B7111FD30F6007608E1
:102640008316031385050800543083160313920084
:102650007D308312031392002A3095001F309700BB
:102660008C10831603138C1408007E088A007F08E0
:10267000820035230A168A118000840A04087D0628
:1026800003190034FF0A0319FE0A392BF7004F2BF8
:1026900077080A168A1120220A168A11562B8312ED
:1026A00003135D08003A0319482B562B08008312C8
:1026B0000313AA00622B2A080A128A15AD200A16F3
:1026C0008A11672B5D08003A03195B2B5B2B08000E
:1026D00083120313D708031D6E2B6F2B782B031067
:1026E000003003180130D7000130F6007608D80713
:1026F0000800F7007708031D7E2B822B831203133B
:102700008814882BFD30F6007608831203138805A1
:102710000800F7007708031D8E2B922B83120313FA
:102720000815982BFB30F6007608831203138805F2
:1027300008000A128A1501200A168A110038031DA2
:10274000A22BA32BA82B0A168A1168230A168A111A
:102750000800F7007708031DAE2BB22B831203137A
:102760008815B82BF730F600760883120313880516
:102770000800F7008312031796010314960D7708DB
:10278000F600760897007808F600760898000800AA
:10279000F70083120317AC010314AC0D7708F600A1
:1027A0007608AD007808F6007608AE000800F01F45
:1027B000DA2BDB2BE42B83120313061EE02BE12B19
:1027C000E42B8316031307157016080083120313F6
:1027D00090109016101690111011101483160313F8
:1027E0000C140800FF34FF34FF34FF34FF34FF348F
:1027F000FF34FF34FF34FF34FF34FF340800080097
:10280000F70083120317A1010314A10D7708F60046
:102810007608A200831203132008F60076088312BC
:102820000317A3000800F70083120317B70103146E
:10283000B70D7708F6007608B80083120313200856
:10284000F600760883120317B9000800F700831218
:102850000317C2010314C20D7708F6007608C300FF
:10286000831203132008F600760883120317C400AE
:102870000800FF34FF34FF34FF34FF34FF34FF34EB
:10288000FF34FF34FF34FF34FF34FF34FF34FF34B0
:10289000FF34FF34FF34FF34FF34FF34FF34FF34A0
:1028A000FF34013083120313D207003003110318E1
:1028B000013E03195C2CD307003003110318013EBD
:1028C0000319632CD407003003110318013E0319C8
:1028D0006A2CD50708001830F60076088316031313
:1028E0008704383083120313940003100030031858
:1028F00001308316031391000A30930014179417C4
:10290000831203138C138D11080083120313A90083
:102910000310003003180130A800291C902C912CC2
:10292000952C2A08F7007708A8070310AA0D0310B2
:10293000A90CA908031D9D2C9E2C8D2C280808008D
:102940002030F006F01EA52CA62CB02CF8010314A4
:10295000F80DFF300A168A11C8230A168A11BB2CFB
:102960000310003003180130F80000300A168A11F5
:10297000C8230A168A110800F01FBF2CC02CCC2CCB
:10298000831603130715F0137011701EC82C7015F1
:10299000831203139214D72C7012FB308316031387
:1029A000BD003D088705F01783120313921008003D
:1029B00083120313DA010314DA0DA0308316031314
:1029C000B2008030B3000030B7000330B600D03022
:1029D000B5009030B4000A128A1504230A168A1131
:1029E000831203135A080A128A1115200A168A1133
:1029F0000800F7000F2DCF30F6007608831203137E
:102A000088051A2D83120313081688161A2DEF3025
:102A1000F600760883120313880588161A2D7708A6
:102A2000003A0319FB2C013A0319022D033A03194A
:102A3000072DFB2C0800F700312D3F30F6007608FB
:102A40008312031388053C2DBF30F60076088312ED
:102A50000313880588173C2D831203130817881762
:102A60003C2D7708003A03191D2D013A03192C2D2E
:102A7000033A0319242D1D2D0800831203132D087A
:102A8000840083172E1C8313FF308000840AFF30DC
:102A900080002D08023EAB002E080318013E003EC8
:102AA000AC002B08840083172C1C8313FF3080009C
:102AB000840AFF308000840AFF308000840AFF30DF
:102AC00080000800F7007B2D981C672D682D702D65
:102AD00083160313981298168312031318121816EC
:102AE000181D732D742D7A2D1A08DB00831603131D
:102AF000981298166400831203130C1E802D812DEA
:102B0000642D770899001330F600F60B852D882D7B
:102B100008000030F6000030F70083120313201C79
:102B2000922D932D992D2208F6070318F70A2308F2
:102B3000F70701300310A20DA30DFF3E031D9A2DD0
:102B400001300310A10CA00CFF3E031DA12D210894
:102B50002004031DAC2DAD2D8D2D7708A101A107FB
:102B60007608A001A0070800831203135A08013A4F
:102B7000031DBB2DBC2DDE2DA030B1008030B20076
:102B80000A128A15BB240A168A11003A0319C92DA4
:102B9000CA2DDE2D831203135C08031DD02DD32D07
:102BA0000230DA00D82D0310003003180130DA00AB
:102BB0005A080A128A1115200A168A1108000034D0
:102BC0000034003400340034003401340034003464
:102BD000073402340034003400340034003400344C
:102BE000013400340034073401340034003400343C
:102BF0000034003400340134003400340934043427
:102C00000034003400340034003400340134003423
:102C1000003409340134003400340034003400340A
:102C2000003401340034003409340234FF34FF34FA
:102C3000FF34FF34FF34FF346A3418340034003476
:102C40000134063401340434FF34FF34FF34FF34DC
:102C5000FF34FF346A34183400340034203406342E
:102C600020340134FF34FF34FF34FF34FF34FF34A9
:102C70009034D034033400340034643408340734DE
:102C8000FF34FF34FF34FF34FF34FF346A34183428
:102C9000003400340034063402340A34831203133F
:102CA000A000662E0730A2002030A100742E05304F
:102CB000A2000430A100742E0530A2000830A1004B
:102CC000742E0530A2002030A100742E2008013A95
:102CD0000319522E033A0319572E013A03195C2E99
:102CE000073A0319612E872E7708031D782E802E50
:102CF0002108F60022088400760883138004872EBA
:102D00002109F60022088400760883138005080054
:102D1000831203130C1C8D2E8E2E942E0C100A166B
:102D20008A1151240A168A11831203138C1C992EBE
:102D30009A2EA02E8C100A168A11BC240A168A110B
:102D4000831203130B1CA52EA62EB92E0B100608FA
:102D5000650683160313C200421EAF2EB02EB52E99
:102D60000A168A11D7230A168A118312031306083A
:102D7000E500831603134108FE0040088A003F085F
:102D800084003E088300FF0E7F0E09000A128A1598
:102D900093230A168A110A168A11E6230A168A1143
:102DA0000A168A116B240A168A110A128A11E82758
:102DB0000A168A110A168A1124230A168A110A127F
:102DC0008A1500200A168A110A128A1103200A168F
:102DD0008A110A168A1113220A168A110A168A11F2
:102DE0000B270A168A110A128A1554250A168A1107
:102DF0000A168A11B4250A168A110A128A1589211F
:102E00000A168A110A128A1523240A168A11EE2E2E
:102E10000A128A111228F0190E2F102F0130112FCB
:102E2000003083120313B6007019172F192F0130C9
:102E30001A2F0030360603191E2F1F2F362F3A3057
:102E400083160313B2008030B3000030B7000030A7
:102E5000B6000D30B5003230B4000A128A150423D2
:102E60000A168A11F011701D362FF0153A308312B0
:102E70000313B1008030B2000A128A15BB240A166F
:102E80008A11003A0319452F462F592F0030701927
:102E900001300A168A11FF230A168A113A3083126A
:102EA0000313AD008030AE000A168A113D250A16C4
:102EB0008A110800831203132408A101A107230823
:102EC000A001A0070F08A2002308023EF600240874
:102ED0000318013E003EF700760884008317771C34
:102EE000831352088000840A53088000840A54081F
:102EF0008000840A550880000E08F600200884002F
:102F00008317211C8313760880000F08F600200821
:102F1000013EF70021080318013E003EF800770843
:102F200084008317781C8313760880002008013EF4
:102F3000F60021080318013E003EF70076088400E1
:102F40008317771C831300082206031DA82FA92FBF
:102F5000622F0800F001F101F201F301F401F50123
:102F600083135230840065300A168A110B220A1628
:102F70008A11A0308400B2300A168A110B220A1678
:102F80008A110A168A1127220A168A11FA0052306B
:102F9000FD001430FE003930FF003A3084000A167C
:102FA0008A1139230A168A11CF30FD001330FE0032
:102FB000F230FF00C33084000A168A1139230A1642
:102FC0008A118317C830FD001630FE001630FF004E
:102FD000903084000A168A1139230A168A11473064
:102FE000FD001530FE00DF30FF00103084000A16AF
:102FF0008A1139230A168A1183010A168A11C62EEC
:02400E00713708
:00000001FF
