:100000000A128A1112280800FF000308831603133E
:10001000DA000408DB000A08DC007E08DD000A16AE
:100020008A110D2C0A168A11732D83120313A30053
:100030002308450603191D281E284F2B5A2B031091
:10004000003003180130C5000310003003180130E0
:10005000A00000300A168A114F220A128A110A30B3
:100060007A02031C34283528432803100030031873
:10007000013083120313A00000300A168A112B22CC
:100080000A128A11782A83120313A0010314A00D07
:1000900055300A168A112B220A128A11782A031067
:1000A000003003180130C000031000300318013085
:1000B000F70001300A168A11D3230A128A1103109D
:1000C000003003180130F70002300A168A11D323DA
:1000D0000A128A110310003003180130F7000330B0
:1000E0000A168A11D3230A128A110310003003184A
:1000F0000130F70004300A168A11D3230A128A113C
:10010000031000300318013083120313A0000030E5
:100110000A168A1173220A128A115A2BF701031444
:10012000F70D01300A168A11D3230A128A1103101F
:10013000003003180130F70002300A168A11D32369
:100140000A128A110310003003180130F70003303F
:100150000A168A11D3230A128A11031000300318D9
:100160000130F70004300A168A11D3230A128A11CB
:10017000031000300318013083120313A000003075
:100180000A168A1173220A128A115A2B03100030A0
:1001900003180130F70001300A168A11D3230A121E
:1001A0008A11F7010314F70D02300A168A11D323BE
:1001B0000A128A110310003003180130F7000330CF
:1001C0000A168A11D3230A128A1103100030031869
:1001D0000130F70004300A168A11D3230A128A115B
:1001E000031000300318013083120313A000003005
:1001F0000A168A1173220A128A115A2B0310003030
:1002000003180130F70001300A168A11D3230A12AD
:100210008A110310003003180130F70002300A166B
:100220008A11D3230A128A11F7010314F70D033040
:100230000A168A11D3230A128A11031000300318F8
:100240000130F70004300A168A11D3230A128A11EA
:10025000031000300318013083120313A000003094
:100260000A168A1173220A128A115A2B03100030BF
:1002700003180130F70001300A168A11D3230A123D
:100280008A110310003003180130F70002300A16FB
:100290008A11D3230A128A11031000300318013087
:1002A000F70003300A168A11D3230A128A11F701C4
:1002B0000314F70D04300A168A11D3230A128A1187
:1002C000031000300318013083120313A000003024
:1002D0000A168A1173220A128A115A2BF701031483
:1002E000F70D01300A168A11D3230A128A1103105E
:1002F000003003180130F70002300A168A11D323A8
:100300000A128A110310003003180130F70003307D
:100310000A168A11D3230A128A1103100030031817
:100320000130F70004300A168A11D3230A128A1109
:1003300083120313A0010314A00DFF300A168A11C3
:1003400073220A128A115A2BF7010314F70D013098
:100350000A168A11D3230A128A11F7010314F70D22
:1003600002300A168A11D3230A128A1103100030B0
:1003700003180130F70003300A168A11D3230A123A
:100380008A110310003003180130F70004300A16F8
:100390008A11D3230A128A1183120313A0010314B2
:1003A000A00DFF300A168A1173220A128A115A2BE5
:1003B000F7010314F70D01300A168A11D3230A122C
:1003C0008A110310003003180130F70002300A16BA
:1003D0008A11D3230A128A11F7010314F70D03308F
:1003E0000A168A11D3230A128A1103100030031847
:1003F0000130F70004300A168A11D3230A128A1139
:1004000083120313A0010314A00DFF300A168A11F2
:1004100073220A128A115A2BF7010314F70D0130C7
:100420000A168A11D3230A128A1103100030031806
:100430000130F70002300A168A11D3230A128A11FA
:100440000310003003180130F70003300A168A1138
:10045000D3230A128A11F7010314F70D04300A1688
:100460008A11D3230A128A1183120313A0010314E1
:10047000A00DFF300A168A1173220A128A115A2B14
:100480000310003003180130F70001300A168A11FA
:10049000D3230A128A110310003003180130F70029
:1004A00002300A168A11D3230A128A11031000306F
:1004B00003180130F70003300A168A11D3230A12F9
:1004C0008A110310003003180130F70004300A16B7
:1004D0008A11D3230A128A1183120313A001031471
:1004E000A00DFF300A168A1173220A128A115A2BA4
:1004F000831203134008003A03195428013A0319E0
:100500008E28033A0319C628013A0319FE28073A30
:1005100003193629013A03196E29033A0319A4294C
:10052000013A0319D8290F3A03190C2A013A031981
:10053000402A4F280310003003180130A00000307B
:100540000A168A114F220A128A1183120313A0017C
:100550000314A00DFF300A168A112B220A128A11E9
:100560000A307A02003003180130F70001300A1611
:100570008A11D3230A128A1119307A020030031823
:100580000130F70002300A168A11D3230A128A11A9
:1005900032307A02003003180130F70003300A16B7
:1005A0008A11D3230A128A114B307A0200300318C1
:1005B0000130F70004300A168A11D3230A128A1177
:1005C00064307A02031CE52AE62AF22A8312031316
:1005D000A0010314A00DFF300A168A1173220A121B
:1005E0008A115A2B031000300318013083120313B1
:1005F000A00000300A168A1173220A128A115A2B9F
:10060000A0010314A00D55300A168A114F220A12B8
:100610008A11031000300318013083120313A00065
:1006200000300A168A112B220A128A118312031330
:100630004708013A003003190130F70001300A166B
:100640008A11D3230A128A11831203134708023A2C
:10065000003003190130F70002300A168A11D32343
:100660000A128A11831203134708033A0030031950
:100670000130F70003300A168A11D3230A128A11B7
:10068000831203134708043A003003190130F700BE
:1006900004300A168A11D3230A128A115A2B4508EC
:1006A000003A03192428013A03199A2A033A031934
:1006B000002B1F28080000341234063401340234A1
:1006C00000340234013400340834A13433340234A9
:1006D000003400340834DD3446340134013400344D
:1006E000083439341834013402340034023401340B
:1006F00000340834853416340234023400340834AB
:100700001434023402340034003408347634623451
:100710000234023400340834AF3429340234013452
:1007200000340834CA341934023402340034083432
:100730003434433402340134003408349F343134C7
:1007400002340034003408345D341234023401348D
:1007500000340834C3342B340234023400340834F7
:1007600014340234023400340034083476346234F1
:100770000234023400340834AF34293402340134F2
:1007800000340834C93419340234023400340834D3
:10079000AD344E34013401340034023401340034B9
:1007A0000834093455340234023400340834A43493
:1007B00003340234003400341034B83400340834C4
:1007C0004C342F3401340234003402340134003408
:1007D0000834C0340C340234023400340834143485
:1007E000023402340034003408348E345E3402346F
:1007F0000234003408344B342934023401340034D8
:100800000834CA3419340234023400340334013455
:1008100000340834F53442340134013400340234F5
:100820000034003408345034493402340134003484
:1008300008347634623402340234003408346C34C0
:1008400004340234003400340934013400340334F5
:100850000034003408345E34F83405340134003494
:100860000834763462340534003400340834FF34FC
:10087000FF340834C73427340534013400340834D5
:100880007634623405340034003408340A342034B9
:1008900005340134003408347634623405340034CD
:1008A000003408340A342034053401340034083468
:1008B000FF34FF340834513400340534003400343C
:1008C00003340134003408347A34D8340134023427
:1008D0000034043401340034083429340A34043434
:1008E000003400340134013400340934013400345C
:1008F0000334003400340834E234AB3405340134BA
:10090000003408347634623405340034003408345A
:10091000FF34FF340834C73427340534013400343D
:1009200008348E345E3405340034003408340A341C
:10093000203405340134003408348E345E340534F8
:100940000034003408340A342034053401340034CF
:100950000834FF34FF340834C734273405340034F6
:10096000003403340134003408349E3463340234D8
:10097000013400340834D5345234023402340034A3
:1009800001340034003404340134003408346C344D
:10099000043402340034003408346C342534043414
:1009A000003400340134023400340834D1341434B7
:1009B0000134013400340834BA34D83409340134F1
:1009C00000340334003400340834C334983405341C
:1009D000013400340134023400340834FF34FF346D
:1009E00008347134003401340134003408345B3489
:1009F0002734013400340034043401340034083422
:100A00004A342634013401340034043400340034D0
:100A10000834B6346234013402340034063401340C
:100A2000003408342C348A3401340134003408345E
:100A3000D934D8340134023400340834CD34893404
:100A40000534003400340834C4340634013401342D
:100A500000340834DA34D834013402340034083431
:100A6000ED3489340134013400340834DA34D834B4
:100A70000134023400340834ED3489340134013453
:100A8000003408346334B13401340234003408349F
:100A90004C348A340234023400340834FC342634B2
:100AA000023400340034013400340034043401349E
:100AB0000034083429340A34013402340034043454
:100AC0000034003408341034153402340134003456
:100AD00008343F3428340234003400340834AD3450
:100AE000893401340134003408346334B1340134BE
:100AF000023400340834ED348934013401340034D4
:100B000008346334B13401340234003408344C34D2
:100B10008A3402340234003408348C3428340234E9
:100B2000003400340134003400340434013400341F
:100B3000083429340A3401340234003404340034D3
:100B400000340834283411340234013400340834B9
:100B500033342A340234003400340834AD34893458
:100B60000134013400340834ED3489340134023462
:100B700000340834ED34893401340134003408344D
:100B8000EC34893401340234003408344C348A346F
:100B90000234023400340834EF342C34023400348C
:100BA0000034083479340834023401340034083411
:100BB000B7342D3402340034003408342334B134D3
:100BC0000134013400340834ED3489340134023402
:100BD000003408346334B13401340134003408344F
:100BE000ED34893401340234003408346334B134D0
:100BF0000134013400340834EC34893401340234D3
:100C0000003408346334B13401340134003408341E
:100C10004C348A3402340234003408342C34013425
:100C20000234003400340834AB342F34023402343C
:100C3000003408342C3401340234003400340834D5
:100C4000AB342F3402340234003408342C340134F1
:100C50000234003400340834DB34273402340234E4
:100C6000003408342C3401340234003400340834A5
:100C7000DA3427340234023400340834D2342334D2
:100C800002340134003408344A3419340234023452
:100C9000003408345C344734023401340034013405
:100CA00000340034083410340B340234003400347F
:100CB000FE3400340034BE2FFF307405831203135A
:100CC000B60000307505B700003037021330031945
:100CD000360203186C2E6D2E872E7208031D712E9E
:100CE000752EF518742E752E7E2EF208031D792EA2
:100CF0007A2E872E751D7D2E7E2E872E0130831233
:100D00000313B6003608C1070230C202E72F0310F2
:100D1000003003180130C200E72F74080A168A1148
:100D2000E7210A128A11013083120313B600360834
:100D3000C1070230C202E72F74080A168A1109227D
:100D40000A128A11932EF208031DA72EA82E932EA5
:100D500074080A168A11A7200A128A1174308400B6
:100D60000008840A00040319B62EB72ECB2E5D307E
:100D700083160313CC008030CD000130D100013048
:100D8000D0007D30CF00F830CE000A128A15EA215B
:100D90000A128A11932E5D3083120313AD00803046
:100DA000AE000A168A1197220A128A11932EF208AF
:100DB000031DDB2EDC2E932E74080A168A113020B8
:100DC0000A128A11932EF208031DE72EE82E932EA5
:100DD00074080A168A1120200A128A1174308400BD
:100DE0000008840A00040319F62EF72E0B2F573043
:100DF00083160313CC008030CD000030D1002F309B
:100E0000D000AF30CF000830CE000A128A15EA2198
:100E10000A128A11932E573083120313AD008030CB
:100E2000AE000A168A1197220A128A11932EF2082E
:100E3000031D1B2F1C2F932E74080A168A15F027EA
:100E40000A128A11932EC63083160313CC00803009
:100E5000CD00740883120313A4007508A500A60131
:100E6000A7010030AB000030AA000030A9007D309F
:100E7000A8000A168A118C240A128A11831383127D
:100E80000313270883160313D100831203132608C4
:100E900083160313D000831203132508831603134C
:100EA000CF0083120313240883160313CE000A1203
:100EB0008A15EA210A128A11013083120313B6003F
:100EC0003608C207E72FF208031D672F682F7E2E12
:100ED0005C2F7208031D6D2F932E7408013E831240
:100EE0000313B6003608C107992EF208031D792FA7
:100EF0007A2F932E6D2FF208031D7F2F802F932EB4
:100F0000C03083160313CC008030CD007408CE00AF
:100F10007508CF00D001D1010A128A15EA210A1200
:100F20008A1101300A168A1130200A128A11932E72
:100F30005D3083120313AD008030AE000A168A11B3
:100F400097220A128A11573083120313AD008030A2
:100F5000AE000A168A1197220A128A110310003075
:100F60000318013083120313C100872E03100030D1
:100F70000318013083120313C100E72F7308003AEE
:100F800003195C2E013A03198D2E033A03199C2E86
:100F9000013A0319A32E073A0319D72E013A031970
:100FA000E32E033A0319172F0E3A0319232F013AA0
:100FB0000319632F193A0319692F013A0319752F81
:100FC000033A03197B2FEC3A0319982FB62F080028
:100FD0000C3083160313990018151812831203138B
:100FE000981718169812831603130C128C121813E4
:100FF000831203131813831603139812981608000C
:101000000B3083120313CB0008000A128A157922D1
:101010000A128A150A168A1114200A128A150A164B
:101020008A11CD200A128A150A168A1570270A120B
:101030008A150A168A1571270A128A150A128A1148
:10104000E8270A128A150A168A1162200A128A15DE
:101050000A128A1103200A128A150A168A157227A3
:101060000A128A150A168A1536270A128A150A16CE
:101070008A11D4240A128A150A128A1554250A12D2
:101080008A150A168A11E3220A128A150A168A118B
:1010900005270A128A150A128A150A230A128A15C6
:1010A0000A128A15AE230A128A150A128A156121BC
:1010B0000A128A1537280A128A111228831203137A
:1010C000B908031D642865289828711551308316C6
:1010D0000313CC008030CD000030D1000530D000AB
:1010E000B830CF00D830CE000A128A15EA210A1291
:1010F0008A15F11C7C287D287E28F017701B81281A
:1011000082288E280310003003180130F8000130C7
:101110000A168A1132210A128A15DD28F8010314F1
:10112000F80D55300A168A114E210A128A15DD284B
:101130007111F01B9C289D28B128701FA028A128A0
:10114000AB28F8010314F80DFF300A168A114E215E
:101150000A128A15DD280A168A15D0270A128A155E
:10116000DD28F118B428B528DD285130B7008030CB
:10117000B8000A128A15DE200A128A15003A0319ED
:10118000C228C328C9280A168A1116210A128A15EC
:10119000DC28701FCC28CD28D728F8010314F80DBF
:1011A000FF300A168A114E210A128A15DC280A1607
:1011B0008A11C6210A128A15F013080031308312F1
:1011C0000313A3008030A4000A168A1123250A12F3
:1011D0008A15831203133708023EAB003808031840
:1011E000013E003EAC002B08840083172C1C8313A7
:1011F0000008AD00840A0008AE00840A0008AF00B1
:10120000840A0008B0000230313E84002D088313A8
:101210000006840F031D18292E080006840F031DE5
:1012200018292F080006840F031D1829300800060E
:10123000031D1B291C293529370884008317381CF6
:1012400083130008AB00013084070008AC002C08B1
:101250003202031D2D292B083102031C30293129AC
:10126000332901306029003060293708023EAB0085
:1012700038080318013E003EAC002B088400831799
:101280002C1C83130008AD00840A0008AE00840AF9
:101290000008AF00840A0008B00036083002031DC1
:1012A0005B2935082F02031D5B2934082E02031D1C
:1012B0005B2933082D0203185E295F293329312960
:1012C00008008316031311081F3983120313A000AB
:1012D000A10103108316031314190314003003181B
:1012E0000130831203132004A2002108A300230865
:1012F000220403197C297D29C029E92983160313B7
:10130000111401308312A0002008CB07E929031033
:1013100000300318013083120313CB00E929831630
:1013200003139114812944089300812970148316B2
:101330000313111F9C29701087298316031391151D
:1013400081291308C40081290130F6000030F7001C
:10135000701CAB29AC29B0290030F6000030F70032
:101360007618B329B729831603139116BA29831661
:101370000313911211168129831603131115812964
:101380004B08003A0319E929013A03197E29033A67
:1013900003198729013A03198F29073A0319872965
:1013A000013A03199329033A03199629013A0319BB
:1013B0009D290F3A0319A129013A0319A429033AD7
:1013C00003198729013A0319BC29073A0319872908
:1013D000E9290800831603134D0883120313B5018E
:1013E000B507831603134C0883120313B401B40723
:1013F000831603134D0883120313A401A407831655
:1014000003134C0883120313A301A3070A168A11BE
:1014100023250A128A1583160313510850044F041A
:101420004E04031D142A152A162A782A8312031340
:10143000340884008317351C83130008B000840A25
:101440000008B100840A0008B200840A0008B30052
:10145000340884008317351C8313831603134E0846
:101460008007840A4F080318013E031D8007840A81
:1014700050080318013E031D8007840A5108031811
:10148000013E800783120313340884008317351C40
:1014900083130008AC00840A0008AD00840A000829
:1014A000AE00840A0008AF002F083302031D622A31
:1014B0002E083202031D622A2D083102031D622A02
:1014C0002C083002031C652A662A782A3408043E58
:1014D000AC0035080318013E003EAD002C08840026
:1014E00083172D1C831301308007840A0318800A98
:1014F0000800113083160313850003100030031811
:1015000001308312031385000730831603139F00F5
:10151000831203138514FB30831603138600031014
:10152000003003180130831203138600831603135F
:101530008113831203130B108B1506150708D83877
:101540008316031387000310003003180130831241
:1015500003138700031000300318013083160313B0
:101560008800013083120313880003100030031831
:101570000130831603138900031000300318013073
:101580008312031389000608CD00031000300318EE
:101590000130AC000E30AA002C080A168A11FB207C
:1015A0000A128A150C3E103E84008317000883122D
:1015B0000313AB000E30AA002C080A168A11FB2078
:1015C0000A128A150B3E103E84008317000884001F
:1015D00083130008831203132B05F8000E30AA00B2
:1015E0002C080A168A11FB200A128A150A3E103EA0
:1015F00084007808831780000130F800780883128F
:101600000313AC0704302C02031C072B082BCA2A37
:101610000030080083120313CF08031D102B112B79
:10162000382BAE30B7008030B8000A128A15DE20A1
:101630000A128A15003A03191E2B1F2B382BAE30C5
:1016400083160313CC008030CD000030D100013070
:10165000D000E830CF004830CE000A128A15EA21C7
:101660000A128A15013083120313B9003908CF0713
:101670000A168A152F270A128A15003A0319412BD8
:10168000422B972BAD2B0A168A1564270A128A154E
:101690000A168A114B240A128A150A300A168A1170
:1016A000BC220A128A1510300A168A150B270A1254
:1016B0008A15013083120313B9003908CF07AD2B07
:1016C0000230A00063300A168A110E230A128A150E
:1016D000592B0A168A155B270A128A15592BD23004
:1016E0000A168A1188210A128A15831603135208D2
:1016F0000A168A114B240A128A150A300A168A1110
:10170000BC220A128A15013083120313B90039086A
:10171000CF0700300A168A150B270A128A15031004
:1017200000300318013083120313CF00AD2B831256
:1017300003134F08003A0319AD2B013A0319432B49
:10174000033A0319602B013A0319692B073A03196D
:101750006F2B013A0319892BAD2B08000A168A1545
:101760003D270A128A15003A0319B72BB82BF52C1E
:10177000532D0A168A154A270A128A150130831238
:101780000313A4002408CE07532D031000300318C0
:101790000130F80050300A168A15C1270A128A153E
:1017A000BE2B00300A168A1527270A128A15BE2B6F
:1017B0000A168A1556270A128A15BE2BF801031439
:1017C000F80D50300A168A15C1270A128A15BE2B49
:1017D00000300A168A1515270A128A15BE2B0A161A
:1017E0008A156C270A128A1583160313A0000A12A1
:1017F0008A1500200A128A150310003003180130E0
:1018000083120313CE00532D031000300318013050
:10181000F80050300A168A15C1270A128A15BE2B05
:1018200000300A168A1527270A128A15BE2B83163E
:10183000031320080A168A1527270A128A15BE2BB9
:101840000A168A1560270A128A150038031D292CEA
:101850002A2CF72B4E300A168A11BC220A128A153E
:10186000F72B0310003003180130F80050300A162F
:101870008A15C1270A128A15BE2B01300A168A154D
:1018800027270A128A15BE2BF8010314F80D5030D1
:101890000A168A15C1270A128A15BE2B01300A16AC
:1018A0008A1515270A128A15BE2B0A168A156C2767
:1018B0000A128A1583120313C900C908031D612C7B
:1018C000622C652C1630CE00532D09304902031CC2
:1018D0006A2C6B2C6D2C0830C900031000300318E3
:1018E000013083120313C800BE2B490848020318B5
:1018F0007A2C7B2C942C4808013EA400003003185D
:101900000130A5002508803AA60080302602031D7C
:101910008B2C490824020030031C01300A168A155A
:1019200015270A128A15BE2B1730CE00532D0A1622
:101930008A156C270A128A1583120313A40048081B
:10194000A03E84002408831380000130A4002408F2
:10195000C8070130CE02532D00300A168A1515270C
:101960000A128A15BE2B0310003003180130F8004C
:1019700050300A168A15C1270A128A15BE2B01306B
:101980000A168A1527270A128A15BE2B49080A1635
:101990008A1527270A128A156D2C49084802031850
:1019A000D22CD32CBE2B4808A03E84008313000801
:1019B0000A168A1527270A128A1501308312031383
:1019C000A4002408C807532D0A168A1560270A1296
:1019D0008A150038031DED2CEE2CF72B4E300A161D
:1019E0008A11BC220A128A15F72B831203134E08A0
:1019F000003A0319532D013A0319B92B033A03197D
:101A0000C52B013A0319D12B073A0319D82B013AF8
:101A10000319DE2B033A0319E82B013A0319EF2BC4
:101A20000F3A0319B92B013A0319042C033A03198D
:101A3000102C013A0319172C073A0319202C013AEC
:101A40000319B92B033A0319312C013A03193D2C20
:101A50001F3A0319D82B013A0319442C033A0319EE
:101A60004E2C013A0319552C073A0319752C013AEB
:101A70000319972C033A0319AC2C013A0319F72BDD
:101A80000F3A0319B92B013A0319B32C033A03197E
:101A9000BF2C013A0319C62C073A0319CD2C013A81
:101AA0000319E42C532D0800B43083120313B7003C
:101AB0008030B8000A128A15DE200A128A15003A10
:101AC0000319632D642DBA2DB43083160313CC0093
:101AD0008030CD000030D1000030D0003030CF0059
:101AE000D430CE000A128A15EA210A128A15F11999
:101AF0007A2D7B2D912D8316031385146330831269
:101B00000313BA00BA0B822D852D83120313060826
:101B10000839D000FD30BA003A0883160313850552
:101B2000962D8312031306080839D000831250083B
:101B30004C0603199C2D9D2DBA2D2C3083160313B2
:101B4000CC008130CD003230840083170008CE00F5
:101B5000840A0008CF00840A0008D000840A000824
:101B6000D1000A128A15EA210A128A158312031378
:101B70005008CC0083120313060883160313D30006
:101B80005308831203134D0683160313D50053081D
:101B900083120313CD0083160313551CD02DD12DB2
:101BA000E82D1030CC008130CD0016308400831732
:101BB0000008CE00840A0008CF00840A0008D00084
:101BC000840A0008D1000A128A15EA210A128A152D
:101BD00083160313D51EED2DEE2D052E1E30CC00E1
:101BE0008130CD002430840083170008CE00840AA1
:101BF0000008CF00840A0008D000840A0008D10041
:101C00000A128A15EA210A128A1583160313D51CB3
:101C10000A2E0B2E222E3A30CC008130CD004030DF
:101C2000840083170008CE00840A0008CF00840ACD
:101C30000008D000840A0008D1000A128A15EA219F
:101C40000A128A150310003003180130831603139B
:101C5000D5000E3083120313AA0083160313550810
:101C60000A168A11FB200A128A15103E83120313EA
:101C7000B7008130B8000A128A15DE200A128A15D0
:101C8000003A0319442E452ED22E0E308312031330
:101C9000AA008316031355080A168A11FB200A129C
:101CA0008A150B3E103E84008317000884008313BE
:101CB000000883160313D4000E3083120313AA0006
:101CC0008316031355080A168A11FB200A128A1577
:101CD0000C3E103E84008317000883120313BA00E1
:101CE0003A0883160313D4050E3083120313AA0097
:101CF0008316031355080A168A11FB200A128A1547
:101D00000A3E103E8400831700088316031354060E
:101D100003198B2E8C2EBC2E540883120313B9008A
:101D20000E30AA008316031355080A168A11FB20E9
:101D30000A128A150D3E103E8400831700080A1609
:101D40008A1100200A128A1583160313540883127D
:101D50000313BA000E30AA008316031355080A169F
:101D60008A11FB200A128A150A3E103E8400831253
:101D700003133A08831780000E308312AA008316DB
:101D8000031355080A168A11FB200A128A15103E01
:101D900083120313AD008130AE000A168A11972218
:101DA0000A128A15013083120313BA003A08831607
:101DB0000313D50704305502031CDF2EE02E292E15
:101DC0000310003003180130D5000B3083120313C9
:101DD000AA008316031355080A168A11FB200A125B
:101DE0008A15903E83120313B7008130B8000A129F
:101DF0008A15DE200A128A15003A0319002F012FD6
:101E0000F12F0B3083120313AA0083160313550816
:101E10000A168A11FB200A128A15063E903E84009B
:101E20008317000883160313D2000B3083120313A9
:101E3000AA008316031355080A168A11FB200A12FA
:101E40008A15903E83160313CC008130CD000030FC
:101E5000D1000030D0003D30CF000930CE000A1252
:101E60008A15EA210A128A150B3083120313AA007D
:101E70008316031355080A168A11FB200A128A15C5
:101E8000073E903E84008317000883160313520513
:101E900003194B2F4C2F762F0B3083120313AA00FC
:101EA0008316031355080A168A11FB200A128A1595
:101EB0000A3E903E84008317000883120313BA0081
:101EC0000B30AA008316031355080A168A11FB204B
:101ED0000A128A15093E903E840083170008840088
:101EE000831203133A08831380049F2F0B3083124D
:101EF0000313AA008316031355080A168A11FB2040
:101F00000A128A150A3E903E840083170009831244
:101F10000313BA000B30AA008316031355080A16E0
:101F20008A11FB200A128A15093E903E840083170D
:101F300000088400831203133A08831380050B30D2
:101F4000AA008316031355080A168A11FB200A12E9
:101F50008A15063E903E840003108317800D80088A
:101F6000031DB32FB42FF12F0B3083120313AA00DC
:101F70008316031355080A168A11FB200A128A15C4
:101F8000063E903E8400831780010314800D0B30C1
:101F900083120313AA008316031355080A168A1125
:101FA000FB200A128A15083E903E840083178008A1
:101FB000031DDB2FDC2FF12F03100B3083120313D3
:101FC000AA008316031355080A168A11FB200A1269
:101FD0008A15073E903E84000030031801308317B5
:101FE0008000013083120313BA003A0883160313EA
:101FF000D50705305502031CFE2FFF2FE52E0800E4
:10200000FE0010308A007E08820700000A168A113E
:10201000802F0A128A155E280A168A15732F0A164F
:102020008A11132864340800831203139010901649
:102030001016901110111014831603130C140800BD
:10204000F7007708031D2528292883120313881415
:102050002F28FD30F6007608831203138805080048
:10206000F7007708031D35283928831203138815D4
:102070003F28F730F600760883120313880508001E
:10208000F700492877080A168A1550270A168A1178
:102090005028831203134A08003A03194228502893
:1020A000080083120313AA005C282A080A168A1162
:1020B00029260A168A1161284A08003A0319552868
:1020C0005528080054308316031392007D30831284
:1020D000031392002A3095001F3097008C1083164E
:1020E00003138C14080083120313C108031D7928FD
:1020F0007A2883280310003003180130C100013012
:10210000F6007608C20708007E088A007F08820071
:1021100084200A168A118000840A04087D060319A7
:102120000034FF0A0319FE0A8828FF34FF34FF3405
:10213000FF34FF34FF34FF34FF34FF34FF34FF3407
:10214000FF34FF34FF34FF34FF34FF34FF34F70033
:102150007708031DAC28B128F115831603138514E5
:10216000B828F111FD30F6007608831603138505B3
:102170000800FF34FF34FF34FF34FF34FF34FF34F2
:10218000FF34FF34FF34FF34FF34FF34FF34FF34B7
:10219000FF34FF34FF340634003438308312031325
:1021A00094000310003003180130831603139100CC
:1021B0000A30930014179417831203138C138D1194
:1021C0000800013083120313BC0700300311031809
:1021D000013E0319EC28BD07003003110318013E2E
:1021E0000319F328BE07003003110318013E031939
:1021F000FA28BF07080083120313A9000310003058
:1022000003180130A800291C062907290B292A08D0
:10221000F7007708A8070310AA0D0310A90CA90856
:10222000031D132914290329280808004030F0064B
:10223000701F1B291C292629F8010314F80DFF30F3
:102240000A168A114E210A168A113129031000300C
:1022500003180130F80000300A168A114E210A16C0
:102260008A110800F7008316031717087706031D65
:102270003A293B29422918087806031D402941299B
:1022800042294D2996010314960D7708F600760829
:1022900097007808F600760898000800F700831683
:1022A00003172D087706031D562957295E292E0886
:1022B0007806031D5C295D295E296929AC01031498
:1022C000AC0D7708F6007608AD007808F6007608C1
:1022D000AE000800711C6D296E297E29831203133C
:1022E0000708D83883160313870071107011701E09
:1022F0007A29701583120313921487297012D8302B
:1023000083160313870071148312031392100800BD
:10231000F7000310003003180130F8009E297808F8
:10232000A03E840083130008F60078087707840035
:10233000760880000130F6007608F8078312031350
:1023400049087802031CA529A6298F290800F8004E
:102350007808031DAC29B82983120313A0010314C4
:10236000A00D55300A168A1173220A168A11C52942
:10237000031000300318013083120313A000003053
:102380000A168A1173220A168A110800831203138F
:10239000C5010314C50DA83083160313CC0080308B
:1023A000CD000030D1000330D000D030CF009030CD
:1023B000CE000A128A15EA210A168A118312031323
:1023C00045080A128A1115200A168A110800F7001A
:1023D000FD29CF30F6007608831203138805082AFA
:1023E0008312031308168816082AEF30F6007608C1
:1023F0008312031388058816082A7708003A031900
:10240000E929013A0319F029033A0319F529E929C1
:102410000800F7001F2A3F30F600760883120313E6
:1024200088052A2ABF30F600760883120313880530
:1024300088172A2A83120313081788172A2A77086D
:10244000003A03190B2A013A03191A2A033A03190D
:10245000122A0B2A0800F70083160317380877069C
:10246000031D332A342A3D2A390883120313200618
:10247000031D3B2A3C2A3D2A4E2A83160317B70127
:102480000314B70D7708F6007608B800831203131B
:102490002008F600760883160317B9000800F70035
:1024A0008316031722087706031D572A582A612A24
:1024B0002308831203132006031D5F2A602A612A62
:1024C000722A83160317A1010314A10D7708F600E1
:1024D0007608A200831203132008F60076088316FC
:1024E0000317A3000800F7008316031743087706B5
:1024F000031D7B2A7C2A852A4408831203132006A5
:10250000031D832A842A852A962A83160317C2016B
:102510000314C20D7708F6007608C3008312031374
:102520002008F600760883160317C40008008312FB
:1025300003132D08840083172E1C8313FF308000A3
:10254000840AFF3080002D08023EAB002E080318DD
:10255000013E003EAC002B08840083172C1C831323
:10256000FF308000840AFF308000840AFF30800042
:10257000840AFF3080000800F700D52A981CC12A81
:10258000C22ACA2A831603139812981683120313B9
:1025900018121816181DCD2ACE2AD42A1A08C600D9
:1025A00083160313981298166400831203130C1EEB
:1025B000DA2ADB2ABE2A770899001330F600F60BD8
:1025C000DF2AE22A0800831203134508013A031D9B
:1025D000EA2AEB2A0D2BA830B7008030B8000A1287
:1025E0008A15DE200A168A11003A0319F82AF92AF8
:1025F0000D2B831203134708031DFF2A022B023001
:10260000C500072B0310003003180130C500450832
:102610000A128A1115200A168A110800F7000930DB
:10262000831203132002031C162B172B192B0830BF
:10263000A0000310003003180130F8002E2B78089A
:102640007707840083130008F6007808A03E840012
:10265000760880000130F6007608F8072008780236
:10266000031C332B342B1F2B2008C9001830CE003D
:1026700008000030F6000030F70083120313201C1E
:10268000422B432B492B2208F6070318F70A23088D
:10269000F70701300310A20DA30DFF3E031D4A2BC7
:1026A00001300310A10CA00CFF3E031D512B21088B
:1026B0002004031D5C2B5D2B3D2B7708A101A10796
:1026C0007608A001A007080000340034003400346C
:1026D0000034003401340034003407340234003450
:1026E0000034003400340034003401340034003449
:1026F0000734013400340034003400340034003432
:10270000013400340034093404340034003400341B
:10271000003400340034013400340034093401340E
:102720000034003400340034003400340134003408
:10273000003409340234FF34FF34FF34FF34FF34F3
:10274000FF346A3418340034003401340634013460
:102750000434FF34FF34FF34FF34FF34FF346A3471
:102760001834003400342034063420340134FF346B
:10277000FF34FF34FF34FF34FF349034D03403345B
:1027800000340034503408340A34FF34FF34FF344A
:10279000FF34FF34FF346A3418340034003400341A
:1027A00006340234073483120313A000EB2B0730E6
:1027B000A2002030A100F92B0530A2000430A100B6
:1027C000F92B0530A2000830A100F92B0530A2003A
:1027D0002030A100F92B2008013A0319D72B033A26
:1027E0000319DC2B013A0319E12B073A0319E62BF5
:1027F0000C2C7708031DFD2B052C2108F600220860
:1028000084007608831380040C2C2109F60022082A
:1028100084007608831380050800831203130C1CC0
:10282000122C132C192C0C100A168A11E1200A16EE
:102830008A11831203138C1C1E2C1F2C252C8C1028
:102840000A168A116A210A168A11831203130B1CB5
:102850002A2C2B2C3E2C0B1006086506831603171A
:10286000C700471E342C352C3A2C0A168A15E0274F
:102870000A168A11831203130608E5008316031350
:102880005D08FE005C088A005B0884005A0883002B
:10289000FF0E7F0E090083120313A5002508A40074
:1028A0002508F80004300310F80CFF3E031D532CDC
:1028B0007808A5000A30250203185F2C602C652CCF
:1028C0003030F8007808A507692C3730F800780810
:1028D000A50725080A168A11BC220A168A11831236
:1028E00003132408A50025080F39A5000A30250286
:1028F00003187B2C7C2C812C3030F8007808A5073D
:10290000852C3730F8007808A50725080A168A11A3
:10291000BC220A168A110800003083120313A30098
:102920000030A2000030A1000030A000241C992C2F
:102930009A2CB12C2808A007290803110318013E7E
:102940000319A32CA1072A0803110318013E031938
:10295000AA2CA2072B0803110318013E0319B12C5E
:10296000A3070130F6000310A80DA90DAA0DAB0DA9
:10297000F60BB32C01300310A70CA60CA50CA40C6D
:10298000FF3E031DBB2C2708260425042404031D39
:10299000CA2CCB2C962C2308A7002208A6002108BD
:1029A000A5002008A4000800F019D72CD92C01306C
:1029B000DA2C003083120313B9007019E02CE22CDA
:1029C0000130E32C003039060319E72CE82CFF2CEA
:1029D000BA3083160313CC008030CD000030D10014
:1029E0000030D0000D30CF003230CE000A128A15F0
:1029F000EA210A168A11F011701DFF2CF015BA3069
:102A000083120313B7008030B8000A128A15DE2043
:102A10000A168A11003A03190E2D0F2D222D0030AF
:102A2000701901300A168A11A7210A168A11BA30C4
:102A300083120313AD008030AE000A168A1197226C
:102A40000A168A110800831203132408A101A107A2
:102A50002308A001A0070F08A2002308023EF600E9
:102A600024080318013E003EF7007608840083170F
:102A7000771C83133C088000840A3D088000840A88
:102A80003E088000840A3F0880000E08F6002008F7
:102A900084008317211C8313760880000F08F6003A
:102AA0002008013EF70021080318013E003EF8000F
:102AB000770884008317781C831376088000200829
:102AC000013EF60021080318013E003EF70076089B
:102AD00084008317771C831300082206031D712DC1
:102AE000722D2B2D0800F001F101F201F301F40128
:102AF000F50183133C30840051300A168A151F27D4
:102B00000A168A11A0308400BA300A168A151F27C7
:102B10000A168A110A168A1112200A168A11FA0058
:102B20006530FD001030FE00B930FF0051308400E8
:102B30000A168A1188200A168A11CC30FD0010303E
:102B4000FE009530FF00BA3084000A168A118820F2
:102B50000A168A118317C730FD001330FE00643057
:102B6000FF00903084000A168A1188200A168A1104
:102B70004830FD001330FE009B30FF001030840011
:102B80000A168A1188200A168A1183010A128A15E8
:102B90000528202EC63083120313B7008030B800FA
:102BA0000A128A15DE200A168A11003A0319D92D55
:102BB000DA2D282E013083120313B9003908C1071A
:102BC0000330C202282E743084000008840A0004F6
:102BD0000319EB2DEC2D0A2E0A168A1544270A1626
:102BE0008A11003A0319F52DF62D282E5D30831237
:102BF0000313AD008030AE000A168A1197220A1620
:102C00008A11013083120313B9003908C107033058
:102C1000C202282E0A168A1544270A168A1100387D
:102C2000031D132E142E282E573083120313AD00CC
:102C30008030AE000A168A1197220A168A11012ED8
:102C40007308083A0319CA2D013A0319E32DDA2D46
:102C50000800F800831203134308A400A501240808
:102C6000A0002508A1000330A2000030A3000A162E
:102C70008A1139230A168A115B30831383120313D6
:102C80002007840003300318043021070A168A1530
:102C900000270A168A11A6007808840026088000FA
:102CA0004308A400A5012408A0002508A1000330C2
:102CB000A2000030A3000A168A1139230A168A11CD
:102CC0008313831203132008013EA6002108031872
:102CD000013E003EA7005B30260784000330031846
:102CE00004302707A9000A168A1500270A168A1138
:102CF000A800840A0319A90A29080A168A150027B8
:102D00000A168A11A9007808013E8400280880006C
:102D1000840A2908800001300800F72E03100030D3
:102D200003180130C5000130F9007908C0070A30E6
:102D30004002031C9C2E9D2EA22E0310003003186F
:102D40000130C00045080A128A1115200A168A119E
:102D5000042F0A307A020318AE2EAF2EB22E0A309C
:102D6000FA00DB2E19307A020318B72EB82EBB2ECC
:102D70001930FA00DB2E32307A020318C02EC12E31
:102D8000C42E3230FA00DB2E4B307A020318C92EE3
:102D9000CA2ECD2E4B30FA00DB2E64307A02031897
:102DA000D22ED32ED62E6430FA00DB2E0310003044
:102DB00003180130FA00A83083160313CC008030CA
:102DC000CD000030D1000330D000D030CF009030A3
:102DD000CE000A128A15EA210A168A1183120313F9
:102DE00045080A128A1115200A168A11042F831227
:102DF00003134508003A0319932E013A0319A92E2B
:102E0000033A0319042F8E2E08005D30831203133A
:102E1000B7008030B8000A128A15DE200A168A111F
:102E2000003A0319142F152F152F5730831203134F
:102E3000B7008030B8000A128A15DE200A168A11FF
:102E4000003A0319242F252F252FC0308312031396
:102E5000B7008030B8000A128A15DE200A168A11DF
:102E6000003A0319342F352F6C2F00300A168A11BF
:102E700030200A168A11C03083120313AD0080304F
:102E8000AE000A168A1197220A168A116C2F410881
:102E90000A168A1140200A168A1101308312031380
:102EA000BA003A08C2077F2F73300A168A115120E0
:102EB0000A168A11003A03195E2F5F2F7F2F4D2FBC
:102EC0000A128A115B260A168A117F2F0A168A11A6
:102ED000C9250A168A117F2F831203134208003A6C
:102EE00003197F2F013A0319472F033A0319542F6F
:102EF000013A0319602F073A0319662F7F2F080044
:102F000083120313B908031D862F872FBA2FF114DC
:102F1000513083160313CC008030CD000030D10037
:102F20000530D000B830CF00D830CE000A128A1554
:102F3000EA210A168A11711D9E2F9F2FA02FF017CC
:102F4000701BA32FA42FB02F0310003003180130E3
:102F5000F80001300A168A1132210A168A11FF2F51
:102F6000F8010314F80D55300A168A114E210A167D
:102F70008A11FF2FF110F01BBE2FBF2FD32F701F10
:102F8000C22FC32FCD2FF8010314F80DFF300A16FE
:102F90008A114E210A168A11FF2F0A168A118D26D0
:102FA0000A168A11FF2F7119D62FD72FFF2F5130F4
:102FB000B7008030B8000A128A15DE200A168A117E
:102FC000003A0319E42FE52FEB2F0A168A11162178
:102FD0000A168A11FE2F701FEE2FEF2FF92FF8011E
:102FE0000314F80DFF300A168A114E210A168A11B1
:102FF000FE2F0A168A11C6210A168A11F01308003C
:103E0000FE00FE1F082F83137E188317000808008A
:103E10008A0004088200F600760883160313A000C7
:103E2000083083120313CE000800F6007010761CD1
:103E30001A2F7014073083120313CB00080064009C
:103E40008001840A0406031900340406202FF600BA
:103E5000760883120313C4000530CB00080000303D
:103E600083120313CE08031D0130080083120313CD
:103E70000608E5000B178B170800003083120313A8
:103E8000CB08031D01300800003083120313D01D3E
:103E90000130080083120313CB010314CB0D08007B
:103EA000F600760883120313C30008000330831260
:103EB0000313CB0008000D3083120313CE0008005B
:103EC0000030701801300800831603132008080022
:103ED00083120313420808008312031344080800E6
:083EE0000800080008000800BA
:103F8200F7007708F600760783120313C400780857
:103F9200031DCC2FCD2F44140530CB0008000A1688
:103FA2008A1568270A168A150038031DD92FDA2FB9
:103FB200DF2F0A168A1173200A168A150800711C4F
:103FC200E32FE42FEE2F83120313061EE92FEA2FAD
:103FD200EE2FD83083160313870070160800F700FF
:103FE2007708031DF52FF92F831203130815FF2FEE
:0E3FF200FB30F60076088312031388050800E2
:02400E00713708
:00000001FF
