:100000000A128A1112280800FF000308831603173A
:10001000C8000408C9000A08CA007E08CB000A16F6
:100020008A111D290A168A118E2A003412340634C8
:100030000134023400340234013400340834A13471
:1000400033340234003400340834DD3446340134AF
:1000500001340034083439341834013402340034A3
:100060000234013400340834853416340234023446
:1000700000340834143402340234003400340834B8
:10008000763462340234023400340834AF34293414
:100090000234013400340834CA34193402340234CE
:1000A0000034083434344334023401340034083426
:1000B0009F34313402340034003408345D34123457
:1000C0000234013400340834C3342B340234023493
:1000D0000034083414340234023400340034083458
:1000E000763462340234023400340834AF342934B4
:1000F0000234013400340834C9341934023402346F
:1001000000340834AD344E34013401340034023448
:1001100001340034083409345534023402340034D4
:100120000834A43403340234003400341034B834B6
:10013000003408344C342F34013402340034023497
:10014000013400340834C0340C3402340234003436
:1001500008341434023402340034003408348E3449
:100160005E3402340234003408344B34293402340F
:10017000013400340834CA341934023402340034EF
:100180000334013400340834F5344234013401348A
:10019000003402340034003408345034493402341A
:1001A00001340034083476346234023402340034CA
:1001B00008346C340434023400340034093401341B
:1001C000003403340034003408345E34F834053429
:1001D0000134003408347634623405340034003499
:1001E0000834FF34FF340834C7342734053401346D
:1001F0000034083476346234053400340034083472
:100200000A3420340534013400340834763462343E
:1002100005340034003408340A3420340534013401
:1002200000340834FF34FF340834513400340534CA
:100230000034003403340134003408347A34D834C0
:1002400001340234003404340134003408342934D5
:100250000A340434003400340134013400340934E5
:10026000013400340334003400340834E234AB3455
:1002700005340134003408347634623405340034F3
:1002800000340834FF34FF340834C73427340534CD
:100290000134003408348E345E34053400340034C4
:1002A00008340A34203405340134003408348E34E0
:1002B0005E3405340034003408340A342034053404
:1002C000013400340834FF34FF340834C734273491
:1002D00005340034003403340134003408349E34CF
:1002E00063340234013400340834D53452340234D7
:1002F0000234003401340034003404340134003456
:1003000008346C34043402340034003408346C345F
:100310002534043400340034013402340034083409
:10032000D13414340134013400340834BA34D834AC
:100330000934013400340334003400340834C33445
:100340009834053401340034013402340034083464
:10035000FF34FF3408347134003401340134003484
:1003600008345B342734013400340034043401345D
:10037000003408344A34263401340134003404345F
:10038000003400340834B6346234013402340034AA
:1003900006340134003408342C348A3401340134F6
:1003A00000340834D934D8340134023400340834E9
:1003B000CD3489340534003400340834C434063470
:1003C0000134013400340834DA34D83401340234CE
:1003D00000340834ED3489340134013400340834F5
:1003E000DA34D8340134023400340834ED3489343A
:1003F00001340134003408346334B134013402343C
:10040000003408344C348A34023402340034083462
:10041000FC34263402340034003401340034003417
:10042000043401340034083429340A3401340234E9
:1004300000340434003400340834103415340234E9
:100440000134003408343F3428340234003400349A
:100450000834AD3489340134013400340834633451
:10046000B1340134023400340834ED3489340134B9
:100470000134003408346334B134013402340034BC
:1004800008344C348A3402340234003408348C3456
:10049000283402340034003401340034003404348D
:1004A00001340034083429340A340134023400346D
:1004B0000434003400340834283411340234013454
:1004C0000034083433342A3402340034003408341D
:1004D000AD3489340134013400340834ED348934C6
:1004E0000134023400340834ED34893401340134E9
:1004F00000340834EC3489340134023400340834D4
:100500004C348A340234023400340834EF342C344E
:1005100002340034003408347934083402340134AD
:1005200000340834B7342D34023400340034083435
:100530002334B1340134013400340834ED348934C7
:1005400001340234003408346334B13401340134EA
:1005500000340834ED348934013402340034083472
:100560006334B1340134013400340834EC34893458
:1005700001340234003408346334B13401340134BA
:10058000003408344C348A340234023400340834E1
:100590002C3401340234003400340834AB342F34AA
:1005A00002340234003408342C3401340234003470
:1005B00000340834AB342F340234023400340834AD
:1005C0002C3401340234003400340834DB34273452
:1005D00002340234003408342C3401340234003440
:1005E00000340834DA342734023402340034083456
:1005F000D234233402340134003408344A341934F8
:1006000006340034003402340234003408345C34DC
:1006100047340234013400340134003400340834E7
:1006200010340B34023400340034FE34003400340F
:100630000A34433461347434473465346E34693475
:10064000753473340A340034C13083120313D90073
:100650008030DA000A168A112C240A128A11003A14
:100660000319332B342B8C2BC13083160313E50075
:100670008030E6000030EA000030E9003030E80069
:10068000D430E7000A168A1149260A128A11721814
:100690004A2B4B2B642B8316031385146330831270
:1006A0000313DC00DC0B522B552B831203130608BB
:1006B0000839C100FD30DC005C0883160313850592
:1006C000831203138514692B831203130608083958
:1006D000C1004108310603196E2B6F2B8C2B2C3077
:1006E00083160313E5008130E6003230840083175F
:1006F0000008E700840A0008E800840A0008E9000E
:10070000840A0008EA000A168A1149260A128A1188
:10071000831203134108B1008312031306088316E2
:100720000313EC006C0883120313320683160313C1
:10073000EE006C0883120313B200831603136E1CC1
:10074000A22BA32BBA2B1030E5008130E600163027
:10075000840083170008E700840A0008E800840A80
:100760000008E900840A0008EA000A168A114926EE
:100770000A128A1183160313EE1EBF2BC02BD72B30
:100780001E30E5008130E600243084008317000825
:10079000E700840A0008E800840A0008E900840AE7
:1007A0000008EA000A168A1149260A128A118316DD
:1007B0000313EE1CDC2BDD2BF42B3A30E5008130EB
:1007C000E6004030840083170008E700840A000830
:1007D000E800840A0008E900840A0008EA000A1612
:1007E0008A1149260A128A110310003003180130B9
:1007F00083160313EE000E3083120313CC0083160E
:1008000003136E080A168A15E4250A128A11103E8F
:1008100083120313D9008130DA000A168A112C24BE
:100820000A128A11003A0319162C172CA42C0E3028
:1008300083120313CC00831603136E080A168A155D
:10084000E4250A128A110B3E103E8400831700082B
:1008500084008313000883160313ED000E30831207
:100860000313CC00831603136E080A168A15E425B9
:100870000A128A110C3E103E84008317000883126E
:100880000313DC005C0883160313ED050E3083129E
:100890000313CC00831603136E080A168A15E42589
:1008A0000A128A110A3E103E84008317000883163C
:1008B00003136D0603195D2C5E2C8E2C6D088312BC
:1008C0000313DB000E30CC00831603136E080A16E8
:1008D0008A15E4250A128A110D3E103E8400831702
:1008E00000080A168A1500250A128A1183160313B6
:1008F0006D0883120313DC000E30CC008316031343
:100900006E080A168A15E4250A128A110A3E103E5C
:100910008400831203135C08831780000E30831257
:10092000CC00831603136E080A168A15E4250A12F2
:100930008A11103E83120313CD008130CE000A16B7
:100940008A155E270A128A11013083120313DC0014
:100950005C0883160313EE0704306E02031CB12CEF
:10096000B22CFB2B0310003003180130EE000B30CB
:1009700083120313CC00831603136E080A168A151C
:10098000E4250A128A11903E83120313D9008130A4
:10099000DA000A168A112C240A128A11003A031965
:1009A000D22CD32CC32D0B3083120313CC0083160F
:1009B00003136E080A168A15E4250A128A11063EE8
:1009C000903E84008317000883160313EB000B305E
:1009D00083120313CC00831603136E080A168A15BC
:1009E000E4250A128A11903E83160313E500813034
:1009F000E6000030EA000030E9003D30E800093050
:100A0000E7000A168A1149260A128A110B3083124E
:100A10000313CC00831603136E080A168A15E42507
:100A20000A128A11073E903E84008317000883163D
:100A300003136B0503191D2D1E2D482D0B3083123A
:100A40000313CC00831603136E080A168A15E425D7
:100A50000A128A110A3E903E84008317000883120E
:100A60000313DC000B30CC00831603136E080A1648
:100A70008A15E4250A128A11093E903E84008317E4
:100A800000088400831203135C0883138004712D13
:100A90000B3083120313CC00831603136E080A165F
:100AA0008A15E4250A128A110A3E903E84008317B3
:100AB000000983120313DC000B30CC0083160313F0
:100AC0006E080A168A15E4250A128A11093E903E1C
:100AD0008400831700088400831203135C088313C7
:100AE00080050B30CC00831603136E080A168A1596
:100AF000E4250A128A11063E903E840003108317F3
:100B0000800D8008031D852D862DC32D0B3083128B
:100B10000313CC00831603136E080A168A15E42506
:100B20000A128A11063E903E840083178001031446
:100B3000800D0B3083120313CC00831603136E0851
:100B40000A168A15E4250A128A11083E903E84008E
:100B500083178008031DAD2DAE2DC32D03100B3060
:100B600083120313CC00831603136E080A168A152A
:100B7000E4250A128A11073E903E840000300318D3
:100B8000013083178000013083120313DC005C08FE
:100B900083160313EE0705306E02031CD02DD12DF2
:100BA000B72C080083120313B508031DD82DD92DC7
:100BB000ED2DBB30D9008030DA000A168A112C24C2
:100BC0000A128A11003A0319E62DE72DED2D0130A6
:100BD00083120313DB005B08B5070A168A1551243C
:100BE0000A128A11003A0319F62DF72DAA2FDB2FCE
:100BF00010300A168A1520240A128A110130831235
:100C00000313DB005B08B507DB2F0630B6000310CB
:100C1000003003180130B7000230C20036300A1627
:100C20008A15AA270A128A11FE2D0A168A155F2430
:100C30000A128A11FE2D36300A168A151C260A124F
:100C40008A11013083120313DB005B08B5073608F5
:100C5000DB005B08B7000E30B6000230C200363051
:100C60000A168A15AA270A128A1101308312031361
:100C7000DB005B08B507DB2F36300A168A151C2609
:100C80000A128A11013083120313DB005B08B507D7
:100C90008316031307080A168A11E0200A128A1124
:100CA0000D300A168A1583270A128A110A300A168D
:100CB0008A1583270A128A110B3083120313B60098
:100CC000C2010314C20D36300A168A15AA270A1269
:100CD0008A11FE2D36300A168A151C260A128A1130
:100CE000B43083120313C6001C30C7000A168A11E1
:100CF000EE210A128A11831203133D080A168A1183
:100D0000E0200A128A1120300A168A1583270A1257
:100D10008A11831203133C080A168A11E0200A1272
:100D20008A1120300A168A1583270A128A11831223
:100D300003133B080A168A11E0200A128A11203098
:100D40000A168A1583270A128A11831203133A0896
:100D50000A168A11E0200A128A1120300A168A1512
:100D600083270A128A118312031339080A168A117B
:100D7000E0200A128A1120300A168A1583270A12E7
:100D80008A118312031338080A168A11E0200A1206
:100D90008A1120300A168A1583270A128A118312B3
:100DA000031337080A168A11E0200A128A1120302C
:100DB0000A168A1583270A128A118312031336082A
:100DC0000A168A11E0200A128A110D300A168A15B5
:100DD00083270A128A110A300A168A1583270A12F3
:100DE0008A11031000300318013083120313A90085
:100DF0000130DB005B08B5070830B6002908DB00CE
:100E00005B08B7000230C20036300A168A15AA27DE
:100E10000A128A11FE2D36300A168A151C260A126D
:100E20008A11433083120313C6001C30C7000A1610
:100E30008A11EE210A128A118312031329080A1655
:100E40008A11E0200A128A1120300A168A15832797
:100E50000A128A1120300A168A1583270A128A116B
:100E60008312031339080A168A11E0200A128A1124
:100E700020300A168A1583270A128A118312031357
:100E800038080A168A11E0200A128A1120300A1640
:100E90008A1583270A128A118312031337080A1648
:100EA0008A11E0200A128A1120300A168A15832737
:100EB0000A128A118312031336080A168A11E020D7
:100EC0000A128A1120300A168A1583270A128A11FB
:100ED0000D300A168A1583270A128A110A300A165B
:100EE0008A1583270A128A11013083120313DB004B
:100EF0005B08A90780302902031C7F2F802F822FD7
:100F0000FF30A9002908031D862FFE2D0B30B500E8
:100F1000DB2F00300A168A1520240A128A110310CA
:100F200000300318013083120313B500BB30831661
:100F30000313E5008030E6000030EA000530E900E8
:100F4000B830E800D830E7000A168A1149260A129C
:100F50008A11DB2F831203133508003A0319DB2FA4
:100F6000013A0319F82D033A0319052E013A031922
:100F7000152E073A03191B2E013A0319272E033A9F
:100F80000319152E013A03193C2E0F3A0319482E66
:100F9000013A0319152E033A03196A2E013A03196F
:100FA000FC2E073A0319152E013A03190B2F033AA9
:100FB0000319892FDB2F0800F4007508031DE12FAA
:100FC000F02F8316031743087406031DE82FE92F3B
:100FD000F02F44087506031DEE2FEF2FF02FFD2F85
:100FE00083160317C2010314C20D7408F3007308BB
:100FF000C3007508F3007308C40008000800080067
:101000000430F106711D052806281028F501031487
:10101000F50DFF300A168A151A270A128A151B28A1
:101020000310003003180130F50000300A168A154D
:101030001A270A128A150800113083160313850037
:1010400003100030031801308312031385000730AA
:10105000831603139F00831203138514FB3083163A
:1010600003138600031000300318013083120313AA
:101070008600831603138113831203130B108B1541
:1010800006152330B200983083160313870003102F
:10109000003003180130831203138700031000305F
:1010A00003180130831603138800013083120313E1
:1010B00088000310003003180130831603138900E1
:1010C000031000300318013083120313890003104A
:1010D000003003180130CE000E30CC004E080A1646
:1010E0008A15E4250A128A150C3E103E84008317E7
:1010F000000883120313CD000E30CC004E080A16F0
:101100008A15E4250A128A150B3E103E84008317C7
:101110000008840083130008831203134D05F500B3
:101120000E30CC004E080A168A15E4250A128A15DC
:101130000A3E103E84007508831780000130F500D8
:10114000750883120313CE0704304E02031CA9282E
:10115000AA286C280310003003180130CE000618AE
:10116000B228B328B4284E14861AB728B828B9284C
:10117000CE144E080800B4290310003003180130C3
:10118000AC000130D8005808F7070A307702031C7A
:10119000CA28CB28D0280310003003180130F700EC
:1011A0007708013A0319D528D628E8287708023AA3
:1011B0000319DB28DC28E8287708033A0319E1281B
:1011C000E228E8287708043A031DE728E828E928F8
:1011D000F1140310003003180130B0000310003088
:1011E00003180130AE004E295D3083160313E5006D
:1011F0008030E6009B30EA007230E900EC30E80015
:101200000030E7000A168A1149260A128A155C295D
:101210005D3083160313E5008030E6005930EA00A4
:101220009530E9007630E8000030E7000A168A11B0
:1012300049260A128A155C295D3083160313E500DE
:101240008030E600D630EA009330E900A430E800B0
:101250000030E7000A168A1149260A128A155C290D
:101260005D3083160313E5008030E600A030EA000D
:10127000EE30E900BB30E8000030E7000A168A11C2
:1012800049260A128A155C295D30CD008030CE00D7
:101290000A168A155E270A128A155C297708013A10
:1012A0000319F428033A03190829013A03191C29E0
:1012B000073A031930294429AF300A168A158225C6
:1012C0000A128A1570110A128A1559240A128A15EF
:1012D000C1290A307A0203186E296F2972290A304F
:1012E000FA009B2919307A020318772978297B297B
:1012F0001930FA009B2932307A020318802981299B
:1013000084293230FA009B294B307A02031889294C
:101310008A298D294B30FA009B2964307A02031800
:101320009229932996296430FA009B2903100030F2
:1013300003180130FA00A93083160313E50080304A
:10134000E6000030EA000930E9008930E800683042
:10135000E7000A168A1149260A128A150A128A1506
:1013600059240A128A15C129831203132C08003A42
:101370000319C128013A03196929033A0319C1293C
:10138000BC280800831203132C08013A031DC92945
:10139000CA29C12AA930D9008030DA000A168A1178
:1013A0002C240A128A15003A0319D729D829C12AF0
:1013B000831203132D08031DDE29E1290230AC003E
:1013C000E6290310003003180130AC000A128A1518
:1013D00059240A128A15C12A03100030031801305B
:1013E000B0005D30D9008030DA000A168A112C2452
:1013F0000A128A15003A0319FE29FF29CE2A5C2A0F
:101400005D3083160313E5008030E6009B30EA0070
:101410007230E900EC30E8000030E7000A168A116B
:1014200049260A128A156A2A5D3083160313E500DD
:101430008030E6005930EA009530E9007630E80067
:101440000030E7000A168A1149260A128A156A2A0C
:101450005D3083160313E5008030E600D630EA00E5
:101460009330E900A430E8000030E7000A168A1142
:1014700049260A128A156A2A5D3083160313E5008D
:101480008030E600A030EA00EE30E900BB30E80032
:101490000030E7000A168A1149260A128A156A2ABC
:1014A0005D3083120313CD008030CE000A168A15FA
:1014B0005E270A128A156A2A7708013A0319002A58
:1014C000033A0319142A013A0319282A073A03197F
:1014D0003C2A502A701D6D2A6E2ACE2A83120313CD
:1014E000B0010314B00D0A128A1559240A128A1584
:1014F000CE2AF0197C2A7D2ACE2AAF30D90080303E
:10150000DA000A168A112C240A128A15003A0319E5
:101510008A2A8B2ACE2A0030F11801300A168A1541
:101520009A250A128A15023083120313B000732A17
:101530000A168A156E240A128A150038031DA12A7C
:10154000A22ACE2AAF300A168A1582250A128A15D7
:101550007011F11CAC2AAD2AB52A03100030031813
:10156000013083120313AE00BB2A01308312031330
:10157000DB005B08AE070310003003180130B00039
:10158000732A831203133008003A0319F129013A30
:101590000319792A033A0319982AEC2908002D2CFB
:1015A000FF303F05D80000304005D9000030590217
:1015B0001330031958020318DE2ADF2AFA2AF21818
:1015C000E22AE32AE72AC018E62AE72AEF2AF21CD1
:1015D000EA2AEB2AFA2A401DEE2AEF2AFA2A0130DB
:1015E00083120313A4070318A50A0030A5070230CD
:1015F000AA02582C0310003003180130AA00582CFE
:101600003F080A168A15D6260A128A15EF2A3F08BD
:101610000A168A15B4260A128A15EF2AF21C112B13
:10162000122BEF2A3F080A168A156D250A128A1511
:101630003F30840083130008840A00040319212B1F
:10164000222B362BD93083160313E5008030E600B9
:101650000130EA000130E9007D30E800F830E700B1
:101660000A168A1149260A128A15EF2AD9308312DE
:101670000313CD008030CE000A168A155E270A12A9
:101680008A15EF2AF21C452B462BEF2A3F080A1633
:101690008A1534250A128A15EF2AF21C502B512B79
:1016A000EF2A3F080A168A15CF240A128A153F30FE
:1016B000840083130008840A00040319602B612B43
:1016C000752BD33083160313E5008030E60000301D
:1016D000EA002F30E900AF30E8000830E7000A16D2
:1016E0008A1149260A128A15EF2AD330831203136E
:1016F000CD008030CE000A168A155E270A128A15A0
:10170000EF2AF21C842B852BEF2A3F080A168A1534
:10171000DF240A128A15EF2ADF3083160313E5004F
:101720008030E600831203133F08C6004008C7005C
:10173000C801C9010030CD000030CC000030CB0022
:101740007D30CA000A168A115B210A128A1583139A
:1017500083120313490883160313EA008312031349
:10176000480883160313E9008312031347088316FE
:101770000313E80083120313460883160313E700DC
:101780000A168A1149260A128A1501308312031398
:10179000D8005808AA07582CF21CCF2BD02BEF2AC0
:1017A000C52BF218D42BD52BEF2A3F08013ED800C9
:1017B00040080318013E003ED9005808A40703184A
:1017C000A50A5908A507F72AF21CE72BE82BEF2AF0
:1017D000D52BF21CEC2BED2BEF2ACD308316031307
:1017E000E5008030E600831203133F0883160313DD
:1017F000E70083120313400883160313E800E9018E
:10180000EA010A168A1149260A128A1501300A16B7
:101810008A1534250A128A15EF2AD930CD00803076
:10182000CE000A168A155E270A128A15D330831253
:101830000313CD008030CE000A168A155E270A12E7
:101840008A15003083120313A4000030A500FA2A81
:101850000030A4000030A500582C831203133E086A
:10186000003A0319D02A013A0319002B033A03194D
:10187000072B013A03190E2B073A0319422B013AA1
:1018800003194D2B033A0319812B0E3A03198C2BA4
:10189000013A0319CC2B193A0319D12B013A031938
:1018A000E42B033A0319E92BEC3A03190D2C282CED
:1018B0000800092E0310003003180130AC0003109B
:1018C000003003180130F50000300A168A15922600
:1018D0000A128A150A307A02031C6F2C702C7C2C99
:1018E0000310003003180130F50000300A168A1585
:1018F000F8260A128A153C2DF5010314F50D553012
:101900000A168A15F8260A128A153C2D0310003093
:1019100003180130F7008C2C7708013A00300319C6
:101920000130F40001300A168A11A6200A128A1525
:101930007708023A003003190130F40002300A1629
:101940008A11A6200A128A157708033A0030031973
:101950000130F40003300A168A11A6200A128A15F3
:101960007708043A003003190130F40004300A16F5
:101970008A11A6200A128A150310003003180130BC
:10198000F50000300A128A11DC270A128A15162E79
:101990007708093A0030031D0130F40001300A16BF
:1019A0008A11A6200A128A157708063A0030031910
:1019B0000130F40002300A168A11A6200A128A1594
:1019C0007708073A003003190130F40003300A1693
:1019D0008A11A6200A128A157708083A00300319DE
:1019E0000130F40004300A168A11A6200A128A1562
:1019F000F01DFB2CFC2C0E2D831203133008023A31
:101A00000319032D042D0E2DF5010314F50D55308A
:101A10000A128A11DC270A128A15162E701D112D42
:101A2000122D322D831203133008023A0319192D97
:101A30001A2D322DF11C1D2D1E2D282DF5010314FC
:101A4000F50DFA300A128A11DC270A128A15162EB1
:101A5000F5010314F50DFE300A128A11DC270A1273
:101A60008A15162EF5010314F50DFF300A128A119E
:101A7000DC270A128A15162E7708003A03198C2CD7
:101A8000013A03198C2C033A03198C2C013A0319DF
:101A90008C2C073A03198C2C013A0319C82C033AF1
:101AA0000319C82C013A0319C82C0F3A0319C82C82
:101AB000013A0319C82C862C03100030031801309A
:101AC000F50000300A168A1592260A128A15F501C9
:101AD0000314F50DFF300A168A15F8260A128A1526
:101AE0000A307A02003003180130F40001300A167F
:101AF0008A11A6200A128A1519307A0200300318BA
:101B00000130F40002300A168A11A6200A128A1542
:101B100032307A02003003180130F40003300A1624
:101B20008A11A6200A128A154B307A020030031857
:101B30000130F40004300A168A11A6200A128A1510
:101B400064307A02031CA52DA62DB02DF5010314D7
:101B5000F50DFF300A128A11DC270A128A15162E9B
:101B60000310003003180130F50000300A128A110A
:101B7000DC270A128A15162EF5010314F50D5530CF
:101B80000A168A1592260A128A15031000300318C5
:101B90000130F50000300A168A15F8260A128A1557
:101BA000831203132D08013A003003190130F400A9
:101BB00001300A168A11A6200A128A15831203130D
:101BC0002D08023A003003190130F40002300A16E1
:101BD0008A11A6200A128A15831203132D08033ACC
:101BE000003003190130F40003300A168A11A620D0
:101BF0000A128A15831203132D08043A00300319C0
:101C00000130F40004300A168A11A6200A128A153F
:101C1000162E831203132C08003A03195F2C013A85
:101C200003195C2D033A0319BC2D5A2C08000A161F
:101C30008A1558240A128A15003A0319202E212EDB
:101C4000A12FFF2F0A168A1100200A128A150130CF
:101C500083120313C2004208B307FF2F03100030A2
:101C600003180130F50050300A168A15C0240A12F4
:101C70008A15272E0A168A1576240A128A15003A22
:101C80000319432E442E4B2E00300A168A153B248E
:101C90000A128A15272EF0140A168A1564240A12CD
:101CA0008A15031000300318013083120313B300A8
:101CB000FF2F0A168A1569240A128A15272EF501A4
:101CC0000314F50D50300A168A15C0240A128A151D
:101CD000272E0A168A1576240A128A15003A031945
:101CE000722E732E7A2E00300A168A1516240A12C6
:101CF0008A15272E72154C2E0A168A1576240A127A
:101D00008A15003A0319852E862E7A2E0A168A1510
:101D100072240A128A1583160313A0004C2E031096
:101D2000003003180130F50050300A168A15C0241F
:101D30000A128A15272E0A168A1576240A128A157F
:101D4000003A0319A42EA52E4B2E00300A168A1530
:101D50003B240A128A15272E0A168A1576240A129F
:101D60008A15003A0319B52EB62E7A2E8316031360
:101D700020080A168A153B240A128A15272E0A16ED
:101D80008A1576240A128A150038031DC82EC92E1A
:101D90004C2E7A2E0310003003180130F50050301D
:101DA0000A168A15C0240A128A15272E0A168A15C1
:101DB00076240A128A15003A0319DF2EE02E4B2EE4
:101DC00001300A168A153B240A128A15272EF501BE
:101DD0000314F50D50300A168A15C0240A128A150C
:101DE000272E0A168A1576240A128A15003A031934
:101DF000FA2EFB2E7A2E01300A168A1516240A12A4
:101E00008A15272E0A168A1572240A128A15F900D5
:101E1000F908031D0C2F0D2F122F163083120313F8
:101E2000B300FF2F7908FF3A031D172F182F1A2F21
:101E300072110D2F09307902031C1F2F202F222F22
:101E40000830F9000310003003180130F800272E85
:101E50007908780203182D2F2E2F472F7808013E7E
:101E6000C200003003180130C3004308803AC400A8
:101E700080304402031D3E2F790842020030031CCB
:101E800001300A168A1516240A128A15272E1730D1
:101E9000B300FF2F0A168A1572240A128A158312BC
:101EA0000313C2007808A03E840042088313800018
:101EB0000130C2004208F8070130B302FF2F0030A2
:101EC0000A168A1516240A128A15272E03100030C6
:101ED00003180130F50050300A168A15C0240A1282
:101EE0008A15272E0A168A1576240A128A15003AB0
:101EF00003197B2F7C2F4B2E01300A168A153B24A9
:101F00000A128A15272E79080A168A153B240A1206
:101F10008A15222F7908780203188F2F902F272EE9
:101F20007808A03E8400831300080A168A153B2413
:101F30000A128A15013083120313C2004208F807FF
:101F4000FF2F831203133308003A0319FF2F013ABE
:101F50000319222E033A03192E2E013A03193A2EA1
:101F6000073A0319592E013A03195F2E033A031950
:101F7000692E013A03197C2E0F3A0319222E013AD9
:101F800003198F2E033A03199B2E013A0319AC2E25
:101F9000073A0319BF2E013A0319222E033A0319F7
:101FA000CA2E013A0319D62E1F3A0319592E013AA7
:101FB0000319E72E033A0319F12E013A0319022FF0
:101FC000073A0319282F013A03194A2F033A031934
:101FD0005F2F013A03194C2E0F3A0319222E013AB2
:101FE0000319662F033A0319722F013A0319832F3D
:101FF000073A03198A2F013A03194C2EFF2F0800C4
:1020000083120313B4010314B40D0800711E0928D0
:102010000A28362871120310003003180130831685
:1020200003139200031000300318013083120313CE
:10203000920003100030031801309500831603133B
:102040008C10831203138C1012110310003003182C
:1020500001309700FB3083160317C700470883122F
:1020600003138705F012F01F3628F016080000341D
:1020700000340034003400340034013400340034BF
:1020800007340234003400340034003400340034A7
:102090000134003400340734013400340034003497
:1020A0000034003400340134003400340934043482
:1020B000003400340034003400340034013400347F
:1020C0000034093401340034003400340034003466
:1020D000003401340034003409340234FF34FF3456
:1020E000FF34FF34FF34FF346A34183400340034D2
:1020F0000034063401340434FF34FF34FF34FF3439
:10210000FF34FF346A3418340034003400340634A9
:1021100020340134FF34FF34FF34FF34FF34FF3404
:102120009034D034033400340034413408340A3459
:10213000FF34FF34FF34FF34FF34FF346A34183483
:10214000003400340034063402340734831203139D
:10215000C200BE280730C4002030C300CC280530A0
:10216000C4000430C300CC280530C4000830C300CC
:10217000CC280530C4002030C300CC284208013AE6
:102180000319AA28033A0319AF28013A0319B428FE
:10219000073A0319B928DF287408031DD028D82866
:1021A0004308F30044088400730883138004DF2885
:1021B0004309F30044088400730883138005080072
:1021C00083120313C6004608F50004300310F50C13
:1021D000FF3E031DE6287508C7000A3047020318B2
:1021E000F228F328F8283030F5007508C707FC28D6
:1021F0003730F5007508C70747080A168A15832780
:102200000A168A118312031346080F39C7000A30D1
:10221000470203180C290D2912293030F5007508E2
:10222000C70716293730F5007508C70747080A168B
:102230008A1583270A168A110800831203130C1CBF
:102240002229232929290C100A168A15CA250A16BB
:102250008A11831203138C1C2E292F2935298C10E7
:102260000A168A1106200A168A11831203130B1C00
:102270003A293B294E290B10060828068316031716
:10228000CC004C1E442945294A290A168A15A8243F
:102290000A168A11831203130608A800831603176F
:1022A0004B08FE004A088A00490884004808830059
:1022B000FF0E7F0E0900003083120313C5000030AB
:1022C000C4000030C3000030C200461C68296929E0
:1022D00080294A08C2074B0803110318013E03195D
:1022E0007229C3074C0803110318013E0319792909
:1022F000C4074D0803110318013E03198029C507BF
:102300000130F3000310CA0DCB0DCC0DCD0DF30B36
:10231000822901300310C90CC80CC70CC60CFF3E43
:10232000031D8A294908480447044604031D9929C6
:102330009A2965294508C9004408C8004308C70010
:102340004208C6000800E329DF30D9008030DA00F7
:102350000A168A112C240A168A11003A0319B12987
:10236000B229ED29013083120313A4070318A50A2B
:102370000030A5070330AA02ED293F308400831303
:102380000008840A00040319C629C729D529F11FAA
:10239000CA29CB29ED29D930CD008030CE000A16CC
:1023A0008A155E270A168A11B229F11BD829D92964
:1023B000ED29D330CD008030CE000A168A155E2775
:1023C0000A168A11B229831203133E08083A031928
:1023D000A429013A0319BD29B22908002E2A46086A
:1023E000840047080A168A1500240A168A110A165C
:1023F0008A1583270A168A1183120313460884005C
:1024000047080A168A1500240A168A110D3A031D78
:102410000A2A0B2A112A0A300A168A1583270A1655
:102420008A11831203134608840047080A168A1586
:1024300000240A168A110A3A031D1F2A202A262A76
:102440000D300A168A1583270A168A110130831265
:102450000313C6070318C70A0030C7078312031304
:102460004608840047080A168A1500240A168A11AD
:102470000038031D3C2A3D2AEF290800831203136C
:102480004608C301C3074508C201C2070F08C400BC
:102490004508023EF30046080318013E003EF400E2
:1024A000730884008317741C831320088000840A37
:1024B00021088000840A22088000840A2308800002
:1024C0000E08F300420884008317431C831373082B
:1024D00080000F08F3004208013EF400430803188F
:1024E000013E003EF500740884008317751C8313B9
:1024F000730880004208013EF30043080318013EC0
:10250000003EF400730884008317741C83130008D2
:102510004406031D8C2A8D2A462A0800F001F10189
:10252000F201F701F801F9018313203084004230F1
:102530000A168A1533240A168A11A0308400C7307F
:102540000A168A1533240A168A110A168A157B245C
:102550000A168A11FA006930FD001C30FE00903026
:10256000FF005D3084000A168A1527250A168A1195
:10257000E530FD001E30FE007430FF00C7308400DF
:102580000A168A1527250A168A118317C730FD00F7
:102590001030FE003730FF00903084000A168A1594
:1025A00027250A168A114830FD001030FE006E30D3
:1025B000FF00103084000A168A1527250A168A1192
:1025C00083010A168A11482BF5008312031327088A
:1025D000C301C3072608C201C2070330C40000308C
:1025E000C5000A168A15D5270A168A1115308313D5
:1025F000831203134207840000300318013043079D
:102600000A168A1500240A168A11C6007508840065
:102610004608831380002708C301C3072608C201A8
:10262000C2070330C4000030C5000A168A15D5273A
:102630000A168A118313831203134208013EC6004F
:1026400043080318013E003EC700153046078400CA
:102650000030031801304707C9000A168A15002404
:102660000A168A11C800840A0319C90A49080A16F9
:102670008A1500240A168A11C9007508013E8400D3
:10268000480883138000840A49088000013008004C
:102690000A128A151C200A168A110A168A15B225F2
:1026A0000A168A11183083120313C6000330C700BC
:1026B0000A168A11EE210A168A110A168A159C2416
:1026C0000A168A110A168A1544250A168A110A164C
:1026D0008A157C240A168A110A128A11FE270A1604
:1026E0008A110A168A1512250A168A110A128A11E7
:1026F00003200A168A110A128A11FF270A168A1164
:102700000A168A154A240A168A110A168A11AF2453
:102710000A168A110A128A1124230A168A110A1229
:102720008A15C2210A168A110A168A11AC230A16C2
:102730008A110A128A11D2250A168A110A128A15DA
:1027400017260A168A110A168A11C0250A168A1136
:10275000852B0A128A111228D93083120313D9004B
:102760008030DA000A168A112C240A168A11003ADF
:102770000319BB2BBC2BBC2BD33083120313D90002
:102780008030DA000A168A112C240A168A11003ABF
:102790000319CB2BCC2BCC2BCD3083120313D900B8
:1027A0008030DA000A168A112C240A168A11003A9F
:1027B0000319DB2BDC2B182C00300A168A15342564
:1027C0000A168A11CD3083120313CD008030CE005B
:1027D0000A168A155E270A168A11182C2508C301C5
:1027E000C3072408C201C2070A168A1558250A160B
:1027F0008A11013083120313DB005B08AA072B2C1C
:102800003E300A168A15EF240A168A11003A031977
:102810000A2C0B2C2B2CF92B0A128A15CF220A1604
:102820008A112B2C0A168A11A3210A168A112B2C25
:10283000831203132A08003A03192B2C013A0319B7
:10284000EE2B033A0319002C013A03190C2C073A1A
:102850000319122C2B2C0800533083120313C500CC
:102860008030C6000A168A113E220A168A11831287
:1028700003135908023ECD005A080318013E003EDA
:10288000CE004D08840083174E1C83130008CF0030
:10289000840A0008D000840A0008D100840A0008D5
:1028A000D2000230533E84004F0883130006840F89
:1028B000031D662C50080006840F031D662C51086A
:1028C0000006840F031D662C52080006031D692CA8
:1028D0006A2C832C5908840083175A1C8313000820
:1028E000CD00013084070008CE004E085402031DBD
:1028F0007B2C4D085302031C7E2C7F2C812C013035
:10290000AE2C0030AE2C5908023ECD005A080318F8
:10291000013E003ECE004D08840083174E1C8313F9
:102920000008CF00840A0008D000840A0008D10003
:10293000840A0008D20058085202031DA92C570827
:102940005102031DA92C56085002031DA92C55083D
:102950004F020318AC2CAD2C812C7F2C0800711A6F
:10296000B22CB32CE82CB53083120313D90080307D
:10297000DA000A168A112C240A168A11003A031961
:10298000C22CC32CE82CB53083160313E50080302D
:10299000E6000030EA000030E9003030E800D430D2
:1029A000E7000A168A1149260A168A11F0137116D1
:1029B00054308316031392007D3083120313920068
:1029C0002A3095001F3097008C10831603138C1447
:1029D000701BEB2CED2C0130EE2C00308312031316
:1029E000DB00F01AF42CF62C0130F72C00305B06DB
:1029F0000319FB2CFC2C132DC73083160313E500A1
:102A00008030E6000030EA000030E9009230E80053
:102A10007C30E7000A168A1149260A168A117013BB
:102A2000F01E132D7017C73083120313D9008030A6
:102A3000DA000A168A112C240A168A11003A0319A0
:102A4000222D232D362D0030F01A01300A168A115E
:102A500037250A168A11C73083120313CD00803040
:102A6000CE000A168A155E270A168A1108008312FC
:102A70000313D800F011581C3E2DF01583120313D8
:102A80005808031D442D452D7015701D482D492DE6
:102A90005C2DAF3083160313E5008030E600013073
:102AA000EA00C930E900C330E8008030E7000A16C8
:102AB0008A1149260A168A117708053A0319612DE9
:102AC000622D7A2D7708063A0319672D682D7A2D25
:102AD0007708073A03196D2D6E2D7A2D7708083A7D
:102AE0000319732D742D7A2D7708093A031D792D5A
:102AF0007A2DBF2D701D7D2D7E2DBA2D83120313CF
:102B0000B008031D842D852DBA2DA42DF114B52DEB
:102B1000AE08031D8C2D8E2DF1148F2DF110B52DC7
:102B200002302E020318952D972DF114982DF110D7
:102B3000B52D03302E0203189E2DA02DF114A12DCA
:102B4000F110B52DF110B52D7708053A0319862D32
:102B5000033A0319882D013A0319902D0F3A0319EE
:102B6000992D013A0319A22DB52D83120313B0013B
:102B70000314B00D0A128A1559240A168A11080086
:102B80008316031311081F3983120313C200C301F4
:102B900003108316031314190314003003180130B3
:102BA000831203134204C4004308C50045084404CB
:102BB0000319DB2DDC2D1F2E482E83160313111451
:102BC00001308312C2004208B407482E03100030BF
:102BD0000318013083120313B400482E8316031325
:102BE0009114E02D2B089300E02D7014831603132D
:102BF000111FFB2D7010E62D831603139115E02D88
:102C00001308AB00E02D0130F3000030F400701C1D
:102C10000A2E0B2E0F2E0030F3000030F400731834
:102C2000122E162E831603139116192E83160313D4
:102C300091121116E02D831603131115E02D34089F
:102C4000003A0319482E013A0319DD2D033A0319FE
:102C5000E62D013A0319EE2D073A0319E62D013A44
:102C60000319F22D033A0319F52D013A0319FC2D2E
:102C70000F3A0319002E013A0319032E033A0319E0
:102C8000E62D013A03191B2E073A0319E62D482EAB
:102C9000080083160313660883120313D701D707AE
:102CA00083160313650883120313D601D607831610
:102CB0000313660883120313C601C60783160313A2
:102CC000650883120313C501C5070A168A113E223F
:102CD0000A168A11831603136A08690468046704D4
:102CE000031D732E742E752ED72E831203135608D0
:102CF00084008317571C83130008D200840A00083D
:102D0000D300840A0008D400840A0008D5005608BD
:102D100084008317571C83138316031367088007E7
:102D2000840A68080318013E031D8007840A6908A5
:102D30000318013E031D8007840A6A080318013E38
:102D4000800783120313560884008317571C8313CC
:102D50000008CE00840A0008CF00840A0008D000D2
:102D6000840A0008D10051085502031DC12E5008E5
:102D70005402031DC12E4F085302031DC12E4E08DD
:102D80005202031CC42EC52ED72E5608043ECE0078
:102D900057080318013E003ECF004E0884008317F9
:102DA0004F1C831301308007840A0318800A08002F
:102DB00083120313DB08031DDE2EDF2E122F711783
:102DC000633083160313E5008030E6000030EA002C
:102DD0000330E900D030E8009030E7000A168A118D
:102DE00049260A168A11F11EF62EF72EF82EF11535
:102DF0007119FB2EFC2E082F031000300318013030
:102E0000F50001300A168A153C270A168A116B2F25
:102E1000F5010314F50D55300A168A151A270A16FE
:102E20008A116B2F7113F119162F172F3F2F711D58
:102E30001A2F1B2F252FF5010314F50DFF300A164D
:102E40008A151A270A168A116B2F6330D900803031
:102E5000DA000A168A112C240A168A11003A03197C
:102E6000322F332F392F0A168A1539260A168A115E
:102E70006B2F0A168A15FF250A168A116B2FF11A75
:102E8000422F432F6B2F6330D9008030DA000A16AF
:102E90008A112C240A168A11003A0319502F512F37
:102EA000572F0A128A1500200A168A116A2F711DDF
:102EB0005A2F5B2F652FF5010314F50DFF300A160D
:102EC0008A151A270A168A116A2F0A168A15562693
:102ED0000A168A11F111080083120313DB08031D7F
:102EE000722F732FA62FF116633083160313E5009C
:102EF0008030E6000030EA000330E900D030E8001E
:102F00009030E7000A168A1149260A168A11711FA5
:102F10008A2F8B2F8C2FF11571198F2F902F9C2FAB
:102F20000310003003180130F50001300A168A152D
:102F30003C270A168A11FF2FF5010314F50D5530B1
:102F40000A168A151A270A168A11FF2FF112F1198B
:102F5000AA2FAB2FD32F711DAE2FAF2FB92FF50195
:102F60000314F50DFF300A168A151A270A168A115E
:102F7000FF2F6330D9008030DA000A168A112C2422
:102F80000A168A11003A0319C62FC72FCD2F0A1629
:102F90008A157A240A168A11FF2F0A128A15BB2075
:102FA0000A168A11FF2F711BD62FD72FFF2F6330E0
:102FB000D9008030DA000A168A112C240A168A11E8
:102FC000003A0319E42FE52FEB2F0A128A1500208F
:102FD0000A168A11FE2F711DEE2FEF2FF92FF50122
:102FE0000314F50DFF300A168A151A270A168A11DE
:102FF000FE2F0A168A1556260A168A11F1110800A4
:10380000FE00FE1F082C83137E1883170008080093
:103810008A0004088200831203135B08003A03192C
:10382000122C142CF117152CF1130800F300701052
:10383000731C1B2C7014073083120313B400080090
:10384000F300730883160313A000083083120313D8
:10385000B3000800740883120313A701A7077308B5
:10386000A601A607080064008001840A0406031963
:1038700000340406342CF300730883120313AB00E6
:103880000530B400080042346C346F3463346B3458
:1038900020340034831203130608A8000B178B177B
:1038A0000800003083120313B308031D0130080021
:1038B000003083120313B408031D013008000D30DB
:1038C00083120313B30008000B3083120313B400F8
:1038D0000800033083120313B4000800831203139B
:1038E0002A080800831203132B0808000030701800
:0C38F000013008000800643408000800E3
:10392000FF34FF34FF34FF34FF34FF34FF34FF34FF
:10393000FF34FF34FF34FF348312031390109016CA
:103940001016901110111014831603130C14080094
:10395000711EAB2CAC2CB32C83120313061AB12CA2
:10396000B22CB32CF017080055346E34693471341E
:10397000753465342034493444343A3420340034C6
:10398000F4007408F300730783120313AB00750887
:10399000031DCB2CCC2C2B140530B4000800F400F4
:1039A0007408031DD42CD82C831203138814DE2C26
:1039B000FD30F30073088312031388050800F40038
:1039C0007408031DE42CE82C831203130815EE2C55
:1039D000FB30F30073088312031388050800831279
:1039E0000313CA00FA2C4A080A168A11E4220A169E
:1039F0008A15FF2C2F08003A0319F32CF32C08002A
:103A0000FE001D308A007E08820700000A168A1117
:103A10006C2F0A168A11D82E0A168A157D2C0A16C2
:103A20008A150B2C54308316031392007D308312B9
:103A3000031392002A3095001F3097008C108316D4
:103A400003138C1408007E088A007F088200232557
:103A50000A168A158000840A04087D0603190034BA
:103A6000FF0A0319FE0A272DF4007408031D392DDF
:103A70003D2D831203138815432DF730F30073088F
:103A8000831203138805080038308312031394004F
:103A900003100030031801308316031391000A301D
:103AA000930014179417831203138C138D110800BD
:103AB000652D4308F401F4074208F301F3070A16E1
:103AC0008A152A240A168A156C2D831203132F08CF
:103AD000003A0319592D6C2D0800F4007408031DD9
:103AE000722D772D7214831603138514812D721095
:103AF000FD30F30073088316031385058312031347
:103B000085140800F30073088400003083138000DC
:103B1000840A003080007308023E84000030800078
:103B2000840A00308000840A00308000840A00305B
:103B300080000800F4008312031325082404031DE9
:103B4000A22DA32DB12DF210741CA72DF21400305C
:103B500083120313A4000030A5000130F3007308A2
:103B6000AA0708000C3083160313990018151812C1
:103B700083120313981718169812831603130C1246
:103B80008C1218138312031318138316031398123D
:103B900098160800013083120313A00700300311A8
:103BA0000318013E0319D52DA10700300311031896
:103BB000013E0319DC2DA207003003110318013E5A
:103BC0000319E32DA307080083120313CB0003108E
:103BD000003003180130CA004B1CEF2DF02DF42DDE
:103BE0004C08F4007408CA070310CC0D0310CB0C6A
:103BF000CB08031DFC2DFD2DEC2D4A0808000A16EC
:103C00008A156E240A168A150038031D082E092EFF
:103C10001B2EF1100030F11801300A168A159A2572
:103C20000A168A15023083120313B0000A128A158D
:103C300059240A168A150800F400031000300318EE
:103C40000130F500322E7508A03E84008313000871
:103C5000F300750874078400730880000130F300D6
:103C60007308F50779087502031C372E382E232EAA
:103C700008000A168A156E240A168A150038031DD4
:103C8000422E432E552EF1140030F11801300A1641
:103C90008A159A250A168A15023083120313B0007A
:103CA0000A128A1559240A168A150800831203136A
:103CB000AC010314AC0DA93083160313E50080306A
:103CC000E6000030EA000930E9008930E800683099
:103CD000E7000A168A1149260A168A150A128A1559
:103CE00059240A168A150800FF34FF34FF34FF34C4
:103CF000FF34FF34FF34FF34FF34FF34FF34FF342C
:103D0000FF34FF34FF34FF34FF34FF34FF34FF341B
:103D1000FF34FF34FF34FF34FF34FF34FF34FF340B
:103D2000FF34FF34F4007508031D972EA62E83166A
:103D3000031722087406031D9E2E9F2EA62E23080D
:103D40007506031DA42EA52EA62EB32E83160317CB
:103D5000A1010314A10D7408F3007308A2007508F3
:103D6000F3007308A3000800F400CA2E3F30F300EC
:103D70007308831203138805D52EBF30F300730830
:103D80008312031388058817D52E8312031308178F
:103D90008817D52E7408003A0319B62E013A031974
:103DA000C52E033A0319BD2EB62E0800F400EC2EE2
:103DB000CF30F3007308831203138805F72E8312A4
:103DC000031308168816F72EEF30F30073088312DA
:103DD000031388058816F72E7408003A0319D82EA5
:103DE000013A0319DF2E033A0319E42ED82E0800F6
:103DF000F4007508031DFD2E0C2F831603173808D9
:103E00007406031D042F052F0C2F39087506031D9A
:103E10000A2F0B2F0C2F192F83160317B70103142A
:103E2000B70D7408F3007308B8007508F300730841
:103E3000B9000800F4007508031D1F2F2E2F8316EC
:103E400003172D087406031D262F272F2E2F2E084B
:103E50007506031D2C2F2D2F2E2F3B2F8316031796
:103E6000AC010314AC0D7408F3007308AD007508C1
:103E7000F3007308AE000800F4007508031D412F1D
:103E8000502F8316031717087406031D482F492F58
:103E9000502F18087506031D4E2F4F2F502F5D2FE2
:103EA0008316031796010314960D7408F300730824
:103EB00097007508F3007308980008008312031335
:103EC0004D08840083174E1C8313FF308000840A42
:103ED000FF3080004D08023EF5004E080318013EF9
:103EE000003EF600750884008317761C8313FF30AC
:103EF0008000840AFF308000840AFF308000840A3A
:103F0000FF3080000800F4009C2F981C882F892F18
:103F1000912F831603139812981683120313181205
:103F20001816181D942F952F9B2F1A08831603130C
:103F3000A800981298166400831203130C1EA12F78
:103F4000A22F852F74089900C730F300F30BA62F1A
:103F5000A92F0800F4000930831203134202031C46
:103F6000B22FB32FB52F0830C20003100030031852
:103F70000130F500CA2F7508740784008313000808
:103F8000F3007508A03E8400730880000130F30040
:103F90007308F50742087502031CCF2FD02FBB2FE3
:103FA0004208F9001830B30008000030F300003078
:103FB000F40083120313421CDE2FDF2FE52F440889
:103FC000F3070318F40A4508F40701300310C40D81
:103FD000C50DFF3E031DE62F01300310C30CC20CBC
:103FE000FF3E031DED2F43084204031DF82FF92F58
:103FF000D92F7408C301C3077308C201C2070800A0
:02400E00713708
:00000001FF
