:100000000A128A1112286434FF00030883160317AA
:10001000C8000408C9000A08CA007E08CB000A16F6
:100020008A1144290A168A116E2A003412340634C1
:100030000134023400340234013400340834A13471
:1000400033340234003400340834DD3446340134AF
:1000500001340034083439341834013402340034A3
:100060000234013400340834853416340234023446
:1000700000340834143402340234003400340834B8
:10008000763462340234023400340834AF34293414
:100090000234013400340834CA34193402340234CE
:1000A0000034083434344334023401340034083426
:1000B0009F34313402340034003408345D34123457
:1000C0000234013400340834C3342B340234023493
:1000D0000034083414340234023400340034083458
:1000E000763462340234023400340834AF342934B4
:1000F0000234013400340834C9341934023402346F
:1001000000340834AD344E34013401340034023448
:1001100001340034083409345534023402340034D4
:100120000834A43403340234003400341034B834B6
:10013000003408344C342F34013402340034023497
:10014000013400340834C0340C3402340234003436
:1001500008341434023402340034003408348E3449
:100160005E3402340234003408344B34293402340F
:10017000013400340834CA341934023402340034EF
:100180000334013400340834F5344234013401348A
:10019000003402340034003408345034493402341A
:1001A00001340034083476346234023402340034CA
:1001B00008346C340434023400340034093401341B
:1001C000003403340034003408345E34F834053429
:1001D0000134003408347634623405340034003499
:1001E0000834FF34FF340834C7342734053401346D
:1001F0000034083476346234053400340034083472
:100200000A3420340534013400340834763462343E
:1002100005340034003408340A3420340534013401
:1002200000340834FF34FF340834513400340534CA
:100230000034003403340134003408347A34D834C0
:1002400001340234003404340134003408342934D5
:100250000A340434003400340134013400340934E5
:10026000013400340334003400340834E234AB3455
:1002700005340134003408347634623405340034F3
:1002800000340834FF34FF340834C73427340534CD
:100290000134003408348E345E34053400340034C4
:1002A00008340A34203405340134003408348E34E0
:1002B0005E3405340034003408340A342034053404
:1002C000013400340834FF34FF340834C734273491
:1002D00005340034003403340134003408349E34CF
:1002E00063340234013400340834D53452340234D7
:1002F0000234003401340034003404340134003456
:1003000008346C34043402340034003408346C345F
:100310002534043400340034013402340034083409
:10032000D13414340134013400340834BA34D834AC
:100330000934013400340334003400340834C33445
:100340009834053401340034013402340034083464
:10035000FF34FF3408347134003401340134003484
:1003600008345B342734013400340034043401345D
:10037000003408344A34263401340134003404345F
:10038000003400340834B6346234013402340034AA
:1003900006340134003408342C348A3401340134F6
:1003A00000340834D934D8340134023400340834E9
:1003B000CD3489340534003400340834C434063470
:1003C0000134013400340834DA34D83401340234CE
:1003D00000340834ED3489340134013400340834F5
:1003E000DA34D8340134023400340834ED3489343A
:1003F00001340134003408346334B134013402343C
:10040000003408344C348A34023402340034083462
:10041000FC34263402340034003401340034003417
:10042000043401340034083429340A3401340234E9
:1004300000340434003400340834103415340234E9
:100440000134003408343F3428340234003400349A
:100450000834AD3489340134013400340834633451
:10046000B1340134023400340834ED3489340134B9
:100470000134003408346334B134013402340034BC
:1004800008344C348A3402340234003408348C3456
:10049000283402340034003401340034003404348D
:1004A00001340034083429340A340134023400346D
:1004B0000434003400340834283411340234013454
:1004C0000034083433342A3402340034003408341D
:1004D000AD3489340134013400340834ED348934C6
:1004E0000134023400340834ED34893401340134E9
:1004F00000340834EC3489340134023400340834D4
:100500004C348A340234023400340834EF342C344E
:1005100002340034003408347934083402340134AD
:1005200000340834B7342D34023400340034083435
:100530002334B1340134013400340834ED348934C7
:1005400001340234003408346334B13401340134EA
:1005500000340834ED348934013402340034083472
:100560006334B1340134013400340834EC34893458
:1005700001340234003408346334B13401340134BA
:10058000003408344C348A340234023400340834E1
:100590002C3401340234003400340834AB342F34AA
:1005A00002340234003408342C3401340234003470
:1005B00000340834AB342F340234023400340834AD
:1005C0002C3401340234003400340834DB34273452
:1005D00002340234003408342C3401340234003440
:1005E00000340834DA342734023402340034083456
:1005F000D234233402340134003408344A341934F8
:1006000006340034003402340234003408345C34DC
:1006100047340234013400340134003400340834E7
:1006200010340B34023400340034FE34003400340F
:100630000A34433461347434473465346E34693475
:10064000753473340A340034CD3083120313B70089
:100650008030B8000A168A118D230A128A11003AD6
:100660000319332B342B8C2BCD3083160313E50069
:100670008030E6000030EA000030E9003030E80069
:10068000D430E7000A168A11AA250A128A117218B4
:100690004A2B4B2B642B8316031385146330831270
:1006A0000313BA00BA0B522B552B831203130608FF
:1006B0000839E800FD30BA003A08831603138505AF
:1006C000831203138514692B831203130608083958
:1006D000E8006808600603196E2B6F2B8C2B2C30FA
:1006E00083160313E5008130E6003230840083175F
:1006F0000008E700840A0008E800840A0008E9000E
:10070000840A0008EA000A168A11AA250A128A1128
:10071000831203136808E00083120313060883168C
:100720000313EC006C088312031361068316031392
:10073000EE006C0883120313E100831603136E1C92
:10074000A22BA32BBA2B1030E5008130E600163027
:10075000840083170008E700840A0008E800840A80
:100760000008E900840A0008EA000A168A11AA258E
:100770000A128A1183160313EE1EBF2BC02BD72B30
:100780001E30E5008130E600243084008317000825
:10079000E700840A0008E800840A0008E900840AE7
:1007A0000008EA000A168A11AA250A128A1183167D
:1007B0000313EE1CDC2BDD2BF42B3A30E5008130EB
:1007C000E6004030840083170008E700840A000830
:1007D000E800840A0008E900840A0008EA000A1612
:1007E0008A11AA250A128A11031000300318013059
:1007F00083160313EE000E3083120313AA00831630
:1008000003136E080A168A158C250A128A11103EE7
:1008100083120313B7008130B8000A168A118D23A2
:100820000A128A11003A0319162C172CA42C0E3028
:1008300083120313AA00831603136E080A168A157F
:100840008C250A128A110B3E103E84008317000883
:1008500084008313000883160313ED000E30831207
:100860000313AA00831603136E080A168A158C2533
:100870000A128A110C3E103E84008317000883126E
:100880000313BA003A0883160313ED050E308312E2
:100890000313AA00831603136E080A168A158C2503
:1008A0000A128A110A3E103E84008317000883163C
:1008B00003136D0603195D2C5E2C8E2C6D088312BC
:1008C0000313B9000E30AA00831603136E080A162C
:1008D0008A158C250A128A110D3E103E840083175A
:1008E00000080A168A1500240A128A1183160313B7
:1008F0006D0883120313BA000E30AA008316031387
:100900006E080A168A158C250A128A110A3E103EB4
:100910008400831203133A08831780000E30831279
:10092000AA00831603136E080A168A158C250A126C
:100930008A11103E83120313AB008130AC000A16FB
:100940008A1100200A128A11013083120313BA009F
:100950003A0883160313EE0704306E02031CB12C11
:10096000B22CFB2B0310003003180130EE000B30CB
:1009700083120313AA00831603136E080A168A153E
:100980008C250A128A11903E83120313B70081301E
:10099000B8000A168A118D230A128A11003A031927
:1009A000D22CD32CC32D0B3083120313AA00831631
:1009B00003136E080A168A158C250A128A11063E40
:1009C000903E84008317000883160313EB000B305E
:1009D00083120313AA00831603136E080A168A15DE
:1009E0008C250A128A11903E83160313E50081308C
:1009F000E6000030EA000030E9003D30E800093050
:100A0000E7000A168A11AA250A128A110B308312EE
:100A10000313AA00831603136E080A168A158C2581
:100A20000A128A11073E903E84008317000883163D
:100A300003136B0503191D2D1E2D482D0B3083123A
:100A40000313AA00831603136E080A168A158C2551
:100A50000A128A110A3E903E84008317000883120E
:100A60000313BA000B30AA00831603136E080A168C
:100A70008A158C250A128A11093E903E840083173C
:100A800000088400831203133A0883138004712D35
:100A90000B3083120313AA00831603136E080A1681
:100AA0008A158C250A128A110A3E903E840083170B
:100AB000000983120313BA000B30AA008316031334
:100AC0006E080A168A158C250A128A11093E903E74
:100AD0008400831700088400831203133A088313E9
:100AE00080050B30AA00831603136E080A168A15B8
:100AF0008C250A128A11063E903E8400031083174B
:100B0000800D8008031D852D862DC32D0B3083128B
:100B10000313AA00831603136E080A168A158C2580
:100B20000A128A11063E903E840083178001031446
:100B3000800D0B3083120313AA00831603136E0873
:100B40000A168A158C250A128A11083E903E8400E6
:100B500083178008031DAD2DAE2DC32D03100B3060
:100B600083120313AA00831603136E080A168A154C
:100B70008C250A128A11073E903E8400003003182B
:100B8000013083178000013083120313BA003A0842
:100B900083160313EE0705306E02031CD02DD12DF2
:100BA000B72C080083120313E408031DD82DD92D98
:100BB000ED2DC730B7008030B8000A168A118D239A
:100BC0000A128A11003A0319E62DE72DED2D0130A6
:100BD00083120313B9003908E4070A168A15C924D9
:100BE0000A128A11003A0319F62DF72DC02FF12FA2
:100BF00010300A168A159C240A128A1101308312B9
:100C00000313B9003908E407F12F063083160313E4
:100C1000AD000310003003180130AE000230831223
:100C20000313A000AD300A168A1578270A128A111C
:100C3000FE2D0A168A151F230A128A11FE2DAD30C9
:100C40000A168A15C3250A128A110130831203136A
:100C5000B9003908E407831603132D088312031320
:100C6000B900390883160313AE000E30AD00023010
:100C700083120313A000AD300A168A1578270A12D2
:100C80008A11013083120313B9003908E407F12FE8
:100C9000AD300A168A15C3250A128A110130831253
:100CA0000313B9003908E4078316031307080A166B
:100CB0008A1107210A128A110D300A168A15262771
:100CC0000A128A110A300A168A1526270A128A1170
:100CD0000B3083160313AD0083120313A00103141A
:100CE000A00DAD300A168A1578270A128A11FE2D3A
:100CF000AD300A168A15C3250A128A11F230831202
:100D00000313A4000730A5000A168A11CA210A128B
:100D10008A118316031334080A168A1107210A124E
:100D20008A1120300A168A1526270A128A1183167C
:100D3000031333080A168A1107210A128A11203078
:100D40000A168A1526270A128A11831603133208F7
:100D50000A168A1107210A128A1120300A168A15EA
:100D600026270A128A118316031331080A168A11DC
:100D700007210A128A1120300A168A1526270A121C
:100D80008A118316031330080A168A1107210A12E2
:100D90008A1120300A168A1526270A128A1183160C
:100DA00003132F080A168A1107210A128A1120300C
:100DB0000A168A1526270A128A11831603132E088B
:100DC0000A168A1107210A128A1120300A168A157A
:100DD00026270A128A11831603132D080A168A1170
:100DE00007210A128A110D300A168A1526270A12BF
:100DF0008A110A300A168A1526270A128A11031048
:100E000000300318013083120313D8000130B900F9
:100E10003908E407083083160313AD008312031367
:100E20005808B900390883160313AE000230831244
:100E30000313A000AD300A168A1578270A128A110A
:100E4000FE2DAD300A168A15C3250A128A110B3001
:100E500083120313A4001B30A5000A168A11CA21AD
:100E60000A128A118312031358080A168A110721DD
:100E70000A128A1120300A168A1526270A128A11A8
:100E800020300A168A1526270A128A1183160313A0
:100E900030080A168A1107210A128A1120300A1610
:100EA0008A1526270A128A11831603132F080A1699
:100EB0008A1107210A128A1120300A168A1526275C
:100EC0000A128A11831603132E080A168A110721A3
:100ED0000A128A1120300A168A1526270A128A1148
:100EE000831603132D080A168A1107210A128A1184
:100EF00020300A168A1526270A128A110D300A1682
:100F00008A1526270A128A110A300A168A152627F8
:100F10000A128A11013083120313B9003908D80765
:100F200080305802031C952F962F982FFF30D80041
:100F30005808031D9C2FFE2D0B30E400F12F0030CC
:100F40000A168A159C240A128A110310003003180D
:100F5000013083120313E400C73083160313E50046
:100F60008030E6000030EA000530E900B830E800E3
:100F7000D830E7000A168A11AA250A128A11F12F21
:100F8000831203136408003A0319F12F013A03197D
:100F9000F82D033A0319052E013A0319192E073AC1
:100FA00003191F2E013A03192B2E033A0319192E88
:100FB000013A0319482E0F3A0319542E013A031926
:100FC000192E033A0319782E013A03190A2F073A0A
:100FD0000319192E013A0319212F033A03199F2FE0
:100FE000F12F080055346E3469347134753465342A
:100FF0002034493444343A342034003408000800A2
:10100000F4007408031D05280A28721483160313BC
:10101000851414287210FD30F3007308831603132F
:10102000850583120313851408004D3083120313C2
:10103000B7008030B8000A168A118D230A128A156B
:10104000003A0319242825283F284D308312031322
:10105000AB008030AC000A168A1100200A128A15F3
:10106000F5010314F50D01300A168A15C0260A127F
:101070008A1500300A128A1500200A128A15473094
:1010800083120313B7008030B8000A168A118D232B
:101090000A128A15003A03194E284F286328473050
:1010A00083120313AB008030AC000A168A110020B3
:1010B0000A128A15F5010314F50D05300A168A1572
:1010C000C0260A128A15D93083120313B700803064
:1010D000B8000A168A118D230A128A15003A0319DC
:1010E00072287328AF2800300A168A1565240A1260
:1010F0008A15D93083120313AB008030AC000A1676
:101100008A1100200A128A15AF285408A101A107EC
:101110005308A001A0070A168A15FD240A128A1591
:10112000013083120313B9003908D907C22865308A
:101130000A168A1534240A128A15003A0319A128BE
:10114000A228C22890280A128A15D7220A128A15C4
:10115000C2280A168A1194200A128A15C2288312FC
:1011600003135908003A0319C228013A03198528C4
:10117000033A03199728013A0319A328073A0319D8
:10118000A928C2280800BC29031000300318013028
:10119000DB000130B6003608F7070A307702031C7F
:1011A000D228D328D8280310003003180130F700C4
:1011B0007708013A0319DD28DE28F0287708023A7B
:1011C0000319E328E428F0287708033A0319E928EB
:1011D000EA28F0287708043A031DEF28F028F128C0
:1011E000F1140310003003180130DF000310003049
:1011F00003180130DD0056293B3083160313E50048
:101200008030E6009B30EA007230E900EC30E80004
:101210000030E7000A168A11AA250A128A156429E5
:101220003B3083160313E5008030E6005930EA00B6
:101230009530E9007630E8000030E7000A168A11A0
:10124000AA250A128A1564293B3083160313E50088
:101250008030E600D630EA009330E900A430E800A0
:101260000030E7000A168A11AA250A128A15642995
:101270003B3083160313E5008030E600A030EA001F
:10128000EE30E900BB30E8000030E7000A168A11B2
:10129000AA250A128A1564293B30AB008030AC00C5
:1012A0000A168A1100200A128A1564297708013A61
:1012B0000319FC28033A03191029013A03192429B8
:1012C000073A031938294C29BB300A168A152A25F2
:1012D0000A128A1570110A128A156F240A128A15C9
:1012E000C9290A307A020318762977297A290A301F
:1012F000FA00A32919307A0203187F29802983294B
:101300001930FA00A32932307A0203188829892972
:101310008C293230FA00A3294B307A020318912924
:10132000922995294B30FA00A32964307A020318D8
:101330009A299B299E296430FA00A32903100030C2
:1013400003180130FA00B53083160313E50080302E
:10135000E6000030EA000930E9008930E800683032
:10136000E7000A168A11AA250A128A150A128A1596
:101370006F240A128A15C929831203135B08003AE5
:101380000319C928013A03197129033A0319C92914
:10139000C4280800831203135B08013A031DD129F6
:1013A000D229C92AB530B7008030B8000A168A1190
:1013B0008D230A128A15003A0319DF29E029C92A68
:1013C000831203135C08031DE629E9290230DB00C0
:1013D000EE290310003003180130DB000A128A15D1
:1013E0006F240A128A15C92A03100030031801302D
:1013F000DF003B30B7008030B8000A168A118D2319
:101400000A128A15003A0319062A072AD62A642ADC
:101410003B3083160313E5008030E6009B30EA0082
:101420007230E900EC30E8000030E7000A168A115B
:10143000AA250A128A15722A3B3083160313E50087
:101440008030E6005930EA009530E9007630E80057
:101450000030E7000A168A11AA250A128A15722A94
:101460003B3083160313E5008030E600D630EA00F7
:101470009330E900A430E8000030E7000A168A1132
:10148000AA250A128A15722A3B3083160313E50037
:101490008030E600A030EA00EE30E900BB30E80022
:1014A0000030E7000A168A11AA250A128A15722A44
:1014B0003B3083120313AB008030AC000A168A1154
:1014C00000200A128A15722A7708013A0319082A9D
:1014D000033A03191C2A013A0319302A073A03195F
:1014E000442A582A701D752A762AD62A8312031395
:1014F000DF010314DF0D0A128A156F240A128A1500
:10150000D62AF019842A852AD62ABB30B700803023
:10151000B8000A168A118D230A128A15003A031997
:10152000922A932AD62A0030F11801300A168A1519
:101530005A250A128A15023083120313DF007B2A10
:101540000A168A152E230A128A150038031DA92AA5
:10155000AA2AD62ABB300A168A152A250A128A1503
:101560007011F11CB42AB52ABD2A031000300318EB
:10157000013083120313DD00C32A013083120313E9
:10158000B9003908DD070310003003180130DF000F
:101590007B2A831203135F08003A0319F929013AE1
:1015A0000319812A033A0319A02AF4290800432CBD
:1015B000FF306605B60000306705B700003037021F
:1015C0001330031936020318E62AE72A022BF21811
:1015D000EA2AEB2AEF2AE718EE2AEF2AF72AF21C6A
:1015E000F22AF32A022B671DF62AF72A022B013072
:1015F00083120313D3070318D40A0030D407023030
:10160000D9026E2C0310003003180130D9006E2C63
:1016100066080A168A155A260A128A15F72A6608D3
:101620000A168A1538260A128A15F72AF21C192B6F
:101630001A2BF72A6630840083130008840A0004FA
:101640000319232B242B422BF11B272B282BF72AA2
:1016500001300A128A1500200A128A154D308316AD
:101660000313E5008030E6000130EA000130E900B4
:101670007D30E800F830E7000A168A11AA250A1220
:101680008A15F72A00300A128A1500200A128A15D4
:101690004D3083120313AB008030AC000A168A1160
:1016A00000200A128A15F72AF21C572B582BF72A0A
:1016B00066080A168A1565240A128A15F72AF21C8A
:1016C000622B632BF72A66080A168A1545240A122C
:1016D0008A156630840083130008840A0004031905
:1016E000722B732BF72AF11F762B772B8B2B47301E
:1016F00083160313E5008030E6000030EA002F3047
:10170000E900AF30E8000830E7000A168A11AA2580
:101710000A128A15F72A473083120313AB00803070
:10172000AC000A168A1100200A128A15F72AF21C48
:101730009A2B9B2BF72A66080A168A1555240A123B
:101740008A15F72ADF3083160313E5008030E600A0
:10175000831203136608A4006708A500A601A70169
:101760000030AB000030AA000030A9007D30A80096
:101770000A168A1182210A128A158313831203130F
:10178000270883160313EA0083120313260883161F
:101790000313E90083120313250883160313E800DB
:1017A00083120313240883160313E7000A168A1111
:1017B000AA250A128A15013083120313B6003608CF
:1017C000D9076E2CF21CE52BE62BF72ADB2BF2183F
:1017D000EA2BEB2BF72A6608013EB60067080318D0
:1017E000013E003EB7003608D3070318D40A370875
:1017F000D407FF2AF21CFD2BFE2BF72AEB2BF21C41
:10180000022C032CF72AD93083160313E50080300D
:10181000E60083120313660883160313E70083129E
:101820000313670883160313E800E901EA010A16A7
:101830008A11AA250A128A1501300A168A1565240A
:101840000A128A15F72A4D30AB008030AC000A1618
:101850008A1100200A128A15473083120313AB0045
:101860008030AC000A168A1100200A128A15003056
:1018700083120313D3000030D400022B0030D300B6
:101880000030D4006E2C831203136508003A03194C
:10189000D82A013A0319082B033A03190F2B013AEE
:1018A0000319162B073A0319542B013A03195F2B1E
:1018B000033A0319972B0E3A0319A22B013A031985
:1018C000E22B193A0319E72B013A0319FA2B033AD1
:1018D0000319FF2BEC3A0319232C3E2C0800092E88
:1018E0000310003003180130DB000A307A02031CB9
:1018F0007A2C7B2C872C0310003003180130F50064
:1019000000300A168A15E2260A128A15472DF501BB
:101910000314F50D55300A168A15E2260A128A15A7
:10192000472D0310003003180130F700972C77087B
:10193000013A003003190130F40001300A168A110F
:10194000CD200A128A157708023A003003190130B7
:10195000F40002300A168A11CD200A128A1577087F
:10196000033A003003190130F40003300A168A11DB
:10197000CD200A128A157708043A00300319013085
:10198000F40004300A168A11CD200A128A150310B9
:10199000003003180130F50000300A168A159E2623
:1019A0000A128A15162E7708093A0030031D0130F5
:1019B000F40001300A168A11CD200A128A15770820
:1019C000063A003003190130F40002300A168A1179
:1019D000CD200A128A157708073A00300319013022
:1019E000F40003300A168A11CD200A128A157708EE
:1019F000083A003003190130F40004300A168A1145
:101A0000CD200A128A15F01D062D072D192D8312DF
:101A100003135F08023A03190E2D0F2D192DF5013E
:101A20000314F50D55300A168A159E260A128A15DA
:101A3000162E701D1C2D1D2D3D2D831203135F08C6
:101A4000023A0319242D252D3D2DF11C282D292D79
:101A5000332DF5010314F50DFA300A168A159E266A
:101A60000A128A15162EF5010314F50DFE300A161A
:101A70008A159E260A128A15162EF5010314F50DF5
:101A8000FF300A168A159E260A128A15162E770826
:101A9000003A0319972C013A0319972C033A0319BA
:101AA000972C013A0319972C073A0319972C013AFE
:101AB0000319D32C033A0319D32C013A0319D32C5D
:101AC0000F3A0319D32C013A0319D32C912CF501A9
:101AD0000314F50DFF300A168A15E2260A128A153C
:101AE0000A307A02003003180130F40001300A167F
:101AF0008A11CD200A128A1519307A020030031893
:101B00000130F40002300A168A11CD200A128A151B
:101B100032307A02003003180130F40003300A1624
:101B20008A11CD200A128A154B307A020030031830
:101B30000130F40004300A168A11CD200A128A15E9
:101B400064307A02031CA52DA62DB02DF5010314D7
:101B5000F50DFF300A168A159E260A128A15162ED2
:101B60000310003003180130F50000300A168A1502
:101B70009E260A128A15162EF5010314F50D55300E
:101B80000A168A15C0260A128A1503100030031897
:101B90000130F50000300A168A15E2260A128A156D
:101BA000831203135C08013A003003190130F4007A
:101BB00001300A168A11CD200A128A1583120313E6
:101BC0005C08023A003003190130F40002300A16B2
:101BD0008A11CD200A128A15831203135C08033A76
:101BE000003003190130F40003300A168A11CD20A9
:101BF0000A128A15831203135C08043A0030031991
:101C00000130F40004300A168A11CD200A128A1518
:101C1000162E831203135B08003A0319752C013A40
:101C20000319672D033A0319BC2D702C08000A16FE
:101C30008A1512230A128A15003A0319202E212E22
:101C4000A12FFF2F0A168A1519230A128A150130AF
:101C500083120313A0002008E207FF2F03100030B7
:101C600003180130F50050300A168A1575240A123F
:101C70008A15272E0A168A1532230A128A15003A67
:101C80000319432E442E4B2E00300A168A15C12408
:101C90000A128A15272EF0140A168A1524230A120E
:101CA0008A15031000300318013083120313E20079
:101CB000FF2F0A168A1529230A128A15272EF501E5
:101CC0000314F50D50300A168A1575240A128A1568
:101CD000272E0A168A1532230A128A15003A03198A
:101CE000722E732E7A2E00300A168A15A6240A1236
:101CF0008A15272E72154C2E0A168A1532230A12BF
:101D00008A15003A0319852E862E7A2E0A168A1510
:101D100036230A128A1583160313A0004C2E0310D3
:101D2000003003180130F50050300A168A1575246A
:101D30000A128A15272E0A168A1532230A128A15C4
:101D4000003A0319A42EA52E4B2E00300A168A1530
:101D5000C1240A128A15272E0A168A1532230A125E
:101D60008A15003A0319B52EB62E7A2E8316031360
:101D700020080A168A15C1240A128A15272E0A1667
:101D80008A1532230A128A150038031DC82EC92E5F
:101D90004C2E7A2E0310003003180130F50050301D
:101DA0000A168A1575240A128A15272E0A168A150C
:101DB00032230A128A15003A0319DF2EE02E4B2E29
:101DC00001300A168A15C1240A128A15272EF50138
:101DD0000314F50D50300A168A1575240A128A1557
:101DE000272E0A168A1532230A128A15003A031979
:101DF000FA2EFB2E7A2E01300A168A15A6240A1214
:101E00008A15272E0A168A1536230A128A15F90012
:101E1000F908031D0C2F0D2F122F163083120313F8
:101E2000E200FF2F7908FF3A031D172F182F1A2FF2
:101E300072110D2F09307902031C1F2F202F222F22
:101E40000830F9000310003003180130F800272E85
:101E50007908780203182D2F2E2F472F7808013E7E
:101E6000A000003003180130A1002108803AA20030
:101E700080302202031D3E2F790820020030031C0F
:101E800001300A168A15A6240A128A15272E173041
:101E9000E200FF2F0A168A1536230A128A158312CA
:101EA0000313A0007808A03E84002008831380005C
:101EB0000130A0002008F8070130E202FF2F0030B7
:101EC0000A168A15A6240A128A15272E0310003036
:101ED00003180130F50050300A168A1575240A12CD
:101EE0008A15272E0A168A1532230A128A15003AF5
:101EF00003197B2F7C2F4B2E01300A168A15C12423
:101F00000A128A15272E79080A168A15C1240A1280
:101F10008A15222F7908780203188F2F902F272EE9
:101F20007808A03E8400831300080A168A15C1248D
:101F30000A128A15013083120313A0002008F80743
:101F4000FF2F831203136208003A0319FF2F013A8F
:101F50000319222E033A03192E2E013A03193A2EA1
:101F6000073A0319592E013A03195F2E033A031950
:101F7000692E013A03197C2E0F3A0319222E013AD9
:101F800003198F2E033A03199B2E013A0319AC2E25
:101F9000073A0319BF2E013A0319222E033A0319F7
:101FA000CA2E013A0319D62E1F3A0319592E013AA7
:101FB0000319E72E033A0319F12E013A0319022FF0
:101FC000073A0319282F013A03194A2F033A031934
:101FD0005F2F013A03194C2E0F3A0319222E013AB2
:101FE0000319662F033A0319722F013A0319832F3D
:101FF000073A03198A2F013A03194C2EFF2F0800C4
:10200000831203132B08840083172C1C8313FF30C7
:102010008000840AFF3080002B08023EF5002C0867
:102020000318013E003EF600750884008317761CF5
:102030008313FF308000840AFF308000840AFF3061
:102040008000840AFF30800008000034003400342F
:1020500000340034003401340034003407340234D6
:1020600000340034003400340034003401340034CF
:1020700000340734013400340034003400340034B8
:1020800000340134003400340934043400340034A2
:102090000034003400340034013400340034093496
:1020A000013400340034003400340034003401348E
:1020B0000034003409340234FF34FF34FF34FF3479
:1020C000FF34FF346A3418340034003400340634EA
:1020D00001340434FF34FF34FF34FF34FF34FF3461
:1020E0006A341834003400340034063420340134A7
:1020F000FF34FF34FF34FF34FF34FF349034D034E6
:10210000033400340034683408340A34FF34FF34B4
:10211000FF34FF34FF34FF346A34183400340034A1
:102120000034063402340734C228DF30B700803070
:10213000B8000A168A118D230A168A11003A03196B
:10214000A228A328CC28013083120313D307031835
:10215000D40A0030D4070330D902CC28663084007A
:1021600083130008840A00040319B728B828BD287F
:10217000F11FBB28BC28CC28A328F11BC028C128EC
:10218000CC28A328831203136508083A031995285D
:10219000013A0319AE28A328080083120313A000F4
:1021A000E5280730A2002030A100F3280530A20066
:1021B0000430A100F3280530A2000830A100F32864
:1021C0000530A2002030A100F3282008013A0319AD
:1021D000D128033A0319D628013A0319DB28073A14
:1021E0000319E02806297408031DF728FF28210891
:1021F000F300220884007308831380040629210950
:10220000F3002208840073088313800508008312FA
:102210000313A4002408F50004300310F50CFF3E5E
:10222000031D0D297508A5000A3025020318192978
:102230001A291F293030F5007508A50723293730E2
:10224000F5007508A50725080A168A1526270A1617
:102250008A118312031324080F39A5000A302502BE
:1022600003183329342939293030F5007508A507BA
:102270003D293730F5007508A50725080A168A1587
:1022800026270A168A110800831203130C1C4929F9
:102290004A2950290C100A168A1572250A168A1125
:1022A000831203138C1C552956295C298C100A169D
:1022B0008A15CF270A168A11831203130B1C612972
:1022C000622975290B100608570683160317CC00E0
:1022D0004C1E6B296C2971290A168A1590240A163E
:1022E0008A11831203130608D700831603174B08BD
:1022F000FE004A088A004908840048088300FF0E4F
:102300007F0E0900003083120313A3000030A200E7
:102310000030A1000030A000241C8F299029A7299B
:102320002808A007290803110318013E0319992959
:10233000A1072A0803110318013E0319A029A207C7
:102340002B0803110318013E0319A729A307013025
:10235000F3000310A80DA90DAA0DAB0DF30BA929CD
:1023600001300310A70CA60CA50CA40CFF3E031D06
:10237000B1292708260425042404031DC029C129E6
:102380008C292308A7002208A6002108A500200800
:10239000A40008000A2A2408840025080A168A15C1
:1023A00000230A168A110A168A1526270A168A1188
:1023B000831203132408840025080A168A150023B3
:1023C0000A168A110D3A031DE629E729ED290A307C
:1023D0000A168A1526270A168A118312031324085F
:1023E000840025080A168A1500230A168A110A3A5B
:1023F000031DFB29FC29022A0D300A168A152627FF
:102400000A168A11013083120313A4070318A50AC0
:102410000030A507831203132408840025080A1638
:102420008A1500230A168A110038031D182A192A52
:10243000CB290800831203132408A101A107230854
:10244000A001A0070F08A2002308023EF300240801
:102450000318013E003EF400730884008317741CC7
:1024600083138316031328088000840A2908800038
:10247000840A2A088000840A2B0880008312031330
:102480000E08F300200884008317211C83137308AF
:1024900080000F08F3002008013EF4002108031813
:1024A000013E003EF500740884008317751C8313F9
:1024B000730880002008013EF30021080318013E44
:1024C000003EF400730884008317741C8313000813
:1024D0002206031D6C2A6D2A222A0800F001F10150
:1024E000F201F701F801F9018313533084006930D8
:1024F0000A168A15B9240A168A11A0308400D3302E
:102500000A168A15B9240A168A110A128A1103209A
:102510000A168A11FA005330FD001D30FE001230F9
:10252000FF003B3084000A168A1516240A168A1109
:10253000E530FD001C30FE00D730FF00D3308400B2
:102540000A168A1516240A168A118317C730FD0049
:102550001030FE002530FF00903084000A168A15E6
:1025600016240A168A114830FD001030FE005C3037
:10257000FF00103084000A168A1516240A168A11E4
:1025800083010A168A11282BF500831203135608BB
:10259000A101A1075508A001A0070330A200003047
:1025A000A3000A168A154D270A168A1115308313BF
:1025B0008312031320078400003003180130210721
:1025C0000A168A1500230A168A11A40075088400C9
:1025D0002408831380005608A101A1075508A00113
:1025E000A0070330A2000030A3000A168A154D2769
:1025F0000A168A118313831203132008013EA400D4
:1026000021080318013E003EA50015302407840070
:102610000030031801302507A7000A168A15002389
:102620000A168A11A600840A0319A70A27080A169F
:102630008A1500230A168A11A7007508013E840036
:10264000260883138000840A2708800001300800D0
:102650000A168A1161270A168A110A168A15422556
:102660000A168A11183083120313A4000330A50040
:102670000A168A11CA210A168A110A168A15842492
:102680000A168A110A168A15E9240A168A110A16E8
:102690008A153A230A168A110A128A11FE270A1687
:1026A0008A110A168A1523240A168A110A168A150F
:1026B0003D230A168A110A128A11FF270A168A1167
:1026C0000A168A15D0240A168A110A168A111024AD
:1026D0000A168A110A128A1124230A168A110A126A
:1026E0008A15CA210A168A110A128A1515200A1695
:1026F0008A110A128A11D2250A168A110A128A151B
:1027000017260A168A110A168A1198240A168A119F
:102710006400652B0A128A111228313083120313C8
:10272000A3008030A4000A168A111A220A168A1100
:10273000831203133708023EAB0038080318013E2A
:10274000003EAC002B08840083172C1C8313000868
:10275000AD00840A0008AE00840A0008AF00840AB5
:102760000008B0000230313E84002D0883130006BB
:10277000840F031DC72B2E080006840F031DC72BD3
:102780002F080006840F031DC72B30080006031D09
:10279000CA2BCB2BE42B370884008317381C8313F8
:1027A0000008AB00013084070008AC002C0832029E
:1027B000031DDC2B2B083102031CDF2BE02BE22B4B
:1027C00001300F2C00300F2C3708023EAB003808C8
:1027D0000318013E003EAC002B08840083172C1C1C
:1027E00083130008AD00840A0008AE00840A0008C4
:1027F000AF00840A0008B00036083002031D0A2C1E
:1028000035082F02031D0A2C34082E02031D0A2C42
:1028100033082D0203180D2C0E2CE22BE02B0800A0
:10282000711A132C142C492CC13083120313B700D6
:102830008030B8000A168A118D230A168A11003AD0
:102840000319232C242C492CC13083160313E500D3
:102850008030E6000030EA000030E9003030E80067
:10286000D430E7000A168A11AA250A168A11F01335
:10287000711654308316031392007D3083120313B4
:1028800092002A3095001F3097008C108316031396
:102890008C14701B4C2C4E2C01304F2C00308312AA
:1028A0000313B900F01A552C572C0130582C003066
:1028B000390603195C2C5D2C742CD330831603135A
:1028C000E5008030E6000030EA000030E900923098
:1028D000E8007C30E7000A168A11AA250A168A1138
:1028E0007013F01E742C7017D33083120313B700CB
:1028F0008030B8000A168A118D230A168A11003A10
:102900000319832C842C972C0030F01A01300A16FE
:102910008A1121250A168A11D33083120313AB00C2
:102920008030AC000A168A1100200A168A110800AD
:102930008316031311081F3983120313A000A1018A
:102940000310831603131419031400300318013005
:10295000831203132004A2002108A30023082204E9
:102960000319B32CB42CF72C202D83160313111448
:1029700001308312A0002008E307202D031000304F
:102980000318013083120313E300202D8316031371
:102990009114B82C5A089300B82C701483160313A2
:1029A000111FD32C7010BE2C831603139115B82C55
:1029B0001308DA00B82C0130F3000030F400701C6A
:1029C000E22CE32CE72C0030F3000030F400731805
:1029D000EA2CEE2C831603139116F12C83160313A5
:1029E00091121116B82C831603131115B82C630815
:1029F000003A0319202D013A0319B52C033A0319A3
:102A0000BE2C013A0319C62C073A0319BE2C013A11
:102A10000319CA2C033A0319CD2C013A0319D42CFB
:102A20000F3A0319D82C013A0319DB2C033A031986
:102A3000BE2C013A0319F32C073A0319BE2C202DA2
:102A4000080083120313B600F011361C282DF01570
:102A5000831203133608031D2E2D2F2D7015701DA4
:102A6000322D332D462DBB3083160313E500803005
:102A7000E6000130EA00C930E900C330E8008030E8
:102A8000E7000A168A11AA250A168A117708053A5C
:102A900003194B2D4C2D642D7708063A0319512D3F
:102AA000522D642D7708073A0319572D582D642DA0
:102AB0007708083A03195D2D5E2D642D7708093AD1
:102AC000031D632D642DA92D701D672D682DA42D68
:102AD00083120313DF08031D6E2D6F2DA42D8E2D81
:102AE000F1149F2DDD08031D762D782DF114792D1D
:102AF000F1109F2D02305D0203187F2D812DF114FE
:102B0000822DF1109F2D03305D020318882D8A2D30
:102B1000F1148B2DF1109F2DF1109F2D7708053AA0
:102B20000319702D033A0319722D013A03197A2DF6
:102B30000F3A0319832D013A03198C2D9F2D83120F
:102B40000313DF010314DF0D0A128A156F240A161E
:102B50008A11080083160313660883120313B50154
:102B6000B50783160313650883120313B401B40772
:102B700083160313660883120313A401A4078316A4
:102B80000313650883120313A301A3070A168A110E
:102B90001A220A168A11831603136A086904680444
:102BA0006704031DD42DD52DD62D382E8312031383
:102BB000340884008317351C83130008B000840A8E
:102BC0000008B100840A0008B200840A0008B300BB
:102BD000340884008317351C831383160313670896
:102BE0008007840A68080318013E031D8007840AD1
:102BF00069080318013E031D8007840A6A08031848
:102C0000013E800783120313340884008317351CA8
:102C100083130008AC00840A0008AD00840A000891
:102C2000AE00840A0008AF002F083302031D222ED5
:102C30002E083202031D222E2D083102031D222EE2
:102C40002C083002031C252E262E382E3408043E74
:102C5000AC0035080318013E003EAD002C0884008E
:102C600083172D1C831301308007840A0318800A00
:102C7000080083120313B908031D3F2E402E732E44
:102C8000F116413083160313E5008030E600003072
:102C9000EA000330E900D030E8009030E7000A167F
:102CA0008A11AA250A168A11711F572E582E592EDD
:102CB000F11571195C2E5D2E692E0310003003187A
:102CC0000130F50001300A168A157C260A168A1191
:102CD000CC2EF5010314F50D55300A168A1504277C
:102CE0000A168A11CC2EF112F119772E782EA02E09
:102CF000711D7B2E7C2E862EF5010314F50DFF3001
:102D00000A168A1504270A168A11CC2E4130B700FC
:102D10008030B8000A168A118D230A168A11003AEB
:102D20000319932E942E9A2E0A168A153C230A16FE
:102D30008A11CC2E0A128A15C3200A168A11CC2EAB
:102D4000711BA32EA42ECC2E4130B7008030B800CA
:102D50000A168A118D230A168A11003A0319B12E18
:102D6000B22EB82E0A168A15A7250A168A11CB2E5E
:102D7000711DBB2EBC2EC62EF5010314F50DFF30C0
:102D80000A168A1504270A168A11CB2E0A168A15E6
:102D90001A260A168A11F111080083120313B908C2
:102DA000031DD32ED42E072F711741308316031322
:102DB000E5008030E6000030EA000330E900D03062
:102DC000E8009030E7000A168A11AA250A168A112F
:102DD000F11EEB2EEC2EED2EF1157119F02EF12EC9
:102DE000FD2E0310003003180130F50001300A16E3
:102DF0008A157C260A168A11602FF5010314F50D39
:102E000055300A168A1504270A168A11602F711385
:102E1000F1190B2F0C2F342F711D0F2F102F1A2F7C
:102E2000F5010314F50DFF300A168A1504270A165A
:102E30008A11602F4130B7008030B8000A168A111D
:102E40008D230A168A11003A0319272F282F2E2FB7
:102E50000A168A15E0250A168A11602F0A168A15A5
:102E6000FD250A168A11602FF11A372F382F602F8F
:102E70004130B7008030B8000A168A118D230A1637
:102E80008A11003A0319452F462F4C2F0A168A152E
:102E9000A7250A168A115F2F711D4F2F502F5A2F09
:102EA000F5010314F50DFF300A168A1504270A16DA
:102EB0008A115F2F0A168A151A260A168A11F1112D
:102EC0000800113083160313850003100030031827
:102ED00001308312031385000730831603139F000C
:102EE000831203138514FB3083160313860003102B
:102EF0000030031801308312031386008316031376
:102F00008113831203130B108B1506152330E10078
:102F10009830831603138700031000300318013024
:102F20008312031387000310003003180130831647
:102F3000031388000130831203138800031000304C
:102F4000031801308316031389000310003003189F
:102F5000013083120313890003100030031801307D
:102F6000AC000E30AA002C080A168A158C250A1609
:102F70008A110C3E103E840083170008831203134D
:102F8000AB000E30AA002C080A168A158C250A16EA
:102F90008A110B3E103E84008317000884008313BF
:102FA0000008831203132B05F5000E30AA002C082D
:102FB0000A168A158C250A168A110A3E103E8400CC
:102FC0007508831780000130F5007508831203131C
:102FD000AC0704302C02031CEE2FEF2FB12F03108F
:102FE000003003180130AC000618F72FF82FF92F26
:102FF0002C14861AFC2FFD2FFE2FAC142C08080071
:10360000FE00FE1F082B83137E1883170008080096
:103610008A000408820042346C346F3463346B34A3
:1036200020340034003083120313E308031D0130FB
:10363000080083120313E3010314E30D08000D30A7
:1036400083120313E20008000B3083120313E3001C
:103650000800033083120313E300080083120313EE
:103660005908080000307018013008008312031355
:0C3670005A0808000800080008000800C4
:10380000FE001C308A007E08820700000A168A111A
:10381000392E0A168A11CD2E0A168A153B2B0A1646
:103820008A15A32F7E088A007F08820012240A16B8
:103830008A158000840A04087D0603190034FF0AF3
:103840000319FE0A162C54308316031392007D30A0
:103850008312031392002A3095001F3097008C10BA
:10386000831603138C14080083120313A8003F2C43
:1038700028080A168A11C4220A168A15442C5E08E2
:10388000003A0319382C382C0800F4007408031D82
:103890004A2C4E2C831203138814542CFD30F30051
:1038A00073088312031388050800F4007408031DCD
:1038B0005A2C5E2C831203130815642CFB30F30082
:1038C00073088312031388050800F4007408031DAD
:1038D0006A2C6E2C831203138815742CF730F300B6
:1038E00073088312031388050800F4007408F300BA
:1038F000730783120313DA007508031D802C812CD3
:103900005A140530E3000800831203139010901638
:103910001016901110111014831603130C140800C4
:10392000711E932C942C9B2C83120313061A992C32
:103930009A2C9B2CF0170800F300730883160313CE
:10394000A000083083120313E2000800F300701097
:10395000731CAB2C7014073083120313E3000800B0
:10396000740883120313D601D6077308D501D5074F
:10397000080064008001840A040603190034040668
:10398000BA2CF300730883120313DA000530E30046
:103990000800003083120313E208031D0130080001
:1039A000831203130608D7000B178B170800FF3488
:1039B000FF34FF34FF34FF34FF34FF34FF34FF346F
:1039C000FF34FF34FF34FF34FF34FF34FF34FF345F
:1039D000FF343830831203139400031000300318AF
:1039E00001308316031391000A30930014179417C3
:1039F000831203138C138D1108000A2D2108F40182
:103A0000F4072008F301F3070A168A15B0240A16F2
:103A10008A15112D831203135E08003A0319FE2C38
:103A2000112D0800FF34FF34FF34FF34FF34FF341E
:103A3000FF34FF34FF34FF34FF34FF34FF34FF34EE
:103A4000FF34FF34FF34FF34FF34FF34FF34FF34DE
:103A5000FF34FF34F30073088400003083138000C8
:103A6000840A003080007308023E84000030800029
:103A7000840A00308000840A00308000840A00300C
:103A8000800008000C3083160313990018151812D3
:103A900083120313981718169812831603130C1227
:103AA0008C1218138312031318138316031398121E
:103AB00098160800F4008312031354085304031DDE
:103AC000622D632D712DF210741C672DF2140030DD
:103AD00083120313D3000030D4000130F3007308C5
:103AE000D9070800013083160313A807003003111B
:103AF0000318013E03197D2DA90700300311031897
:103B0000013E0319842DAA07003003110318013E5A
:103B100003198B2DAB07080083120313A9000310B0
:103B2000003003180130A800291C972D982D9C2DDA
:103B30002A08F4007408A8070310AA0D0310A90CA2
:103B4000A908031DA42DA52D942D280808000430D4
:103B5000F106711DAC2DAD2DB72DF5010314F50D3A
:103B6000FF300A168A1504270A168A15C22D03107B
:103B7000003003180130F50000300A168A150427BA
:103B80000A168A150800F4000310003003180130EB
:103B9000F500D92D7508A03E840083130008F300BA
:103BA000750874078400730880000130F3007308FF
:103BB000F50779087502031CDE2DDF2DCA2D0800DC
:103BC0000A168A152E230A168A150038031DE92DB8
:103BD000EA2DFC2DF1140030F11801300A168A1577
:103BE0005A250A168A15023083120313DF000A12BF
:103BF0008A156F240A168A1508000A168A152E23BC
:103C00000A168A150038031D062E072E192EF110EC
:103C10000030F11801300A168A155A250A168A153D
:103C2000023083120313DF000A128A156F240A166A
:103C30008A15080083120313DB010314DB0DB53072
:103C400083160313E5008030E6000030EA000930F7
:103C5000E9008930E8006830E7000A168A11AA25D1
:103C60000A168A150A128A156F240A168A15080080
:103C7000F4004E2E3F30F3007308831203138805BF
:103C8000592EBF30F3007308831203138805881779
:103C9000592E8312031308178817592E7408003AF7
:103CA00003193A2E013A0319492E033A0319412EFA
:103CB0003A2E0800F400702ECF30F3007308831200
:103CC000031388057B2E83120313081688167B2E98
:103CD000EF30F300730883120313880588167B2ED8
:103CE0007408003A03195C2E013A0319632E033A53
:103CF0000319682E5C2E0800F4007508031D812E40
:103D0000902E8316031717087406031D882E892E1C
:103D1000902E18087506031D8E2E8F2E902E9D2E28
:103D20008316031796010314960D7408F3007308A5
:103D300097007508F300730898000800F4007508F0
:103D4000031DA32EB22E8316031743087406031D0A
:103D5000AA2EAB2EB22E44087506031DB02EB12E2E
:103D6000B22EBF2E83160317C2010314C20D7408AE
:103D7000F3007308C3007508F3007308C40008005B
:103D8000F4007508031DC52ED42E831603172208D0
:103D90007406031DCC2ECD2ED42E23087506031DCC
:103DA000D22ED32ED42EE12E83160317A101031495
:103DB000A10D7408F3007308A2007508F3007308DE
:103DC000A3000800F4007508031DE72EF62E8316E5
:103DD000031738087406031DEE2EEF2EF62E390851
:103DE0007506031DF42EF52EF62E032F83160317EA
:103DF000B7010314B70D7408F3007308B800750811
:103E0000F3007308B9000800F4007508031D092FBA
:103E1000182F831603172D087406031D102F112F5A
:103E2000182F2E087506031D162F172F182F252F54
:103E300083160317AC010314AC0D7408F300730868
:103E4000AD007508F3007308AE000800F4003F2FC2
:103E5000981C2B2F2C2F342F83160313981298168F
:103E60008312031318121816181D372F382F3E2FE0
:103E70001A0883160313AC00981298166400831274
:103E800003130C1E442F452F282F74089900C730A8
:103E9000F300F30B492F4C2F08000030F3000030E3
:103EA000F40083120313201C562F572F5D2F220876
:103EB000F3070318F40A2308F40701300310A20DD6
:103EC000A30DFF3E031D5E2F01300310A10CA00CBB
:103ED000FF3E031D652F21082004031D702F712F45
:103EE000512F7408A101A1077308A001A0070800C1
:103EF000F4000930831203132002031C802F812F4A
:103F0000832F0830A0000310003003180130F500A3
:103F1000982F75087407840083130008F300750850
:103F2000A03E8400730880000130F3007308F50799
:103F300020087502031C9D2F9E2F892F2008F90051
:103F40001830E2000800831203133908003A0319FD
:103F5000AA2FAC2FF117AD2FF113F11FB02FB12FF6
:103F6000C32F00300A128A1500200A168A154D3018
:103F700083120313AB008030AC000A168A110020B4
:103F80000A168A15CE2F473083120313AB008030F8
:103F9000AC000A168A1100200A168A150800711E44
:103FA000D22FD32FFF2F71120310003003180130CE
:103FB000831603139200031000300318013083129C
:103FC000031392000310003003180130950083168C
:103FD00003138C10831203138C1012110310003082
:103FE000031801309700FB3083160317C7004708FA
:103FF000831203138705F012F01FFF2FF01608003D
:02400E00751E1D
:00000001FF
