:100000000A128A1112280800FF000308831603173A
:10001000C8000408C9000A08CA007E08CB000A16F6
:100020008A11ED280A168A11132A00341234063474
:100030000134023400340234013400340834A13471
:1000400033340234003400340834DD3446340134AF
:1000500001340034083439341834013402340034A3
:100060000234013400340834853416340234023446
:1000700000340834143402340234003400340834B8
:10008000763462340234023400340834AF34293414
:100090000234013400340834CA34193402340234CE
:1000A0000034083434344334023401340034083426
:1000B0009F34313402340034003408345D34123457
:1000C0000234013400340834C3342B340234023493
:1000D0000034083414340234023400340034083458
:1000E000763462340234023400340834AF342934B4
:1000F0000234013400340834C9341934023402346F
:1001000000340834AD344E34013401340034023448
:1001100001340034083409345534023402340034D4
:100120000834A43403340234003400341034B834B6
:10013000003408344C342F34013402340034023497
:10014000013400340834C0340C3402340234003436
:1001500008341434023402340034003408348E3449
:100160005E3402340234003408344B34293402340F
:10017000013400340834CA341934023402340034EF
:100180000334013400340834F5344234013401348A
:10019000003402340034003408345034493402341A
:1001A00001340034083476346234023402340034CA
:1001B00008346C340434023400340034093401341B
:1001C000003403340034003408345E34F834053429
:1001D0000134003408347634623405340034003499
:1001E0000834FF34FF340834C7342734053401346D
:1001F0000034083476346234053400340034083472
:100200000A3420340534013400340834763462343E
:1002100005340034003408340A3420340534013401
:1002200000340834FF34FF340834513400340534CA
:100230000034003403340134003408347A34D834C0
:1002400001340234003404340134003408342934D5
:100250000A340434003400340134013400340934E5
:10026000013400340334003400340834E234AB3455
:1002700005340134003408347634623405340034F3
:1002800000340834FF34FF340834C73427340534CD
:100290000134003408348E345E34053400340034C4
:1002A00008340A34203405340134003408348E34E0
:1002B0005E3405340034003408340A342034053404
:1002C000013400340834FF34FF340834C734273491
:1002D00005340034003403340134003408349E34CF
:1002E00063340234013400340834D53452340234D7
:1002F0000234003401340034003404340134003456
:1003000008346C34043402340034003408346C345F
:100310002534043400340034013402340034083409
:10032000D13414340134013400340834BA34D834AC
:100330000934013400340334003400340834C33445
:100340009834053401340034013402340034083464
:10035000FF34FF3408347134003401340134003484
:1003600008345B342734013400340034043401345D
:10037000003408344A34263401340134003404345F
:10038000003400340834B6346234013402340034AA
:1003900006340134003408342C348A3401340134F6
:1003A00000340834D934D8340134023400340834E9
:1003B000CD3489340534003400340834C434063470
:1003C0000134013400340834DA34D83401340234CE
:1003D00000340834ED3489340134013400340834F5
:1003E000DA34D8340134023400340834ED3489343A
:1003F00001340134003408346334B134013402343C
:10040000003408344C348A34023402340034083462
:10041000FC34263402340034003401340034003417
:10042000043401340034083429340A3401340234E9
:1004300000340434003400340834103415340234E9
:100440000134003408343F3428340234003400349A
:100450000834AD3489340134013400340834633451
:10046000B1340134023400340834ED3489340134B9
:100470000134003408346334B134013402340034BC
:1004800008344C348A3402340234003408348C3456
:10049000283402340034003401340034003404348D
:1004A00001340034083429340A340134023400346D
:1004B0000434003400340834283411340234013454
:1004C0000034083433342A3402340034003408341D
:1004D000AD3489340134013400340834ED348934C6
:1004E0000134023400340834ED34893401340134E9
:1004F00000340834EC3489340134023400340834D4
:100500004C348A340234023400340834EF342C344E
:1005100002340034003408347934083402340134AD
:1005200000340834B7342D34023400340034083435
:100530002334B1340134013400340834ED348934C7
:1005400001340234003408346334B13401340134EA
:1005500000340834ED348934013402340034083472
:100560006334B1340134013400340834EC34893458
:1005700001340234003408346334B13401340134BA
:10058000003408344C348A340234023400340834E1
:100590002C3401340234003400340834AB342F34AA
:1005A00002340234003408342C3401340234003470
:1005B00000340834AB342F340234023400340834AD
:1005C0002C3401340234003400340834DB34273452
:1005D00002340234003408342C3401340234003440
:1005E00000340834DA342734023402340034083456
:1005F000D234233402340134003408344A341934F8
:1006000006340034003402340234003408345C34DC
:1006100047340234013400340134003400340834E7
:1006200010340B34023400340034FE34003400340F
:100630000A34433461347434473465346E34693475
:10064000753473340A340034C03083160313E40065
:100650008030E5000A168A113B260A128A11003AF8
:100660000319332B342B8A2BC03083160313E40079
:100670008030E5000030E9000030E8003030E7006D
:10068000D430E6000A168A11AC250A128A11F11B31
:100690004A2B4B2B612B8316031385146330831273
:1006A0000313DA00DA0B522B552B831203130608BF
:1006B0000839C100FD30DA005A0883160313850596
:1006C000662B8312031306080839C1008312410800
:1006D000310603196C2B6D2B8A2B2C3083160313D8
:1006E000E4008130E5003230840083170008E60022
:1006F000840A0008E700840A0008E800840A000869
:10070000E9000A168A11AC250A128A118312031312
:100710004108B10083120313060883160313EB008C
:100720006B0883120313320683160313ED006B0864
:1007300083120313B200831603136D1CA02BA12B8D
:10074000B82B1030E4008130E500163084008317A8
:100750000008E600840A0008E700840A0008E800B0
:10076000840A0008E9000A168A11AC250A128A11C7
:1007700083160313ED1EBD2BBE2BD52B1E30E400BC
:100780008130E5002430840083170008E600840AE5
:100790000008E700840A0008E800840A0008E9006D
:1007A0000A168A11AC250A128A1183160313ED1C4E
:1007B000DA2BDB2BF22B3A30E4008130E5004030BD
:1007C000840083170008E600840A0008E700840A12
:1007D0000008E800840A0008E9000A168A11AC251E
:1007E0000A128A1103100030031801308316031314
:1007F000ED000E3083120313CC00831603136D0833
:100800000A168A1594250A128A11103E83160313BC
:10081000E4008130E5000A168A113B260A128A118B
:10082000003A0319142C152CA22C0E30831203133A
:10083000CC00831603136D080A168A1594250A1234
:100840008A110B3E103E8400831700088400831336
:10085000000883160313EC000E3083120313CC0040
:10086000831603136D080A168A1594250A128A1135
:100870000C3E103E84008317000883120313DA0035
:100880005A0883160313EC050E3083120313CC00B1
:10089000831603136D080A168A1594250A128A1105
:1008A0000A3E103E840083170008831603136C066B
:1008B00003195B2C5C2C8C2C6C0883120313D9005D
:1008C0000E30CC00831603136D080A168A15942582
:1008D0000A128A110D3E103E8400831700080A1682
:1008E0008A1500250A128A11831603136C088312D5
:1008F0000313DA000E30CC00831603136D080A16BA
:100900008A1594250A128A110A3E103E8400831229
:1009100003135A08831780000E308312CC0083160D
:1009200003136D080A168A1594250A128A11103EBF
:1009300083120313CD008130CE000A168A152D27AD
:100940000A128A11013083120313DA005A0883163F
:100950000313ED0704306D02031CAF2CB02CF92BF0
:100960000310003003180130ED000B308312031325
:10097000CC00831603136D080A168A1594250A12F3
:100980008A11903E83160313E4008130E5000A16B5
:100990008A113B260A128A11003A0319D02CD12C55
:1009A000C12D0B3083120313CC00831603136D0883
:1009B0000A168A1594250A128A11063E903E840072
:1009C0008317000883160313EA000B308312031306
:1009D000CC00831603136D080A168A1594250A1293
:1009E0008A11903E83160313E4008130E500003045
:1009F000E9000030E8003D30E7000930E6000A1663
:100A00008A11AC250A128A110B3083120313CC0011
:100A1000831603136D080A168A1594250A128A1183
:100A2000073E903E840083170008831603136A056F
:100A300003191B2D1C2D462D0B3083120313CC00E4
:100A4000831603136D080A168A1594250A128A1153
:100A50000A3E903E84008317000883120313DA00D5
:100A60000B30CC00831603136D080A168A159425E3
:100A70000A128A11093E903E840083170008840000
:100A8000831203135A08831380046F2D0B308312D3
:100A90000313CC00831603136D080A168A159425D8
:100AA0000A128A110A3E903E8400831700098312BD
:100AB0000313DA000B30CC00831603136D080A16FB
:100AC0008A1594250A128A11093E903E84008317E4
:100AD00000088400831203135A08831380050B3027
:100AE000CC00831603136D080A168A1594250A1282
:100AF0008A11063E903E840003108317800D800803
:100B0000031D832D842DC12D0B3083120313CC00C4
:100B1000831603136D080A168A1594250A128A1182
:100B2000063E903E8400831780010314800D0B3035
:100B300083120313CC00831603136D080A168A155B
:100B400094250A128A11083E903E8400831780087B
:100B5000031DAB2DAC2DC12D03100B3083120313DD
:100B6000CC00831603136D080A168A1594250A1201
:100B70008A11073E903E840000300318013083172D
:100B80008000013083120313DA005A08831603131E
:100B9000ED0705306D02031CCE2DCF2DB52C0800BE
:100BA00083120313B508031DD62DD72DED2DBA30B2
:100BB00083160313E4008030E5000A168A113B26F1
:100BC0000A128A11003A0319E62DE72DED2D0130A6
:100BD00083120313D9005908B5070A168A152F2462
:100BE0000A128A11003A0319F62DF72DAA2FDB2FCE
:100BF00010300A168A1515240A128A110130831240
:100C00000313D9005908B507DB2F0630B6000310CF
:100C1000003003180130B7000230C20036300A1627
:100C20008A1579270A128A11FE2D0A168A15FB23C6
:100C30000A128A11FE2D36300A168A1542260A1229
:100C40008A11013083120313D9005908B5073608F9
:100C5000D9005908B7000E30B6000230C200363055
:100C60000A168A1579270A128A1101308312031392
:100C7000D9005908B507DB2F36300A168A154226E7
:100C80000A128A11013083120313D9005908B507DB
:100C90008316031307080A168A11B0200A128A1154
:100CA0000D300A168A1552270A128A110A300A16BE
:100CB0008A1552270A128A110B3083120313B600C9
:100CC000C2010314C20D36300A168A1579270A129A
:100CD0008A11FE2D36300A168A1542260A128A110A
:100CE000823083120313C6001C30C7000A168A1113
:100CF00073210A128A11831203133D080A168A11FE
:100D0000B0200A128A1120300A168A1552270A12B8
:100D10008A11831203133C080A168A11B0200A12A2
:100D20008A1120300A168A1552270A128A11831254
:100D300003133B080A168A11B0200A128A112030C8
:100D40000A168A1552270A128A11831203133A08C7
:100D50000A168A11B0200A128A1120300A168A1542
:100D600052270A128A118312031339080A168A11AC
:100D7000B0200A128A1120300A168A1552270A1248
:100D80008A118312031338080A168A11B0200A1236
:100D90008A1120300A168A1552270A128A118312E4
:100DA000031337080A168A11B0200A128A1120305C
:100DB0000A168A1552270A128A118312031336085B
:100DC0000A168A11B0200A128A110D300A168A15E5
:100DD00052270A128A110A300A168A1552270A1255
:100DE0008A11031000300318013083120313A50089
:100DF0000130D9005908B5070830B6002508D900D8
:100E00005908B7000230C20036300A168A15792711
:100E10000A128A11FE2D36300A168A1542260A1247
:100E20008A11363083120313C6001C30C7000A161D
:100E30008A1173210A128A118312031325080A16D4
:100E40008A11B0200A128A1120300A168A155227F8
:100E50000A128A1120300A168A1552270A128A119C
:100E60008312031339080A168A11B0200A128A1154
:100E700020300A168A1552270A128A118312031388
:100E800038080A168A11B0200A128A1120300A1670
:100E90008A1552270A128A118312031337080A1679
:100EA0008A11B0200A128A1120300A168A15522798
:100EB0000A128A118312031336080A168A11B02007
:100EC0000A128A1120300A168A1552270A128A112C
:100ED0000D300A168A1552270A128A110A300A168C
:100EE0008A1552270A128A11013083120313D9007E
:100EF0005908A50780302502031C7F2F802F822FE1
:100F0000FF30A5002508031D862FFE2D0B30B500F0
:100F1000DB2F00300A168A1515240A128A110310D5
:100F200000300318013083120313B500BA30831662
:100F30000313E4008030E5000030E9000530E800EC
:100F4000B830E700D830E6000A168A11AC250A123C
:100F50008A11DB2F831203133508003A0319DB2FA4
:100F6000013A0319F82D033A0319052E013A031922
:100F7000152E073A03191B2E013A0319272E033A9F
:100F80000319152E013A03193C2E0F3A0319482E66
:100F9000013A0319152E033A03196A2E013A03196F
:100FA000FC2E073A0319152E013A03190B2F033AA9
:100FB0000319892FDB2F0800F4007508031DE12FAA
:100FC000F02F831603172D087406031DE82FE92F51
:100FD000F02F2E087506031DEE2FEF2FF02FFD2F9B
:100FE00083160317AC010314AC0D7408F3007308E7
:100FF000AD007508F3007308AE0008000800080093
:1010000008006434F40083120313A608031D0928A2
:101010000A2815287408F90003100030031801305D
:10102000A6000130F3007308A707080011308316EB
:1010300003138500031000300318013083120313DB
:1010400085000730831603139F0083120313851452
:10105000FB308316031386000310003003180130A1
:101060008312031386008316031381138312031361
:101070000B108B1506152330B2009830831603131E
:101080008700031000300318013083120313870018
:101090000310003003180130831603138800013059
:1010A00083120313880003100030031801308316E5
:1010B0000313890003100030031801308312031357
:1010C00089000310003003180130CE000E30CC0030
:1010D0004E080A168A1594250A128A150C3E103EEF
:1010E00084008317000883120313CD000E30CC0058
:1010F0004E080A168A1594250A128A150B3E103ED0
:1011000084008317000884008313000883120313EC
:101110004D05F5000E30CC004E080A168A159425B0
:101120000A128A150A3E103E840075088317800053
:101130000130F500750883120313CE0704304E0208
:10114000031CA328A42866280310003003180130CC
:10115000CE000618AC28AD28AE284E14861AB12849
:10116000B228B328CE144E080800B229031000306C
:1011700003180130F800013083120313D800580817
:10118000F7070A307702031CC628C728CC280310AB
:10119000003003180130F7007708013A0319D1280D
:1011A000D228E4287708023A0319D728D828E42857
:1011B0007708033A0319DD28DE28E4287708043A83
:1011C000031DE328E428E528F11403100030031878
:1011D0000130B0000310003003180130AD004A297F
:1011E0005C3083160313E4008030E5009B30E90097
:1011F0007230E800EC30E7000030E6000A168A1191
:10120000AC250A128A1558295C3083160313E400B2
:101210008030E5005930E9009530E8007630E7008D
:101220000030E6000A168A11AC250A128A155829E0
:101230005C3083160313E4008030E500D630E9000B
:101240009330E800A430E7000030E6000A168A1167
:10125000AC250A128A1558295C3083160313E40062
:101260008030E500A030E900EE30E800BB30E70058
:101270000030E6000A168A11AC250A128A15582990
:101280005C30CD008030CE000A168A152D270A1258
:101290008A1558297708013A0319F028033A0319E7
:1012A0000429013A03191829073A03192C2940295E
:1012B000AE300A168A1562250A128A15701178084E
:1012C0000A128A1560240A128A15BD290A307A0288
:1012D00003186B296C296F290A30FA0098291930F4
:1012E0007A0203187429752978291930FA00982987
:1012F00032307A0203187D297E2981293230FA00A2
:1013000098294B307A020318862987298A294B307D
:10131000FA00982964307A0203188F2990299329BA
:101320006430FA0098290310003003180130FA00E5
:10133000A83083160313E4008030E5000030E90094
:101340000930E8008930E7006830E6000A168A11A3
:10135000AC250A128A1578080A128A1560240A1226
:101360008A15BD297808003A0319BB28013A0319E8
:101370006629033A0319BD29B62808007808013AFE
:10138000031DC329C429C92AA83083160313E40006
:101390008030E5000A168A113B260A128A15003AA7
:1013A0000319D329D429C92A831203132B08031D37
:1013B000DA29DD290230F800E22903100030031891
:1013C0000130F80078080A128A1560240A128A157A
:1013D000C92A0310003003180130B0005C308316B6
:1013E0000313E4008030E5000A168A113B260A1236
:1013F0008A15003A0319FD29FE29D62A5B2A5C309A
:1014000083160313E4008030E5009B30E90072305E
:10141000E800EC30E7000030E6000A168A11AC253F
:101420000A128A15692A5C3083160313E40080309F
:10143000E5005930E9009530E8007630E7000030EB
:10144000E6000A168A11AC250A128A15692A5C3050
:1014500083160313E4008030E500D630E9009330B2
:10146000E800A430E7000030E6000A168A11AC2537
:101470000A128A15692A5C3083160313E40080304F
:10148000E500A030E900EE30E800BB30E7000030B6
:10149000E6000A168A11AC250A128A15692A5C3000
:1014A00083120313CD008030CE000A168A152D2733
:1014B0000A128A15692A7708013A0319FF29033AA3
:1014C0000319132A013A0319272A073A03193B2A59
:1014D0004F2A701D6C2A6D2AD62A83120313B0017D
:1014E0000314B00D78080A128A1560240A128A15AE
:1014F000D62AF0197C2A7D2AD62AAE308316031309
:10150000E4008030E5000A168A113B260A128A158B
:10151000003A03198C2A8D2AD62A0030F11801309E
:101520000A128A1502200A128A1502308312031346
:10153000B00078080A128A1560240A128A15D62A81
:101540000A168A15EA230A128A150038031DA92AE9
:10155000AA2AD62AAE300A168A1562250A128A15D8
:101560007011F11CB42AB52ABD2A031000300318EB
:10157000013083120313AD00C32A01308312031319
:10158000D9005908AD070310003003180130B0002E
:10159000D62A831203133008003A0319EE29013AC0
:1015A0000319792A033A0319A02AE9290800342CDF
:1015B000FF303F05D80000304005D9000030590207
:1015C0001330031958020318E62AE72AFF2AF908FC
:1015D000031DEB2AEC2AF02AC018EF2AF02AF82A79
:1015E0007908031DF42AFF2A401DF72AF82AFF2A4A
:1015F0000130D8005808A6070230A7025F2C03105C
:10160000003003180130A7005F2C3F080A168A1526
:10161000E9260A128A15013083120313D8005808EC
:10162000A6070230A7025F2C3F080A168A150B276F
:101630000A128A150B2B7908031D1F2B0B2B3F0851
:101640000A168A1512250A128A153F308400831360
:101650000008840A000403192E2B2F2B432BD830AB
:1016600083160313E4008030E5000130E900013007
:10167000E8007D30E700F830E6000A168A11AC2554
:101680000A128A150B2BD83083120313CD00803039
:10169000CE000A168A152D270A128A150B2B7908F7
:1016A000031D532B0B2B3F080A168A15AD240A1273
:1016B0008A150B2B7908031D5E2B0B2B3F080A168E
:1016C0008A15BD240A128A153F308400831300084E
:1016D000840A000403196D2B6E2B822BD2308316E3
:1016E0000313E4008030E5000030E9002F30E8000B
:1016F000AF30E7000830E6000A168A11AC250A125E
:101700008A150B2BD23083120313CD008030CE000C
:101710000A168A152D270A128A150B2B7908031D24
:10172000922B0B2B3F080A168A159D240A128A1544
:101730000B2BDE3083160313E4008030E5008312A8
:1017400003133F08C6004008C700C801C9010030A4
:10175000CD000030CC000030CB007D30CA000A162E
:101760008A112B210A128A15831383120313490845
:1017700083160313E9008312031348088316031327
:10178000E80083120313470883160313E70083124C
:101790000313460883160313E6000A168A11AC25C4
:1017A0000A128A15013083120313D8005808A707BC
:1017B0005F2C7908031DDD2BF82AD22BF908031DB5
:1017C000E22BE32B0B2B3F08013ED8005808A6075D
:1017D000112B7908031DED2B0B2BE32B7908031D2F
:1017E000F22B0B2BCC3083160313E4008030E50082
:1017F000831203133F0883160313E60083120313B7
:10180000400883160313E700E801E9010A168A116C
:10181000AC250A128A1501300A168A15AD240A125F
:101820008A150B2BD830CD008030CE000A168A15D1
:101830002D270A128A15D23083120313CD0080306F
:10184000CE000A168A152D270A128A1503100030B9
:101850000318013083120313A600FF2A031000307F
:1018600003180130A6005F2C831203133E08003AD0
:101870000319D82A013A0319052B033A0319142B2B
:10188000013A03191B2B073A03194F2B013A03198D
:101890005A2B033A03198E2B0E3A0319992B013A4E
:1018A0000319D92B193A0319DE2B013A0319E92B35
:1018B000033A0319EE2BEC3A0319122C2E2C0800D4
:1018C00083120313C500450878060319682C692C98
:1018D000092E142E0310003003180130F8000310F5
:1018E000003003180130F50000300A168A15612611
:1018F0000A128A150A307A02031C7F2C802C8C2C49
:101900000310003003180130F50000300A168A1564
:10191000A5260A128A153C2DF5010314F50D553044
:101920000A168A15A5260A128A153C2D03100030C6
:1019300003180130F7009C2C7708013A0030031996
:101940000130F40001300A168A1176200A128A1535
:101950007708023A003003190130F40002300A1609
:101960008A1176200A128A157708033A0030031983
:101970000130F40003300A168A1176200A128A1503
:101980007708043A003003190130F40004300A16D5
:101990008A1176200A128A150310003003180130CC
:1019A000F50000300A168A1583260A128A15142EAD
:1019B0007708093A0030031D0130F40001300A169F
:1019C0008A1176200A128A157708063A0030031920
:1019D0000130F40002300A168A1176200A128A15A4
:1019E0007708073A003003190130F40003300A1673
:1019F0008A1176200A128A157708083A00300319EE
:101A00000130F40004300A168A1176200A128A1571
:101A1000F01D0B2D0C2D162DF5010314F50D553071
:101A20000A168A1583260A128A15142E701D192D7E
:101A30001A2D322DF11C1D2D1E2D282DF5010314FC
:101A4000F50DFA300A168A1583260A128A15142E05
:101A5000F5010314F50DFE300A168A1583260A12C5
:101A60008A15142EF5010314F50DFF300A168A1598
:101A700083260A128A15142E7708003A03199C2C23
:101A8000013A03199C2C033A03199C2C013A0319BF
:101A90009C2C073A03199C2C013A0319D82C033AC1
:101AA0000319D82C013A0319D82C0F3A0319D82C52
:101AB000013A0319D82C962C03100030031801307A
:101AC000F50000300A168A1561260A128A15F501FA
:101AD0000314F50DFF300A168A15A5260A128A1579
:101AE0000A307A02003003180130F40001300A167F
:101AF0008A1176200A128A1519307A0200300318EA
:101B00000130F40002300A168A1176200A128A1572
:101B100032307A02003003180130F40003300A1624
:101B20008A1176200A128A154B307A020030031887
:101B30000130F40004300A168A1176200A128A1540
:101B400064307A02031CA52DA62DB02DF5010314D7
:101B5000F50DFF300A168A1583260A128A15142EEF
:101B60000310003003180130F50000300A168A1502
:101B700083260A128A15142EF5010314F50D55302B
:101B80000A168A1561260A128A15031000300318F6
:101B90000130F50000300A168A15A5260A128A15AA
:101BA000831203132B08013A003003190130F400AB
:101BB00001300A168A1176200A128A15831203133D
:101BC0002B08023A003003190130F40002300A16E3
:101BD0008A1176200A128A15831203132B08033AFE
:101BE000003003190130F40003300A168A11762000
:101BF0000A128A15831203132B08043A00300319C2
:101C00000130F40004300A168A1176200A128A156F
:101C1000142E7808003A03196F2C013A03195C2D31
:101C2000033A0319BC2D6A2C08000A168A153D24B4
:101C30000A128A15003A03191E2E1F2EA12FFF2FFC
:101C40000A168A1550240A128A15013083120313CA
:101C5000C2004208B307FF2F031000300318013001
:101C6000F50050300A168A158E240A128A15252E80
:101C70000A168A15EE230A128A15003A0319412E14
:101C8000422E492E00300A168A1527240A128A1578
:101C9000252EF0140A168A15F6230A128A15031047
:101CA00000300318013083120313B300FF2F0A160C
:101CB0008A1556240A128A15252EF5010314F50DEE
:101CC00050300A168A158E240A128A15252E0A16F5
:101CD0008A15EE230A128A15003A0319702E712E06
:101CE000782E00300A168A150B240A128A15252E22
:101CF00072144A2E0A168A15EE230A128A15003A21
:101D00000319832E842E782E0A168A15F2230A12BE
:101D10008A1583160313A0004A2E031000300318FF
:101D20000130F50050300A168A158E240A128A15E1
:101D3000252E0A168A15EE230A128A15003A03196F
:101D4000A22EA32E492E00300A168A1527240A1225
:101D50008A15252E0A168A15EE230A128A15003ACC
:101D60000319B32EB42E782E8316031320080A16F7
:101D70008A1527240A128A15252E0A168A15EE239B
:101D80000A128A150038031DC62EC72E4A2E782E39
:101D90000310003003180130F50050300A168A1580
:101DA0008E240A128A15252E0A168A15EE230A1287
:101DB0008A15003A0319DD2EDE2E492E01300A164F
:101DC0008A1527240A128A15252EF5010314F50D0C
:101DD00050300A168A158E240A128A15252E0A16E4
:101DE0008A15EE230A128A15003A0319F82EF92EE5
:101DF000782E01300A168A150B240A128A15252E10
:101E00000A168A15F2230A128A1583120313AE00EA
:101E1000AE08031D0C2F0D2F102F1630B300FF2F0F
:101E20002E08FF3A031D152F162F182F72100D2F95
:101E300009302E02031C1D2F1E2F202F0830AE004C
:101E4000031000300318013083120313AC00252E59
:101E50002E082C0203182D2F2E2F472F2C08013E61
:101E6000C200003003180130C3004308803AC400A8
:101E700080304402031D3E2F2E0842020030031C16
:101E800001300A168A150B240A128A15252E1730DE
:101E9000B300FF2F0A168A15F2230A128A1583123D
:101EA0000313C2002C08A03E840042088313800064
:101EB0000130C2004208AC070130B302FF2F0030EE
:101EC0000A168A150B240A128A15252E03100030D3
:101ED00003180130F50050300A168A158E240A12B4
:101EE0008A15252E0A168A15EE230A128A15003A3B
:101EF00003197B2F7C2F492E01300A168A152724BF
:101F00000A128A15252E2E080A168A1527240A1267
:101F10008A15202F2E082C0203188F2F902F252E84
:101F20002C08A03E8400831300080A168A15272473
:101F30000A128A15013083120313C2004208AC074B
:101F4000FF2F831203133308003A0319FF2F013ABE
:101F50000319202E033A03192C2E013A0319382EA7
:101F6000073A0319572E013A03195D2E033A031954
:101F7000672E013A03197A2E0F3A0319202E013ADF
:101F800003198D2E033A0319992E013A0319AA2E2B
:101F9000073A0319BD2E013A0319202E033A0319FB
:101FA000C82E013A0319D42E1F3A0319572E013AAD
:101FB0000319E52E033A0319EF2E013A0319002FF6
:101FC000073A0319282F013A03194A2F033A031934
:101FD0005F2F013A03194A2E0F3A0319202E013AB6
:101FE0000319662F033A0319722F013A0319832F3D
:101FF000073A03198A2F013A03194A2EFF2F0800C6
:10200000831203130608A4000B178B170800003473
:10201000003400340034003400340134003400341F
:102020000734023400340034003400340034003407
:1020300001340034003407340134003400340034F7
:1020400000340034003401340034003409340434E2
:1020500000340034003400340034003401340034DF
:1020600000340934013400340034003400340034C6
:10207000003401340034003409340234FF34FF34B6
:10208000FF34FF34FF34FF346A3418340034003432
:102090000034063401340A34FF34FF34FF34FF3493
:1020A000FF34FF346A34183400340034003406340A
:1020B00020340134FF34FF34FF34FF34FF34FF3465
:1020C0009034D034033400340034413408340734BD
:1020D000FF34FF34FF34FF34FF34FF346A341834E4
:1020E0000034003400340634023404348312031301
:1020F000C2008E280730C4002030C3009C28053061
:10210000C4000430C3009C280530C4000830C3005C
:102110009C280530C4002030C3009C284208013AA6
:1021200003197A28033A03197F28013A03198428EE
:10213000073A03198928AF287408031DA028A82886
:102140004308F30044088400730883138004AF2815
:102150004309F300440884007308831380050800D2
:1021600083120313C6004608F50004300310F50C73
:10217000FF3E031DB6287508C7000A304702031842
:10218000C228C328C8283030F5007508C707CC28F6
:102190003730F5007508C70747080A168A15522711
:1021A0000A168A118312031346080F39C7000A3032
:1021B00047020318DC28DD28E2283030F5007508D6
:1021C000C707E6283730F5007508C70747080A161D
:1021D0008A1552270A168A110800831203130C1C51
:1021E000F228F328F9280C100A168A157A250A16FF
:1021F0008A11831203138C1CFE28FF2805298C10DA
:102200000A168A15CF270A168A11831203130B1C8C
:102210000A290B291E290B1006082406831603170A
:10222000CC004C1E142915291A290A168A156A246D
:102230000A168A11831203130608A40083160317D3
:102240004B08FE004A088A004908840048088300B9
:10225000FF0E7F0E0900003083120313C50000300B
:10226000C4000030C3000030C200461C38293929A0
:1022700050294A08C2074B0803110318013E0319ED
:102280004229C3074C0803110318013E03194929C9
:10229000C4074D0803110318013E03195029C5074F
:1022A0000130F3000310CA0DCB0DCC0DCD0DF30B97
:1022B000522901300310C90CC80CC70CC60CFF3ED4
:1022C000031D5A294908480447044604031D692987
:1022D0006A2935294508C9004408C8004308C700D1
:1022E0004208C6000800B3294608840047080A16B9
:1022F0008A1500240A168A110A168A1552270A1608
:102300008A11831203134608840047080A168A15A7
:1023100000240A168A110D3A031D8F299029962947
:102320000A300A168A1552270A168A1183120313D5
:102330004608840047080A168A1500240A168A11DE
:102340000A3A031DA429A529AB290D300A168A15BE
:1023500052270A168A11013083120313C607031885
:10236000C70A0030C70783120313460884004708D2
:102370000A168A1500240A168A110038031DC1297D
:10238000C22974290800831203134608C301C30736
:102390004508C201C2070F08C4004508023EF30009
:1023A00046080318013E003EF400730884008317BA
:1023B000741C831320088000840A21088000840A8A
:1023C00022088000840A230880000E08F3004208D7
:1023D00084008317431C8313730880000F08F300E5
:1023E0004208013EF40043080318013E003EF50098
:1023F000740884008317751C8313730880004208D7
:10240000013EF30043080318013E003EF400730848
:1024100084008317741C831300084406031D112ACB
:10242000122ACB290800F001F101F201F701F801AD
:10243000F90183132030840042300A168A151F24C4
:102440000A168A11A0308400C6300A168A151F2485
:102450000A168A110A128A1501200A168A11FA0030
:102460006830FD001C30FE005E30FF005C308400F0
:102470000A168A1528250A168A11E430FD001E3036
:10248000FE002430FF00C63084000A168A15282575
:102490000A168A118317C730FD001030FE0007307E
:1024A000FF00903084000A168A1528250A168A1122
:1024B0004830FD001030FE003E30FF001030840038
:1024C0000A168A1528250A168A1183010A168A1106
:1024D000CC2AC12ADE3083160313E4008030E500E5
:1024E0000A168A113B260A168A11003A0319792A1C
:1024F0007A2ACB2A013083120313D9005908A60780
:102500000330A702CB2A3F30840083130008840ADB
:10251000000403198C2A8D2AAB2A0A168A15442432
:102520000A168A11003A0319962A972ACB2AD8301C
:1025300083120313CD008030CE000A168A152D2792
:102540000A168A11013083120313D9005908A6070D
:102550000330A702CB2A0A168A1544240A168A11C8
:102560000038031DB42AB52ACB2AD23083120313B4
:10257000CD008030CE000A168A152D270A168A1142
:10258000A22A831203133E08083A03196A2A013A61
:102590000319832A7A2A08000A128A1516200A16B5
:1025A0008A110A168A154A250A168A1118308312CA
:1025B0000313C6000330C7000A168A1173210A16D6
:1025C0008A110A168A1576240A168A110A168A159D
:1025D00036250A168A110A168A1535250A168A1111
:1025E0000A128A1103200A168A110A168A15CD24A6
:1025F0000A168A110A128A11FE270A168A110A1669
:102600008A155C240A168A110A168A1100200A16F5
:102610008A110A168A1111240A168A110A128A11BD
:1026200024230A168A110A128A15BE210A168A1153
:102630000A168A1196230A168A110A128A11D025BF
:102640000A168A110A128A1515260A168A110A16FE
:102650008A1199240A168A11092B0A128A11122842
:10266000F500831203132808C600C7014608C200FC
:102670004708C3000330C4000030C5000A168A159D
:10268000A4270A168A1115308313831203134207F5
:10269000840000300318013043070A168A1500240D
:1026A0000A168A11C8007508840048088313800040
:1026B0002808C600C7014608C2004708C300033007
:1026C000C4000030C5000A168A15A4270A168A110C
:1026D0008313831203134208013EC8004308031802
:1026E000013E003EC9001530480784000030031841
:1026F00001304907CB000A168A1500240A168A11F0
:10270000CA00840A0319CB0A4B080A168A1500244A
:102710000A168A11CB007508013E84004A0883130B
:102720008000840A4B08800001300800D8308316EE
:102730000313E4008030E5000A168A113B260A16CE
:102740008A11003A0319A52BA62BA62BD23083168B
:102750000313E4008030E5000A168A113B260A16AE
:102760008A11003A0319B52BB62BB62BCC30831641
:102770000313E4008030E5000A168A113B260A168E
:102780008A11003A0319C52BC62BFD2B00300A16FF
:102790008A15AD240A168A11CC3083120313CD009A
:1027A0008030CE000A168A152D270A168A11FD2BB5
:1027B00026080A168A15DE240A168A1101308312A9
:1027C0000313DA005A08A707102C3E300A168A15A0
:1027D000EF240A168A11003A0319EF2BF02B102C64
:1027E000DE2B0A128A15D7220A168A11102C0A1615
:1027F0008A1169220A168A11102C831203132708E2
:10280000003A0319102C013A0319D82B033A031983
:10281000E52B013A0319F12B073A0319F72B102C7A
:102820000800711A142C152C4A2CB430831603138B
:10283000E4008030E5000A168A113B260A168A1148
:10284000003A0319242C252C4A2CB4308316031388
:10285000E4008030E5000030E9000030E80030306E
:10286000E700D430E6000A168A11AC250A168A1150
:10287000F013711654308316031392007D308312C7
:10288000031392002A3095001F3097008C10831696
:1028900003138C14701B4D2C4F2C0130502C003026
:1028A00083120313D900F01A562C582C0130592CDE
:1028B0000030590603195D2C5E2C752CC63083162A
:1028C0000313E4008030E5000030E9000030E80048
:1028D0009230E7007C30E6000A168A11AC250A1611
:1028E0008A117013F01E752C7017C63083160313EF
:1028F000E4008030E5000A168A113B260A168A1188
:10290000003A0319842C852C982C0030F01A0130E1
:102910000A168A1122250A168A11C6308312031359
:10292000CD008030CE000A168A152D270A168A118E
:1029300008008316031311081F3983120313C20002
:10294000C301031083160313141903140030031872
:102950000130831203134204C4004308C500450834
:1029600044040319B42CB52CF82C212D8316031321
:10297000111401308312C2004208B407212D031044
:1029800000300318013083120313B400212D831685
:1029900003139114B92C29089300B92C70148316D1
:1029A0000313111FD42C7010BF2C83160313911521
:1029B000B92C1308A900B92C0130F3000030F40041
:1029C000701CE32CE42CE82C0030F3000030F40001
:1029D0007318EB2CEF2C831603139116F22C83162D
:1029E000031391121116B92C831603131115B92C68
:1029F0003408003A0319212D013A0319B62C033A81
:102A00000319BF2C013A0319C72C073A0319BF2C2D
:102A1000013A0319CB2C033A0319CE2C013A0319BE
:102A2000D52C0F3A0319D92C013A0319DC2C033A9F
:102A30000319BF2C013A0319F42C073A0319BF2CD0
:102A4000212D080083120313D800F011581C292DE2
:102A5000F015831203135808031D2F2D302D701508
:102A6000701D332D342D472DAE3083160313E40033
:102A70008030E5000130E900C930E800C330E700EC
:102A80008030E6000A168A11AC250A168A117708EA
:102A9000053A03194C2D4D2D652D7708063A03197B
:102AA000522D532D652D7708073A0319582D592DAE
:102AB000652D7708083A03195E2D5F2D652D77087F
:102AC000093A031D642D652DAB2D701D682D692DF0
:102AD000A52D83120313B008031D6F2D702DA52D96
:102AE0008F2DF114A02DAD08031D772D792DF11434
:102AF0007A2DF110A02D02302D020318802D822D89
:102B0000F114832DF110A02D03302D020318892D0F
:102B10008B2DF1148C2DF110A02DF110A02D770824
:102B2000053A0319712D033A0319732D013A03195C
:102B30007B2D0F3A0319842D013A03198D2DA02DF9
:102B400083120313B0010314B00D78080A128A151A
:102B500060240A168A11080083160313650883127D
:102B60000313D701D70783160313640883120313D3
:102B7000D601D60783160313650883120313C60113
:102B8000C60783160313640883120313C501C50720
:102B90000A168A11C3210A168A11831603136908BB
:102BA000680467046604031DD62DD72DD82D3A2E50
:102BB00083120313560884008317571C83130008DD
:102BC000D200840A0008D300840A0008D400840AD2
:102BD0000008D500560884008317571C83138316FA
:102BE000031366088007840A67080318013E031D63
:102BF0008007840A68080318013E031D8007840AC1
:102C000069080318013E80078312031356088400E5
:102C10008317571C83130008CE00840A0008CF00D6
:102C2000840A0008D000840A0008D1005108550227
:102C3000031D242E50085402031D242E4F08530256
:102C4000031D242E4E085202031C272E282E3A2E36
:102C50005608043ECE0057080318013E003ECF0040
:102C60004E08840083174F1C831301308007840AA9
:102C70000318800A0800533083120313C500803004
:102C8000C6000A168A11C3210A168A118316031375
:102C90006408023E83120313CD00831603136508F4
:102CA0000318013E003E83120313CE004D0884003A
:102CB00083174E1C83130008CF00840A0008D0003D
:102CC000840A0008D100840A0008D2000230533E72
:102CD00084004F0883130006840F031D7B2E5008C9
:102CE0000006840F031D7B2E51080006840F031D70
:102CF0007B2E52080006031D7E2E7F2E9C2E8316EF
:102D00000313640884008317651C8313000883126F
:102D10000313CD00013084070008CE004E08540292
:102D2000031D942E4D085302031C972E982E9A2EA5
:102D30000130CF2E0030CF2E831603136408023EDD
:102D400083120313CD008316031365080318013E95
:102D5000003E83120313CE004D08840083174E1CDF
:102D600083130008CF00840A0008D000840A0008FA
:102D7000D100840A0008D20058085202031DCA2E4E
:102D800057085102031DCA2E56085002031DCA2EB1
:102D900055084F020318CD2ECE2E9A2E982E0800DD
:102DA00083120313D908031DD62ED72E0A2F7117AD
:102DB000623083160313E4008030E5000030E90040
:102DC0000330E800D030E7009030E6000A168A11A0
:102DD000AC250A168A11F11EEE2EEF2EF02EF115FB
:102DE0007119F32EF42E002F031000300318013058
:102DF000F50001300A168A15C7260A168A11672FB0
:102E0000F5010314F50D55300A128A11DC270A1654
:102E10008A11672F7113F1190E2F0F2F392F711D82
:102E2000122F132F1D2FF5010314F50DFF300A1279
:102E30008A11DC270A168A11672F62308316031362
:102E4000E4008030E5000A168A113B260A168A1132
:102E5000003A03192C2F2D2F332F0A168A15E82537
:102E60000A168A11672F0A168A1506260A168A116B
:102E7000672FF11A3C2F3D2F672F62308316031303
:102E8000E4008030E5000A168A113B260A168A11F2
:102E9000003A03194C2F4D2F532F0A168A15AF25D0
:102EA0000A168A11662F711D562F572F612FF501B3
:102EB0000314F50DFF300A128A11DC270A168A1155
:102EC000662F0A168A15CB250A168A11F1110800F9
:102ED00083120313D908031D6E2F6F2FA22FF11633
:102EE000623083160313E4008030E5000030E9000F
:102EF0000330E800D030E7009030E6000A168A116F
:102F0000AC250A168A11711F862F872F882FF1157D
:102F100071198B2F8C2F982F03100030031801305C
:102F2000F50001300A168A15C7260A168A11FF2FE6
:102F3000F5010314F50D55300A128A11DC270A1623
:102F40008A11FF2FF112F119A62FA72FD12F711D72
:102F5000AA2FAB2FB52FF5010314F50DFF300A1280
:102F60008A11DC270A168A11FF2F62308316031399
:102F7000E4008030E5000A168A113B260A168A1101
:102F8000003A0319C42FC52FCB2F0A128A11FF272D
:102F90000A168A11FF2F0A128A15B5200A168A11FD
:102FA000FF2F711BD42FD52FFF2F623083160313F1
:102FB000E4008030E5000A168A113B260A168A11C1
:102FC000003A0319E42FE52FEB2F0A168A15AF25D7
:102FD0000A168A11FE2F711DEE2FEF2FF92FF50122
:102FE0000314F50DFF300A128A11DC270A168A1124
:102FF000FE2F0A168A15CB250A168A11F111080030
:1037D4008312031327080800003070180130080012
:1037E40083120313290808000B3083120313B40057
:1037F40008000D3083120313B3000800FE00FE1FFF
:10380400082C83137E188317000808008A00040814
:103814008200F3007010731C102C70140730831294
:103824000313B4000800F300730883160313A00005
:10383400083083120313B300080064008001840A73
:103844000406031900340406202CF30073088312C1
:103854000313A9000530B4000800003083120313D9
:10386400B308031D0130080042346C346F346334F0
:103874006B3420340034003083120313B408031D66
:1038840001300800003083120313C11D0130080009
:10389400F300730883120313A800080083120313B0
:1038A400B4010314B40D0800033083120313B400ED
:0638B400080008000800F6
:1038BC00FF34FF34FF34FF34FF34FF34FF34FF3464
:1038CC00FF34FF34FF34FF34711E6D2C6E2C752CBD
:1038DC0083120313061A732C742C752CF017080022
:1038EC0083120313901090161016901110111014CF
:1038FC00831603130C14080055346E346934713478
:10390C00753465342034493444343A34203400342A
:10391C00F4007408F300730783120313A9007508ED
:10392C00031D992C9A2C29140530B4000800F400BE
:10393C007408031DA22CA62C831203130815AC2C9F
:10394C00FB30F30073088312031388050800F4009E
:10395C007408031DB22CB62C831203138815BC2CCF
:10396C00F730F30073088312031388050800F40082
:10397C007408031DC22CC62C831203138814CC2C80
:10398C00FD30F300730883120313880508005430CC
:10399C008316031392007D308312031392002A3096
:1039AC0095001F3097008C10831603138C1408009D
:1039BC00F400E72C74080A168A154A240A168A158C
:1039CC00EE2C831203132F08003A0319E02CEE2C73
:1039DC00080083120313CC00FA2C4C080A168A1127
:1039EC0030230A168A15FF2C2F08003A0319F32CE2
:1039FC00F32C0800FE001D308A007E0882070000B0
:103A0C000A168A11682F0A128A1500280A168A15B6
:103A1C005B2C0A168A11D02EF4007408031D172D86
:103A2C001C2DF117831603138514232DF113FD3070
:103A3C00F300730883160313850508007E088A00BB
:103A4C007F08820024250A168A158000840A04083F
:103A5C007D0603190034FF0A0319FE0A282D0800FD
:103A6C003830831203139400031000300318013014
:103A7C008316031391000A309300141794178312C2
:103A8C0003138C138D1108000C308316031399004B
:103A9C0018151812831203139817181698128316F8
:103AAC0003130C128C12181383120313181383169E
:103ABC000313981298160800F30073088400003062
:103ACC0083138000840A003080007308023E840057
:103ADC0000308000840A00308000840A00308000AE
:103AEC00840A003080000800013083120313A00701
:103AFC00003003110318013E0319852DA107003076
:103B0C0003110318013E03198C2DA2070030031179
:103B1C000318013E0319932DA30708008312031306
:103B2C00CB000310003003180130CA004B1C9F2D32
:103B3C00A02DA42D4C08F4007408CA070310CC0D5A
:103B4C000310CB0CCB08031DAC2DAD2D9C2D4A08BE
:103B5C0008000430F106711DB42DB52DBF2DF501F3
:103B6C000314F50DFF300A128A11DC270A168A1588
:103B7C00CA2D0310003003180130F50000300A1272
:103B8C008A11DC270A168A150800F8010314F80DAF
:103B9C00A83083160313E4008030E5000030E90000
:103BAC000930E8008930E7006830E6000A168A110F
:103BBC00AC250A168A1578080A128A1560240A168A
:103BCC008A1508000A168A15EA230A168A1500387F
:103BDC00031DF12DF22D052EF1140030F1180130DA
:103BEC000A128A1502200A168A1502308312031350
:103BFC00B00078080A128A1560240A168A15080083
:103C0C000A168A15EA230A168A150038031D0F2E88
:103C1C00102E232EF1100030F11801300A128A15E3
:103C2C0002200A168A15023083120313B00078089A
:103C3C000A128A1560240A168A150800FF34FF340C
:103C4C00FF34FF34FF34FF34FF34FF34FF34FF34D0
:103C5C00FF34FF34FF34FF34FF34FF34FF34FF34C0
:103C6C00FF34FF34FF34FF34FF34FF34FF34FF34B0
:103C7C00FF34FF34FF34FF34F4000310003003181A
:103C8C000130F500582E7508A03E840083130008FF
:103C9C00F300750874078400730880000130F3008A
:103CAC007308F507831203132E087502031C5F2E8D
:103CBC00602E492E0800F4007508031D662E752E23
:103CCC008316031722087406031D6D2E6E2E752E97
:103CDC0023087506031D732E742E752E822E8316E3
:103CEC000317A1010314A10D7408F3007308A200BB
:103CFC007508F3007308A3000800F4007508031D91
:103D0C00882E972E8316031743087406031D8F2ED7
:103D1C00902E972E44087506031D952E962E972EE1
:103D2C00A42E83160317C2010314C20D7408F300EA
:103D3C007308C3007508F3007308C4000800F4008E
:103D4C007508031DAA2EB92E83160317380874069E
:103D5C00031DB12EB22EB92E39087506031DB72ED0
:103D6C00B82EB92EC62E83160317B7010314B70D40
:103D7C007408F3007308B8007508F3007308B900F1
:103D8C000800F4007508031DCC2EDB2E83160317D8
:103D9C0017087406031DD32ED42EDB2E18087506B7
:103DAC00031DD92EDA2EDB2EE82E8316031796016F
:103DBC000314960D7408F300730897007508F3004C
:103DCC00730898000800F400FF2ECF30F30073083E
:103DDC008312031388050A2F8312031308168816FF
:103DEC000A2FEF30F300730883120313880588162B
:103DFC000A2F7408003A0319EB2E013A0319F22E1C
:103E0C00033A0319F72EEB2E0800F400212F3F3054
:103E1C00F30073088312031388052C2FBF30F300B3
:103E2C00730883120313880588172C2F831203132E
:103E3C00081788172C2F7408003A03190D2F013A14
:103E4C0003191C2F033A0319142F0D2F080083128A
:103E5C0003134D08840083174E1C8313FF3080001E
:103E6C00840AFF3080004D08023EF5004E0803180E
:103E7C00013E003EF600750884008317761C831300
:103E8C00FF308000840AFF308000840AFF308000FD
:103E9C00840AFF3080000800F4006B2F981C572F09
:103EAC00582F602F8316031398129816831203133E
:103EBC0018121816181D632F642F6A2F1A08AA00DF
:103ECC0083160313981298166400831203130C1EA6
:103EDC00702F712F542F74089900C730F300F30B17
:103EEC00752F782F0800F400093083120313420257
:103EFC00031C812F822F842F0830C2000310003046
:103F0C0003180130F500992F75087407840083138A
:103F1C000008F3007508A03E84007308800001308F
:103F2C00F3007308F50742087502031C9E2F9F2FA0
:103F3C008A2F4208AE001830B30008000030F3009E
:103F4C000030F40083120313421CAD2FAE2FB42F9C
:103F5C004408F3070318F40A4508F407013003106A
:103F6C00C40DC50DFF3E031DB52F01300310C30C4E
:103F7C00C20CFF3E031DBC2F43084204031DC72F78
:103F8C00C82FA82F7408C301C3077308C201C20746
:103F9C000800711ED22FD32FFF2F71120310003087
:103FAC00031801308316031392000310003003181A
:103FBC0001308312031392000310003003180130F8
:103FCC009500831603138C10831203138C1012119B
:103FDC0003100030031801309700FB3083160317D1
:103FEC00C7004708831203138705F012F01FFF2F39
:043FFC00F0160800B3
:02400E00713708
:00000001FF
